{
  "contractName": "RenewableEnergyToken",
  "abi": [
    {
      "inputs": [],
      "stateMutability": "nonpayable",
      "type": "constructor"
    },
    {
      "anonymous": false,
      "inputs": [
        {
          "indexed": true,
          "internalType": "address",
          "name": "owner",
          "type": "address"
        },
        {
          "indexed": true,
          "internalType": "address",
          "name": "approved",
          "type": "address"
        },
        {
          "indexed": true,
          "internalType": "uint256",
          "name": "tokenId",
          "type": "uint256"
        }
      ],
      "name": "Approval",
      "type": "event"
    },
    {
      "anonymous": false,
      "inputs": [
        {
          "indexed": true,
          "internalType": "address",
          "name": "owner",
          "type": "address"
        },
        {
          "indexed": true,
          "internalType": "address",
          "name": "operator",
          "type": "address"
        },
        {
          "indexed": false,
          "internalType": "bool",
          "name": "approved",
          "type": "bool"
        }
      ],
      "name": "ApprovalForAll",
      "type": "event"
    },
    {
      "anonymous": false,
      "inputs": [
        {
          "indexed": true,
          "internalType": "address",
          "name": "from",
          "type": "address"
        },
        {
          "indexed": true,
          "internalType": "address",
          "name": "to",
          "type": "address"
        },
        {
          "indexed": true,
          "internalType": "uint256",
          "name": "tokenId",
          "type": "uint256"
        }
      ],
      "name": "Transfer",
      "type": "event"
    },
    {
      "inputs": [
        {
          "internalType": "uint256",
          "name": "",
          "type": "uint256"
        }
      ],
      "name": "assetApprovals",
      "outputs": [
        {
          "internalType": "address",
          "name": "",
          "type": "address"
        }
      ],
      "stateMutability": "view",
      "type": "function",
      "constant": true
    },
    {
      "inputs": [
        {
          "internalType": "address",
          "name": "owner",
          "type": "address"
        },
        {
          "internalType": "address",
          "name": "operator",
          "type": "address"
        }
      ],
      "name": "isApprovedForAll",
      "outputs": [
        {
          "internalType": "bool",
          "name": "",
          "type": "bool"
        }
      ],
      "stateMutability": "view",
      "type": "function",
      "constant": true
    },
    {
      "inputs": [],
      "name": "name",
      "outputs": [
        {
          "internalType": "string",
          "name": "",
          "type": "string"
        }
      ],
      "stateMutability": "view",
      "type": "function",
      "constant": true
    },
    {
      "inputs": [],
      "name": "owner",
      "outputs": [
        {
          "internalType": "address",
          "name": "",
          "type": "address"
        }
      ],
      "stateMutability": "view",
      "type": "function",
      "constant": true
    },
    {
      "inputs": [],
      "name": "recCount",
      "outputs": [
        {
          "internalType": "uint256",
          "name": "",
          "type": "uint256"
        }
      ],
      "stateMutability": "view",
      "type": "function",
      "constant": true
    },
    {
      "inputs": [
        {
          "internalType": "uint256",
          "name": "",
          "type": "uint256"
        }
      ],
      "name": "recs",
      "outputs": [
        {
          "internalType": "uint256",
          "name": "id",
          "type": "uint256"
        },
        {
          "internalType": "string",
          "name": "name",
          "type": "string"
        },
        {
          "internalType": "uint256",
          "name": "quantity",
          "type": "uint256"
        },
        {
          "internalType": "uint256",
          "name": "price",
          "type": "uint256"
        },
        {
          "internalType": "enum RenewableEnergyToken.Status",
          "name": "status",
          "type": "uint8"
        }
      ],
      "stateMutability": "view",
      "type": "function",
      "constant": true
    },
    {
      "inputs": [
        {
          "internalType": "address",
          "name": "from",
          "type": "address"
        },
        {
          "internalType": "address",
          "name": "to",
          "type": "address"
        },
        {
          "internalType": "uint256",
          "name": "tokenId",
          "type": "uint256"
        }
      ],
      "name": "safeTransferFrom",
      "outputs": [],
      "stateMutability": "nonpayable",
      "type": "function"
    },
    {
      "inputs": [
        {
          "internalType": "address",
          "name": "from",
          "type": "address"
        },
        {
          "internalType": "address",
          "name": "to",
          "type": "address"
        },
        {
          "internalType": "uint256",
          "name": "tokenId",
          "type": "uint256"
        },
        {
          "internalType": "bytes",
          "name": "data",
          "type": "bytes"
        }
      ],
      "name": "safeTransferFrom",
      "outputs": [],
      "stateMutability": "nonpayable",
      "type": "function"
    },
    {
      "inputs": [
        {
          "internalType": "address",
          "name": "operator",
          "type": "address"
        },
        {
          "internalType": "bool",
          "name": "approved",
          "type": "bool"
        }
      ],
      "name": "setApprovalForAll",
      "outputs": [],
      "stateMutability": "nonpayable",
      "type": "function"
    },
    {
      "inputs": [
        {
          "internalType": "bytes4",
          "name": "interfaceId",
          "type": "bytes4"
        }
      ],
      "name": "supportsInterface",
      "outputs": [
        {
          "internalType": "bool",
          "name": "",
          "type": "bool"
        }
      ],
      "stateMutability": "view",
      "type": "function",
      "constant": true
    },
    {
      "inputs": [],
      "name": "symbol",
      "outputs": [
        {
          "internalType": "string",
          "name": "",
          "type": "string"
        }
      ],
      "stateMutability": "view",
      "type": "function",
      "constant": true
    },
    {
      "inputs": [
        {
          "internalType": "uint256",
          "name": "tokenId",
          "type": "uint256"
        }
      ],
      "name": "tokenURI",
      "outputs": [
        {
          "internalType": "string",
          "name": "",
          "type": "string"
        }
      ],
      "stateMutability": "view",
      "type": "function",
      "constant": true
    },
    {
      "inputs": [
        {
          "internalType": "address",
          "name": "user",
          "type": "address"
        }
      ],
      "name": "getUserRole",
      "outputs": [
        {
          "internalType": "string",
          "name": "",
          "type": "string"
        }
      ],
      "stateMutability": "view",
      "type": "function",
      "constant": true
    },
    {
      "inputs": [
        {
          "internalType": "address",
          "name": "owner",
          "type": "address"
        }
      ],
      "name": "balanceOf",
      "outputs": [
        {
          "internalType": "uint256",
          "name": "",
          "type": "uint256"
        }
      ],
      "stateMutability": "view",
      "type": "function",
      "constant": true
    },
    {
      "inputs": [],
      "name": "balanceOf",
      "outputs": [
        {
          "internalType": "uint256",
          "name": "",
          "type": "uint256"
        }
      ],
      "stateMutability": "view",
      "type": "function",
      "constant": true
    },
    {
      "inputs": [
        {
          "internalType": "uint256",
          "name": "assetId",
          "type": "uint256"
        }
      ],
      "name": "ownerOf",
      "outputs": [
        {
          "internalType": "address",
          "name": "",
          "type": "address"
        }
      ],
      "stateMutability": "view",
      "type": "function",
      "constant": true
    },
    {
      "inputs": [
        {
          "internalType": "uint256",
          "name": "assetId",
          "type": "uint256"
        },
        {
          "internalType": "uint256",
          "name": "value",
          "type": "uint256"
        }
      ],
      "name": "appreciate",
      "outputs": [],
      "stateMutability": "nonpayable",
      "type": "function"
    },
    {
      "inputs": [
        {
          "internalType": "uint256",
          "name": "assetId",
          "type": "uint256"
        },
        {
          "internalType": "uint256",
          "name": "value",
          "type": "uint256"
        }
      ],
      "name": "depreciate",
      "outputs": [],
      "stateMutability": "nonpayable",
      "type": "function"
    },
    {
      "inputs": [
        {
          "internalType": "address payable",
          "name": "from",
          "type": "address"
        },
        {
          "internalType": "uint256",
          "name": "recId",
          "type": "uint256"
        }
      ],
      "name": "transferFrom",
      "outputs": [],
      "stateMutability": "payable",
      "type": "function",
      "payable": true
    },
    {
      "inputs": [
        {
          "internalType": "address",
          "name": "from",
          "type": "address"
        },
        {
          "internalType": "address",
          "name": "to",
          "type": "address"
        },
        {
          "internalType": "uint256",
          "name": "tokenId",
          "type": "uint256"
        }
      ],
      "name": "transferFrom",
      "outputs": [],
      "stateMutability": "nonpayable",
      "type": "function"
    },
    {
      "inputs": [
        {
          "internalType": "address",
          "name": "to",
          "type": "address"
        },
        {
          "internalType": "uint256",
          "name": "assetId",
          "type": "uint256"
        }
      ],
      "name": "approve",
      "outputs": [],
      "stateMutability": "nonpayable",
      "type": "function"
    },
    {
      "inputs": [
        {
          "internalType": "uint256",
          "name": "assetId",
          "type": "uint256"
        }
      ],
      "name": "getApproved",
      "outputs": [
        {
          "internalType": "address",
          "name": "",
          "type": "address"
        }
      ],
      "stateMutability": "view",
      "type": "function",
      "constant": true
    },
    {
      "inputs": [
        {
          "internalType": "uint256",
          "name": "assetId",
          "type": "uint256"
        },
        {
          "internalType": "address",
          "name": "approved",
          "type": "address"
        }
      ],
      "name": "clearApproval",
      "outputs": [],
      "stateMutability": "nonpayable",
      "type": "function"
    },
    {
      "inputs": [
        {
          "internalType": "string",
          "name": "name",
          "type": "string"
        },
        {
          "internalType": "uint256",
          "name": "quantity",
          "type": "uint256"
        },
        {
          "internalType": "address",
          "name": "sellerAddress",
          "type": "address"
        }
      ],
      "name": "generateREC",
      "outputs": [],
      "stateMutability": "payable",
      "type": "function",
      "payable": true
    },
    {
      "inputs": [],
      "name": "getAddressList",
      "outputs": [
        {
          "internalType": "address[]",
          "name": "",
          "type": "address[]"
        }
      ],
      "stateMutability": "view",
      "type": "function",
      "constant": true
    },
    {
      "inputs": [
        {
          "internalType": "uint256",
          "name": "id",
          "type": "uint256"
        }
      ],
      "name": "getCertificate",
      "outputs": [
        {
          "internalType": "uint256",
          "name": "",
          "type": "uint256"
        },
        {
          "internalType": "string",
          "name": "",
          "type": "string"
        },
        {
          "internalType": "uint256",
          "name": "",
          "type": "uint256"
        },
        {
          "internalType": "uint256",
          "name": "",
          "type": "uint256"
        },
        {
          "internalType": "address",
          "name": "",
          "type": "address"
        },
        {
          "internalType": "enum RenewableEnergyToken.Status",
          "name": "",
          "type": "uint8"
        }
      ],
      "stateMutability": "view",
      "type": "function",
      "constant": true
    },
    {
      "inputs": [
        {
          "internalType": "uint256",
          "name": "id",
          "type": "uint256"
        }
      ],
      "name": "verifyREC",
      "outputs": [
        {
          "internalType": "bool",
          "name": "",
          "type": "bool"
        }
      ],
      "stateMutability": "view",
      "type": "function",
      "constant": true
    },
    {
      "inputs": [
        {
          "internalType": "address",
          "name": "userAddress",
          "type": "address"
        }
      ],
      "name": "approveDistributor",
      "outputs": [],
      "stateMutability": "nonpayable",
      "type": "function"
    },
    {
      "inputs": [
        {
          "internalType": "address",
          "name": "userAddress",
          "type": "address"
        }
      ],
      "name": "approveUser",
      "outputs": [],
      "stateMutability": "nonpayable",
      "type": "function"
    },
    {
      "inputs": [
        {
          "internalType": "string",
          "name": "id",
          "type": "string"
        },
        {
          "internalType": "string",
          "name": "name",
          "type": "string"
        },
        {
          "internalType": "address",
          "name": "userAddress",
          "type": "address"
        }
      ],
      "name": "selfRegister",
      "outputs": [],
      "stateMutability": "nonpayable",
      "type": "function"
    },
    {
      "inputs": [],
      "name": "topupBalance",
      "outputs": [],
      "stateMutability": "payable",
      "type": "function",
      "payable": true
    }
  ],
  "bytecode": "0x60806040523480156200001157600080fd5b506040518060400160405280601481526020017f52656e657761626c65456e65726779546f6b656e0000000000000000000000008152506040518060400160405280600381526020017f52455400000000000000000000000000000000000000000000000000000000008152508160009080519060200190620000969291906200017e565b508060019080519060200190620000af9291906200017e565b50505033600660006101000a81548173ffffffffffffffffffffffffffffffffffffffff021916908373ffffffffffffffffffffffffffffffffffffffff160217905550600c600660009054906101000a900473ffffffffffffffffffffffffffffffffffffffff169080600181540180825580915050600190039060005260206000200160009091909190916101000a81548173ffffffffffffffffffffffffffffffffffffffff021916908373ffffffffffffffffffffffffffffffffffffffff16021790555062000293565b8280546200018c906200022e565b90600052602060002090601f016020900481019282620001b05760008555620001fc565b82601f10620001cb57805160ff1916838001178555620001fc565b82800160010185558215620001fc579182015b82811115620001fb578251825591602001919060010190620001de565b5b5090506200020b91906200020f565b5090565b5b808211156200022a57600081600090555060010162000210565b5090565b600060028204905060018216806200024757607f821691505b602082108114156200025e576200025d62000264565b5b50919050565b7f4e487b7100000000000000000000000000000000000000000000000000000000600052602260045260246000fd5b6153cd80620002a36000396000f3fe6080604052600436106101d85760003560e01c806370a08231116101025780639f980f9111610095578063d624fdb611610064578063d624fdb6146106e1578063daa5fe2d1461070a578063e985e9c514610733578063f2844dd514610770576101d8565b80639f980f9114610629578063a22cb46514610652578063b88d4fde1461067b578063c87b56dd146106a4576101d8565b806384acbb89116100d157806384acbb89146105695780638da5cb5b146105aa57806395084a41146105d557806395d89b41146105fe576101d8565b806370a082311461049957806371e06925146104d6578063722713f714610513578063811191301461053e576101d8565b8063278208511161017a578063467ee32111610149578063467ee321146103e7578063482aede5146103f157806351640fee1461041a5780636352211e1461045c576101d8565b8063278208511461032d5780632b34af511461036a57806334b1da131461039357806342842e0e146103be576101d8565b806306fdde03116101b657806306fdde0314610273578063081812fc1461029e578063095ea7b3146102db57806323b872dd14610304576101d8565b806301c6adc3146101dd57806301ffc9a7146101f95780630338577014610236575b600080fd5b6101f760048036038101906101f291906139dd565b61078c565b005b34801561020557600080fd5b50610220600480360381019061021b9190613b97565b610a28565b60405161022d919061439b565b60405180910390f35b34801561024257600080fd5b5061025d60048036038101906102589190613ccf565b610b0a565b60405161026a9190614312565b60405180910390f35b34801561027f57600080fd5b50610288610b3d565b60405161029591906143b6565b60405180910390f35b3480156102aa57600080fd5b506102c560048036038101906102c09190613ccf565b610bcf565b6040516102d29190614312565b60405180910390f35b3480156102e757600080fd5b5061030260048036038101906102fd9190613b5b565b610c54565b005b34801561031057600080fd5b5061032b60048036038101906103269190613a55565b610df0565b005b34801561033957600080fd5b50610354600480360381019061034f91906139b4565b610e50565b60405161036191906143b6565b60405180910390f35b34801561037657600080fd5b50610391600480360381019061038c9190613d34565b6110e2565b005b34801561039f57600080fd5b506103a8611209565b6040516103b59190614798565b60405180910390f35b3480156103ca57600080fd5b506103e560048036038101906103e09190613a55565b61120f565b005b6103ef61122f565b005b3480156103fd57600080fd5b50610418600480360381019061041391906139b4565b61140f565b005b34801561042657600080fd5b50610441600480360381019061043c9190613ccf565b6115c5565b604051610453969594939291906147b3565b60405180910390f35b34801561046857600080fd5b50610483600480360381019061047e9190613ccf565b61186e565b6040516104909190614312565b60405180910390f35b3480156104a557600080fd5b506104c060048036038101906104bb91906139b4565b611920565b6040516104cd9190614798565b60405180910390f35b3480156104e257600080fd5b506104fd60048036038101906104f89190613ccf565b6119d8565b60405161050a919061439b565b60405180910390f35b34801561051f57600080fd5b50610528611bf5565b6040516105359190614798565b60405180910390f35b34801561054a57600080fd5b50610553611cab565b6040516105609190614379565b60405180910390f35b34801561057557600080fd5b50610590600480360381019061058b9190613ccf565b611d39565b6040516105a195949392919061481b565b60405180910390f35b3480156105b657600080fd5b506105bf611e04565b6040516105cc9190614312565b60405180910390f35b3480156105e157600080fd5b506105fc60048036038101906105f79190613be9565b611e2a565b005b34801561060a57600080fd5b50610613611fef565b60405161062091906143b6565b60405180910390f35b34801561063557600080fd5b50610650600480360381019061064b9190613d34565b612081565b005b34801561065e57600080fd5b5061067960048036038101906106749190613b1f565b6121a8565b005b34801561068757600080fd5b506106a2600480360381019061069d9190613aa4565b6121be565b005b3480156106b057600080fd5b506106cb60048036038101906106c69190613ccf565b612220565b6040516106d891906143b6565b60405180910390f35b3480156106ed57600080fd5b50610708600480360381019061070391906139b4565b612288565b005b34801561071657600080fd5b50610731600480360381019061072c9190613cf8565b612478565b005b34801561073f57600080fd5b5061075a60048036038101906107559190613a19565b612537565b604051610767919061439b565b60405180910390f35b61078a60048036038101906107859190613c68565b6125cb565b005b6107963382612878565b6107d5576040517f08c379a00000000000000000000000000000000000000000000000000000000081526004016107cc90614678565b60405180910390fd5b8173ffffffffffffffffffffffffffffffffffffffff166107f58261186e565b73ffffffffffffffffffffffffffffffffffffffff161461084b576040517f08c379a000000000000000000000000000000000000000000000000000000000815260040161084290614778565b60405180910390fd5b61085d8161085883610bcf565b612478565b600a60008373ffffffffffffffffffffffffffffffffffffffff1673ffffffffffffffffffffffffffffffffffffffff16815260200190815260200160002060008154809291906108ad90614b49565b9190505550600a60003373ffffffffffffffffffffffffffffffffffffffff1673ffffffffffffffffffffffffffffffffffffffff168152602001908152602001600020600081548092919061090290614bd6565b9190505550336009600083815260200190815260200160002060006101000a81548173ffffffffffffffffffffffffffffffffffffffff021916908373ffffffffffffffffffffffffffffffffffffffff1602179055508173ffffffffffffffffffffffffffffffffffffffff166108fc670de0b6b3a7640000600860008581526020019081526020016000206003015461099d91906149ce565b9081150290604051600060405180830381858888f193505050501580156109c8573d6000803e3d6000fd5b50803373ffffffffffffffffffffffffffffffffffffffff168373ffffffffffffffffffffffffffffffffffffffff167fddf252ad1be2c89b69c2b068fc378daa952ba7f163c4a11628f55a4df523b3ef60405160405180910390a45050565b60007f80ac58cd000000000000000000000000000000000000000000000000000000007bffffffffffffffffffffffffffffffffffffffffffffffffffffffff1916827bffffffffffffffffffffffffffffffffffffffffffffffffffffffff19161480610af357507f5b5e139f000000000000000000000000000000000000000000000000000000007bffffffffffffffffffffffffffffffffffffffffffffffffffffffff1916827bffffffffffffffffffffffffffffffffffffffffffffffffffffffff1916145b80610b035750610b0282612945565b5b9050919050565b600b6020528060005260406000206000915054906101000a900473ffffffffffffffffffffffffffffffffffffffff1681565b606060008054610b4c90614b73565b80601f0160208091040260200160405190810160405280929190818152602001828054610b7890614b73565b8015610bc55780601f10610b9a57610100808354040283529160200191610bc5565b820191906000526020600020905b815481529060010190602001808311610ba857829003601f168201915b5050505050905090565b6000610bda826129af565b610c19576040517f08c379a0000000000000000000000000000000000000000000000000000000008152600401610c1090614638565b60405180910390fd5b600b600083815260200190815260200160002060009054906101000a900473ffffffffffffffffffffffffffffffffffffffff169050919050565b6000610c5f8261186e565b90508073ffffffffffffffffffffffffffffffffffffffff168373ffffffffffffffffffffffffffffffffffffffff161415610cd0576040517f08c379a0000000000000000000000000000000000000000000000000000000008152600401610cc7906143f8565b60405180910390fd5b8073ffffffffffffffffffffffffffffffffffffffff163373ffffffffffffffffffffffffffffffffffffffff1614610d3e576040517f08c379a0000000000000000000000000000000000000000000000000000000008152600401610d35906146b8565b60405180910390fd5b82600b600084815260200190815260200160002060006101000a81548173ffffffffffffffffffffffffffffffffffffffff021916908373ffffffffffffffffffffffffffffffffffffffff160217905550818373ffffffffffffffffffffffffffffffffffffffff168273ffffffffffffffffffffffffffffffffffffffff167f8c5be1e5ebec7d5bd14f71427d1e84f3dd0314c0f7b2291e5b200ac8c7c3b92560405160405180910390a4505050565b610e01610dfb612a1b565b82612a23565b610e40576040517f08c379a0000000000000000000000000000000000000000000000000000000008152600401610e37906143d8565b60405180910390fd5b610e4b838383612ab8565b505050565b6060600660009054906101000a900473ffffffffffffffffffffffffffffffffffffffff1673ffffffffffffffffffffffffffffffffffffffff168273ffffffffffffffffffffffffffffffffffffffff161415610ee5576040518060400160405280600581526020017f6f776e657200000000000000000000000000000000000000000000000000000081525090506110dd565b600d60008373ffffffffffffffffffffffffffffffffffffffff1673ffffffffffffffffffffffffffffffffffffffff16815260200190815260200160002060040160009054906101000a900460ff1615610f77576040518060400160405280600b81526020017f6469737472696275746f7200000000000000000000000000000000000000000081525090506110dd565b600d60008373ffffffffffffffffffffffffffffffffffffffff1673ffffffffffffffffffffffffffffffffffffffff16815260200190815260200160002060040160019054906101000a900460ff1615611009576040518060400160405280600a81526020017f726567697374657265640000000000000000000000000000000000000000000081525090506110dd565b6000600d60008473ffffffffffffffffffffffffffffffffffffffff1673ffffffffffffffffffffffffffffffffffffffff1681526020019081526020016000209050600081600001805461105d90614b73565b905011156110a3576040518060400160405280601081526020017f6e6f7420796574207665726966696564000000000000000000000000000000008152509150506110dd565b6040518060400160405280600481526020017f6e6f6e65000000000000000000000000000000000000000000000000000000008152509150505b919050565b600660009054906101000a900473ffffffffffffffffffffffffffffffffffffffff1673ffffffffffffffffffffffffffffffffffffffff163373ffffffffffffffffffffffffffffffffffffffff16148061118a5750600d60003373ffffffffffffffffffffffffffffffffffffffff1673ffffffffffffffffffffffffffffffffffffffff16815260200190815260200160002060040160009054906101000a900460ff165b6111c9576040517f08c379a00000000000000000000000000000000000000000000000000000000081526004016111c090614738565b60405180910390fd5b8060086000848152602001908152602001600020600301546111eb9190614978565b60086000848152602001908152602001600020600301819055505050565b60075481565b61122a838383604051806020016040528060008152506121be565b505050565b600660009054906101000a900473ffffffffffffffffffffffffffffffffffffffff1673ffffffffffffffffffffffffffffffffffffffff163373ffffffffffffffffffffffffffffffffffffffff1614806112d75750600d60003373ffffffffffffffffffffffffffffffffffffffff1673ffffffffffffffffffffffffffffffffffffffff16815260200190815260200160002060040160019054906101000a900460ff165b611316576040517f08c379a000000000000000000000000000000000000000000000000000000000815260040161130d906145f8565b60405180910390fd5b6000600d60003373ffffffffffffffffffffffffffffffffffffffff1673ffffffffffffffffffffffffffffffffffffffff1681526020019081526020016000209050600081600001805461136a90614b73565b905014156113ad576040517f08c379a00000000000000000000000000000000000000000000000000000000081526004016113a4906144b8565b60405180910390fd5b60003410156113f1576040517f08c379a00000000000000000000000000000000000000000000000000000000081526004016113e8906146d8565b60405180910390fd5b348160020160008282546114059190614978565b9250508190555050565b600660009054906101000a900473ffffffffffffffffffffffffffffffffffffffff1673ffffffffffffffffffffffffffffffffffffffff163373ffffffffffffffffffffffffffffffffffffffff161461149f576040517f08c379a000000000000000000000000000000000000000000000000000000000815260040161149690614758565b60405180910390fd5b6000600d60008373ffffffffffffffffffffffffffffffffffffffff1673ffffffffffffffffffffffffffffffffffffffff168152602001908152602001600020905060008160000180546114f390614b73565b905011611535576040517f08c379a000000000000000000000000000000000000000000000000000000000815260040161152c90614618565b60405180910390fd5b8060040160009054906101000a900460ff1615611587576040517f08c379a000000000000000000000000000000000000000000000000000000000815260040161157e90614418565b60405180910390fd5b60018160040160006101000a81548160ff02191690831515021790555060018160040160016101000a81548160ff0219169083151502179055505050565b60006060600080600080600660009054906101000a900473ffffffffffffffffffffffffffffffffffffffff1673ffffffffffffffffffffffffffffffffffffffff163373ffffffffffffffffffffffffffffffffffffffff1614806116775750600d60003373ffffffffffffffffffffffffffffffffffffffff1673ffffffffffffffffffffffffffffffffffffffff16815260200190815260200160002060040160019054906101000a900460ff165b6116b6576040517f08c379a00000000000000000000000000000000000000000000000000000000081526004016116ad906145f8565b60405180910390fd5b6000600860008981526020019081526020016000206040518060a0016040529081600082015481526020016001820180546116f090614b73565b80601f016020809104026020016040519081016040528092919081815260200182805461171c90614b73565b80156117695780601f1061173e57610100808354040283529160200191611769565b820191906000526020600020905b81548152906001019060200180831161174c57829003601f168201915b5050505050815260200160028201548152602001600382015481526020016004820160009054906101000a900460ff1660018111156117d1577f4e487b7100000000000000000000000000000000000000000000000000000000600052602160045260246000fd5b6001811115611809577f4e487b7100000000000000000000000000000000000000000000000000000000600052602160045260246000fd5b81525050905087816020015182604001518360600151600960008d815260200190815260200160002060009054906101000a900473ffffffffffffffffffffffffffffffffffffffff1685608001519650965096509650965096505091939550919395565b6000806009600084815260200190815260200160002060009054906101000a900473ffffffffffffffffffffffffffffffffffffffff169050600073ffffffffffffffffffffffffffffffffffffffff168173ffffffffffffffffffffffffffffffffffffffff161415611917576040517f08c379a000000000000000000000000000000000000000000000000000000000815260040161190e90614558565b60405180910390fd5b80915050919050565b60008073ffffffffffffffffffffffffffffffffffffffff168273ffffffffffffffffffffffffffffffffffffffff161415611991576040517f08c379a0000000000000000000000000000000000000000000000000000000008152600401611988906145b8565b60405180910390fd5b600360008373ffffffffffffffffffffffffffffffffffffffff1673ffffffffffffffffffffffffffffffffffffffff168152602001908152602001600020549050919050565b6000600660009054906101000a900473ffffffffffffffffffffffffffffffffffffffff1673ffffffffffffffffffffffffffffffffffffffff163373ffffffffffffffffffffffffffffffffffffffff161480611a825750600d60003373ffffffffffffffffffffffffffffffffffffffff1673ffffffffffffffffffffffffffffffffffffffff16815260200190815260200160002060040160019054906101000a900460ff165b611ac1576040517f08c379a0000000000000000000000000000000000000000000000000000000008152600401611ab8906145f8565b60405180910390fd5b6000821015611b05576040517f08c379a0000000000000000000000000000000000000000000000000000000008152600401611afc90614598565b60405180910390fd5b60006008600084815260200190815260200160002090506007548310611b60576040517f08c379a0000000000000000000000000000000000000000000000000000000008152600401611b5790614438565b60405180910390fd5b6000600d60003373ffffffffffffffffffffffffffffffffffffffff1673ffffffffffffffffffffffffffffffffffffffff16815260200190815260200160002090508160030154471015611bea576040517f08c379a0000000000000000000000000000000000000000000000000000000008152600401611be190614538565b60405180910390fd5b600192505050919050565b60008073ffffffffffffffffffffffffffffffffffffffff163373ffffffffffffffffffffffffffffffffffffffff161415611c66576040517f08c379a0000000000000000000000000000000000000000000000000000000008152600401611c5d906145d8565b60405180910390fd5b600a60003373ffffffffffffffffffffffffffffffffffffffff1673ffffffffffffffffffffffffffffffffffffffff16815260200190815260200160002054905090565b6060600c805480602002602001604051908101604052809291908181526020018280548015611d2f57602002820191906000526020600020905b8160009054906101000a900473ffffffffffffffffffffffffffffffffffffffff1673ffffffffffffffffffffffffffffffffffffffff1681526020019060010190808311611ce5575b5050505050905090565b6008602052806000526040600020600091509050806000015490806001018054611d6290614b73565b80601f0160208091040260200160405190810160405280929190818152602001828054611d8e90614b73565b8015611ddb5780601f10611db057610100808354040283529160200191611ddb565b820191906000526020600020905b815481529060010190602001808311611dbe57829003601f168201915b5050505050908060020154908060030154908060040160009054906101000a900460ff16905085565b600660009054906101000a900473ffffffffffffffffffffffffffffffffffffffff1681565b60008351118015611e3c575060008251115b611e7b576040517f08c379a0000000000000000000000000000000000000000000000000000000008152600401611e72906146f8565b60405180910390fd5b6000600d60003373ffffffffffffffffffffffffffffffffffffffff1673ffffffffffffffffffffffffffffffffffffffff16815260200190815260200160002090506000816000018054611ecf90614b73565b905014611f11576040517f08c379a0000000000000000000000000000000000000000000000000000000008152600401611f0890614658565b60405180910390fd5b83816000019080519060200190611f299291906137c3565b5082816001019080519060200190611f429291906137c3565b5047816002018190555060008160040160006101000a81548160ff02191690831515021790555060008160040160016101000a81548160ff021916908315150217905550600c829080600181540180825580915050600190039060005260206000200160009091909190916101000a81548173ffffffffffffffffffffffffffffffffffffffff021916908373ffffffffffffffffffffffffffffffffffffffff16021790555050505050565b606060018054611ffe90614b73565b80601f016020809104026020016040519081016040528092919081815260200182805461202a90614b73565b80156120775780601f1061204c57610100808354040283529160200191612077565b820191906000526020600020905b81548152906001019060200180831161205a57829003601f168201915b5050505050905090565b600660009054906101000a900473ffffffffffffffffffffffffffffffffffffffff1673ffffffffffffffffffffffffffffffffffffffff163373ffffffffffffffffffffffffffffffffffffffff1614806121295750600d60003373ffffffffffffffffffffffffffffffffffffffff1673ffffffffffffffffffffffffffffffffffffffff16815260200190815260200160002060040160009054906101000a900460ff165b612168576040517f08c379a000000000000000000000000000000000000000000000000000000000815260040161215f90614738565b60405180910390fd5b80600860008481526020019081526020016000206003015461218a9190614a28565b60086000848152602001908152602001600020600301819055505050565b6121ba6121b3612a1b565b8383612db2565b5050565b6121cf6121c9612a1b565b83612a23565b61220e576040517f08c379a0000000000000000000000000000000000000000000000000000000008152600401612205906143d8565b60405180910390fd5b61221a84848484612f1f565b50505050565b606061222b82612f7b565b6000612235612fc6565b905060008151116122555760405180602001604052806000815250612280565b8061225f84612fdd565b6040516020016122709291906142ee565b6040516020818303038152906040525b915050919050565b600660009054906101000a900473ffffffffffffffffffffffffffffffffffffffff1673ffffffffffffffffffffffffffffffffffffffff163373ffffffffffffffffffffffffffffffffffffffff1614806123305750600d60003373ffffffffffffffffffffffffffffffffffffffff1673ffffffffffffffffffffffffffffffffffffffff16815260200190815260200160002060040160009054906101000a900460ff165b61236f576040517f08c379a000000000000000000000000000000000000000000000000000000000815260040161236690614738565b60405180910390fd5b6000600d60008373ffffffffffffffffffffffffffffffffffffffff1673ffffffffffffffffffffffffffffffffffffffff168152602001908152602001600020905060008160000180546123c390614b73565b905011612405576040517f08c379a00000000000000000000000000000000000000000000000000000000081526004016123fc90614618565b60405180910390fd5b8060040160019054906101000a900460ff1615612457576040517f08c379a000000000000000000000000000000000000000000000000000000000815260040161244e90614718565b60405180910390fd5b60018160040160016101000a81548160ff0219169083151502179055505050565b8073ffffffffffffffffffffffffffffffffffffffff16600b600084815260200190815260200160002060009054906101000a900473ffffffffffffffffffffffffffffffffffffffff1673ffffffffffffffffffffffffffffffffffffffff161415612533576000600b600084815260200190815260200160002060006101000a81548173ffffffffffffffffffffffffffffffffffffffff021916908373ffffffffffffffffffffffffffffffffffffffff1602179055505b5050565b6000600560008473ffffffffffffffffffffffffffffffffffffffff1673ffffffffffffffffffffffffffffffffffffffff16815260200190815260200160002060008373ffffffffffffffffffffffffffffffffffffffff1673ffffffffffffffffffffffffffffffffffffffff16815260200190815260200160002060009054906101000a900460ff16905092915050565b600660009054906101000a900473ffffffffffffffffffffffffffffffffffffffff1673ffffffffffffffffffffffffffffffffffffffff163373ffffffffffffffffffffffffffffffffffffffff1614806126735750600d60003373ffffffffffffffffffffffffffffffffffffffff1673ffffffffffffffffffffffffffffffffffffffff16815260200190815260200160002060040160009054906101000a900460ff165b6126b2576040517f08c379a00000000000000000000000000000000000000000000000000000000081526004016126a990614738565b60405180910390fd5b600083511180156126c35750600082115b80156126cf5750600034115b80156127085750600073ffffffffffffffffffffffffffffffffffffffff168173ffffffffffffffffffffffffffffffffffffffff1614155b612747576040517f08c379a000000000000000000000000000000000000000000000000000000000815260040161273e906146f8565b60405180910390fd5b6040518060a001604052806007548152602001848152602001838152602001348152602001600060018111156127a6577f4e487b7100000000000000000000000000000000000000000000000000000000600052602160045260246000fd5b8152506008600060075481526020019081526020016000206000820151816000015560208201518160010190805190602001906127e49291906137c3565b50604082015181600201556060820151816003015560808201518160040160006101000a81548160ff0219169083600181111561284a577f4e487b7100000000000000000000000000000000000000000000000000000000600052602160045260246000fd5b021790555090505061285e81600754613101565b600160075461286d9190614978565b600781905550505050565b6000612883826129af565b6128c2576040517f08c379a00000000000000000000000000000000000000000000000000000000081526004016128b990614578565b60405180910390fd5b60006128cd8361186e565b90508073ffffffffffffffffffffffffffffffffffffffff168473ffffffffffffffffffffffffffffffffffffffff16148061293c57508373ffffffffffffffffffffffffffffffffffffffff1661292484610bcf565b73ffffffffffffffffffffffffffffffffffffffff16145b91505092915050565b60007f01ffc9a7000000000000000000000000000000000000000000000000000000007bffffffffffffffffffffffffffffffffffffffffffffffffffffffff1916827bffffffffffffffffffffffffffffffffffffffffffffffffffffffff1916149050919050565b60008073ffffffffffffffffffffffffffffffffffffffff166009600084815260200190815260200160002060009054906101000a900473ffffffffffffffffffffffffffffffffffffffff1673ffffffffffffffffffffffffffffffffffffffff1614159050919050565b600033905090565b600080612a2f836132c1565b90508073ffffffffffffffffffffffffffffffffffffffff168473ffffffffffffffffffffffffffffffffffffffff161480612a715750612a708185612537565b5b80612aaf57508373ffffffffffffffffffffffffffffffffffffffff16612a9784610bcf565b73ffffffffffffffffffffffffffffffffffffffff16145b91505092915050565b8273ffffffffffffffffffffffffffffffffffffffff16612ad8826132c1565b73ffffffffffffffffffffffffffffffffffffffff1614612b2e576040517f08c379a0000000000000000000000000000000000000000000000000000000008152600401612b25906144d8565b60405180910390fd5b600073ffffffffffffffffffffffffffffffffffffffff168273ffffffffffffffffffffffffffffffffffffffff161415612b9e576040517f08c379a0000000000000000000000000000000000000000000000000000000008152600401612b95906144f8565b60405180910390fd5b612bab8383836001613348565b8273ffffffffffffffffffffffffffffffffffffffff16612bcb826132c1565b73ffffffffffffffffffffffffffffffffffffffff1614612c21576040517f08c379a0000000000000000000000000000000000000000000000000000000008152600401612c18906144d8565b60405180910390fd5b6004600082815260200190815260200160002060006101000a81549073ffffffffffffffffffffffffffffffffffffffff02191690556001600360008573ffffffffffffffffffffffffffffffffffffffff1673ffffffffffffffffffffffffffffffffffffffff168152602001908152602001600020600082825403925050819055506001600360008473ffffffffffffffffffffffffffffffffffffffff1673ffffffffffffffffffffffffffffffffffffffff16815260200190815260200160002060008282540192505081905550816002600083815260200190815260200160002060006101000a81548173ffffffffffffffffffffffffffffffffffffffff021916908373ffffffffffffffffffffffffffffffffffffffff160217905550808273ffffffffffffffffffffffffffffffffffffffff168473ffffffffffffffffffffffffffffffffffffffff167fddf252ad1be2c89b69c2b068fc378daa952ba7f163c4a11628f55a4df523b3ef60405160405180910390a4612dad838383600161334e565b505050565b8173ffffffffffffffffffffffffffffffffffffffff168373ffffffffffffffffffffffffffffffffffffffff161415612e21576040517f08c379a0000000000000000000000000000000000000000000000000000000008152600401612e1890614518565b60405180910390fd5b80600560008573ffffffffffffffffffffffffffffffffffffffff1673ffffffffffffffffffffffffffffffffffffffff16815260200190815260200160002060008473ffffffffffffffffffffffffffffffffffffffff1673ffffffffffffffffffffffffffffffffffffffff16815260200190815260200160002060006101000a81548160ff0219169083151502179055508173ffffffffffffffffffffffffffffffffffffffff168373ffffffffffffffffffffffffffffffffffffffff167f17307eab39ab6107e8899845ad3d59bd9653f200f220920489ca2b5937696c3183604051612f12919061439b565b60405180910390a3505050565b612f2a848484612ab8565b612f3684848484613354565b612f75576040517f08c379a0000000000000000000000000000000000000000000000000000000008152600401612f6c90614458565b60405180910390fd5b50505050565b612f84816134eb565b612fc3576040517f08c379a0000000000000000000000000000000000000000000000000000000008152600401612fba90614698565b60405180910390fd5b50565b606060405180602001604052806000815250905090565b606060006001612fec8461352c565b01905060008167ffffffffffffffff811115613031577f4e487b7100000000000000000000000000000000000000000000000000000000600052604160045260246000fd5b6040519080825280601f01601f1916602001820160405280156130635781602001600182028036833780820191505090505b509050600082602001820190505b6001156130f6578080600190039150507f3031323334353637383961626364656600000000000000000000000000000000600a86061a8153600a85816130e0577f4e487b7100000000000000000000000000000000000000000000000000000000600052601260045260246000fd5b04945060008514156130f1576130f6565b613071565b819350505050919050565b600073ffffffffffffffffffffffffffffffffffffffff168273ffffffffffffffffffffffffffffffffffffffff161415613171576040517f08c379a000000000000000000000000000000000000000000000000000000000815260040161316890614498565b60405180910390fd5b61317a816129af565b156131ba576040517f08c379a00000000000000000000000000000000000000000000000000000000081526004016131b190614478565b60405180910390fd5b816009600083815260200190815260200160002060006101000a81548173ffffffffffffffffffffffffffffffffffffffff021916908373ffffffffffffffffffffffffffffffffffffffff160217905550600a60008373ffffffffffffffffffffffffffffffffffffffff1673ffffffffffffffffffffffffffffffffffffffff168152602001908152602001600020600081548092919061325c90614bd6565b9190505550808273ffffffffffffffffffffffffffffffffffffffff16600073ffffffffffffffffffffffffffffffffffffffff167fddf252ad1be2c89b69c2b068fc378daa952ba7f163c4a11628f55a4df523b3ef60405160405180910390a45050565b6000806132cd83613763565b9050600073ffffffffffffffffffffffffffffffffffffffff168173ffffffffffffffffffffffffffffffffffffffff16141561333f576040517f08c379a000000000000000000000000000000000000000000000000000000000815260040161333690614698565b60405180910390fd5b80915050919050565b50505050565b50505050565b60006133758473ffffffffffffffffffffffffffffffffffffffff166137a0565b156134de578373ffffffffffffffffffffffffffffffffffffffff1663150b7a0261339e612a1b565b8786866040518563ffffffff1660e01b81526004016133c0949392919061432d565b602060405180830381600087803b1580156133da57600080fd5b505af192505050801561340b57506040513d601f19601f820116820180604052508101906134089190613bc0565b60015b61348e573d806000811461343b576040519150601f19603f3d011682016040523d82523d6000602084013e613440565b606091505b50600081511415613486576040517f08c379a000000000000000000000000000000000000000000000000000000000815260040161347d90614458565b60405180910390fd5b805181602001fd5b63150b7a0260e01b7bffffffffffffffffffffffffffffffffffffffffffffffffffffffff1916817bffffffffffffffffffffffffffffffffffffffffffffffffffffffff1916149150506134e3565b600190505b949350505050565b60008073ffffffffffffffffffffffffffffffffffffffff1661350d83613763565b73ffffffffffffffffffffffffffffffffffffffff1614159050919050565b600080600090507a184f03e93ff9f4daa797ed6e38ed64bf6a1f01000000000000000083106135b0577a184f03e93ff9f4daa797ed6e38ed64bf6a1f01000000000000000083816135a6577f4e487b7100000000000000000000000000000000000000000000000000000000600052601260045260246000fd5b0492506040810190505b6d04ee2d6d415b85acef81000000008310613613576d04ee2d6d415b85acef81000000008381613609577f4e487b7100000000000000000000000000000000000000000000000000000000600052601260045260246000fd5b0492506020810190505b662386f26fc10000831061366857662386f26fc10000838161365e577f4e487b7100000000000000000000000000000000000000000000000000000000600052601260045260246000fd5b0492506010810190505b6305f5e10083106136b7576305f5e10083816136ad577f4e487b7100000000000000000000000000000000000000000000000000000000600052601260045260246000fd5b0492506008810190505b61271083106137025761271083816136f8577f4e487b7100000000000000000000000000000000000000000000000000000000600052601260045260246000fd5b0492506004810190505b6064831061374b5760648381613741577f4e487b7100000000000000000000000000000000000000000000000000000000600052601260045260246000fd5b0492506002810190505b600a831061375a576001810190505b80915050919050565b60006002600083815260200190815260200160002060009054906101000a900473ffffffffffffffffffffffffffffffffffffffff169050919050565b6000808273ffffffffffffffffffffffffffffffffffffffff163b119050919050565b8280546137cf90614b73565b90600052602060002090601f0160209004810192826137f15760008555613838565b82601f1061380a57805160ff1916838001178555613838565b82800160010185558215613838579182015b8281111561383757825182559160200191906001019061381c565b5b5090506138459190613849565b5090565b5b8082111561386257600081600090555060010161384a565b5090565b60006138796138748461489a565b614875565b90508281526020810184848401111561389157600080fd5b61389c848285614b07565b509392505050565b60006138b76138b2846148cb565b614875565b9050828152602081018484840111156138cf57600080fd5b6138da848285614b07565b509392505050565b6000813590506138f181615324565b92915050565b6000813590506139068161533b565b92915050565b60008135905061391b81615352565b92915050565b60008135905061393081615369565b92915050565b60008151905061394581615369565b92915050565b600082601f83011261395c57600080fd5b813561396c848260208601613866565b91505092915050565b600082601f83011261398657600080fd5b81356139968482602086016138a4565b91505092915050565b6000813590506139ae81615380565b92915050565b6000602082840312156139c657600080fd5b60006139d4848285016138e2565b91505092915050565b600080604083850312156139f057600080fd5b60006139fe858286016138f7565b9250506020613a0f8582860161399f565b9150509250929050565b60008060408385031215613a2c57600080fd5b6000613a3a858286016138e2565b9250506020613a4b858286016138e2565b9150509250929050565b600080600060608486031215613a6a57600080fd5b6000613a78868287016138e2565b9350506020613a89868287016138e2565b9250506040613a9a8682870161399f565b9150509250925092565b60008060008060808587031215613aba57600080fd5b6000613ac8878288016138e2565b9450506020613ad9878288016138e2565b9350506040613aea8782880161399f565b925050606085013567ffffffffffffffff811115613b0757600080fd5b613b138782880161394b565b91505092959194509250565b60008060408385031215613b3257600080fd5b6000613b40858286016138e2565b9250506020613b518582860161390c565b9150509250929050565b60008060408385031215613b6e57600080fd5b6000613b7c858286016138e2565b9250506020613b8d8582860161399f565b9150509250929050565b600060208284031215613ba957600080fd5b6000613bb784828501613921565b91505092915050565b600060208284031215613bd257600080fd5b6000613be084828501613936565b91505092915050565b600080600060608486031215613bfe57600080fd5b600084013567ffffffffffffffff811115613c1857600080fd5b613c2486828701613975565b935050602084013567ffffffffffffffff811115613c4157600080fd5b613c4d86828701613975565b9250506040613c5e868287016138e2565b9150509250925092565b600080600060608486031215613c7d57600080fd5b600084013567ffffffffffffffff811115613c9757600080fd5b613ca386828701613975565b9350506020613cb48682870161399f565b9250506040613cc5868287016138e2565b9150509250925092565b600060208284031215613ce157600080fd5b6000613cef8482850161399f565b91505092915050565b60008060408385031215613d0b57600080fd5b6000613d198582860161399f565b9250506020613d2a858286016138e2565b9150509250929050565b60008060408385031215613d4757600080fd5b6000613d558582860161399f565b9250506020613d668582860161399f565b9150509250929050565b6000613d7c8383613d88565b60208301905092915050565b613d9181614a5c565b82525050565b613da081614a5c565b82525050565b6000613db18261490c565b613dbb818561493a565b9350613dc6836148fc565b8060005b83811015613df7578151613dde8882613d70565b9750613de98361492d565b925050600181019050613dca565b5085935050505092915050565b613e0d81614a80565b82525050565b6000613e1e82614917565b613e28818561494b565b9350613e38818560208601614b16565b613e4181614cdb565b840191505092915050565b613e5581614af5565b82525050565b6000613e6682614922565b613e70818561495c565b9350613e80818560208601614b16565b613e8981614cdb565b840191505092915050565b6000613e9f82614922565b613ea9818561496d565b9350613eb9818560208601614b16565b80840191505092915050565b6000613ed2602d8361495c565b9150613edd82614cec565b604082019050919050565b6000613ef560148361495c565b9150613f0082614d3b565b602082019050919050565b6000613f18601b8361495c565b9150613f2382614d64565b602082019050919050565b6000613f3b600d8361495c565b9150613f4682614d8d565b602082019050919050565b6000613f5e60328361495c565b9150613f6982614db6565b604082019050919050565b6000613f81600d8361495c565b9150613f8c82614e05565b602082019050919050565b6000613fa460138361495c565b9150613faf82614e2e565b602082019050919050565b6000613fc760138361495c565b9150613fd282614e57565b602082019050919050565b6000613fea60258361495c565b9150613ff582614e80565b604082019050919050565b600061400d60248361495c565b915061401882614ecf565b604082019050919050565b600061403060198361495c565b915061403b82614f1e565b602082019050919050565b600061405360148361495c565b915061405e82614f47565b602082019050919050565b6000614076600d8361495c565b915061408182614f70565b602082019050919050565b6000614099602c8361495c565b91506140a482614f99565b604082019050919050565b60006140bc60178361495c565b91506140c782614fe8565b602082019050919050565b60006140df60298361495c565b91506140ea82615011565b604082019050919050565b6000614102602a8361495c565b915061410d82615060565b604082019050919050565b600061412560238361495c565b9150614130826150af565b604082019050919050565b6000614148600e8361495c565b9150614153826150fe565b602082019050919050565b600061416b602c8361495c565b915061417682615127565b604082019050919050565b600061418e60178361495c565b915061419982615176565b602082019050919050565b60006141b160128361495c565b91506141bc8261519f565b602082019050919050565b60006141d460188361495c565b91506141df826151c8565b602082019050919050565b60006141f760108361495c565b9150614202826151f1565b602082019050919050565b600061421a600f8361495c565b91506142258261521a565b602082019050919050565b600061423d60188361495c565b915061424882615243565b602082019050919050565b6000614260601a8361495c565b915061426b8261526c565b602082019050919050565b6000614283601e8361495c565b915061428e82615295565b602082019050919050565b60006142a660188361495c565b91506142b1826152be565b602082019050919050565b60006142c960108361495c565b91506142d4826152e7565b602082019050919050565b6142e881614aeb565b82525050565b60006142fa8285613e94565b91506143068284613e94565b91508190509392505050565b60006020820190506143276000830184613d97565b92915050565b60006080820190506143426000830187613d97565b61434f6020830186613d97565b61435c60408301856142df565b818103606083015261436e8184613e13565b905095945050505050565b600060208201905081810360008301526143938184613da6565b905092915050565b60006020820190506143b06000830184613e04565b92915050565b600060208201905081810360008301526143d08184613e5b565b905092915050565b600060208201905081810360008301526143f181613ec5565b9050919050565b6000602082019050818103600083015261441181613ee8565b9050919050565b6000602082019050818103600083015261443181613f0b565b9050919050565b6000602082019050818103600083015261445181613f2e565b9050919050565b6000602082019050818103600083015261447181613f51565b9050919050565b6000602082019050818103600083015261449181613f74565b9050919050565b600060208201905081810360008301526144b181613f97565b9050919050565b600060208201905081810360008301526144d181613fba565b9050919050565b600060208201905081810360008301526144f181613fdd565b9050919050565b6000602082019050818103600083015261451181614000565b9050919050565b6000602082019050818103600083015261453181614023565b9050919050565b6000602082019050818103600083015261455181614046565b9050919050565b6000602082019050818103600083015261457181614069565b9050919050565b600060208201905081810360008301526145918161408c565b9050919050565b600060208201905081810360008301526145b1816140af565b9050919050565b600060208201905081810360008301526145d1816140d2565b9050919050565b600060208201905081810360008301526145f1816140f5565b9050919050565b6000602082019050818103600083015261461181614118565b9050919050565b600060208201905081810360008301526146318161413b565b9050919050565b600060208201905081810360008301526146518161415e565b9050919050565b6000602082019050818103600083015261467181614181565b9050919050565b60006020820190508181036000830152614691816141a4565b9050919050565b600060208201905081810360008301526146b1816141c7565b9050919050565b600060208201905081810360008301526146d1816141ea565b9050919050565b600060208201905081810360008301526146f18161420d565b9050919050565b6000602082019050818103600083015261471181614230565b9050919050565b6000602082019050818103600083015261473181614253565b9050919050565b6000602082019050818103600083015261475181614276565b9050919050565b6000602082019050818103600083015261477181614299565b9050919050565b60006020820190508181036000830152614791816142bc565b9050919050565b60006020820190506147ad60008301846142df565b92915050565b600060c0820190506147c860008301896142df565b81810360208301526147da8188613e5b565b90506147e960408301876142df565b6147f660608301866142df565b6148036080830185613d97565b61481060a0830184613e4c565b979650505050505050565b600060a08201905061483060008301886142df565b81810360208301526148428187613e5b565b905061485160408301866142df565b61485e60608301856142df565b61486b6080830184613e4c565b9695505050505050565b600061487f614890565b905061488b8282614ba5565b919050565b6000604051905090565b600067ffffffffffffffff8211156148b5576148b4614cac565b5b6148be82614cdb565b9050602081019050919050565b600067ffffffffffffffff8211156148e6576148e5614cac565b5b6148ef82614cdb565b9050602081019050919050565b6000819050602082019050919050565b600081519050919050565b600081519050919050565b600081519050919050565b6000602082019050919050565b600082825260208201905092915050565b600082825260208201905092915050565b600082825260208201905092915050565b600081905092915050565b600061498382614aeb565b915061498e83614aeb565b9250827fffffffffffffffffffffffffffffffffffffffffffffffffffffffffffffffff038211156149c3576149c2614c1f565b5b828201905092915050565b60006149d982614aeb565b91506149e483614aeb565b9250817fffffffffffffffffffffffffffffffffffffffffffffffffffffffffffffffff0483118215151615614a1d57614a1c614c1f565b5b828202905092915050565b6000614a3382614aeb565b9150614a3e83614aeb565b925082821015614a5157614a50614c1f565b5b828203905092915050565b6000614a6782614acb565b9050919050565b6000614a7982614acb565b9050919050565b60008115159050919050565b60007fffffffff0000000000000000000000000000000000000000000000000000000082169050919050565b6000819050614ac682615310565b919050565b600073ffffffffffffffffffffffffffffffffffffffff82169050919050565b6000819050919050565b6000614b0082614ab8565b9050919050565b82818337600083830152505050565b60005b83811015614b34578082015181840152602081019050614b19565b83811115614b43576000848401525b50505050565b6000614b5482614aeb565b91506000821415614b6857614b67614c1f565b5b600182039050919050565b60006002820490506001821680614b8b57607f821691505b60208210811415614b9f57614b9e614c7d565b5b50919050565b614bae82614cdb565b810181811067ffffffffffffffff82111715614bcd57614bcc614cac565b5b80604052505050565b6000614be182614aeb565b91507fffffffffffffffffffffffffffffffffffffffffffffffffffffffffffffffff821415614c1457614c13614c1f565b5b600182019050919050565b7f4e487b7100000000000000000000000000000000000000000000000000000000600052601160045260246000fd5b7f4e487b7100000000000000000000000000000000000000000000000000000000600052602160045260246000fd5b7f4e487b7100000000000000000000000000000000000000000000000000000000600052602260045260246000fd5b7f4e487b7100000000000000000000000000000000000000000000000000000000600052604160045260246000fd5b6000601f19601f8301169050919050565b7f4552433732313a2063616c6c6572206973206e6f7420746f6b656e206f776e6560008201527f72206f7220617070726f76656400000000000000000000000000000000000000602082015250565b7f43757272656e744f776e6572417070726f76616c000000000000000000000000600082015250565b7f5573657220697320616c7265616479204469737472696275746f720000000000600082015250565b7f524543206e6f7420666f756e6400000000000000000000000000000000000000600082015250565b7f4552433732313a207472616e7366657220746f206e6f6e20455243373231526560008201527f63656976657220696d706c656d656e7465720000000000000000000000000000602082015250565b7f416c72656164794d696e74656400000000000000000000000000000000000000600082015250565b7f5a65726f416464726573734d696e6974696e6700000000000000000000000000600082015250565b7f55736572206e6f74207265676973746572656400000000000000000000000000600082015250565b7f4552433732313a207472616e736665722066726f6d20696e636f72726563742060008201527f6f776e6572000000000000000000000000000000000000000000000000000000602082015250565b7f4552433732313a207472616e7366657220746f20746865207a65726f2061646460008201527f7265737300000000000000000000000000000000000000000000000000000000602082015250565b7f4552433732313a20617070726f766520746f2063616c6c657200000000000000600082015250565b7f496e73756666696369656e742062616c616e6365000000000000000000000000600082015250565b7f4e6f417373657445786973747300000000000000000000000000000000000000600082015250565b7f4552433732313a206f70657261746f7220717565727920666f72206e6f6e657860008201527f697374656e7420746f6b656e0000000000000000000000000000000000000000602082015250565b7f496e76616c696420696e70757420706172616d65746572000000000000000000600082015250565b7f4552433732313a2061646472657373207a65726f206973206e6f74206120766160008201527f6c6964206f776e65720000000000000000000000000000000000000000000000602082015250565b7f4552433732313a2062616c616e636520717565727920666f7220746865207a6560008201527f726f206164647265737300000000000000000000000000000000000000000000602082015250565b7f4f6e6c7920726567697374657265642075736572732063616e2063616c6c207460008201527f6869730000000000000000000000000000000000000000000000000000000000602082015250565b7f55736572206e6f7420666f756e64000000000000000000000000000000000000600082015250565b7f4552433732313a20617070726f76656420717565727920666f72206e6f6e657860008201527f697374656e7420746f6b656e0000000000000000000000000000000000000000602082015250565b7f5573657220616c72656164792072656769737465726564000000000000000000600082015250565b7f4e6f74416e417070726f7665644f776e65720000000000000000000000000000600082015250565b7f4552433732313a20696e76616c696420746f6b656e2049440000000000000000600082015250565b7f4e6f7454686541737365744f776e657200000000000000000000000000000000600082015250565b7f496e76616c69642062616c616e63650000000000000000000000000000000000600082015250565b7f496e76616c696420696e70757420706172616d65746572730000000000000000600082015250565b7f5573657220697320616c72656164792052656769737465726564000000000000600082015250565b7f4f6e6c79206469737472696275746f722063616e2063616c6c20746869730000600082015250565b7f4f6e6c79206f776e65722063616e2063616c6c20746869730000000000000000600082015250565b7f4e6f7454686561737365744f776e657200000000000000000000000000000000600082015250565b6002811061532157615320614c4e565b5b50565b61532d81614a5c565b811461533857600080fd5b50565b61534481614a6e565b811461534f57600080fd5b50565b61535b81614a80565b811461536657600080fd5b50565b61537281614a8c565b811461537d57600080fd5b50565b61538981614aeb565b811461539457600080fd5b5056fea26469706673582212209d363306737c81e144573782f74d8e4de4e9776ae3c018505e1337eb0eac393764736f6c63430008010033",
  "immutableReferences": {},
  "source": "// SPDX-License-Identifier: UNLICENSED\npragma solidity ^0.8.1;\n\nimport \"@openzeppelin/contracts/token/ERC721/ERC721.sol\";\n\ncontract RenewableEnergyToken is ERC721 {\n    \n    address public owner;\n    \n    struct User {\n        string id;\n        string name;\n        uint balance;\n        REC[] certificates;\n        bool isDistributor;\n        bool isRegistered;\n    }\n    \n    struct REC {\n        uint id;\n        string name;\n        uint quantity;\n        uint256 price;\n        Status status;\n    }\n\n    uint public recCount;\n    mapping(uint => REC) public recs;\n    mapping(uint => address) private recOwner;\n    mapping (address => uint256) private ownedAssetsCount;    \n    mapping (uint256 => address) public assetApprovals;\n\n    address[]  addressList;\n    \n    enum Status {Available, Sold}\n    \n    mapping(address => User) users;\n\n    //Events\n    //event Transfer(address indexed from, address indexed to, uint256 indexed tokenId);\n    //event Approval(address indexed owner, address indexed approved, uint256 indexed tokenId);\n\n    constructor() ERC721(\"RenewableEnergyToken\", \"RET\") {\n        owner = msg.sender;\n\t\taddressList.push(owner);\n    }\n\n    modifier onlyOwner() {\n        require(msg.sender == owner, \"Only owner can call this\");\n        _;\n    }\n\n    modifier onlyRegistered() {\n        require(msg.sender == owner || users[msg.sender].isRegistered, \"Only registered users can call this\");\n        _;\n    }\n\n    modifier onlyDistributor() {\n        require(msg.sender == owner || users[msg.sender].isDistributor, \"Only distributor can call this\");\n        _;\n    }\n\n\tfunction getUserRole(address user) public view returns (string memory) {\n\t\tif (user == owner) {\n\t\t\treturn \"owner\";\n\t\t} else if (users[user].isDistributor) {\n\t\t\treturn \"distributor\";\n\t\t} else if (users[user].isRegistered) {\n\t\t\treturn \"registered\";\n\t\t} else {\n\t\t\t User storage userObj = users[user];\n\t\t\tif (bytes(userObj.id).length > 0)\n\t\t\t\treturn \"not yet verified\";\n\t\t\telse \n\t\t\t\treturn \"none\";\n\t\t\t}\n\t}\n\n    //ERC721 methods\n\n\tfunction balanceOf() public view returns (uint256)  {\n        require(msg.sender != address(0), \"ERC721: balance query for the zero address\");\n\n        return ownedAssetsCount[msg.sender];\n    }\n    \n     function ownerOf(uint256 assetId) public view override returns (address) {\n         address owner = recOwner[assetId];\n         require(owner != address(0), \"NoAssetExists\");\n         return owner;\n     }\n    \n\tfunction appreciate(uint256 assetId,uint256 value) public onlyDistributor{\n        recs[assetId].price = recs[assetId].price + value;\n    }\n    \n\tfunction depreciate(uint256 assetId,uint256 value) public onlyDistributor{\n        recs[assetId].price = recs[assetId].price - value;\n    }\n    \n    function transferFrom(address payable from, uint256 recId) public payable{\n        require(isApprovedOrOwner(msg.sender, recId), \"NotAnApprovedOwner\");\n        require(ownerOf(recId) == from, \"NotTheassetOwner\");\n        clearApproval(recId,getApproved(recId));\n        ownedAssetsCount[from]--;\n        ownedAssetsCount[msg.sender]++;\n        recOwner[recId] = msg.sender;\n        from.transfer(recs[recId].price * 1000000000000000000);\n        emit Transfer(from, msg.sender, recId);\n    }\n\n    function approve(address to,uint256 assetId) public override {\n        address owner = ownerOf(assetId);\n        require(to != owner, \"CurrentOwnerApproval\");\n        require(msg.sender == owner,\"NotTheAssetOwner\");\n        assetApprovals[assetId] = to;\n        emit Approval(owner, to, assetId);\n    }\n\n    function getApproved(uint256 assetId) public view override returns (address) {\n        require(exists(assetId), \"ERC721: approved query for nonexistent token\");\n        return assetApprovals[assetId];\n    }\n    \n\tfunction clearApproval(uint256 assetId,address approved) public {\n        if (assetApprovals[assetId]==approved){\n            assetApprovals[assetId] = address(0);\n        }\n    }\n\n    // Function used internally by other methods\n    function mint(address to, uint256 recId) internal {\n        require(to != address(0), \"ZeroAddressMiniting\");\n        require(!exists(recId), \"AlreadyMinted\");\n        recOwner[recId] = to;\n        ownedAssetsCount[to]++;\n        emit Transfer(address(0), to, recId);\n    }\n\n    function exists(uint256 assetId) internal view returns (bool) {\n        return recOwner[assetId] != address(0);\n    }\n\n    function isApprovedOrOwner(address spender, uint256 assetId) internal view returns (bool) {\n        require(exists(assetId), \"ERC721: operator query for nonexistent token\");\n        address owner = ownerOf(assetId);\n        return (spender == owner || getApproved(assetId) == spender);\n    }\n\n    //REC functions\n    function generateREC(string memory name, uint quantity, address sellerAddress) public onlyDistributor payable {\n        require(bytes(name).length > 0 && quantity > 0 && msg.value > 0 && sellerAddress!=address(0), \"Invalid input parameters\");\n\n        recs[recCount] =  REC(recCount, name, quantity, msg.value, Status.Available);\n        \n        mint(sellerAddress,recCount);\n        recCount = recCount+1;\n    }\n\n\tfunction getAddressList() public view returns (address[] memory) {\n        return addressList;\n    }\n\n\tfunction getCertificate(uint id) public view onlyRegistered returns (uint, string memory, uint, uint,address, Status) {\n        REC memory rec = recs[id];\n        return (id, rec.name, rec.quantity, rec.price, recOwner[id], rec.status);\n    }\n\n    function verifyREC(uint id) public view onlyRegistered returns (bool) {\n        require(id>=0, \"Invalid input parameter\");\n\n        REC storage rec = recs[id];\n        require(id<recCount, \"REC not found\");\n\n        User storage user = users[msg.sender];\n        require(address(this).balance >= rec.price, \"Insufficient balance\");\n        return true;\n    }\n\n    function approveDistributor(address userAddress) public onlyOwner {\n        User storage user = users[userAddress];\n        require(bytes(user.id).length > 0, \"User not found\");\n        require(!user.isDistributor, \"User is already Distributor\");\n\n        user.isDistributor = true;\n        user.isRegistered = true;\n    }\n\n    function approveUser(address userAddress) public onlyDistributor {\n        User storage user = users[userAddress];\n        require(bytes(user.id).length > 0, \"User not found\");\n        require(!user.isRegistered, \"User is already Registered\");\n\n        user.isRegistered = true;\n    }\n\n    function selfRegister(string memory id, string memory name, address userAddress) public {\n        require(bytes(id).length > 0 && bytes(name).length > 0, \"Invalid input parameters\");\n\n        User storage user = users[msg.sender];\n        require(bytes(user.id).length == 0, \"User already registered\");\n\n        user.id = id;\n        user.name = name;\n        user.balance = address(this).balance; \n        user.isDistributor = false;\n\t\tuser.isRegistered = false;\n        addressList.push((userAddress));\n    }\n\n    function topupBalance() public onlyRegistered payable {\n        User storage user = users[msg.sender];\n        require(bytes(user.id).length != 0, \"User not registered\");\n        require(msg.value >= 0, \"Invalid balance\");\n\n        user.balance += msg.value;\n    }\n}",
  "sourcePath": "/Users/sandeepkunusoth/Downloads/blockchain-project/RenewableEnergyToken-Dapp/renewableenergytoken-contract/contracts/RenewableEnergyToken.sol",
  "compiler": {
    "name": "solc",
    "version": "0.8.1+commit.df193b15.Emscripten.clang"
  },
  "schemaVersion": "3.4.13",
  "updatedAt": "2023-05-09T23:48:12.534Z",
  "networkType": "ethereum",
  "devdoc": {
    "kind": "dev",
    "methods": {
      "balanceOf(address)": {
        "details": "See {IERC721-balanceOf}."
      },
      "isApprovedForAll(address,address)": {
        "details": "See {IERC721-isApprovedForAll}."
      },
      "name()": {
        "details": "See {IERC721Metadata-name}."
      },
      "safeTransferFrom(address,address,uint256)": {
        "details": "See {IERC721-safeTransferFrom}."
      },
      "safeTransferFrom(address,address,uint256,bytes)": {
        "details": "See {IERC721-safeTransferFrom}."
      },
      "setApprovalForAll(address,bool)": {
        "details": "See {IERC721-setApprovalForAll}."
      },
      "supportsInterface(bytes4)": {
        "details": "See {IERC165-supportsInterface}."
      },
      "symbol()": {
        "details": "See {IERC721Metadata-symbol}."
      },
      "tokenURI(uint256)": {
        "details": "See {IERC721Metadata-tokenURI}."
      },
      "transferFrom(address,address,uint256)": {
        "details": "See {IERC721-transferFrom}."
      }
    },
    "version": 1
  },
  "userdoc": {
    "kind": "user",
    "methods": {},
    "version": 1
  }
}