{
  "contractName": "RenewableEnergyToken",
  "abi": [
    {
      "inputs": [],
      "stateMutability": "nonpayable",
      "type": "constructor"
    },
    {
      "anonymous": false,
      "inputs": [
        {
          "indexed": true,
          "internalType": "address",
          "name": "owner",
          "type": "address"
        },
        {
          "indexed": true,
          "internalType": "address",
          "name": "approved",
          "type": "address"
        },
        {
          "indexed": true,
          "internalType": "uint256",
          "name": "tokenId",
          "type": "uint256"
        }
      ],
      "name": "Approval",
      "type": "event"
    },
    {
      "anonymous": false,
      "inputs": [
        {
          "indexed": true,
          "internalType": "address",
          "name": "owner",
          "type": "address"
        },
        {
          "indexed": true,
          "internalType": "address",
          "name": "operator",
          "type": "address"
        },
        {
          "indexed": false,
          "internalType": "bool",
          "name": "approved",
          "type": "bool"
        }
      ],
      "name": "ApprovalForAll",
      "type": "event"
    },
    {
      "anonymous": false,
      "inputs": [
        {
          "indexed": true,
          "internalType": "address",
          "name": "from",
          "type": "address"
        },
        {
          "indexed": true,
          "internalType": "address",
          "name": "to",
          "type": "address"
        },
        {
          "indexed": true,
          "internalType": "uint256",
          "name": "tokenId",
          "type": "uint256"
        }
      ],
      "name": "Transfer",
      "type": "event"
    },
    {
      "inputs": [
        {
          "internalType": "address",
          "name": "to",
          "type": "address"
        },
        {
          "internalType": "uint256",
          "name": "tokenId",
          "type": "uint256"
        }
      ],
      "name": "approve",
      "outputs": [],
      "stateMutability": "nonpayable",
      "type": "function"
    },
    {
      "inputs": [
        {
          "internalType": "address",
          "name": "owner",
          "type": "address"
        }
      ],
      "name": "balanceOf",
      "outputs": [
        {
          "internalType": "uint256",
          "name": "",
          "type": "uint256"
        }
      ],
      "stateMutability": "view",
      "type": "function",
      "constant": true
    },
    {
      "inputs": [
        {
          "internalType": "uint256",
          "name": "tokenId",
          "type": "uint256"
        }
      ],
      "name": "getApproved",
      "outputs": [
        {
          "internalType": "address",
          "name": "",
          "type": "address"
        }
      ],
      "stateMutability": "view",
      "type": "function",
      "constant": true
    },
    {
      "inputs": [
        {
          "internalType": "address",
          "name": "owner",
          "type": "address"
        },
        {
          "internalType": "address",
          "name": "operator",
          "type": "address"
        }
      ],
      "name": "isApprovedForAll",
      "outputs": [
        {
          "internalType": "bool",
          "name": "",
          "type": "bool"
        }
      ],
      "stateMutability": "view",
      "type": "function",
      "constant": true
    },
    {
      "inputs": [],
      "name": "name",
      "outputs": [
        {
          "internalType": "string",
          "name": "",
          "type": "string"
        }
      ],
      "stateMutability": "view",
      "type": "function",
      "constant": true
    },
    {
      "inputs": [
        {
          "internalType": "uint256",
          "name": "tokenId",
          "type": "uint256"
        }
      ],
      "name": "ownerOf",
      "outputs": [
        {
          "internalType": "address",
          "name": "",
          "type": "address"
        }
      ],
      "stateMutability": "view",
      "type": "function",
      "constant": true
    },
    {
      "inputs": [
        {
          "internalType": "address",
          "name": "from",
          "type": "address"
        },
        {
          "internalType": "address",
          "name": "to",
          "type": "address"
        },
        {
          "internalType": "uint256",
          "name": "tokenId",
          "type": "uint256"
        }
      ],
      "name": "safeTransferFrom",
      "outputs": [],
      "stateMutability": "nonpayable",
      "type": "function"
    },
    {
      "inputs": [
        {
          "internalType": "address",
          "name": "from",
          "type": "address"
        },
        {
          "internalType": "address",
          "name": "to",
          "type": "address"
        },
        {
          "internalType": "uint256",
          "name": "tokenId",
          "type": "uint256"
        },
        {
          "internalType": "bytes",
          "name": "data",
          "type": "bytes"
        }
      ],
      "name": "safeTransferFrom",
      "outputs": [],
      "stateMutability": "nonpayable",
      "type": "function"
    },
    {
      "inputs": [
        {
          "internalType": "address",
          "name": "operator",
          "type": "address"
        },
        {
          "internalType": "bool",
          "name": "approved",
          "type": "bool"
        }
      ],
      "name": "setApprovalForAll",
      "outputs": [],
      "stateMutability": "nonpayable",
      "type": "function"
    },
    {
      "inputs": [
        {
          "internalType": "bytes4",
          "name": "interfaceId",
          "type": "bytes4"
        }
      ],
      "name": "supportsInterface",
      "outputs": [
        {
          "internalType": "bool",
          "name": "",
          "type": "bool"
        }
      ],
      "stateMutability": "view",
      "type": "function",
      "constant": true
    },
    {
      "inputs": [],
      "name": "symbol",
      "outputs": [
        {
          "internalType": "string",
          "name": "",
          "type": "string"
        }
      ],
      "stateMutability": "view",
      "type": "function",
      "constant": true
    },
    {
      "inputs": [
        {
          "internalType": "uint256",
          "name": "tokenId",
          "type": "uint256"
        }
      ],
      "name": "tokenURI",
      "outputs": [
        {
          "internalType": "string",
          "name": "",
          "type": "string"
        }
      ],
      "stateMutability": "view",
      "type": "function",
      "constant": true
    },
    {
      "inputs": [
        {
          "internalType": "address",
          "name": "from",
          "type": "address"
        },
        {
          "internalType": "address",
          "name": "to",
          "type": "address"
        },
        {
          "internalType": "uint256",
          "name": "tokenId",
          "type": "uint256"
        }
      ],
      "name": "transferFrom",
      "outputs": [],
      "stateMutability": "nonpayable",
      "type": "function"
    },
    {
      "inputs": [
        {
          "internalType": "address",
          "name": "user",
          "type": "address"
        }
      ],
      "name": "getUserRole",
      "outputs": [
        {
          "internalType": "string",
          "name": "",
          "type": "string"
        }
      ],
      "stateMutability": "view",
      "type": "function",
      "constant": true
    },
    {
      "inputs": [],
      "name": "getCertificatesOfUser",
      "outputs": [
        {
          "components": [
            {
              "internalType": "string",
              "name": "id",
              "type": "string"
            },
            {
              "internalType": "string",
              "name": "name",
              "type": "string"
            },
            {
              "internalType": "uint256",
              "name": "quantity",
              "type": "uint256"
            },
            {
              "internalType": "uint256",
              "name": "price",
              "type": "uint256"
            },
            {
              "internalType": "address",
              "name": "sellerAddress",
              "type": "address"
            },
            {
              "internalType": "enum RenewableEnergyToken.Status",
              "name": "status",
              "type": "uint8"
            }
          ],
          "internalType": "struct RenewableEnergyToken.REC[]",
          "name": "",
          "type": "tuple[]"
        }
      ],
      "stateMutability": "view",
      "type": "function",
      "constant": true
    },
    {
      "inputs": [],
      "name": "getAllCertificates",
      "outputs": [
        {
          "components": [
            {
              "internalType": "string",
              "name": "id",
              "type": "string"
            },
            {
              "internalType": "string",
              "name": "name",
              "type": "string"
            },
            {
              "internalType": "uint256",
              "name": "quantity",
              "type": "uint256"
            },
            {
              "internalType": "uint256",
              "name": "price",
              "type": "uint256"
            },
            {
              "internalType": "address",
              "name": "sellerAddress",
              "type": "address"
            },
            {
              "internalType": "enum RenewableEnergyToken.Status",
              "name": "status",
              "type": "uint8"
            }
          ],
          "internalType": "struct RenewableEnergyToken.REC[]",
          "name": "",
          "type": "tuple[]"
        }
      ],
      "stateMutability": "view",
      "type": "function",
      "constant": true
    },
    {
      "inputs": [
        {
          "internalType": "string",
          "name": "id",
          "type": "string"
        }
      ],
      "name": "getCertificate",
      "outputs": [
        {
          "internalType": "string",
          "name": "",
          "type": "string"
        },
        {
          "internalType": "string",
          "name": "",
          "type": "string"
        },
        {
          "internalType": "uint256",
          "name": "",
          "type": "uint256"
        },
        {
          "internalType": "uint256",
          "name": "",
          "type": "uint256"
        },
        {
          "internalType": "address",
          "name": "",
          "type": "address"
        },
        {
          "internalType": "enum RenewableEnergyToken.Status",
          "name": "",
          "type": "uint8"
        }
      ],
      "stateMutability": "view",
      "type": "function",
      "constant": true
    },
    {
      "inputs": [
        {
          "internalType": "string",
          "name": "id",
          "type": "string"
        },
        {
          "internalType": "string",
          "name": "name",
          "type": "string"
        },
        {
          "internalType": "uint256",
          "name": "quantity",
          "type": "uint256"
        },
        {
          "internalType": "uint256",
          "name": "price",
          "type": "uint256"
        },
        {
          "internalType": "address",
          "name": "sellerAddress",
          "type": "address"
        }
      ],
      "name": "generateREC",
      "outputs": [],
      "stateMutability": "nonpayable",
      "type": "function"
    },
    {
      "inputs": [
        {
          "internalType": "string",
          "name": "id",
          "type": "string"
        }
      ],
      "name": "verifyREC",
      "outputs": [
        {
          "internalType": "bool",
          "name": "",
          "type": "bool"
        }
      ],
      "stateMutability": "view",
      "type": "function",
      "constant": true
    },
    {
      "inputs": [
        {
          "internalType": "string",
          "name": "id",
          "type": "string"
        }
      ],
      "name": "buyREC",
      "outputs": [],
      "stateMutability": "payable",
      "type": "function",
      "payable": true
    },
    {
      "inputs": [
        {
          "internalType": "string",
          "name": "id",
          "type": "string"
        },
        {
          "internalType": "uint256",
          "name": "price",
          "type": "uint256"
        }
      ],
      "name": "sellREC",
      "outputs": [],
      "stateMutability": "nonpayable",
      "type": "function"
    },
    {
      "inputs": [
        {
          "internalType": "address",
          "name": "userAddress",
          "type": "address"
        }
      ],
      "name": "approveDistributor",
      "outputs": [],
      "stateMutability": "nonpayable",
      "type": "function"
    },
    {
      "inputs": [
        {
          "internalType": "address",
          "name": "userAddress",
          "type": "address"
        }
      ],
      "name": "approveUser",
      "outputs": [],
      "stateMutability": "nonpayable",
      "type": "function"
    },
    {
      "inputs": [
        {
          "internalType": "string",
          "name": "id",
          "type": "string"
        },
        {
          "internalType": "string",
          "name": "name",
          "type": "string"
        },
        {
          "internalType": "address",
          "name": "userAddress",
          "type": "address"
        }
      ],
      "name": "selfRegister",
      "outputs": [],
      "stateMutability": "nonpayable",
      "type": "function"
    },
    {
      "inputs": [],
      "name": "topupBalance",
      "outputs": [],
      "stateMutability": "payable",
      "type": "function",
      "payable": true
    }
  ],
  "bytecode": "0x60806040523480156200001157600080fd5b506040518060400160405280601481526020017f52656e657761626c65456e65726779546f6b656e0000000000000000000000008152506040518060400160405280600381526020017f524554000000000000000000000000000000000000000000000000000000000081525081600090816200008f919062000365565b508060019081620000a1919062000365565b50505033600660006101000a81548173ffffffffffffffffffffffffffffffffffffffff021916908373ffffffffffffffffffffffffffffffffffffffff1602179055506200044c565b600081519050919050565b7f4e487b7100000000000000000000000000000000000000000000000000000000600052604160045260246000fd5b7f4e487b7100000000000000000000000000000000000000000000000000000000600052602260045260246000fd5b600060028204905060018216806200016d57607f821691505b60208210810362000183576200018262000125565b5b50919050565b60008190508160005260206000209050919050565b60006020601f8301049050919050565b600082821b905092915050565b600060088302620001ed7fffffffffffffffffffffffffffffffffffffffffffffffffffffffffffffffff82620001ae565b620001f98683620001ae565b95508019841693508086168417925050509392505050565b6000819050919050565b6000819050919050565b600062000246620002406200023a8462000211565b6200021b565b62000211565b9050919050565b6000819050919050565b620002628362000225565b6200027a62000271826200024d565b848454620001bb565b825550505050565b600090565b6200029162000282565b6200029e81848462000257565b505050565b5b81811015620002c657620002ba60008262000287565b600181019050620002a4565b5050565b601f8211156200031557620002df8162000189565b620002ea846200019e565b81016020851015620002fa578190505b6200031262000309856200019e565b830182620002a3565b50505b505050565b600082821c905092915050565b60006200033a600019846008026200031a565b1980831691505092915050565b600062000355838362000327565b9150826002028217905092915050565b6200037082620000eb565b67ffffffffffffffff8111156200038c576200038b620000f6565b5b62000398825462000154565b620003a5828285620002ca565b600060209050601f831160018114620003dd5760008415620003c8578287015190505b620003d4858262000347565b86555062000444565b601f198416620003ed8662000189565b60005b828110156200041757848901518255600182019150602085019450602081019050620003f0565b8683101562000437578489015162000433601f89168262000327565b8355505b6001600288020188555050505b505050505050565b615407806200045c6000396000f3fe6080604052600436106101665760003560e01c806354b7a64c116100d1578063a22cb4651161008a578063c87b56dd11610064578063c87b56dd1461051c578063d624fdb614610559578063e985e9c514610582578063ed0f2e75146105bf57610166565b8063a22cb465146104a1578063afc7ceec146104ca578063b88d4fde146104f357610166565b806354b7a64c1461038c5780636352211e146103b757806366663138146103f457806370a082311461041057806395084a411461044d57806395d89b411461047657610166565b806323b872dd1161012357806323b872dd1461028d57806327820851146102b657806327c5cf70146102f357806342842e0e14610330578063467ee32114610359578063482aede51461036357610166565b806301ffc9a71461016b578063024c119c146101a857806306fdde03146101d1578063081812fc146101fc578063095ea7b31461023957806313fcfe8014610262575b600080fd5b34801561017757600080fd5b50610192600480360381019061018d91906136ff565b610601565b60405161019f9190613747565b60405180910390f35b3480156101b457600080fd5b506101cf60048036038101906101ca91906138de565b6106e3565b005b3480156101dd57600080fd5b506101e66109ca565b6040516101f391906139b9565b60405180910390f35b34801561020857600080fd5b50610223600480360381019061021e91906139db565b610a5c565b6040516102309190613a49565b60405180910390f35b34801561024557600080fd5b50610260600480360381019061025b9190613a90565b610aa2565b005b34801561026e57600080fd5b50610277610bb9565b6040516102849190613d01565b60405180910390f35b34801561029957600080fd5b506102b460048036038101906102af9190613d23565b611095565b005b3480156102c257600080fd5b506102dd60048036038101906102d89190613d76565b6110f5565b6040516102ea91906139b9565b60405180910390f35b3480156102ff57600080fd5b5061031a60048036038101906103159190613da3565b6112eb565b6040516103279190613747565b60405180910390f35b34801561033c57600080fd5b5061035760048036038101906103529190613d23565b6114ce565b005b6103616114ee565b005b34801561036f57600080fd5b5061038a60048036038101906103859190613d76565b611675565b005b34801561039857600080fd5b506103a161182b565b6040516103ae9190613d01565b60405180910390f35b3480156103c357600080fd5b506103de60048036038101906103d991906139db565b611b22565b6040516103eb9190613a49565b60405180910390f35b61040e60048036038101906104099190613da3565b611ba8565b005b34801561041c57600080fd5b5061043760048036038101906104329190613d76565b611fdf565b6040516104449190613dfb565b60405180910390f35b34801561045957600080fd5b50610474600480360381019061046f9190613e16565b612096565b005b34801561048257600080fd5b5061048b612231565b60405161049891906139b9565b60405180910390f35b3480156104ad57600080fd5b506104c860048036038101906104c39190613ecd565b6122c3565b005b3480156104d657600080fd5b506104f160048036038101906104ec9190613f0d565b6122d9565b005b3480156104ff57600080fd5b5061051a60048036038101906105159190614061565b612545565b005b34801561052857600080fd5b50610543600480360381019061053e91906139db565b6125a7565b60405161055091906139b9565b60405180910390f35b34801561056557600080fd5b50610580600480360381019061057b9190613d76565b61260f565b005b34801561058e57600080fd5b506105a960048036038101906105a491906140e4565b6127a7565b6040516105b69190613747565b60405180910390f35b3480156105cb57600080fd5b506105e660048036038101906105e19190613da3565b61283b565b6040516105f896959493929190614133565b60405180910390f35b60007f80ac58cd000000000000000000000000000000000000000000000000000000007bffffffffffffffffffffffffffffffffffffffffffffffffffffffff1916827bffffffffffffffffffffffffffffffffffffffffffffffffffffffff191614806106cc57507f5b5e139f000000000000000000000000000000000000000000000000000000007bffffffffffffffffffffffffffffffffffffffffffffffffffffffff1916827bffffffffffffffffffffffffffffffffffffffffffffffffffffffff1916145b806106dc57506106db82612afd565b5b9050919050565b600860003373ffffffffffffffffffffffffffffffffffffffff1673ffffffffffffffffffffffffffffffffffffffff16815260200190815260200160002060040160019054906101000a900460ff16610772576040517f08c379a000000000000000000000000000000000000000000000000000000000815260040161076990614214565b60405180910390fd5b60006009836040516107849190614270565b9081526020016040518091039020905060008160000180546107a5906142b6565b9050116107e7576040517f08c379a00000000000000000000000000000000000000000000000000000000081526004016107de90614333565b60405180910390fd5b600060018111156107fb576107fa613b64565b5b8160040160149054906101000a900460ff16600181111561081f5761081e613b64565b5b1461085f576040517f08c379a00000000000000000000000000000000000000000000000000000000081526004016108569061439f565b60405180910390fd5b600073ffffffffffffffffffffffffffffffffffffffff168160040160009054906101000a900473ffffffffffffffffffffffffffffffffffffffff1673ffffffffffffffffffffffffffffffffffffffff16148061090d57503373ffffffffffffffffffffffffffffffffffffffff168160040160009054906101000a900473ffffffffffffffffffffffffffffffffffffffff1673ffffffffffffffffffffffffffffffffffffffff16145b61094c576040517f08c379a00000000000000000000000000000000000000000000000000000000081526004016109439061440b565b60405180910390fd5b818160030181905550338160040160006101000a81548173ffffffffffffffffffffffffffffffffffffffff021916908373ffffffffffffffffffffffffffffffffffffffff16021790555060008160040160146101000a81548160ff021916908360018111156109c0576109bf613b64565b5b0217905550505050565b6060600080546109d9906142b6565b80601f0160208091040260200160405190810160405280929190818152602001828054610a05906142b6565b8015610a525780601f10610a2757610100808354040283529160200191610a52565b820191906000526020600020905b815481529060010190602001808311610a3557829003601f168201915b5050505050905090565b6000610a6782612b67565b6004600083815260200190815260200160002060009054906101000a900473ffffffffffffffffffffffffffffffffffffffff169050919050565b6000610aad82611b22565b90508073ffffffffffffffffffffffffffffffffffffffff168373ffffffffffffffffffffffffffffffffffffffff1603610b1d576040517f08c379a0000000000000000000000000000000000000000000000000000000008152600401610b149061449d565b60405180910390fd5b8073ffffffffffffffffffffffffffffffffffffffff16610b3c612bb2565b73ffffffffffffffffffffffffffffffffffffffff161480610b6b5750610b6a81610b65612bb2565b6127a7565b5b610baa576040517f08c379a0000000000000000000000000000000000000000000000000000000008152600401610ba19061452f565b60405180910390fd5b610bb48383612bba565b505050565b6060600860003373ffffffffffffffffffffffffffffffffffffffff1673ffffffffffffffffffffffffffffffffffffffff16815260200190815260200160002060040160019054906101000a900460ff16610c4a576040517f08c379a0000000000000000000000000000000000000000000000000000000008152600401610c4190614214565b60405180910390fd5b600080600090505b600780549050811015610d03576008600060078381548110610c7757610c7661454f565b5b9060005260206000200160009054906101000a900473ffffffffffffffffffffffffffffffffffffffff1673ffffffffffffffffffffffffffffffffffffffff1673ffffffffffffffffffffffffffffffffffffffff1681526020019081526020016000206003018054905082610cee91906145ad565b91508080610cfb906145e1565b915050610c52565b5060008167ffffffffffffffff811115610d2057610d1f61377d565b5b604051908082528060200260200182016040528015610d5957816020015b610d46613635565b815260200190600190039081610d3e5790505b5090506000805b60078054905081101561108b5760006008600060078481548110610d8757610d8661454f565b5b9060005260206000200160009054906101000a900473ffffffffffffffffffffffffffffffffffffffff1673ffffffffffffffffffffffffffffffffffffffff1673ffffffffffffffffffffffffffffffffffffffff168152602001908152602001600020600301805480602002602001604051908101604052809291908181526020016000905b8282101561100a57838290600052602060002090600502016040518060c0016040529081600082018054610e42906142b6565b80601f0160208091040260200160405190810160405280929190818152602001828054610e6e906142b6565b8015610ebb5780601f10610e9057610100808354040283529160200191610ebb565b820191906000526020600020905b815481529060010190602001808311610e9e57829003601f168201915b50505050508152602001600182018054610ed4906142b6565b80601f0160208091040260200160405190810160405280929190818152602001828054610f00906142b6565b8015610f4d5780601f10610f2257610100808354040283529160200191610f4d565b820191906000526020600020905b815481529060010190602001808311610f3057829003601f168201915b5050505050815260200160028201548152602001600382015481526020016004820160009054906101000a900473ffffffffffffffffffffffffffffffffffffffff1673ffffffffffffffffffffffffffffffffffffffff1673ffffffffffffffffffffffffffffffffffffffff1681526020016004820160149054906101000a900460ff166001811115610fe557610fe4613b64565b5b6001811115610ff757610ff6613b64565b5b8152505081526020019060010190610e0f565b50505050905060005b81518110156110765781818151811061102f5761102e61454f565b5b602002602001015185858151811061104a5761104961454f565b5b60200260200101819052508380611060906145e1565b945050808061106e906145e1565b915050611013565b50508080611083906145e1565b915050610d60565b5081935050505090565b6110a66110a0612bb2565b82612c73565b6110e5576040517f08c379a00000000000000000000000000000000000000000000000000000000081526004016110dc9061469b565b60405180910390fd5b6110f0838383612d08565b505050565b6060600660009054906101000a900473ffffffffffffffffffffffffffffffffffffffff1673ffffffffffffffffffffffffffffffffffffffff168273ffffffffffffffffffffffffffffffffffffffff1603611189576040518060400160405280600581526020017f6f776e657200000000000000000000000000000000000000000000000000000081525090506112e6565b600860008373ffffffffffffffffffffffffffffffffffffffff1673ffffffffffffffffffffffffffffffffffffffff16815260200190815260200160002060040160009054906101000a900460ff161561121b576040518060400160405280600b81526020017f6469737472696275746f7200000000000000000000000000000000000000000081525090506112e6565b600860008373ffffffffffffffffffffffffffffffffffffffff1673ffffffffffffffffffffffffffffffffffffffff16815260200190815260200160002060040160019054906101000a900460ff16156112ad576040518060400160405280600a81526020017f726567697374657265640000000000000000000000000000000000000000000081525090506112e6565b6040518060400160405280600481526020017f6e6f6e650000000000000000000000000000000000000000000000000000000081525090505b919050565b6000600860003373ffffffffffffffffffffffffffffffffffffffff1673ffffffffffffffffffffffffffffffffffffffff16815260200190815260200160002060040160019054906101000a900460ff1661137c576040517f08c379a000000000000000000000000000000000000000000000000000000000815260040161137390614214565b60405180910390fd5b60008251116113c0576040517f08c379a00000000000000000000000000000000000000000000000000000000081526004016113b790614707565b60405180910390fd5b60006009836040516113d29190614270565b9081526020016040518091039020905060008160000180546113f3906142b6565b905011611435576040517f08c379a000000000000000000000000000000000000000000000000000000000815260040161142c90614333565b60405180910390fd5b6000600860003373ffffffffffffffffffffffffffffffffffffffff1673ffffffffffffffffffffffffffffffffffffffff16815260200190815260200160002090508160030154816002015410156114c3576040517f08c379a00000000000000000000000000000000000000000000000000000000081526004016114ba90614773565b60405180910390fd5b600192505050919050565b6114e983838360405180602001604052806000815250612545565b505050565b600860003373ffffffffffffffffffffffffffffffffffffffff1673ffffffffffffffffffffffffffffffffffffffff16815260200190815260200160002060040160019054906101000a900460ff1661157d576040517f08c379a000000000000000000000000000000000000000000000000000000000815260040161157490614214565b60405180910390fd5b6000600860003373ffffffffffffffffffffffffffffffffffffffff1673ffffffffffffffffffffffffffffffffffffffff168152602001908152602001600020905060008160000180546115d1906142b6565b905003611613576040517f08c379a000000000000000000000000000000000000000000000000000000000815260040161160a906147df565b60405180910390fd5b6000341015611657576040517f08c379a000000000000000000000000000000000000000000000000000000000815260040161164e9061484b565b60405180910390fd5b3481600201600082825461166b91906145ad565b9250508190555050565b600660009054906101000a900473ffffffffffffffffffffffffffffffffffffffff1673ffffffffffffffffffffffffffffffffffffffff163373ffffffffffffffffffffffffffffffffffffffff1614611705576040517f08c379a00000000000000000000000000000000000000000000000000000000081526004016116fc906148b7565b60405180910390fd5b6000600860008373ffffffffffffffffffffffffffffffffffffffff1673ffffffffffffffffffffffffffffffffffffffff16815260200190815260200160002090506000816000018054611759906142b6565b90501161179b576040517f08c379a000000000000000000000000000000000000000000000000000000000815260040161179290614923565b60405180910390fd5b8060040160019054906101000a900460ff16156117ed576040517f08c379a00000000000000000000000000000000000000000000000000000000081526004016117e49061498f565b60405180910390fd5b60018160040160006101000a81548160ff02191690831515021790555060018160040160016101000a81548160ff0219169083151502179055505050565b6060600860003373ffffffffffffffffffffffffffffffffffffffff1673ffffffffffffffffffffffffffffffffffffffff16815260200190815260200160002060040160019054906101000a900460ff166118bc576040517f08c379a00000000000000000000000000000000000000000000000000000000081526004016118b390614214565b60405180910390fd5b600860003373ffffffffffffffffffffffffffffffffffffffff1673ffffffffffffffffffffffffffffffffffffffff168152602001908152602001600020600301805480602002602001604051908101604052809291908181526020016000905b82821015611b1957838290600052602060002090600502016040518060c0016040529081600082018054611951906142b6565b80601f016020809104026020016040519081016040528092919081815260200182805461197d906142b6565b80156119ca5780601f1061199f576101008083540402835291602001916119ca565b820191906000526020600020905b8154815290600101906020018083116119ad57829003601f168201915b505050505081526020016001820180546119e3906142b6565b80601f0160208091040260200160405190810160405280929190818152602001828054611a0f906142b6565b8015611a5c5780601f10611a3157610100808354040283529160200191611a5c565b820191906000526020600020905b815481529060010190602001808311611a3f57829003601f168201915b5050505050815260200160028201548152602001600382015481526020016004820160009054906101000a900473ffffffffffffffffffffffffffffffffffffffff1673ffffffffffffffffffffffffffffffffffffffff1673ffffffffffffffffffffffffffffffffffffffff1681526020016004820160149054906101000a900460ff166001811115611af457611af3613b64565b5b6001811115611b0657611b05613b64565b5b815250508152602001906001019061191e565b50505050905090565b600080611b2e83613001565b9050600073ffffffffffffffffffffffffffffffffffffffff168173ffffffffffffffffffffffffffffffffffffffff1603611b9f576040517f08c379a0000000000000000000000000000000000000000000000000000000008152600401611b96906149fb565b60405180910390fd5b80915050919050565b600860003373ffffffffffffffffffffffffffffffffffffffff1673ffffffffffffffffffffffffffffffffffffffff16815260200190815260200160002060040160019054906101000a900460ff16611c37576040517f08c379a0000000000000000000000000000000000000000000000000000000008152600401611c2e90614214565b60405180910390fd5b6000600982604051611c499190614270565b908152602001604051809103902090506000816000018054611c6a906142b6565b905011611cac576040517f08c379a0000000000000000000000000000000000000000000000000000000008152600401611ca390614333565b60405180910390fd5b60006001811115611cc057611cbf613b64565b5b8160040160149054906101000a900460ff166001811115611ce457611ce3613b64565b5b14611d24576040517f08c379a0000000000000000000000000000000000000000000000000000000008152600401611d1b90614a67565b60405180910390fd5b6000600860003373ffffffffffffffffffffffffffffffffffffffff1673ffffffffffffffffffffffffffffffffffffffff1681526020019081526020016000209050816003015481600201541015611db2576040517f08c379a0000000000000000000000000000000000000000000000000000000008152600401611da990614773565b60405180910390fd5b6000600860008460040160009054906101000a900473ffffffffffffffffffffffffffffffffffffffff1673ffffffffffffffffffffffffffffffffffffffff1673ffffffffffffffffffffffffffffffffffffffff16815260200190815260200160002090508260030154816002016000828254611e3191906145ad565b925050819055508260030154826002016000828254611e509190614a87565b925050819055508160030183908060018154018082558091505060019003906000526020600020906005020160009091909190915060008201816000019081611e999190614c7d565b5060018201816001019081611eae9190614c7d565b5060028201548160020155600382015481600301556004820160009054906101000a900473ffffffffffffffffffffffffffffffffffffffff168160040160006101000a81548173ffffffffffffffffffffffffffffffffffffffff021916908373ffffffffffffffffffffffffffffffffffffffff1602179055506004820160149054906101000a900460ff168160040160146101000a81548160ff02191690836001811115611f6257611f61613b64565b5b0217905550505060018360040160146101000a81548160ff02191690836001811115611f9157611f90613b64565b5b0217905550338360040160006101000a81548173ffffffffffffffffffffffffffffffffffffffff021916908373ffffffffffffffffffffffffffffffffffffffff16021790555050505050565b60008073ffffffffffffffffffffffffffffffffffffffff168273ffffffffffffffffffffffffffffffffffffffff160361204f576040517f08c379a000000000000000000000000000000000000000000000000000000000815260040161204690614dd7565b60405180910390fd5b600360008373ffffffffffffffffffffffffffffffffffffffff1673ffffffffffffffffffffffffffffffffffffffff168152602001908152602001600020549050919050565b600083511180156120a8575060008251115b6120e7576040517f08c379a00000000000000000000000000000000000000000000000000000000081526004016120de90614e43565b60405180910390fd5b6000600860003373ffffffffffffffffffffffffffffffffffffffff1673ffffffffffffffffffffffffffffffffffffffff1681526020019081526020016000209050600081600001805461213b906142b6565b90501461217d576040517f08c379a000000000000000000000000000000000000000000000000000000000815260040161217490614eaf565b60405180910390fd5b8381600001908161218e9190614ecf565b50828160010190816121a09190614ecf565b506000816002018190555060008160040160006101000a81548160ff0219169083151502179055506007829080600181540180825580915050600190039060005260206000200160009091909190916101000a81548173ffffffffffffffffffffffffffffffffffffffff021916908373ffffffffffffffffffffffffffffffffffffffff16021790555050505050565b606060018054612240906142b6565b80601f016020809104026020016040519081016040528092919081815260200182805461226c906142b6565b80156122b95780601f1061228e576101008083540402835291602001916122b9565b820191906000526020600020905b81548152906001019060200180831161229c57829003601f168201915b5050505050905090565b6122d56122ce612bb2565b838361303e565b5050565b600860003373ffffffffffffffffffffffffffffffffffffffff1673ffffffffffffffffffffffffffffffffffffffff16815260200190815260200160002060040160009054906101000a900460ff16612368576040517f08c379a000000000000000000000000000000000000000000000000000000000815260040161235f90614fed565b60405180910390fd5b6000855111801561237a575060008451115b80156123865750600083115b80156123925750600082115b80156123cb5750600073ffffffffffffffffffffffffffffffffffffffff168173ffffffffffffffffffffffffffffffffffffffff1614155b61240a576040517f08c379a000000000000000000000000000000000000000000000000000000000815260040161240190614e43565b60405180910390fd5b60006040518060c001604052808781526020018681526020018581526020018481526020018373ffffffffffffffffffffffffffffffffffffffff1681526020016000600181111561245f5761245e613b64565b5b8152509050806009876040516124759190614270565b908152602001604051809103902060008201518160000190816124989190614ecf565b5060208201518160010190816124ae9190614ecf565b50604082015181600201556060820151816003015560808201518160040160006101000a81548173ffffffffffffffffffffffffffffffffffffffff021916908373ffffffffffffffffffffffffffffffffffffffff16021790555060a08201518160040160146101000a81548160ff0219169083600181111561253557612534613b64565b5b0217905550905050505050505050565b612556612550612bb2565b83612c73565b612595576040517f08c379a000000000000000000000000000000000000000000000000000000000815260040161258c9061469b565b60405180910390fd5b6125a1848484846131aa565b50505050565b60606125b282612b67565b60006125bc613206565b905060008151116125dc5760405180602001604052806000815250612607565b806125e68461321d565b6040516020016125f792919061500d565b6040516020818303038152906040525b915050919050565b600860003373ffffffffffffffffffffffffffffffffffffffff1673ffffffffffffffffffffffffffffffffffffffff16815260200190815260200160002060040160009054906101000a900460ff1661269e576040517f08c379a000000000000000000000000000000000000000000000000000000000815260040161269590614fed565b60405180910390fd5b6000600860008373ffffffffffffffffffffffffffffffffffffffff1673ffffffffffffffffffffffffffffffffffffffff168152602001908152602001600020905060008160000180546126f2906142b6565b905011612734576040517f08c379a000000000000000000000000000000000000000000000000000000000815260040161272b90614923565b60405180910390fd5b8060040160019054906101000a900460ff1615612786576040517f08c379a000000000000000000000000000000000000000000000000000000000815260040161277d9061507d565b60405180910390fd5b60018160040160016101000a81548160ff0219169083151502179055505050565b6000600560008473ffffffffffffffffffffffffffffffffffffffff1673ffffffffffffffffffffffffffffffffffffffff16815260200190815260200160002060008373ffffffffffffffffffffffffffffffffffffffff1673ffffffffffffffffffffffffffffffffffffffff16815260200190815260200160002060009054906101000a900460ff16905092915050565b606080600080600080600860003373ffffffffffffffffffffffffffffffffffffffff1673ffffffffffffffffffffffffffffffffffffffff16815260200190815260200160002060040160019054906101000a900460ff166128d3576040517f08c379a00000000000000000000000000000000000000000000000000000000081526004016128ca90614214565b60405180910390fd5b60006009886040516128e59190614270565b90815260200160405180910390206040518060c001604052908160008201805461290e906142b6565b80601f016020809104026020016040519081016040528092919081815260200182805461293a906142b6565b80156129875780601f1061295c57610100808354040283529160200191612987565b820191906000526020600020905b81548152906001019060200180831161296a57829003601f168201915b505050505081526020016001820180546129a0906142b6565b80601f01602080910402602001604051908101604052809291908181526020018280546129cc906142b6565b8015612a195780601f106129ee57610100808354040283529160200191612a19565b820191906000526020600020905b8154815290600101906020018083116129fc57829003601f168201915b5050505050815260200160028201548152602001600382015481526020016004820160009054906101000a900473ffffffffffffffffffffffffffffffffffffffff1673ffffffffffffffffffffffffffffffffffffffff1673ffffffffffffffffffffffffffffffffffffffff1681526020016004820160149054906101000a900460ff166001811115612ab157612ab0613b64565b5b6001811115612ac357612ac2613b64565b5b815250509050806000015181602001518260400151836060015184608001518560a001519650965096509650965096505091939550919395565b60007f01ffc9a7000000000000000000000000000000000000000000000000000000007bffffffffffffffffffffffffffffffffffffffffffffffffffffffff1916827bffffffffffffffffffffffffffffffffffffffffffffffffffffffff1916149050919050565b612b70816132eb565b612baf576040517f08c379a0000000000000000000000000000000000000000000000000000000008152600401612ba6906149fb565b60405180910390fd5b50565b600033905090565b816004600083815260200190815260200160002060006101000a81548173ffffffffffffffffffffffffffffffffffffffff021916908373ffffffffffffffffffffffffffffffffffffffff160217905550808273ffffffffffffffffffffffffffffffffffffffff16612c2d83611b22565b73ffffffffffffffffffffffffffffffffffffffff167f8c5be1e5ebec7d5bd14f71427d1e84f3dd0314c0f7b2291e5b200ac8c7c3b92560405160405180910390a45050565b600080612c7f83611b22565b90508073ffffffffffffffffffffffffffffffffffffffff168473ffffffffffffffffffffffffffffffffffffffff161480612cc15750612cc081856127a7565b5b80612cff57508373ffffffffffffffffffffffffffffffffffffffff16612ce784610a5c565b73ffffffffffffffffffffffffffffffffffffffff16145b91505092915050565b8273ffffffffffffffffffffffffffffffffffffffff16612d2882611b22565b73ffffffffffffffffffffffffffffffffffffffff1614612d7e576040517f08c379a0000000000000000000000000000000000000000000000000000000008152600401612d759061510f565b60405180910390fd5b600073ffffffffffffffffffffffffffffffffffffffff168273ffffffffffffffffffffffffffffffffffffffff1603612ded576040517f08c379a0000000000000000000000000000000000000000000000000000000008152600401612de4906151a1565b60405180910390fd5b612dfa838383600161332c565b8273ffffffffffffffffffffffffffffffffffffffff16612e1a82611b22565b73ffffffffffffffffffffffffffffffffffffffff1614612e70576040517f08c379a0000000000000000000000000000000000000000000000000000000008152600401612e679061510f565b60405180910390fd5b6004600082815260200190815260200160002060006101000a81549073ffffffffffffffffffffffffffffffffffffffff02191690556001600360008573ffffffffffffffffffffffffffffffffffffffff1673ffffffffffffffffffffffffffffffffffffffff168152602001908152602001600020600082825403925050819055506001600360008473ffffffffffffffffffffffffffffffffffffffff1673ffffffffffffffffffffffffffffffffffffffff16815260200190815260200160002060008282540192505081905550816002600083815260200190815260200160002060006101000a81548173ffffffffffffffffffffffffffffffffffffffff021916908373ffffffffffffffffffffffffffffffffffffffff160217905550808273ffffffffffffffffffffffffffffffffffffffff168473ffffffffffffffffffffffffffffffffffffffff167fddf252ad1be2c89b69c2b068fc378daa952ba7f163c4a11628f55a4df523b3ef60405160405180910390a4612ffc8383836001613332565b505050565b60006002600083815260200190815260200160002060009054906101000a900473ffffffffffffffffffffffffffffffffffffffff169050919050565b8173ffffffffffffffffffffffffffffffffffffffff168373ffffffffffffffffffffffffffffffffffffffff16036130ac576040517f08c379a00000000000000000000000000000000000000000000000000000000081526004016130a39061520d565b60405180910390fd5b80600560008573ffffffffffffffffffffffffffffffffffffffff1673ffffffffffffffffffffffffffffffffffffffff16815260200190815260200160002060008473ffffffffffffffffffffffffffffffffffffffff1673ffffffffffffffffffffffffffffffffffffffff16815260200190815260200160002060006101000a81548160ff0219169083151502179055508173ffffffffffffffffffffffffffffffffffffffff168373ffffffffffffffffffffffffffffffffffffffff167f17307eab39ab6107e8899845ad3d59bd9653f200f220920489ca2b5937696c318360405161319d9190613747565b60405180910390a3505050565b6131b5848484612d08565b6131c184848484613338565b613200576040517f08c379a00000000000000000000000000000000000000000000000000000000081526004016131f79061529f565b60405180910390fd5b50505050565b606060405180602001604052806000815250905090565b60606000600161322c846134bf565b01905060008167ffffffffffffffff81111561324b5761324a61377d565b5b6040519080825280601f01601f19166020018201604052801561327d5781602001600182028036833780820191505090505b509050600082602001820190505b6001156132e0578080600190039150507f3031323334353637383961626364656600000000000000000000000000000000600a86061a8153600a85816132d4576132d36152bf565b5b0494506000850361328b575b819350505050919050565b60008073ffffffffffffffffffffffffffffffffffffffff1661330d83613001565b73ffffffffffffffffffffffffffffffffffffffff1614159050919050565b50505050565b50505050565b60006133598473ffffffffffffffffffffffffffffffffffffffff16613612565b156134b2578373ffffffffffffffffffffffffffffffffffffffff1663150b7a02613382612bb2565b8786866040518563ffffffff1660e01b81526004016133a49493929190615343565b6020604051808303816000875af19250505080156133e057506040513d601f19601f820116820180604052508101906133dd91906153a4565b60015b613462573d8060008114613410576040519150601f19603f3d011682016040523d82523d6000602084013e613415565b606091505b50600081510361345a576040517f08c379a00000000000000000000000000000000000000000000000000000000081526004016134519061529f565b60405180910390fd5b805181602001fd5b63150b7a0260e01b7bffffffffffffffffffffffffffffffffffffffffffffffffffffffff1916817bffffffffffffffffffffffffffffffffffffffffffffffffffffffff1916149150506134b7565b600190505b949350505050565b600080600090507a184f03e93ff9f4daa797ed6e38ed64bf6a1f010000000000000000831061351d577a184f03e93ff9f4daa797ed6e38ed64bf6a1f0100000000000000008381613513576135126152bf565b5b0492506040810190505b6d04ee2d6d415b85acef8100000000831061355a576d04ee2d6d415b85acef810000000083816135505761354f6152bf565b5b0492506020810190505b662386f26fc10000831061358957662386f26fc10000838161357f5761357e6152bf565b5b0492506010810190505b6305f5e10083106135b2576305f5e10083816135a8576135a76152bf565b5b0492506008810190505b61271083106135d75761271083816135cd576135cc6152bf565b5b0492506004810190505b606483106135fa57606483816135f0576135ef6152bf565b5b0492506002810190505b600a8310613609576001810190505b80915050919050565b6000808273ffffffffffffffffffffffffffffffffffffffff163b119050919050565b6040518060c0016040528060608152602001606081526020016000815260200160008152602001600073ffffffffffffffffffffffffffffffffffffffff1681526020016000600181111561368d5761368c613b64565b5b81525090565b6000604051905090565b600080fd5b600080fd5b60007fffffffff0000000000000000000000000000000000000000000000000000000082169050919050565b6136dc816136a7565b81146136e757600080fd5b50565b6000813590506136f9816136d3565b92915050565b6000602082840312156137155761371461369d565b5b6000613723848285016136ea565b91505092915050565b60008115159050919050565b6137418161372c565b82525050565b600060208201905061375c6000830184613738565b92915050565b600080fd5b600080fd5b6000601f19601f8301169050919050565b7f4e487b7100000000000000000000000000000000000000000000000000000000600052604160045260246000fd5b6137b58261376c565b810181811067ffffffffffffffff821117156137d4576137d361377d565b5b80604052505050565b60006137e7613693565b90506137f382826137ac565b919050565b600067ffffffffffffffff8211156138135761381261377d565b5b61381c8261376c565b9050602081019050919050565b82818337600083830152505050565b600061384b613846846137f8565b6137dd565b90508281526020810184848401111561386757613866613767565b5b613872848285613829565b509392505050565b600082601f83011261388f5761388e613762565b5b813561389f848260208601613838565b91505092915050565b6000819050919050565b6138bb816138a8565b81146138c657600080fd5b50565b6000813590506138d8816138b2565b92915050565b600080604083850312156138f5576138f461369d565b5b600083013567ffffffffffffffff811115613913576139126136a2565b5b61391f8582860161387a565b9250506020613930858286016138c9565b9150509250929050565b600081519050919050565b600082825260208201905092915050565b60005b83811015613974578082015181840152602081019050613959565b60008484015250505050565b600061398b8261393a565b6139958185613945565b93506139a5818560208601613956565b6139ae8161376c565b840191505092915050565b600060208201905081810360008301526139d38184613980565b905092915050565b6000602082840312156139f1576139f061369d565b5b60006139ff848285016138c9565b91505092915050565b600073ffffffffffffffffffffffffffffffffffffffff82169050919050565b6000613a3382613a08565b9050919050565b613a4381613a28565b82525050565b6000602082019050613a5e6000830184613a3a565b92915050565b613a6d81613a28565b8114613a7857600080fd5b50565b600081359050613a8a81613a64565b92915050565b60008060408385031215613aa757613aa661369d565b5b6000613ab585828601613a7b565b9250506020613ac6858286016138c9565b9150509250929050565b600081519050919050565b600082825260208201905092915050565b6000819050602082019050919050565b600082825260208201905092915050565b6000613b188261393a565b613b228185613afc565b9350613b32818560208601613956565b613b3b8161376c565b840191505092915050565b613b4f816138a8565b82525050565b613b5e81613a28565b82525050565b7f4e487b7100000000000000000000000000000000000000000000000000000000600052602160045260246000fd5b60028110613ba457613ba3613b64565b5b50565b6000819050613bb582613b93565b919050565b6000613bc582613ba7565b9050919050565b613bd581613bba565b82525050565b600060c0830160008301518482036000860152613bf88282613b0d565b91505060208301518482036020860152613c128282613b0d565b9150506040830151613c276040860182613b46565b506060830151613c3a6060860182613b46565b506080830151613c4d6080860182613b55565b5060a0830151613c6060a0860182613bcc565b508091505092915050565b6000613c778383613bdb565b905092915050565b6000602082019050919050565b6000613c9782613ad0565b613ca18185613adb565b935083602082028501613cb385613aec565b8060005b85811015613cef5784840389528151613cd08582613c6b565b9450613cdb83613c7f565b925060208a01995050600181019050613cb7565b50829750879550505050505092915050565b60006020820190508181036000830152613d1b8184613c8c565b905092915050565b600080600060608486031215613d3c57613d3b61369d565b5b6000613d4a86828701613a7b565b9350506020613d5b86828701613a7b565b9250506040613d6c868287016138c9565b9150509250925092565b600060208284031215613d8c57613d8b61369d565b5b6000613d9a84828501613a7b565b91505092915050565b600060208284031215613db957613db861369d565b5b600082013567ffffffffffffffff811115613dd757613dd66136a2565b5b613de38482850161387a565b91505092915050565b613df5816138a8565b82525050565b6000602082019050613e106000830184613dec565b92915050565b600080600060608486031215613e2f57613e2e61369d565b5b600084013567ffffffffffffffff811115613e4d57613e4c6136a2565b5b613e598682870161387a565b935050602084013567ffffffffffffffff811115613e7a57613e796136a2565b5b613e868682870161387a565b9250506040613e9786828701613a7b565b9150509250925092565b613eaa8161372c565b8114613eb557600080fd5b50565b600081359050613ec781613ea1565b92915050565b60008060408385031215613ee457613ee361369d565b5b6000613ef285828601613a7b565b9250506020613f0385828601613eb8565b9150509250929050565b600080600080600060a08688031215613f2957613f2861369d565b5b600086013567ffffffffffffffff811115613f4757613f466136a2565b5b613f538882890161387a565b955050602086013567ffffffffffffffff811115613f7457613f736136a2565b5b613f808882890161387a565b9450506040613f91888289016138c9565b9350506060613fa2888289016138c9565b9250506080613fb388828901613a7b565b9150509295509295909350565b600067ffffffffffffffff821115613fdb57613fda61377d565b5b613fe48261376c565b9050602081019050919050565b6000614004613fff84613fc0565b6137dd565b9050828152602081018484840111156140205761401f613767565b5b61402b848285613829565b509392505050565b600082601f83011261404857614047613762565b5b8135614058848260208601613ff1565b91505092915050565b6000806000806080858703121561407b5761407a61369d565b5b600061408987828801613a7b565b945050602061409a87828801613a7b565b93505060406140ab878288016138c9565b925050606085013567ffffffffffffffff8111156140cc576140cb6136a2565b5b6140d887828801614033565b91505092959194509250565b600080604083850312156140fb576140fa61369d565b5b600061410985828601613a7b565b925050602061411a85828601613a7b565b9150509250929050565b61412d81613bba565b82525050565b600060c082019050818103600083015261414d8189613980565b905081810360208301526141618188613980565b90506141706040830187613dec565b61417d6060830186613dec565b61418a6080830185613a3a565b61419760a0830184614124565b979650505050505050565b7f4f6e6c7920726567697374657265642075736572732063616e2063616c6c207460008201527f6869730000000000000000000000000000000000000000000000000000000000602082015250565b60006141fe602383613945565b9150614209826141a2565b604082019050919050565b6000602082019050818103600083015261422d816141f1565b9050919050565b600081905092915050565b600061424a8261393a565b6142548185614234565b9350614264818560208601613956565b80840191505092915050565b600061427c828461423f565b915081905092915050565b7f4e487b7100000000000000000000000000000000000000000000000000000000600052602260045260246000fd5b600060028204905060018216806142ce57607f821691505b6020821081036142e1576142e0614287565b5b50919050565b7f524543206e6f7420666f756e6400000000000000000000000000000000000000600082015250565b600061431d600d83613945565b9150614328826142e7565b602082019050919050565b6000602082019050818103600083015261434c81614310565b9050919050565b7f43616e6e6f742075706461746520707269636520666f7220736f6c6420524543600082015250565b6000614389602083613945565b915061439482614353565b602082019050919050565b600060208201905081810360008301526143b88161437c565b9050919050565b7f4f6e6c792073656c6c65722063616e2075706461746520707269636500000000600082015250565b60006143f5601c83613945565b9150614400826143bf565b602082019050919050565b60006020820190508181036000830152614424816143e8565b9050919050565b7f4552433732313a20617070726f76616c20746f2063757272656e74206f776e6560008201527f7200000000000000000000000000000000000000000000000000000000000000602082015250565b6000614487602183613945565b91506144928261442b565b604082019050919050565b600060208201905081810360008301526144b68161447a565b9050919050565b7f4552433732313a20617070726f76652063616c6c6572206973206e6f7420746f60008201527f6b656e206f776e6572206f7220617070726f76656420666f7220616c6c000000602082015250565b6000614519603d83613945565b9150614524826144bd565b604082019050919050565b600060208201905081810360008301526145488161450c565b9050919050565b7f4e487b7100000000000000000000000000000000000000000000000000000000600052603260045260246000fd5b7f4e487b7100000000000000000000000000000000000000000000000000000000600052601160045260246000fd5b60006145b8826138a8565b91506145c3836138a8565b92508282019050808211156145db576145da61457e565b5b92915050565b60006145ec826138a8565b91507fffffffffffffffffffffffffffffffffffffffffffffffffffffffffffffffff820361461e5761461d61457e565b5b600182019050919050565b7f4552433732313a2063616c6c6572206973206e6f7420746f6b656e206f776e6560008201527f72206f7220617070726f76656400000000000000000000000000000000000000602082015250565b6000614685602d83613945565b915061469082614629565b604082019050919050565b600060208201905081810360008301526146b481614678565b9050919050565b7f496e76616c696420696e70757420706172616d65746572000000000000000000600082015250565b60006146f1601783613945565b91506146fc826146bb565b602082019050919050565b60006020820190508181036000830152614720816146e4565b9050919050565b7f496e73756666696369656e742062616c616e6365000000000000000000000000600082015250565b600061475d601483613945565b915061476882614727565b602082019050919050565b6000602082019050818103600083015261478c81614750565b9050919050565b7f55736572206e6f74207265676973746572656400000000000000000000000000600082015250565b60006147c9601383613945565b91506147d482614793565b602082019050919050565b600060208201905081810360008301526147f8816147bc565b9050919050565b7f496e76616c69642062616c616e63650000000000000000000000000000000000600082015250565b6000614835600f83613945565b9150614840826147ff565b602082019050919050565b6000602082019050818103600083015261486481614828565b9050919050565b7f4f6e6c79206f776e65722063616e2063616c6c20746869730000000000000000600082015250565b60006148a1601883613945565b91506148ac8261486b565b602082019050919050565b600060208201905081810360008301526148d081614894565b9050919050565b7f55736572206e6f7420666f756e64000000000000000000000000000000000000600082015250565b600061490d600e83613945565b9150614918826148d7565b602082019050919050565b6000602082019050818103600083015261493c81614900565b9050919050565b7f5573657220697320616c7265616479204469737472696275746f720000000000600082015250565b6000614979601b83613945565b915061498482614943565b602082019050919050565b600060208201905081810360008301526149a88161496c565b9050919050565b7f4552433732313a20696e76616c696420746f6b656e2049440000000000000000600082015250565b60006149e5601883613945565b91506149f0826149af565b602082019050919050565b60006020820190508181036000830152614a14816149d8565b9050919050565b7f524543206e6f7420617661696c61626c6520666f722070757263686173650000600082015250565b6000614a51601e83613945565b9150614a5c82614a1b565b602082019050919050565b60006020820190508181036000830152614a8081614a44565b9050919050565b6000614a92826138a8565b9150614a9d836138a8565b9250828203905081811115614ab557614ab461457e565b5b92915050565b600081549050614aca816142b6565b9050919050565b60008190508160005260206000209050919050565b60006020601f8301049050919050565b600082821b905092915050565b600060088302614b337fffffffffffffffffffffffffffffffffffffffffffffffffffffffffffffffff82614af6565b614b3d8683614af6565b95508019841693508086168417925050509392505050565b6000819050919050565b6000614b7a614b75614b70846138a8565b614b55565b6138a8565b9050919050565b6000819050919050565b614b9483614b5f565b614ba8614ba082614b81565b848454614b03565b825550505050565b600090565b614bbd614bb0565b614bc8818484614b8b565b505050565b5b81811015614bec57614be1600082614bb5565b600181019050614bce565b5050565b601f821115614c3157614c0281614ad1565b614c0b84614ae6565b81016020851015614c1a578190505b614c2e614c2685614ae6565b830182614bcd565b50505b505050565b600082821c905092915050565b6000614c5460001984600802614c36565b1980831691505092915050565b6000614c6d8383614c43565b9150826002028217905092915050565b818103614c8b575050614d63565b614c9482614abb565b67ffffffffffffffff811115614cad57614cac61377d565b5b614cb782546142b6565b614cc2828285614bf0565b6000601f831160018114614cf15760008415614cdf578287015490505b614ce98582614c61565b865550614d5c565b601f198416614cff87614ad1565b9650614d0a86614ad1565b60005b82811015614d3257848901548255600182019150600185019450602081019050614d0d565b86831015614d4f5784890154614d4b601f891682614c43565b8355505b6001600288020188555050505b5050505050505b565b7f4552433732313a2061646472657373207a65726f206973206e6f74206120766160008201527f6c6964206f776e65720000000000000000000000000000000000000000000000602082015250565b6000614dc1602983613945565b9150614dcc82614d65565b604082019050919050565b60006020820190508181036000830152614df081614db4565b9050919050565b7f496e76616c696420696e70757420706172616d65746572730000000000000000600082015250565b6000614e2d601883613945565b9150614e3882614df7565b602082019050919050565b60006020820190508181036000830152614e5c81614e20565b9050919050565b7f5573657220616c72656164792072656769737465726564000000000000000000600082015250565b6000614e99601783613945565b9150614ea482614e63565b602082019050919050565b60006020820190508181036000830152614ec881614e8c565b9050919050565b614ed88261393a565b67ffffffffffffffff811115614ef157614ef061377d565b5b614efb82546142b6565b614f06828285614bf0565b600060209050601f831160018114614f395760008415614f27578287015190505b614f318582614c61565b865550614f99565b601f198416614f4786614ad1565b60005b82811015614f6f57848901518255600182019150602085019450602081019050614f4a565b86831015614f8c5784890151614f88601f891682614c43565b8355505b6001600288020188555050505b505050505050565b7f4f6e6c79206469737472696275746f722063616e2063616c6c20746869730000600082015250565b6000614fd7601e83613945565b9150614fe282614fa1565b602082019050919050565b6000602082019050818103600083015261500681614fca565b9050919050565b6000615019828561423f565b9150615025828461423f565b91508190509392505050565b7f5573657220697320616c72656164792052656769737465726564000000000000600082015250565b6000615067601a83613945565b915061507282615031565b602082019050919050565b600060208201905081810360008301526150968161505a565b9050919050565b7f4552433732313a207472616e736665722066726f6d20696e636f72726563742060008201527f6f776e6572000000000000000000000000000000000000000000000000000000602082015250565b60006150f9602583613945565b91506151048261509d565b604082019050919050565b60006020820190508181036000830152615128816150ec565b9050919050565b7f4552433732313a207472616e7366657220746f20746865207a65726f2061646460008201527f7265737300000000000000000000000000000000000000000000000000000000602082015250565b600061518b602483613945565b91506151968261512f565b604082019050919050565b600060208201905081810360008301526151ba8161517e565b9050919050565b7f4552433732313a20617070726f766520746f2063616c6c657200000000000000600082015250565b60006151f7601983613945565b9150615202826151c1565b602082019050919050565b60006020820190508181036000830152615226816151ea565b9050919050565b7f4552433732313a207472616e7366657220746f206e6f6e20455243373231526560008201527f63656976657220696d706c656d656e7465720000000000000000000000000000602082015250565b6000615289603283613945565b91506152948261522d565b604082019050919050565b600060208201905081810360008301526152b88161527c565b9050919050565b7f4e487b7100000000000000000000000000000000000000000000000000000000600052601260045260246000fd5b600081519050919050565b600082825260208201905092915050565b6000615315826152ee565b61531f81856152f9565b935061532f818560208601613956565b6153388161376c565b840191505092915050565b60006080820190506153586000830187613a3a565b6153656020830186613a3a565b6153726040830185613dec565b8181036060830152615384818461530a565b905095945050505050565b60008151905061539e816136d3565b92915050565b6000602082840312156153ba576153b961369d565b5b60006153c88482850161538f565b9150509291505056fea26469706673582212207a01bd250bbecb12c300b851c13a832f1b18d495445bd6c4a0d4fe2cf8f3b65f64736f6c63430008130033",
  "immutableReferences": {},
  "source": "// SPDX-License-Identifier: UNLICENSED\npragma solidity ^0.8.1;\n\nimport \"@openzeppelin/contracts/token/ERC721/ERC721.sol\";\n\ncontract RenewableEnergyToken is ERC721 {\n    \n    address owner;\n    \n    struct User {\n        string id;\n        string name;\n        uint balance;\n        REC[] certificates;\n        bool isDistributor;\n        bool isRegistered;\n    }\n    \n    struct REC {\n        string id;\n        string name;\n        uint quantity;\n        uint price;\n        address sellerAddress;\n        Status status;\n    }\n\n    address[]  addressList;\n    \n    enum Status {Available, Sold}\n    \n    mapping(address => User) users;\n    mapping(string => REC) recs;\n\n    constructor() ERC721(\"RenewableEnergyToken\", \"RET\") {\n        owner = msg.sender;\n    }\n\n    modifier onlyOwner() {\n        require(msg.sender == owner, \"Only owner can call this\");\n        _;\n    }\n\n    modifier onlyRegistered() {\n        require(users[msg.sender].isRegistered, \"Only registered users can call this\");\n        _;\n    }\n\n    modifier onlyDistributor() {\n        require(users[msg.sender].isDistributor, \"Only distributor can call this\");\n        _;\n    }\n\n\tfunction getUserRole(address user) public view returns (string memory) {\n\t\tif (user == owner) {\n\t\t\treturn \"owner\";\n\t\t} else if (users[user].isDistributor) {\n\t\t\treturn \"distributor\";\n\t\t} else if (users[user].isRegistered) {\n\t\t\treturn \"registered\";\n\t\t} else {\n\t\t\treturn \"none\";\n\t\t}\n\t}\n\n    function getCertificatesOfUser() public view onlyRegistered returns (REC[] memory) {\n        return users[msg.sender].certificates;\n    }\n\n    function getAllCertificates() public view onlyRegistered returns (REC[] memory) {\n        uint totalCertificates;\n        for (uint i = 0; i < addressList.length; i++) {\n            totalCertificates += users[addressList[i]].certificates.length;\n        }\n\n        REC[] memory allCertificates = new REC[](totalCertificates);\n        uint currentIndex = 0;\n        for (uint i = 0; i < addressList.length; i++) {\n            REC[] memory userCertificates = users[addressList[i]].certificates;\n            for (uint j = 0; j < userCertificates.length; j++) {\n                allCertificates[currentIndex] = userCertificates[j];\n                currentIndex++;\n            }\n        }\n\n        return allCertificates;\n    }\n\n    function getCertificate(string memory id) public view onlyRegistered returns (string memory, string memory, uint, uint, address, Status) {\n        REC memory rec = recs[id];\n        return (rec.id, rec.name, rec.quantity, rec.price, rec.sellerAddress, rec.status);\n    }\n\n    function generateREC(string memory id, string memory name, uint quantity, uint price, address sellerAddress) public onlyDistributor {\n        require(bytes(id).length > 0 && bytes(name).length > 0 && quantity > 0 && price > 0 && (sellerAddress) != address(0), \"Invalid input parameters\");\n\n        REC memory rec = REC(id, name, quantity, price, sellerAddress, Status.Available);\n        recs[id] = rec;\n    }\n\n    function verifyREC(string memory id) public view onlyRegistered returns (bool) {\n        require(bytes(id).length > 0, \"Invalid input parameter\");\n\n        REC storage rec = recs[id];\n        require(bytes(rec.id).length > 0, \"REC not found\");\n\n        User storage user = users[msg.sender];\n        require(user.balance >= rec.price, \"Insufficient balance\");\n        return true;\n    }\n\n\n    function buyREC(string memory id) public onlyRegistered payable {\n        REC storage rec = recs[id];\n        require(bytes(rec.id).length > 0, \"REC not found\");\n        require(rec.status == Status.Available, \"REC not available for purchase\");\n\n        User storage buyer = users[msg.sender];\n        require(buyer.balance >= rec.price, \"Insufficient balance\");\n\n        User storage seller = users[rec.sellerAddress];\n        seller.balance += rec.price;\n\n        buyer.balance -= rec.price;\n        buyer.certificates.push(rec);\n        rec.status = Status.Sold;\n        rec.sellerAddress = msg.sender;\n    }\n\n    function sellREC(string memory id, uint price) public onlyRegistered {\n        REC storage rec = recs[id];\n        require(bytes(rec.id).length > 0, \"REC not found\");\n        require(rec.status == Status.Available, \"Cannot update price for sold REC\");\n        require(rec.sellerAddress == address(0) || rec.sellerAddress == msg.sender, \"Only seller can update price\");\n\n        rec.price = price;\n        rec.sellerAddress = msg.sender;\n        rec.status = Status.Available;\n    }\n\n    function approveDistributor(address userAddress) public onlyOwner {\n        User storage user = users[userAddress];\n        require(bytes(user.id).length > 0, \"User not found\");\n        require(!user.isRegistered, \"User is already Distributor\");\n\n        user.isDistributor = true;\n        user.isRegistered = true;\n    }\n\n    function approveUser(address userAddress) public onlyDistributor {\n        User storage user = users[userAddress];\n        require(bytes(user.id).length > 0, \"User not found\");\n        require(!user.isRegistered, \"User is already Registered\");\n\n        user.isRegistered = true;\n    }\n\n    function selfRegister(string memory id, string memory name, address userAddress) public {\n        require(bytes(id).length > 0 && bytes(name).length > 0, \"Invalid input parameters\");\n\n        User storage user = users[msg.sender];\n        require(bytes(user.id).length == 0, \"User already registered\");\n\n        user.id = id;\n        user.name = name;\n        user.balance = 0; \n        user.isDistributor = false;\n        addressList.push((userAddress));\n    }\n\n    function topupBalance() public onlyRegistered payable {\n        User storage user = users[msg.sender];\n        require(bytes(user.id).length != 0, \"User not registered\");\n        require(msg.value >= 0, \"Invalid balance\");\n\n        user.balance += msg.value;\n    }\n}\n",
  "sourcePath": "/Users/sandeepkunusoth/Downloads/blockchain-project/cse526/renewableenergytoken-contract/contracts/RenewableEnergyToken.sol",
  "compiler": {
    "name": "solc",
    "version": "0.8.19+commit.7dd6d404.Emscripten.clang"
  },
  "schemaVersion": "3.4.13",
  "updatedAt": "2023-04-27T22:33:20.223Z",
  "networkType": "ethereum",
  "devdoc": {
    "events": {
      "Approval(address,address,uint256)": {
        "details": "Emitted when `owner` enables `approved` to manage the `tokenId` token."
      },
      "ApprovalForAll(address,address,bool)": {
        "details": "Emitted when `owner` enables or disables (`approved`) `operator` to manage all of its assets."
      },
      "Transfer(address,address,uint256)": {
        "details": "Emitted when `tokenId` token is transferred from `from` to `to`."
      }
    },
    "kind": "dev",
    "methods": {
      "approve(address,uint256)": {
        "details": "See {IERC721-approve}."
      },
      "balanceOf(address)": {
        "details": "See {IERC721-balanceOf}."
      },
      "getApproved(uint256)": {
        "details": "See {IERC721-getApproved}."
      },
      "isApprovedForAll(address,address)": {
        "details": "See {IERC721-isApprovedForAll}."
      },
      "name()": {
        "details": "See {IERC721Metadata-name}."
      },
      "ownerOf(uint256)": {
        "details": "See {IERC721-ownerOf}."
      },
      "safeTransferFrom(address,address,uint256)": {
        "details": "See {IERC721-safeTransferFrom}."
      },
      "safeTransferFrom(address,address,uint256,bytes)": {
        "details": "See {IERC721-safeTransferFrom}."
      },
      "setApprovalForAll(address,bool)": {
        "details": "See {IERC721-setApprovalForAll}."
      },
      "supportsInterface(bytes4)": {
        "details": "See {IERC165-supportsInterface}."
      },
      "symbol()": {
        "details": "See {IERC721Metadata-symbol}."
      },
      "tokenURI(uint256)": {
        "details": "See {IERC721Metadata-tokenURI}."
      },
      "transferFrom(address,address,uint256)": {
        "details": "See {IERC721-transferFrom}."
      }
    },
    "version": 1
  },
  "userdoc": {
    "kind": "user",
    "methods": {},
    "version": 1
  }
}