{
  "contractName": "RenewableEnergyToken",
  "abi": [
    {
      "inputs": [],
      "stateMutability": "nonpayable",
      "type": "constructor"
    },
    {
      "anonymous": false,
      "inputs": [
        {
          "indexed": true,
          "internalType": "address",
          "name": "owner",
          "type": "address"
        },
        {
          "indexed": true,
          "internalType": "address",
          "name": "approved",
          "type": "address"
        },
        {
          "indexed": true,
          "internalType": "uint256",
          "name": "tokenId",
          "type": "uint256"
        }
      ],
      "name": "Approval",
      "type": "event"
    },
    {
      "anonymous": false,
      "inputs": [
        {
          "indexed": true,
          "internalType": "address",
          "name": "owner",
          "type": "address"
        },
        {
          "indexed": true,
          "internalType": "address",
          "name": "operator",
          "type": "address"
        },
        {
          "indexed": false,
          "internalType": "bool",
          "name": "approved",
          "type": "bool"
        }
      ],
      "name": "ApprovalForAll",
      "type": "event"
    },
    {
      "anonymous": false,
      "inputs": [
        {
          "indexed": true,
          "internalType": "address",
          "name": "from",
          "type": "address"
        },
        {
          "indexed": true,
          "internalType": "address",
          "name": "to",
          "type": "address"
        },
        {
          "indexed": true,
          "internalType": "uint256",
          "name": "tokenId",
          "type": "uint256"
        }
      ],
      "name": "Transfer",
      "type": "event"
    },
    {
      "inputs": [
        {
          "internalType": "address",
          "name": "to",
          "type": "address"
        },
        {
          "internalType": "uint256",
          "name": "tokenId",
          "type": "uint256"
        }
      ],
      "name": "approve",
      "outputs": [],
      "stateMutability": "nonpayable",
      "type": "function"
    },
    {
      "inputs": [
        {
          "internalType": "uint256",
          "name": "",
          "type": "uint256"
        }
      ],
      "name": "assetApprovals",
      "outputs": [
        {
          "internalType": "address",
          "name": "",
          "type": "address"
        }
      ],
      "stateMutability": "view",
      "type": "function",
      "constant": true
    },
    {
      "inputs": [
        {
          "internalType": "address",
          "name": "owner",
          "type": "address"
        }
      ],
      "name": "balanceOf",
      "outputs": [
        {
          "internalType": "uint256",
          "name": "",
          "type": "uint256"
        }
      ],
      "stateMutability": "view",
      "type": "function",
      "constant": true
    },
    {
      "inputs": [
        {
          "internalType": "uint256",
          "name": "tokenId",
          "type": "uint256"
        }
      ],
      "name": "getApproved",
      "outputs": [
        {
          "internalType": "address",
          "name": "",
          "type": "address"
        }
      ],
      "stateMutability": "view",
      "type": "function",
      "constant": true
    },
    {
      "inputs": [
        {
          "internalType": "address",
          "name": "owner",
          "type": "address"
        },
        {
          "internalType": "address",
          "name": "operator",
          "type": "address"
        }
      ],
      "name": "isApprovedForAll",
      "outputs": [
        {
          "internalType": "bool",
          "name": "",
          "type": "bool"
        }
      ],
      "stateMutability": "view",
      "type": "function",
      "constant": true
    },
    {
      "inputs": [],
      "name": "name",
      "outputs": [
        {
          "internalType": "string",
          "name": "",
          "type": "string"
        }
      ],
      "stateMutability": "view",
      "type": "function",
      "constant": true
    },
    {
      "inputs": [
        {
          "internalType": "uint256",
          "name": "tokenId",
          "type": "uint256"
        }
      ],
      "name": "ownerOf",
      "outputs": [
        {
          "internalType": "address",
          "name": "",
          "type": "address"
        }
      ],
      "stateMutability": "view",
      "type": "function",
      "constant": true
    },
    {
      "inputs": [],
      "name": "recCount",
      "outputs": [
        {
          "internalType": "uint256",
          "name": "",
          "type": "uint256"
        }
      ],
      "stateMutability": "view",
      "type": "function",
      "constant": true
    },
    {
      "inputs": [
        {
          "internalType": "address",
          "name": "from",
          "type": "address"
        },
        {
          "internalType": "address",
          "name": "to",
          "type": "address"
        },
        {
          "internalType": "uint256",
          "name": "tokenId",
          "type": "uint256"
        }
      ],
      "name": "safeTransferFrom",
      "outputs": [],
      "stateMutability": "nonpayable",
      "type": "function"
    },
    {
      "inputs": [
        {
          "internalType": "address",
          "name": "from",
          "type": "address"
        },
        {
          "internalType": "address",
          "name": "to",
          "type": "address"
        },
        {
          "internalType": "uint256",
          "name": "tokenId",
          "type": "uint256"
        },
        {
          "internalType": "bytes",
          "name": "data",
          "type": "bytes"
        }
      ],
      "name": "safeTransferFrom",
      "outputs": [],
      "stateMutability": "nonpayable",
      "type": "function"
    },
    {
      "inputs": [
        {
          "internalType": "address",
          "name": "operator",
          "type": "address"
        },
        {
          "internalType": "bool",
          "name": "approved",
          "type": "bool"
        }
      ],
      "name": "setApprovalForAll",
      "outputs": [],
      "stateMutability": "nonpayable",
      "type": "function"
    },
    {
      "inputs": [
        {
          "internalType": "bytes4",
          "name": "interfaceId",
          "type": "bytes4"
        }
      ],
      "name": "supportsInterface",
      "outputs": [
        {
          "internalType": "bool",
          "name": "",
          "type": "bool"
        }
      ],
      "stateMutability": "view",
      "type": "function",
      "constant": true
    },
    {
      "inputs": [],
      "name": "symbol",
      "outputs": [
        {
          "internalType": "string",
          "name": "",
          "type": "string"
        }
      ],
      "stateMutability": "view",
      "type": "function",
      "constant": true
    },
    {
      "inputs": [
        {
          "internalType": "uint256",
          "name": "tokenId",
          "type": "uint256"
        }
      ],
      "name": "tokenURI",
      "outputs": [
        {
          "internalType": "string",
          "name": "",
          "type": "string"
        }
      ],
      "stateMutability": "view",
      "type": "function",
      "constant": true
    },
    {
      "inputs": [
        {
          "internalType": "address",
          "name": "from",
          "type": "address"
        },
        {
          "internalType": "address",
          "name": "to",
          "type": "address"
        },
        {
          "internalType": "uint256",
          "name": "tokenId",
          "type": "uint256"
        }
      ],
      "name": "transferFrom",
      "outputs": [],
      "stateMutability": "nonpayable",
      "type": "function"
    },
    {
      "inputs": [
        {
          "internalType": "address",
          "name": "user",
          "type": "address"
        }
      ],
      "name": "getUserRole",
      "outputs": [
        {
          "internalType": "string",
          "name": "",
          "type": "string"
        }
      ],
      "stateMutability": "view",
      "type": "function",
      "constant": true
    },
    {
      "inputs": [
        {
          "internalType": "string",
          "name": "name",
          "type": "string"
        },
        {
          "internalType": "uint256",
          "name": "quantity",
          "type": "uint256"
        },
        {
          "internalType": "uint256",
          "name": "price",
          "type": "uint256"
        },
        {
          "internalType": "address",
          "name": "sellerAddress",
          "type": "address"
        }
      ],
      "name": "generateREC",
      "outputs": [],
      "stateMutability": "payable",
      "type": "function",
      "payable": true
    },
    {
      "inputs": [
        {
          "internalType": "uint256",
          "name": "id",
          "type": "uint256"
        }
      ],
      "name": "verifyREC",
      "outputs": [
        {
          "internalType": "bool",
          "name": "",
          "type": "bool"
        }
      ],
      "stateMutability": "view",
      "type": "function",
      "constant": true
    },
    {
      "inputs": [
        {
          "internalType": "uint256",
          "name": "id",
          "type": "uint256"
        }
      ],
      "name": "buyREC",
      "outputs": [],
      "stateMutability": "payable",
      "type": "function",
      "payable": true
    },
    {
      "inputs": [
        {
          "internalType": "uint256",
          "name": "id",
          "type": "uint256"
        },
        {
          "internalType": "uint256",
          "name": "price",
          "type": "uint256"
        }
      ],
      "name": "sellREC",
      "outputs": [],
      "stateMutability": "nonpayable",
      "type": "function"
    },
    {
      "inputs": [
        {
          "internalType": "address",
          "name": "userAddress",
          "type": "address"
        }
      ],
      "name": "approveDistributor",
      "outputs": [],
      "stateMutability": "nonpayable",
      "type": "function"
    },
    {
      "inputs": [
        {
          "internalType": "address",
          "name": "userAddress",
          "type": "address"
        }
      ],
      "name": "approveUser",
      "outputs": [],
      "stateMutability": "nonpayable",
      "type": "function"
    },
    {
      "inputs": [
        {
          "internalType": "string",
          "name": "id",
          "type": "string"
        },
        {
          "internalType": "string",
          "name": "name",
          "type": "string"
        },
        {
          "internalType": "address",
          "name": "userAddress",
          "type": "address"
        }
      ],
      "name": "selfRegister",
      "outputs": [],
      "stateMutability": "nonpayable",
      "type": "function"
    },
    {
      "inputs": [],
      "name": "topupBalance",
      "outputs": [],
      "stateMutability": "payable",
      "type": "function",
      "payable": true
    }
  ],
  "bytecode": "0x60806040523480156200001157600080fd5b506040518060400160405280601481526020017f52656e657761626c65456e65726779546f6b656e0000000000000000000000008152506040518060400160405280600381526020017f524554000000000000000000000000000000000000000000000000000000000081525081600090816200008f919062000365565b508060019081620000a1919062000365565b50505033600660006101000a81548173ffffffffffffffffffffffffffffffffffffffff021916908373ffffffffffffffffffffffffffffffffffffffff1602179055506200044c565b600081519050919050565b7f4e487b7100000000000000000000000000000000000000000000000000000000600052604160045260246000fd5b7f4e487b7100000000000000000000000000000000000000000000000000000000600052602260045260246000fd5b600060028204905060018216806200016d57607f821691505b60208210810362000183576200018262000125565b5b50919050565b60008190508160005260206000209050919050565b60006020601f8301049050919050565b600082821b905092915050565b600060088302620001ed7fffffffffffffffffffffffffffffffffffffffffffffffffffffffffffffffff82620001ae565b620001f98683620001ae565b95508019841693508086168417925050509392505050565b6000819050919050565b6000819050919050565b600062000246620002406200023a8462000211565b6200021b565b62000211565b9050919050565b6000819050919050565b620002628362000225565b6200027a62000271826200024d565b848454620001bb565b825550505050565b600090565b6200029162000282565b6200029e81848462000257565b505050565b5b81811015620002c657620002ba60008262000287565b600181019050620002a4565b5050565b601f8211156200031557620002df8162000189565b620002ea846200019e565b81016020851015620002fa578190505b6200031262000309856200019e565b830182620002a3565b50505b505050565b600082821c905092915050565b60006200033a600019846008026200031a565b1980831691505092915050565b600062000355838362000327565b9150826002028217905092915050565b6200037082620000eb565b67ffffffffffffffff8111156200038c576200038b620000f6565b5b62000398825462000154565b620003a5828285620002ca565b600060209050601f831160018114620003dd5760008415620003c8578287015190505b620003d4858262000347565b86555062000444565b601f198416620003ed8662000189565b60005b828110156200041757848901518255600182019150602085019450602081019050620003f0565b8683101562000437578489015162000433601f89168262000327565b8355505b6001600288020188555050505b505050505050565b614867806200045c6000396000f3fe60806040526004361061014b5760003560e01c80636352211e116100b6578063b88d4fde1161006f578063b88d4fde14610498578063c87b56dd146104c1578063d624fdb6146104fe578063e985e9c514610527578063f929a6a614610564578063fc4d1ce61461058d5761014b565b80636352211e1461036457806370a08231146103a157806371e06925146103de57806395084a411461041b57806395d89b4114610444578063a22cb4651461046f5761014b565b806323b872dd1161010857806323b872dd1461027757806327820851146102a057806334b1da13146102dd57806342842e0e14610308578063467ee32114610331578063482aede51461033b5761014b565b806301ffc9a714610150578063033857701461018d57806306fdde03146101ca578063081812fc146101f5578063095ea7b3146102325780631630ed461461025b575b600080fd5b34801561015c57600080fd5b5061017760048036038101906101729190612e04565b6105a9565b6040516101849190612e4c565b60405180910390f35b34801561019957600080fd5b506101b460048036038101906101af9190612e9d565b61068b565b6040516101c19190612f0b565b60405180910390f35b3480156101d657600080fd5b506101df6106be565b6040516101ec9190612fb6565b60405180910390f35b34801561020157600080fd5b5061021c60048036038101906102179190612e9d565b610750565b6040516102299190612f0b565b60405180910390f35b34801561023e57600080fd5b5061025960048036038101906102549190613004565b610796565b005b61027560048036038101906102709190613179565b6108ad565b005b34801561028357600080fd5b5061029e600480360381019061029991906131fc565b610b08565b005b3480156102ac57600080fd5b506102c760048036038101906102c2919061324f565b610b68565b6040516102d49190612fb6565b60405180910390f35b3480156102e957600080fd5b506102f2610d5e565b6040516102ff919061328b565b60405180910390f35b34801561031457600080fd5b5061032f600480360381019061032a91906131fc565b610d64565b005b610339610d84565b005b34801561034757600080fd5b50610362600480360381019061035d919061324f565b610f0b565b005b34801561037057600080fd5b5061038b60048036038101906103869190612e9d565b6110c1565b6040516103989190612f0b565b60405180910390f35b3480156103ad57600080fd5b506103c860048036038101906103c3919061324f565b611147565b6040516103d5919061328b565b60405180910390f35b3480156103ea57600080fd5b5061040560048036038101906104009190612e9d565b6111fe565b6040516104129190612e4c565b60405180910390f35b34801561042757600080fd5b50610442600480360381019061043d91906132a6565b6113c7565b005b34801561045057600080fd5b50610459611562565b6040516104669190612fb6565b60405180910390f35b34801561047b57600080fd5b506104966004803603810190610491919061335d565b6115f4565b005b3480156104a457600080fd5b506104bf60048036038101906104ba919061343e565b61160a565b005b3480156104cd57600080fd5b506104e860048036038101906104e39190612e9d565b61166c565b6040516104f59190612fb6565b60405180910390f35b34801561050a57600080fd5b506105256004803603810190610520919061324f565b6116d4565b005b34801561053357600080fd5b5061054e600480360381019061054991906134c1565b6118c4565b60405161055b9190612e4c565b60405180910390f35b34801561057057600080fd5b5061058b60048036038101906105869190613501565b611958565b005b6105a760048036038101906105a29190612e9d565b611c5f565b005b60007f80ac58cd000000000000000000000000000000000000000000000000000000007bffffffffffffffffffffffffffffffffffffffffffffffffffffffff1916827bffffffffffffffffffffffffffffffffffffffffffffffffffffffff1916148061067457507f5b5e139f000000000000000000000000000000000000000000000000000000007bffffffffffffffffffffffffffffffffffffffffffffffffffffffff1916827bffffffffffffffffffffffffffffffffffffffffffffffffffffffff1916145b80610684575061068382612035565b5b9050919050565b600b6020528060005260406000206000915054906101000a900473ffffffffffffffffffffffffffffffffffffffff1681565b6060600080546106cd90613570565b80601f01602080910402602001604051908101604052809291908181526020018280546106f990613570565b80156107465780601f1061071b57610100808354040283529160200191610746565b820191906000526020600020905b81548152906001019060200180831161072957829003601f168201915b5050505050905090565b600061075b8261209f565b6004600083815260200190815260200160002060009054906101000a900473ffffffffffffffffffffffffffffffffffffffff169050919050565b60006107a1826110c1565b90508073ffffffffffffffffffffffffffffffffffffffff168373ffffffffffffffffffffffffffffffffffffffff1603610811576040517f08c379a000000000000000000000000000000000000000000000000000000000815260040161080890613613565b60405180910390fd5b8073ffffffffffffffffffffffffffffffffffffffff166108306120ea565b73ffffffffffffffffffffffffffffffffffffffff16148061085f575061085e816108596120ea565b6118c4565b5b61089e576040517f08c379a0000000000000000000000000000000000000000000000000000000008152600401610895906136a5565b60405180910390fd5b6108a883836120f2565b505050565b600660009054906101000a900473ffffffffffffffffffffffffffffffffffffffff1673ffffffffffffffffffffffffffffffffffffffff163373ffffffffffffffffffffffffffffffffffffffff1614806109555750600d60003373ffffffffffffffffffffffffffffffffffffffff1673ffffffffffffffffffffffffffffffffffffffff16815260200190815260200160002060040160009054906101000a900460ff165b610994576040517f08c379a000000000000000000000000000000000000000000000000000000000815260040161098b90613711565b60405180910390fd5b600084511180156109a55750600083115b80156109b15750600082115b80156109ea5750600073ffffffffffffffffffffffffffffffffffffffff168173ffffffffffffffffffffffffffffffffffffffff1614155b610a29576040517f08c379a0000000000000000000000000000000000000000000000000000000008152600401610a209061377d565b60405180910390fd5b6040518060a00160405280600754815260200185815260200184815260200183815260200160006001811115610a6257610a6161379d565b5b815250600860006007548152602001908152602001600020600082015181600001556020820151816001019081610a999190613978565b50604082015181600201556060820151816003015560808201518160040160006101000a81548160ff02191690836001811115610ad957610ad861379d565b5b0217905550905050610aed816007546121ab565b6001600754610afc9190613a79565b60078190555050505050565b610b19610b136120ea565b8261236a565b610b58576040517f08c379a0000000000000000000000000000000000000000000000000000000008152600401610b4f90613b1f565b60405180910390fd5b610b638383836123ff565b505050565b6060600660009054906101000a900473ffffffffffffffffffffffffffffffffffffffff1673ffffffffffffffffffffffffffffffffffffffff168273ffffffffffffffffffffffffffffffffffffffff1603610bfc576040518060400160405280600581526020017f6f776e65720000000000000000000000000000000000000000000000000000008152509050610d59565b600d60008373ffffffffffffffffffffffffffffffffffffffff1673ffffffffffffffffffffffffffffffffffffffff16815260200190815260200160002060040160009054906101000a900460ff1615610c8e576040518060400160405280600b81526020017f6469737472696275746f720000000000000000000000000000000000000000008152509050610d59565b600d60008373ffffffffffffffffffffffffffffffffffffffff1673ffffffffffffffffffffffffffffffffffffffff16815260200190815260200160002060040160019054906101000a900460ff1615610d20576040518060400160405280600a81526020017f72656769737465726564000000000000000000000000000000000000000000008152509050610d59565b6040518060400160405280600481526020017f6e6f6e650000000000000000000000000000000000000000000000000000000081525090505b919050565b60075481565b610d7f8383836040518060200160405280600081525061160a565b505050565b600d60003373ffffffffffffffffffffffffffffffffffffffff1673ffffffffffffffffffffffffffffffffffffffff16815260200190815260200160002060040160019054906101000a900460ff16610e13576040517f08c379a0000000000000000000000000000000000000000000000000000000008152600401610e0a90613bb1565b60405180910390fd5b6000600d60003373ffffffffffffffffffffffffffffffffffffffff1673ffffffffffffffffffffffffffffffffffffffff16815260200190815260200160002090506000816000018054610e6790613570565b905003610ea9576040517f08c379a0000000000000000000000000000000000000000000000000000000008152600401610ea090613c1d565b60405180910390fd5b6000341015610eed576040517f08c379a0000000000000000000000000000000000000000000000000000000008152600401610ee490613c89565b60405180910390fd5b34816002016000828254610f019190613a79565b9250508190555050565b600660009054906101000a900473ffffffffffffffffffffffffffffffffffffffff1673ffffffffffffffffffffffffffffffffffffffff163373ffffffffffffffffffffffffffffffffffffffff1614610f9b576040517f08c379a0000000000000000000000000000000000000000000000000000000008152600401610f9290613cf5565b60405180910390fd5b6000600d60008373ffffffffffffffffffffffffffffffffffffffff1673ffffffffffffffffffffffffffffffffffffffff16815260200190815260200160002090506000816000018054610fef90613570565b905011611031576040517f08c379a000000000000000000000000000000000000000000000000000000000815260040161102890613d61565b60405180910390fd5b8060040160019054906101000a900460ff1615611083576040517f08c379a000000000000000000000000000000000000000000000000000000000815260040161107a90613dcd565b60405180910390fd5b60018160040160006101000a81548160ff02191690831515021790555060018160040160016101000a81548160ff0219169083151502179055505050565b6000806110cd836126f8565b9050600073ffffffffffffffffffffffffffffffffffffffff168173ffffffffffffffffffffffffffffffffffffffff160361113e576040517f08c379a000000000000000000000000000000000000000000000000000000000815260040161113590613e39565b60405180910390fd5b80915050919050565b60008073ffffffffffffffffffffffffffffffffffffffff168273ffffffffffffffffffffffffffffffffffffffff16036111b7576040517f08c379a00000000000000000000000000000000000000000000000000000000081526004016111ae90613ecb565b60405180910390fd5b600360008373ffffffffffffffffffffffffffffffffffffffff1673ffffffffffffffffffffffffffffffffffffffff168152602001908152602001600020549050919050565b6000600d60003373ffffffffffffffffffffffffffffffffffffffff1673ffffffffffffffffffffffffffffffffffffffff16815260200190815260200160002060040160019054906101000a900460ff1661128f576040517f08c379a000000000000000000000000000000000000000000000000000000000815260040161128690613bb1565b60405180910390fd5b60008210156112d3576040517f08c379a00000000000000000000000000000000000000000000000000000000081526004016112ca90613f37565b60405180910390fd5b6000600860008481526020019081526020016000209050600754831061132e576040517f08c379a000000000000000000000000000000000000000000000000000000000815260040161132590613fa3565b60405180910390fd5b6000600d60003373ffffffffffffffffffffffffffffffffffffffff1673ffffffffffffffffffffffffffffffffffffffff16815260200190815260200160002090508160030154816002015410156113bc576040517f08c379a00000000000000000000000000000000000000000000000000000000081526004016113b39061400f565b60405180910390fd5b600192505050919050565b600083511180156113d9575060008251115b611418576040517f08c379a000000000000000000000000000000000000000000000000000000000815260040161140f9061377d565b60405180910390fd5b6000600d60003373ffffffffffffffffffffffffffffffffffffffff1673ffffffffffffffffffffffffffffffffffffffff1681526020019081526020016000209050600081600001805461146c90613570565b9050146114ae576040517f08c379a00000000000000000000000000000000000000000000000000000000081526004016114a59061407b565b60405180910390fd5b838160000190816114bf9190613978565b50828160010190816114d19190613978565b506000816002018190555060008160040160006101000a81548160ff021916908315150217905550600c829080600181540180825580915050600190039060005260206000200160009091909190916101000a81548173ffffffffffffffffffffffffffffffffffffffff021916908373ffffffffffffffffffffffffffffffffffffffff16021790555050505050565b60606001805461157190613570565b80601f016020809104026020016040519081016040528092919081815260200182805461159d90613570565b80156115ea5780601f106115bf576101008083540402835291602001916115ea565b820191906000526020600020905b8154815290600101906020018083116115cd57829003601f168201915b5050505050905090565b6116066115ff6120ea565b8383612735565b5050565b61161b6116156120ea565b8361236a565b61165a576040517f08c379a000000000000000000000000000000000000000000000000000000000815260040161165190613b1f565b60405180910390fd5b611666848484846128a1565b50505050565b60606116778261209f565b60006116816128fd565b905060008151116116a157604051806020016040528060008152506116cc565b806116ab84612914565b6040516020016116bc9291906140d7565b6040516020818303038152906040525b915050919050565b600660009054906101000a900473ffffffffffffffffffffffffffffffffffffffff1673ffffffffffffffffffffffffffffffffffffffff163373ffffffffffffffffffffffffffffffffffffffff16148061177c5750600d60003373ffffffffffffffffffffffffffffffffffffffff1673ffffffffffffffffffffffffffffffffffffffff16815260200190815260200160002060040160009054906101000a900460ff165b6117bb576040517f08c379a00000000000000000000000000000000000000000000000000000000081526004016117b290613711565b60405180910390fd5b6000600d60008373ffffffffffffffffffffffffffffffffffffffff1673ffffffffffffffffffffffffffffffffffffffff1681526020019081526020016000209050600081600001805461180f90613570565b905011611851576040517f08c379a000000000000000000000000000000000000000000000000000000000815260040161184890613d61565b60405180910390fd5b8060040160019054906101000a900460ff16156118a3576040517f08c379a000000000000000000000000000000000000000000000000000000000815260040161189a90614147565b60405180910390fd5b60018160040160016101000a81548160ff0219169083151502179055505050565b6000600560008473ffffffffffffffffffffffffffffffffffffffff1673ffffffffffffffffffffffffffffffffffffffff16815260200190815260200160002060008373ffffffffffffffffffffffffffffffffffffffff1673ffffffffffffffffffffffffffffffffffffffff16815260200190815260200160002060009054906101000a900460ff16905092915050565b600d60003373ffffffffffffffffffffffffffffffffffffffff1673ffffffffffffffffffffffffffffffffffffffff16815260200190815260200160002060040160019054906101000a900460ff166119e7576040517f08c379a00000000000000000000000000000000000000000000000000000000081526004016119de90613bb1565b60405180910390fd5b600060086000848152602001908152602001600020905060008310158015611a10575060075483105b611a4f576040517f08c379a0000000000000000000000000000000000000000000000000000000008152600401611a4690613fa3565b60405180910390fd5b60006001811115611a6357611a6261379d565b5b8160040160009054906101000a900460ff166001811115611a8757611a8661379d565b5b14611ac7576040517f08c379a0000000000000000000000000000000000000000000000000000000008152600401611abe906141b3565b60405180910390fd5b600073ffffffffffffffffffffffffffffffffffffffff166009600085815260200190815260200160002060009054906101000a900473ffffffffffffffffffffffffffffffffffffffff1673ffffffffffffffffffffffffffffffffffffffff161480611b9357503373ffffffffffffffffffffffffffffffffffffffff166009600085815260200190815260200160002060009054906101000a900473ffffffffffffffffffffffffffffffffffffffff1673ffffffffffffffffffffffffffffffffffffffff16145b611bd2576040517f08c379a0000000000000000000000000000000000000000000000000000000008152600401611bc99061421f565b60405180910390fd5b818160030181905550336009600085815260200190815260200160002060006101000a81548173ffffffffffffffffffffffffffffffffffffffff021916908373ffffffffffffffffffffffffffffffffffffffff16021790555060008160040160006101000a81548160ff02191690836001811115611c5557611c5461379d565b5b0217905550505050565b600d60003373ffffffffffffffffffffffffffffffffffffffff1673ffffffffffffffffffffffffffffffffffffffff16815260200190815260200160002060040160019054906101000a900460ff16611cee576040517f08c379a0000000000000000000000000000000000000000000000000000000008152600401611ce590613bb1565b60405180910390fd5b600060086000838152602001908152602001600020905060008210158015611d17575060075482105b611d56576040517f08c379a0000000000000000000000000000000000000000000000000000000008152600401611d4d90613fa3565b60405180910390fd5b60006001811115611d6a57611d6961379d565b5b8160040160009054906101000a900460ff166001811115611d8e57611d8d61379d565b5b14611dce576040517f08c379a0000000000000000000000000000000000000000000000000000000008152600401611dc59061428b565b60405180910390fd5b6000600d60003373ffffffffffffffffffffffffffffffffffffffff1673ffffffffffffffffffffffffffffffffffffffff1681526020019081526020016000209050816003015481600201541015611e5c576040517f08c379a0000000000000000000000000000000000000000000000000000000008152600401611e539061400f565b60405180910390fd5b6000600d60006009600087815260200190815260200160002060009054906101000a900473ffffffffffffffffffffffffffffffffffffffff1673ffffffffffffffffffffffffffffffffffffffff1673ffffffffffffffffffffffffffffffffffffffff16815260200190815260200160002090508260030154816002016000828254611eea9190613a79565b925050819055508260030154826002016000828254611f0991906142ab565b92505081905550816003018390806001815401808255809150506001900390600052602060002090600502016000909190919091506000820154816000015560018201816001019081611f5c91906142f5565b5060028201548160020155600382015481600301556004820160009054906101000a900460ff168160040160006101000a81548160ff02191690836001811115611fa957611fa861379d565b5b0217905550505060018360040160006101000a81548160ff02191690836001811115611fd857611fd761379d565b5b0217905550336009600086815260200190815260200160002060006101000a81548173ffffffffffffffffffffffffffffffffffffffff021916908373ffffffffffffffffffffffffffffffffffffffff16021790555050505050565b60007f01ffc9a7000000000000000000000000000000000000000000000000000000007bffffffffffffffffffffffffffffffffffffffffffffffffffffffff1916827bffffffffffffffffffffffffffffffffffffffffffffffffffffffff1916149050919050565b6120a8816129e2565b6120e7576040517f08c379a00000000000000000000000000000000000000000000000000000000081526004016120de90613e39565b60405180910390fd5b50565b600033905090565b816004600083815260200190815260200160002060006101000a81548173ffffffffffffffffffffffffffffffffffffffff021916908373ffffffffffffffffffffffffffffffffffffffff160217905550808273ffffffffffffffffffffffffffffffffffffffff16612165836110c1565b73ffffffffffffffffffffffffffffffffffffffff167f8c5be1e5ebec7d5bd14f71427d1e84f3dd0314c0f7b2291e5b200ac8c7c3b92560405160405180910390a45050565b600073ffffffffffffffffffffffffffffffffffffffff168273ffffffffffffffffffffffffffffffffffffffff160361221a576040517f08c379a000000000000000000000000000000000000000000000000000000000815260040161221190614429565b60405180910390fd5b61222381612a23565b15612263576040517f08c379a000000000000000000000000000000000000000000000000000000000815260040161225a90614495565b60405180910390fd5b816009600083815260200190815260200160002060006101000a81548173ffffffffffffffffffffffffffffffffffffffff021916908373ffffffffffffffffffffffffffffffffffffffff160217905550600a60008373ffffffffffffffffffffffffffffffffffffffff1673ffffffffffffffffffffffffffffffffffffffff1681526020019081526020016000206000815480929190612305906144b5565b9190505550808273ffffffffffffffffffffffffffffffffffffffff16600073ffffffffffffffffffffffffffffffffffffffff167fddf252ad1be2c89b69c2b068fc378daa952ba7f163c4a11628f55a4df523b3ef60405160405180910390a45050565b600080612376836110c1565b90508073ffffffffffffffffffffffffffffffffffffffff168473ffffffffffffffffffffffffffffffffffffffff1614806123b857506123b781856118c4565b5b806123f657508373ffffffffffffffffffffffffffffffffffffffff166123de84610750565b73ffffffffffffffffffffffffffffffffffffffff16145b91505092915050565b8273ffffffffffffffffffffffffffffffffffffffff1661241f826110c1565b73ffffffffffffffffffffffffffffffffffffffff1614612475576040517f08c379a000000000000000000000000000000000000000000000000000000000815260040161246c9061456f565b60405180910390fd5b600073ffffffffffffffffffffffffffffffffffffffff168273ffffffffffffffffffffffffffffffffffffffff16036124e4576040517f08c379a00000000000000000000000000000000000000000000000000000000081526004016124db90614601565b60405180910390fd5b6124f18383836001612a8f565b8273ffffffffffffffffffffffffffffffffffffffff16612511826110c1565b73ffffffffffffffffffffffffffffffffffffffff1614612567576040517f08c379a000000000000000000000000000000000000000000000000000000000815260040161255e9061456f565b60405180910390fd5b6004600082815260200190815260200160002060006101000a81549073ffffffffffffffffffffffffffffffffffffffff02191690556001600360008573ffffffffffffffffffffffffffffffffffffffff1673ffffffffffffffffffffffffffffffffffffffff168152602001908152602001600020600082825403925050819055506001600360008473ffffffffffffffffffffffffffffffffffffffff1673ffffffffffffffffffffffffffffffffffffffff16815260200190815260200160002060008282540192505081905550816002600083815260200190815260200160002060006101000a81548173ffffffffffffffffffffffffffffffffffffffff021916908373ffffffffffffffffffffffffffffffffffffffff160217905550808273ffffffffffffffffffffffffffffffffffffffff168473ffffffffffffffffffffffffffffffffffffffff167fddf252ad1be2c89b69c2b068fc378daa952ba7f163c4a11628f55a4df523b3ef60405160405180910390a46126f38383836001612a95565b505050565b60006002600083815260200190815260200160002060009054906101000a900473ffffffffffffffffffffffffffffffffffffffff169050919050565b8173ffffffffffffffffffffffffffffffffffffffff168373ffffffffffffffffffffffffffffffffffffffff16036127a3576040517f08c379a000000000000000000000000000000000000000000000000000000000815260040161279a9061466d565b60405180910390fd5b80600560008573ffffffffffffffffffffffffffffffffffffffff1673ffffffffffffffffffffffffffffffffffffffff16815260200190815260200160002060008473ffffffffffffffffffffffffffffffffffffffff1673ffffffffffffffffffffffffffffffffffffffff16815260200190815260200160002060006101000a81548160ff0219169083151502179055508173ffffffffffffffffffffffffffffffffffffffff168373ffffffffffffffffffffffffffffffffffffffff167f17307eab39ab6107e8899845ad3d59bd9653f200f220920489ca2b5937696c31836040516128949190612e4c565b60405180910390a3505050565b6128ac8484846123ff565b6128b884848484612a9b565b6128f7576040517f08c379a00000000000000000000000000000000000000000000000000000000081526004016128ee906146ff565b60405180910390fd5b50505050565b606060405180602001604052806000815250905090565b60606000600161292384612c22565b01905060008167ffffffffffffffff8111156129425761294161304e565b5b6040519080825280601f01601f1916602001820160405280156129745781602001600182028036833780820191505090505b509050600082602001820190505b6001156129d7578080600190039150507f3031323334353637383961626364656600000000000000000000000000000000600a86061a8153600a85816129cb576129ca61471f565b5b04945060008503612982575b819350505050919050565b60008073ffffffffffffffffffffffffffffffffffffffff16612a04836126f8565b73ffffffffffffffffffffffffffffffffffffffff1614159050919050565b60008073ffffffffffffffffffffffffffffffffffffffff166009600084815260200190815260200160002060009054906101000a900473ffffffffffffffffffffffffffffffffffffffff1673ffffffffffffffffffffffffffffffffffffffff1614159050919050565b50505050565b50505050565b6000612abc8473ffffffffffffffffffffffffffffffffffffffff16612d75565b15612c15578373ffffffffffffffffffffffffffffffffffffffff1663150b7a02612ae56120ea565b8786866040518563ffffffff1660e01b8152600401612b0794939291906147a3565b6020604051808303816000875af1925050508015612b4357506040513d601f19601f82011682018060405250810190612b409190614804565b60015b612bc5573d8060008114612b73576040519150601f19603f3d011682016040523d82523d6000602084013e612b78565b606091505b506000815103612bbd576040517f08c379a0000000000000000000000000000000000000000000000000000000008152600401612bb4906146ff565b60405180910390fd5b805181602001fd5b63150b7a0260e01b7bffffffffffffffffffffffffffffffffffffffffffffffffffffffff1916817bffffffffffffffffffffffffffffffffffffffffffffffffffffffff191614915050612c1a565b600190505b949350505050565b600080600090507a184f03e93ff9f4daa797ed6e38ed64bf6a1f0100000000000000008310612c80577a184f03e93ff9f4daa797ed6e38ed64bf6a1f0100000000000000008381612c7657612c7561471f565b5b0492506040810190505b6d04ee2d6d415b85acef81000000008310612cbd576d04ee2d6d415b85acef81000000008381612cb357612cb261471f565b5b0492506020810190505b662386f26fc100008310612cec57662386f26fc100008381612ce257612ce161471f565b5b0492506010810190505b6305f5e1008310612d15576305f5e1008381612d0b57612d0a61471f565b5b0492506008810190505b6127108310612d3a576127108381612d3057612d2f61471f565b5b0492506004810190505b60648310612d5d5760648381612d5357612d5261471f565b5b0492506002810190505b600a8310612d6c576001810190505b80915050919050565b6000808273ffffffffffffffffffffffffffffffffffffffff163b119050919050565b6000604051905090565b600080fd5b600080fd5b60007fffffffff0000000000000000000000000000000000000000000000000000000082169050919050565b612de181612dac565b8114612dec57600080fd5b50565b600081359050612dfe81612dd8565b92915050565b600060208284031215612e1a57612e19612da2565b5b6000612e2884828501612def565b91505092915050565b60008115159050919050565b612e4681612e31565b82525050565b6000602082019050612e616000830184612e3d565b92915050565b6000819050919050565b612e7a81612e67565b8114612e8557600080fd5b50565b600081359050612e9781612e71565b92915050565b600060208284031215612eb357612eb2612da2565b5b6000612ec184828501612e88565b91505092915050565b600073ffffffffffffffffffffffffffffffffffffffff82169050919050565b6000612ef582612eca565b9050919050565b612f0581612eea565b82525050565b6000602082019050612f206000830184612efc565b92915050565b600081519050919050565b600082825260208201905092915050565b60005b83811015612f60578082015181840152602081019050612f45565b60008484015250505050565b6000601f19601f8301169050919050565b6000612f8882612f26565b612f928185612f31565b9350612fa2818560208601612f42565b612fab81612f6c565b840191505092915050565b60006020820190508181036000830152612fd08184612f7d565b905092915050565b612fe181612eea565b8114612fec57600080fd5b50565b600081359050612ffe81612fd8565b92915050565b6000806040838503121561301b5761301a612da2565b5b600061302985828601612fef565b925050602061303a85828601612e88565b9150509250929050565b600080fd5b600080fd5b7f4e487b7100000000000000000000000000000000000000000000000000000000600052604160045260246000fd5b61308682612f6c565b810181811067ffffffffffffffff821117156130a5576130a461304e565b5b80604052505050565b60006130b8612d98565b90506130c4828261307d565b919050565b600067ffffffffffffffff8211156130e4576130e361304e565b5b6130ed82612f6c565b9050602081019050919050565b82818337600083830152505050565b600061311c613117846130c9565b6130ae565b90508281526020810184848401111561313857613137613049565b5b6131438482856130fa565b509392505050565b600082601f8301126131605761315f613044565b5b8135613170848260208601613109565b91505092915050565b6000806000806080858703121561319357613192612da2565b5b600085013567ffffffffffffffff8111156131b1576131b0612da7565b5b6131bd8782880161314b565b94505060206131ce87828801612e88565b93505060406131df87828801612e88565b92505060606131f087828801612fef565b91505092959194509250565b60008060006060848603121561321557613214612da2565b5b600061322386828701612fef565b935050602061323486828701612fef565b925050604061324586828701612e88565b9150509250925092565b60006020828403121561326557613264612da2565b5b600061327384828501612fef565b91505092915050565b61328581612e67565b82525050565b60006020820190506132a0600083018461327c565b92915050565b6000806000606084860312156132bf576132be612da2565b5b600084013567ffffffffffffffff8111156132dd576132dc612da7565b5b6132e98682870161314b565b935050602084013567ffffffffffffffff81111561330a57613309612da7565b5b6133168682870161314b565b925050604061332786828701612fef565b9150509250925092565b61333a81612e31565b811461334557600080fd5b50565b60008135905061335781613331565b92915050565b6000806040838503121561337457613373612da2565b5b600061338285828601612fef565b925050602061339385828601613348565b9150509250929050565b600067ffffffffffffffff8211156133b8576133b761304e565b5b6133c182612f6c565b9050602081019050919050565b60006133e16133dc8461339d565b6130ae565b9050828152602081018484840111156133fd576133fc613049565b5b6134088482856130fa565b509392505050565b600082601f83011261342557613424613044565b5b81356134358482602086016133ce565b91505092915050565b6000806000806080858703121561345857613457612da2565b5b600061346687828801612fef565b945050602061347787828801612fef565b935050604061348887828801612e88565b925050606085013567ffffffffffffffff8111156134a9576134a8612da7565b5b6134b587828801613410565b91505092959194509250565b600080604083850312156134d8576134d7612da2565b5b60006134e685828601612fef565b92505060206134f785828601612fef565b9150509250929050565b6000806040838503121561351857613517612da2565b5b600061352685828601612e88565b925050602061353785828601612e88565b9150509250929050565b7f4e487b7100000000000000000000000000000000000000000000000000000000600052602260045260246000fd5b6000600282049050600182168061358857607f821691505b60208210810361359b5761359a613541565b5b50919050565b7f4552433732313a20617070726f76616c20746f2063757272656e74206f776e6560008201527f7200000000000000000000000000000000000000000000000000000000000000602082015250565b60006135fd602183612f31565b9150613608826135a1565b604082019050919050565b6000602082019050818103600083015261362c816135f0565b9050919050565b7f4552433732313a20617070726f76652063616c6c6572206973206e6f7420746f60008201527f6b656e206f776e6572206f7220617070726f76656420666f7220616c6c000000602082015250565b600061368f603d83612f31565b915061369a82613633565b604082019050919050565b600060208201905081810360008301526136be81613682565b9050919050565b7f4f6e6c79206469737472696275746f722063616e2063616c6c20746869730000600082015250565b60006136fb601e83612f31565b9150613706826136c5565b602082019050919050565b6000602082019050818103600083015261372a816136ee565b9050919050565b7f496e76616c696420696e70757420706172616d65746572730000000000000000600082015250565b6000613767601883612f31565b915061377282613731565b602082019050919050565b600060208201905081810360008301526137968161375a565b9050919050565b7f4e487b7100000000000000000000000000000000000000000000000000000000600052602160045260246000fd5b60008190508160005260206000209050919050565b60006020601f8301049050919050565b600082821b905092915050565b60006008830261382e7fffffffffffffffffffffffffffffffffffffffffffffffffffffffffffffffff826137f1565b61383886836137f1565b95508019841693508086168417925050509392505050565b6000819050919050565b600061387561387061386b84612e67565b613850565b612e67565b9050919050565b6000819050919050565b61388f8361385a565b6138a361389b8261387c565b8484546137fe565b825550505050565b600090565b6138b86138ab565b6138c3818484613886565b505050565b5b818110156138e7576138dc6000826138b0565b6001810190506138c9565b5050565b601f82111561392c576138fd816137cc565b613906846137e1565b81016020851015613915578190505b613929613921856137e1565b8301826138c8565b50505b505050565b600082821c905092915050565b600061394f60001984600802613931565b1980831691505092915050565b6000613968838361393e565b9150826002028217905092915050565b61398182612f26565b67ffffffffffffffff81111561399a5761399961304e565b5b6139a48254613570565b6139af8282856138eb565b600060209050601f8311600181146139e257600084156139d0578287015190505b6139da858261395c565b865550613a42565b601f1984166139f0866137cc565b60005b82811015613a18578489015182556001820191506020850194506020810190506139f3565b86831015613a355784890151613a31601f89168261393e565b8355505b6001600288020188555050505b505050505050565b7f4e487b7100000000000000000000000000000000000000000000000000000000600052601160045260246000fd5b6000613a8482612e67565b9150613a8f83612e67565b9250828201905080821115613aa757613aa6613a4a565b5b92915050565b7f4552433732313a2063616c6c6572206973206e6f7420746f6b656e206f776e6560008201527f72206f7220617070726f76656400000000000000000000000000000000000000602082015250565b6000613b09602d83612f31565b9150613b1482613aad565b604082019050919050565b60006020820190508181036000830152613b3881613afc565b9050919050565b7f4f6e6c7920726567697374657265642075736572732063616e2063616c6c207460008201527f6869730000000000000000000000000000000000000000000000000000000000602082015250565b6000613b9b602383612f31565b9150613ba682613b3f565b604082019050919050565b60006020820190508181036000830152613bca81613b8e565b9050919050565b7f55736572206e6f74207265676973746572656400000000000000000000000000600082015250565b6000613c07601383612f31565b9150613c1282613bd1565b602082019050919050565b60006020820190508181036000830152613c3681613bfa565b9050919050565b7f496e76616c69642062616c616e63650000000000000000000000000000000000600082015250565b6000613c73600f83612f31565b9150613c7e82613c3d565b602082019050919050565b60006020820190508181036000830152613ca281613c66565b9050919050565b7f4f6e6c79206f776e65722063616e2063616c6c20746869730000000000000000600082015250565b6000613cdf601883612f31565b9150613cea82613ca9565b602082019050919050565b60006020820190508181036000830152613d0e81613cd2565b9050919050565b7f55736572206e6f7420666f756e64000000000000000000000000000000000000600082015250565b6000613d4b600e83612f31565b9150613d5682613d15565b602082019050919050565b60006020820190508181036000830152613d7a81613d3e565b9050919050565b7f5573657220697320616c7265616479204469737472696275746f720000000000600082015250565b6000613db7601b83612f31565b9150613dc282613d81565b602082019050919050565b60006020820190508181036000830152613de681613daa565b9050919050565b7f4552433732313a20696e76616c696420746f6b656e2049440000000000000000600082015250565b6000613e23601883612f31565b9150613e2e82613ded565b602082019050919050565b60006020820190508181036000830152613e5281613e16565b9050919050565b7f4552433732313a2061646472657373207a65726f206973206e6f74206120766160008201527f6c6964206f776e65720000000000000000000000000000000000000000000000602082015250565b6000613eb5602983612f31565b9150613ec082613e59565b604082019050919050565b60006020820190508181036000830152613ee481613ea8565b9050919050565b7f496e76616c696420696e70757420706172616d65746572000000000000000000600082015250565b6000613f21601783612f31565b9150613f2c82613eeb565b602082019050919050565b60006020820190508181036000830152613f5081613f14565b9050919050565b7f524543206e6f7420666f756e6400000000000000000000000000000000000000600082015250565b6000613f8d600d83612f31565b9150613f9882613f57565b602082019050919050565b60006020820190508181036000830152613fbc81613f80565b9050919050565b7f496e73756666696369656e742062616c616e6365000000000000000000000000600082015250565b6000613ff9601483612f31565b915061400482613fc3565b602082019050919050565b6000602082019050818103600083015261402881613fec565b9050919050565b7f5573657220616c72656164792072656769737465726564000000000000000000600082015250565b6000614065601783612f31565b91506140708261402f565b602082019050919050565b6000602082019050818103600083015261409481614058565b9050919050565b600081905092915050565b60006140b182612f26565b6140bb818561409b565b93506140cb818560208601612f42565b80840191505092915050565b60006140e382856140a6565b91506140ef82846140a6565b91508190509392505050565b7f5573657220697320616c72656164792052656769737465726564000000000000600082015250565b6000614131601a83612f31565b915061413c826140fb565b602082019050919050565b6000602082019050818103600083015261416081614124565b9050919050565b7f43616e6e6f742075706461746520707269636520666f7220736f6c6420524543600082015250565b600061419d602083612f31565b91506141a882614167565b602082019050919050565b600060208201905081810360008301526141cc81614190565b9050919050565b7f4f6e6c792073656c6c65722063616e2075706461746520707269636500000000600082015250565b6000614209601c83612f31565b9150614214826141d3565b602082019050919050565b60006020820190508181036000830152614238816141fc565b9050919050565b7f524543206e6f7420617661696c61626c6520666f722070757263686173650000600082015250565b6000614275601e83612f31565b91506142808261423f565b602082019050919050565b600060208201905081810360008301526142a481614268565b9050919050565b60006142b682612e67565b91506142c183612e67565b92508282039050818111156142d9576142d8613a4a565b5b92915050565b6000815490506142ee81613570565b9050919050565b8181036143035750506143db565b61430c826142df565b67ffffffffffffffff8111156143255761432461304e565b5b61432f8254613570565b61433a8282856138eb565b6000601f8311600181146143695760008415614357578287015490505b614361858261395c565b8655506143d4565b601f198416614377876137cc565b9650614382866137cc565b60005b828110156143aa57848901548255600182019150600185019450602081019050614385565b868310156143c757848901546143c3601f89168261393e565b8355505b6001600288020188555050505b5050505050505b565b7f5a65726f416464726573734d696e6974696e6700000000000000000000000000600082015250565b6000614413601383612f31565b915061441e826143dd565b602082019050919050565b6000602082019050818103600083015261444281614406565b9050919050565b7f416c72656164794d696e74656400000000000000000000000000000000000000600082015250565b600061447f600d83612f31565b915061448a82614449565b602082019050919050565b600060208201905081810360008301526144ae81614472565b9050919050565b60006144c082612e67565b91507fffffffffffffffffffffffffffffffffffffffffffffffffffffffffffffffff82036144f2576144f1613a4a565b5b600182019050919050565b7f4552433732313a207472616e736665722066726f6d20696e636f72726563742060008201527f6f776e6572000000000000000000000000000000000000000000000000000000602082015250565b6000614559602583612f31565b9150614564826144fd565b604082019050919050565b600060208201905081810360008301526145888161454c565b9050919050565b7f4552433732313a207472616e7366657220746f20746865207a65726f2061646460008201527f7265737300000000000000000000000000000000000000000000000000000000602082015250565b60006145eb602483612f31565b91506145f68261458f565b604082019050919050565b6000602082019050818103600083015261461a816145de565b9050919050565b7f4552433732313a20617070726f766520746f2063616c6c657200000000000000600082015250565b6000614657601983612f31565b915061466282614621565b602082019050919050565b600060208201905081810360008301526146868161464a565b9050919050565b7f4552433732313a207472616e7366657220746f206e6f6e20455243373231526560008201527f63656976657220696d706c656d656e7465720000000000000000000000000000602082015250565b60006146e9603283612f31565b91506146f48261468d565b604082019050919050565b60006020820190508181036000830152614718816146dc565b9050919050565b7f4e487b7100000000000000000000000000000000000000000000000000000000600052601260045260246000fd5b600081519050919050565b600082825260208201905092915050565b60006147758261474e565b61477f8185614759565b935061478f818560208601612f42565b61479881612f6c565b840191505092915050565b60006080820190506147b86000830187612efc565b6147c56020830186612efc565b6147d2604083018561327c565b81810360608301526147e4818461476a565b905095945050505050565b6000815190506147fe81612dd8565b92915050565b60006020828403121561481a57614819612da2565b5b6000614828848285016147ef565b9150509291505056fea26469706673582212204cb6017e654501e1b1041eb5d65e9ae39abb73841a9509877797c40a17dd1d5164736f6c63430008130033",
  "immutableReferences": {},
  "source": "// SPDX-License-Identifier: UNLICENSED\npragma solidity ^0.8.1;\n\nimport \"@openzeppelin/contracts/token/ERC721/ERC721.sol\";\n\ncontract RenewableEnergyToken is ERC721 {\n    \n    address owner;\n    \n    struct User {\n        string id;\n        string name;\n        uint balance;\n        REC[] certificates;\n        bool isDistributor;\n        bool isRegistered;\n    }\n    \n    struct REC {\n        uint id;\n        string name;\n        uint quantity;\n        uint price;\n        Status status;\n    }\n\n    uint public recCount;\n    mapping(uint => REC) recs;\n    mapping(uint => address) private recOwner;\n    mapping (address => uint256) private ownedAssetsCount;    \n    mapping (uint256 => address) public assetApprovals;\n\n    address[]  addressList;\n    \n    enum Status {Available, Sold}\n    \n    mapping(address => User) users;\n\n    //Events\n    //event Transfer(address indexed from, address indexed to, uint256 indexed tokenId);\n    //event Approval(address indexed owner, address indexed approved, uint256 indexed tokenId);\n\n    constructor() ERC721(\"RenewableEnergyToken\", \"RET\") {\n        owner = msg.sender;\n    }\n\n    modifier onlyOwner() {\n        require(msg.sender == owner, \"Only owner can call this\");\n        _;\n    }\n\n    modifier onlyRegistered() {\n        require(users[msg.sender].isRegistered, \"Only registered users can call this\");\n        _;\n    }\n\n    modifier onlyDistributor() {\n        require(msg.sender == owner || users[msg.sender].isDistributor, \"Only distributor can call this\");\n        _;\n    }\n\n\tfunction getUserRole(address user) public view returns (string memory) {\n\t\tif (user == owner) {\n\t\t\treturn \"owner\";\n\t\t} else if (users[user].isDistributor) {\n\t\t\treturn \"distributor\";\n\t\t} else if (users[user].isRegistered) {\n\t\t\treturn \"registered\";\n\t\t} else {\n\t\t\treturn \"none\";\n\t\t}\n\t}\n\n    //ERC721 methods\n    /*\n    function ownerOf(uint256 assetId) public view returns (address) {\n        address owner = recOwner[assetId];\n        require(owner != address(0), \"NoAssetExists\");\n        return owner;\n    }\n    \n    function transferFrom(address payable from, uint256 recId) public payable {\n        require(isApprovedOrOwner(msg.sender, recId), \"NotAnApprovedOwner\");\n        require(ownerOf(rectId) == from, \"NotTheassetOwner\");\n        clearApproval(recId,getApproved(recId));\n        ownedAssetsCount[from]--;\n        ownedAssetsCount[msg.sender]++;\n        assetOwner[assetId] = msg.sender;\n        from.transfer(assetMap[recId].price * 1000000000000000000);\n        emit Transfer(from, msg.sender, recId);\n    }\n\n    function approve(address to,uint256 assetId) public {\n        address owner = ownerOf(assetId);\n        require(to != owner, \"CurrentOwnerApproval\");\n        require(msg.sender == owner,\"NotTheAssetOwner\");\n        assetApprovals[assetId] = to;\n        emit Approval(owner, to, assetId);\n    }\n\n    function getApproved(uint256 assetId) public view returns (address) {\n        require(exists(assetId), \"ERC721: approved query for nonexistent token\");\n        return assetApprovals[assetId];\n    }\n    */\n\n    // Function used internally by other methods\n    function mint(address to, uint256 recId) internal {\n        require(to != address(0), \"ZeroAddressMiniting\");\n        require(!exists(recId), \"AlreadyMinted\");\n        recOwner[recId] = to;\n        ownedAssetsCount[to]++;\n        emit Transfer(address(0), to, recId);\n    }\n\n    function exists(uint256 assetId) internal view returns (bool) {\n        return recOwner[assetId] != address(0);\n    }\n\n    function isApprovedOrOwner(address spender, uint256 assetId) internal view returns (bool) {\n        require(exists(assetId), \"ERC721: operator query for nonexistent token\");\n        address owner = ownerOf(assetId);\n        return (spender == owner || getApproved(assetId) == spender);\n    }\n\n    //REC functions\n    function generateREC(string memory name, uint quantity, uint price, address sellerAddress) public onlyDistributor payable {\n        require(bytes(name).length > 0 && quantity > 0 && price > 0 && sellerAddress!=address(0), \"Invalid input parameters\");\n\n        recs[recCount] =  REC(recCount, name, quantity, price, Status.Available);\n        \n        mint(sellerAddress,recCount);\n        recCount = recCount+1;\n    }\n\n    /*\n    function getCertificatesOfUser() public view onlyRegistered returns (REC[] memory) {\n        return users[msg.sender].certificates;\n    }\n\n    function getAllCertificates() public view onlyRegistered returns (REC[] memory) {\n        uint totalCertificates;\n        for (uint i = 0; i < addressList.length; i++) {\n            totalCertificates += users[addressList[i]].certificates.length;\n        }\n\n        REC[] memory allCertificates = new REC[](totalCertificates);\n        uint currentIndex = 0;\n        for (uint i = 0; i < addressList.length; i++) {\n            REC[] memory userCertificates = users[addressList[i]].certificates;\n            for (uint j = 0; j < userCertificates.length; j++) {\n                allCertificates[currentIndex] = userCertificates[j];\n                currentIndex++;\n            }\n        }\n\n        return allCertificates;\n    }\n\n    function getCertificate(string memory id) public view onlyRegistered returns (string memory, string memory, uint, uint, address, Status) {\n        REC memory rec = recs[id];\n        return (id, rec.name, rec.quantity, rec.price, rec.status);\n    }\n    */\n\n    function verifyREC(uint id) public view onlyRegistered returns (bool) {\n        require(id>=0, \"Invalid input parameter\");\n\n        REC storage rec = recs[id];\n        require(id<recCount, \"REC not found\");\n\n        User storage user = users[msg.sender];\n        require(user.balance >= rec.price, \"Insufficient balance\");\n        return true;\n    }\n\n\n    function buyREC(uint id) public onlyRegistered payable {\n        REC storage rec = recs[id];\n        require(id>=0 && id<recCount, \"REC not found\");\n        require(rec.status == Status.Available, \"REC not available for purchase\");\n\n        User storage buyer = users[msg.sender];\n        require(buyer.balance >= rec.price, \"Insufficient balance\");\n\n        User storage seller = users[recOwner[id]];\n        seller.balance += rec.price;\n\n        buyer.balance -= rec.price;\n        buyer.certificates.push(rec);\n        rec.status = Status.Sold;\n        recOwner[id] = msg.sender;\n    }\n\n    function sellREC(uint id, uint price) public onlyRegistered {\n        REC storage rec = recs[id];\n        require(id>=0 && id<recCount, \"REC not found\");\n        require(rec.status == Status.Available, \"Cannot update price for sold REC\");\n        require(recOwner[id] == address(0) || recOwner[id] == msg.sender, \"Only seller can update price\");\n\n        rec.price = price;\n        recOwner[id] = msg.sender;\n        rec.status = Status.Available;\n    }\n\n    function approveDistributor(address userAddress) public onlyOwner {\n        User storage user = users[userAddress];\n        require(bytes(user.id).length > 0, \"User not found\");\n        require(!user.isRegistered, \"User is already Distributor\");\n\n        user.isDistributor = true;\n        user.isRegistered = true;\n    }\n\n    function approveUser(address userAddress) public onlyDistributor {\n        User storage user = users[userAddress];\n        require(bytes(user.id).length > 0, \"User not found\");\n        require(!user.isRegistered, \"User is already Registered\");\n\n        user.isRegistered = true;\n    }\n\n    function selfRegister(string memory id, string memory name, address userAddress) public {\n        require(bytes(id).length > 0 && bytes(name).length > 0, \"Invalid input parameters\");\n\n        User storage user = users[msg.sender];\n        require(bytes(user.id).length == 0, \"User already registered\");\n\n        user.id = id;\n        user.name = name;\n        user.balance = 0; \n        user.isDistributor = false;\n        addressList.push((userAddress));\n    }\n\n    function topupBalance() public onlyRegistered payable {\n        User storage user = users[msg.sender];\n        require(bytes(user.id).length != 0, \"User not registered\");\n        require(msg.value >= 0, \"Invalid balance\");\n\n        user.balance += msg.value;\n    }\n}",
  "sourcePath": "/Users/sandeepkunusoth/Downloads/blockchain-project/cse526/renewableenergytoken-contract/contracts/RenewableEnergyToken.sol",
  "compiler": {
    "name": "solc",
    "version": "0.8.19+commit.7dd6d404.Emscripten.clang"
  },
  "schemaVersion": "3.4.13",
  "updatedAt": "2023-04-29T23:27:45.415Z",
  "networkType": "ethereum",
  "devdoc": {
    "events": {
      "Approval(address,address,uint256)": {
        "details": "Emitted when `owner` enables `approved` to manage the `tokenId` token."
      },
      "ApprovalForAll(address,address,bool)": {
        "details": "Emitted when `owner` enables or disables (`approved`) `operator` to manage all of its assets."
      },
      "Transfer(address,address,uint256)": {
        "details": "Emitted when `tokenId` token is transferred from `from` to `to`."
      }
    },
    "kind": "dev",
    "methods": {
      "approve(address,uint256)": {
        "details": "See {IERC721-approve}."
      },
      "balanceOf(address)": {
        "details": "See {IERC721-balanceOf}."
      },
      "getApproved(uint256)": {
        "details": "See {IERC721-getApproved}."
      },
      "isApprovedForAll(address,address)": {
        "details": "See {IERC721-isApprovedForAll}."
      },
      "name()": {
        "details": "See {IERC721Metadata-name}."
      },
      "ownerOf(uint256)": {
        "details": "See {IERC721-ownerOf}."
      },
      "safeTransferFrom(address,address,uint256)": {
        "details": "See {IERC721-safeTransferFrom}."
      },
      "safeTransferFrom(address,address,uint256,bytes)": {
        "details": "See {IERC721-safeTransferFrom}."
      },
      "setApprovalForAll(address,bool)": {
        "details": "See {IERC721-setApprovalForAll}."
      },
      "supportsInterface(bytes4)": {
        "details": "See {IERC165-supportsInterface}."
      },
      "symbol()": {
        "details": "See {IERC721Metadata-symbol}."
      },
      "tokenURI(uint256)": {
        "details": "See {IERC721Metadata-tokenURI}."
      },
      "transferFrom(address,address,uint256)": {
        "details": "See {IERC721-transferFrom}."
      }
    },
    "version": 1
  },
  "userdoc": {
    "kind": "user",
    "methods": {},
    "version": 1
  }
}