{
  "contractName": "RenewableEnergyToken",
  "abi": [
    {
      "inputs": [],
      "stateMutability": "nonpayable",
      "type": "constructor"
    },
    {
      "anonymous": false,
      "inputs": [
        {
          "indexed": true,
          "internalType": "address",
          "name": "owner",
          "type": "address"
        },
        {
          "indexed": true,
          "internalType": "address",
          "name": "approved",
          "type": "address"
        },
        {
          "indexed": true,
          "internalType": "uint256",
          "name": "tokenId",
          "type": "uint256"
        }
      ],
      "name": "Approval",
      "type": "event"
    },
    {
      "anonymous": false,
      "inputs": [
        {
          "indexed": true,
          "internalType": "address",
          "name": "owner",
          "type": "address"
        },
        {
          "indexed": true,
          "internalType": "address",
          "name": "operator",
          "type": "address"
        },
        {
          "indexed": false,
          "internalType": "bool",
          "name": "approved",
          "type": "bool"
        }
      ],
      "name": "ApprovalForAll",
      "type": "event"
    },
    {
      "anonymous": false,
      "inputs": [
        {
          "indexed": true,
          "internalType": "address",
          "name": "from",
          "type": "address"
        },
        {
          "indexed": true,
          "internalType": "address",
          "name": "to",
          "type": "address"
        },
        {
          "indexed": true,
          "internalType": "uint256",
          "name": "tokenId",
          "type": "uint256"
        }
      ],
      "name": "Transfer",
      "type": "event"
    },
    {
      "inputs": [
        {
          "internalType": "uint256",
          "name": "",
          "type": "uint256"
        }
      ],
      "name": "assetApprovals",
      "outputs": [
        {
          "internalType": "address",
          "name": "",
          "type": "address"
        }
      ],
      "stateMutability": "view",
      "type": "function",
      "constant": true
    },
    {
      "inputs": [
        {
          "internalType": "address",
          "name": "owner",
          "type": "address"
        },
        {
          "internalType": "address",
          "name": "operator",
          "type": "address"
        }
      ],
      "name": "isApprovedForAll",
      "outputs": [
        {
          "internalType": "bool",
          "name": "",
          "type": "bool"
        }
      ],
      "stateMutability": "view",
      "type": "function",
      "constant": true
    },
    {
      "inputs": [],
      "name": "name",
      "outputs": [
        {
          "internalType": "string",
          "name": "",
          "type": "string"
        }
      ],
      "stateMutability": "view",
      "type": "function",
      "constant": true
    },
    {
      "inputs": [],
      "name": "owner",
      "outputs": [
        {
          "internalType": "address",
          "name": "",
          "type": "address"
        }
      ],
      "stateMutability": "view",
      "type": "function",
      "constant": true
    },
    {
      "inputs": [],
      "name": "recCount",
      "outputs": [
        {
          "internalType": "uint256",
          "name": "",
          "type": "uint256"
        }
      ],
      "stateMutability": "view",
      "type": "function",
      "constant": true
    },
    {
      "inputs": [
        {
          "internalType": "uint256",
          "name": "",
          "type": "uint256"
        }
      ],
      "name": "recs",
      "outputs": [
        {
          "internalType": "uint256",
          "name": "id",
          "type": "uint256"
        },
        {
          "internalType": "string",
          "name": "name",
          "type": "string"
        },
        {
          "internalType": "uint256",
          "name": "quantity",
          "type": "uint256"
        },
        {
          "internalType": "uint256",
          "name": "price",
          "type": "uint256"
        },
        {
          "internalType": "enum RenewableEnergyToken.Status",
          "name": "status",
          "type": "uint8"
        }
      ],
      "stateMutability": "view",
      "type": "function",
      "constant": true
    },
    {
      "inputs": [
        {
          "internalType": "address",
          "name": "from",
          "type": "address"
        },
        {
          "internalType": "address",
          "name": "to",
          "type": "address"
        },
        {
          "internalType": "uint256",
          "name": "tokenId",
          "type": "uint256"
        }
      ],
      "name": "safeTransferFrom",
      "outputs": [],
      "stateMutability": "nonpayable",
      "type": "function"
    },
    {
      "inputs": [
        {
          "internalType": "address",
          "name": "from",
          "type": "address"
        },
        {
          "internalType": "address",
          "name": "to",
          "type": "address"
        },
        {
          "internalType": "uint256",
          "name": "tokenId",
          "type": "uint256"
        },
        {
          "internalType": "bytes",
          "name": "data",
          "type": "bytes"
        }
      ],
      "name": "safeTransferFrom",
      "outputs": [],
      "stateMutability": "nonpayable",
      "type": "function"
    },
    {
      "inputs": [
        {
          "internalType": "address",
          "name": "operator",
          "type": "address"
        },
        {
          "internalType": "bool",
          "name": "approved",
          "type": "bool"
        }
      ],
      "name": "setApprovalForAll",
      "outputs": [],
      "stateMutability": "nonpayable",
      "type": "function"
    },
    {
      "inputs": [
        {
          "internalType": "bytes4",
          "name": "interfaceId",
          "type": "bytes4"
        }
      ],
      "name": "supportsInterface",
      "outputs": [
        {
          "internalType": "bool",
          "name": "",
          "type": "bool"
        }
      ],
      "stateMutability": "view",
      "type": "function",
      "constant": true
    },
    {
      "inputs": [],
      "name": "symbol",
      "outputs": [
        {
          "internalType": "string",
          "name": "",
          "type": "string"
        }
      ],
      "stateMutability": "view",
      "type": "function",
      "constant": true
    },
    {
      "inputs": [
        {
          "internalType": "uint256",
          "name": "tokenId",
          "type": "uint256"
        }
      ],
      "name": "tokenURI",
      "outputs": [
        {
          "internalType": "string",
          "name": "",
          "type": "string"
        }
      ],
      "stateMutability": "view",
      "type": "function",
      "constant": true
    },
    {
      "inputs": [
        {
          "internalType": "address",
          "name": "user",
          "type": "address"
        }
      ],
      "name": "getUserRole",
      "outputs": [
        {
          "internalType": "string",
          "name": "",
          "type": "string"
        }
      ],
      "stateMutability": "view",
      "type": "function",
      "constant": true
    },
    {
      "inputs": [
        {
          "internalType": "address",
          "name": "owner",
          "type": "address"
        }
      ],
      "name": "balanceOf",
      "outputs": [
        {
          "internalType": "uint256",
          "name": "",
          "type": "uint256"
        }
      ],
      "stateMutability": "view",
      "type": "function",
      "constant": true
    },
    {
      "inputs": [],
      "name": "balanceOf",
      "outputs": [
        {
          "internalType": "uint256",
          "name": "",
          "type": "uint256"
        }
      ],
      "stateMutability": "view",
      "type": "function",
      "constant": true
    },
    {
      "inputs": [
        {
          "internalType": "uint256",
          "name": "assetId",
          "type": "uint256"
        }
      ],
      "name": "ownerOf",
      "outputs": [
        {
          "internalType": "address",
          "name": "",
          "type": "address"
        }
      ],
      "stateMutability": "view",
      "type": "function",
      "constant": true
    },
    {
      "inputs": [
        {
          "internalType": "address payable",
          "name": "from",
          "type": "address"
        },
        {
          "internalType": "uint256",
          "name": "recId",
          "type": "uint256"
        }
      ],
      "name": "transferFrom",
      "outputs": [],
      "stateMutability": "payable",
      "type": "function",
      "payable": true
    },
    {
      "inputs": [
        {
          "internalType": "address",
          "name": "from",
          "type": "address"
        },
        {
          "internalType": "address",
          "name": "to",
          "type": "address"
        },
        {
          "internalType": "uint256",
          "name": "tokenId",
          "type": "uint256"
        }
      ],
      "name": "transferFrom",
      "outputs": [],
      "stateMutability": "nonpayable",
      "type": "function"
    },
    {
      "inputs": [
        {
          "internalType": "address",
          "name": "to",
          "type": "address"
        },
        {
          "internalType": "uint256",
          "name": "assetId",
          "type": "uint256"
        }
      ],
      "name": "approve",
      "outputs": [],
      "stateMutability": "nonpayable",
      "type": "function"
    },
    {
      "inputs": [
        {
          "internalType": "uint256",
          "name": "assetId",
          "type": "uint256"
        }
      ],
      "name": "getApproved",
      "outputs": [
        {
          "internalType": "address",
          "name": "",
          "type": "address"
        }
      ],
      "stateMutability": "view",
      "type": "function",
      "constant": true
    },
    {
      "inputs": [
        {
          "internalType": "uint256",
          "name": "assetId",
          "type": "uint256"
        },
        {
          "internalType": "address",
          "name": "approved",
          "type": "address"
        }
      ],
      "name": "clearApproval",
      "outputs": [],
      "stateMutability": "nonpayable",
      "type": "function"
    },
    {
      "inputs": [
        {
          "internalType": "string",
          "name": "name",
          "type": "string"
        },
        {
          "internalType": "uint256",
          "name": "quantity",
          "type": "uint256"
        },
        {
          "internalType": "uint256",
          "name": "price",
          "type": "uint256"
        },
        {
          "internalType": "address",
          "name": "sellerAddress",
          "type": "address"
        }
      ],
      "name": "generateREC",
      "outputs": [],
      "stateMutability": "payable",
      "type": "function",
      "payable": true
    },
    {
      "inputs": [
        {
          "internalType": "uint256",
          "name": "id",
          "type": "uint256"
        }
      ],
      "name": "getCertificate",
      "outputs": [
        {
          "internalType": "uint256",
          "name": "",
          "type": "uint256"
        },
        {
          "internalType": "string",
          "name": "",
          "type": "string"
        },
        {
          "internalType": "uint256",
          "name": "",
          "type": "uint256"
        },
        {
          "internalType": "uint256",
          "name": "",
          "type": "uint256"
        },
        {
          "internalType": "address",
          "name": "",
          "type": "address"
        },
        {
          "internalType": "enum RenewableEnergyToken.Status",
          "name": "",
          "type": "uint8"
        }
      ],
      "stateMutability": "view",
      "type": "function",
      "constant": true
    },
    {
      "inputs": [
        {
          "internalType": "uint256",
          "name": "id",
          "type": "uint256"
        }
      ],
      "name": "verifyREC",
      "outputs": [
        {
          "internalType": "bool",
          "name": "",
          "type": "bool"
        }
      ],
      "stateMutability": "view",
      "type": "function",
      "constant": true
    },
    {
      "inputs": [
        {
          "internalType": "address",
          "name": "userAddress",
          "type": "address"
        }
      ],
      "name": "approveDistributor",
      "outputs": [],
      "stateMutability": "nonpayable",
      "type": "function"
    },
    {
      "inputs": [
        {
          "internalType": "address",
          "name": "userAddress",
          "type": "address"
        }
      ],
      "name": "approveUser",
      "outputs": [],
      "stateMutability": "nonpayable",
      "type": "function"
    },
    {
      "inputs": [
        {
          "internalType": "string",
          "name": "id",
          "type": "string"
        },
        {
          "internalType": "string",
          "name": "name",
          "type": "string"
        },
        {
          "internalType": "address",
          "name": "userAddress",
          "type": "address"
        }
      ],
      "name": "selfRegister",
      "outputs": [],
      "stateMutability": "nonpayable",
      "type": "function"
    },
    {
      "inputs": [],
      "name": "topupBalance",
      "outputs": [],
      "stateMutability": "payable",
      "type": "function",
      "payable": true
    }
  ],
  "bytecode": "0x60806040523480156200001157600080fd5b506040518060400160405280601481526020017f52656e657761626c65456e65726779546f6b656e0000000000000000000000008152506040518060400160405280600381526020017f524554000000000000000000000000000000000000000000000000000000000081525081600090816200008f919062000365565b508060019081620000a1919062000365565b50505033600660006101000a81548173ffffffffffffffffffffffffffffffffffffffff021916908373ffffffffffffffffffffffffffffffffffffffff1602179055506200044c565b600081519050919050565b7f4e487b7100000000000000000000000000000000000000000000000000000000600052604160045260246000fd5b7f4e487b7100000000000000000000000000000000000000000000000000000000600052602260045260246000fd5b600060028204905060018216806200016d57607f821691505b60208210810362000183576200018262000125565b5b50919050565b60008190508160005260206000209050919050565b60006020601f8301049050919050565b600082821b905092915050565b600060088302620001ed7fffffffffffffffffffffffffffffffffffffffffffffffffffffffffffffffff82620001ae565b620001f98683620001ae565b95508019841693508086168417925050509392505050565b6000819050919050565b6000819050919050565b600062000246620002406200023a8462000211565b6200021b565b62000211565b9050919050565b6000819050919050565b620002628362000225565b6200027a62000271826200024d565b848454620001bb565b825550505050565b600090565b6200029162000282565b6200029e81848462000257565b505050565b5b81811015620002c657620002ba60008262000287565b600181019050620002a4565b5050565b601f8211156200031557620002df8162000189565b620002ea846200019e565b81016020851015620002fa578190505b6200031262000309856200019e565b830182620002a3565b50505b505050565b600082821c905092915050565b60006200033a600019846008026200031a565b1980831691505092915050565b600062000355838362000327565b9150826002028217905092915050565b6200037082620000eb565b67ffffffffffffffff8111156200038c576200038b620000f6565b5b62000398825462000154565b620003a5828285620002ca565b600060209050601f831160018114620003dd5760008415620003c8578287015190505b620003d4858262000347565b86555062000444565b601f198416620003ed8662000189565b60005b828110156200041757848901518255600182019150602085019450602081019050620003f0565b8683101562000437578489015162000433601f89168262000327565b8355505b6001600288020188555050505b505050505050565b614f2a806200045c6000396000f3fe6080604052600436106101b75760003560e01c80636352211e116100ec57806395d89b411161008a578063c87b56dd11610064578063c87b56dd14610622578063d624fdb61461065f578063daa5fe2d14610688578063e985e9c5146106b1576101b7565b806395d89b41146105a5578063a22cb465146105d0578063b88d4fde146105f9576101b7565b8063722713f7116100c6578063722713f7146104e557806384acbb89146105105780638da5cb5b1461055157806395084a411461057c576101b7565b80636352211e1461042e57806370a082311461046b57806371e06925146104a8576101b7565b806323b872dd1161015957806342842e0e1161013357806342842e0e14610390578063467ee321146103b9578063482aede5146103c357806351640fee146103ec576101b7565b806323b872dd146102ff578063278208511461032857806334b1da1314610365576101b7565b806306fdde031161019557806306fdde0314610252578063081812fc1461027d578063095ea7b3146102ba5780631630ed46146102e3576101b7565b806301c6adc3146101bc57806301ffc9a7146101d85780630338577014610215575b600080fd5b6101d660048036038101906101d191906132d8565b6106ee565b005b3480156101e457600080fd5b506101ff60048036038101906101fa9190613370565b61098a565b60405161020c91906133b8565b60405180910390f35b34801561022157600080fd5b5061023c600480360381019061023791906133d3565b610a6c565b6040516102499190613421565b60405180910390f35b34801561025e57600080fd5b50610267610a9f565b60405161027491906134cc565b60405180910390f35b34801561028957600080fd5b506102a4600480360381019061029f91906133d3565b610b31565b6040516102b19190613421565b60405180910390f35b3480156102c657600080fd5b506102e160048036038101906102dc919061351a565b610bb6565b005b6102fd60048036038101906102f8919061368f565b610d51565b005b34801561030b57600080fd5b5061032660048036038101906103219190613712565b610fac565b005b34801561033457600080fd5b5061034f600480360381019061034a9190613765565b61100c565b60405161035c91906134cc565b60405180910390f35b34801561037157600080fd5b5061037a61129d565b60405161038791906137a1565b60405180910390f35b34801561039c57600080fd5b506103b760048036038101906103b29190613712565b6112a3565b005b6103c16112c3565b005b3480156103cf57600080fd5b506103ea60048036038101906103e59190613765565b6114a2565b005b3480156103f857600080fd5b50610413600480360381019061040e91906133d3565b611658565b60405161042596959493929190613833565b60405180910390f35b34801561043a57600080fd5b50610455600480360381019061045091906133d3565b6118b5565b6040516104629190613421565b60405180910390f35b34801561047757600080fd5b50610492600480360381019061048d9190613765565b611966565b60405161049f91906137a1565b60405180910390f35b3480156104b457600080fd5b506104cf60048036038101906104ca91906133d3565b611a1d565b6040516104dc91906133b8565b60405180910390f35b3480156104f157600080fd5b506104fa611c3e565b60405161050791906137a1565b60405180910390f35b34801561051c57600080fd5b50610537600480360381019061053291906133d3565b611cf3565b60405161054895949392919061389b565b60405180910390f35b34801561055d57600080fd5b50610566611dbe565b6040516105739190613421565b60405180910390f35b34801561058857600080fd5b506105a3600480360381019061059e91906138f5565b611de4565b005b3480156105b157600080fd5b506105ba611f7f565b6040516105c791906134cc565b60405180910390f35b3480156105dc57600080fd5b506105f760048036038101906105f291906139ac565b612011565b005b34801561060557600080fd5b50610620600480360381019061061b9190613a8d565b612027565b005b34801561062e57600080fd5b50610649600480360381019061064491906133d3565b612089565b60405161065691906134cc565b60405180910390f35b34801561066b57600080fd5b5061068660048036038101906106819190613765565b6120f1565b005b34801561069457600080fd5b506106af60048036038101906106aa9190613b10565b6122e1565b005b3480156106bd57600080fd5b506106d860048036038101906106d39190613b50565b61239f565b6040516106e591906133b8565b60405180910390f35b6106f83382612433565b610737576040517f08c379a000000000000000000000000000000000000000000000000000000000815260040161072e90613bdc565b60405180910390fd5b8173ffffffffffffffffffffffffffffffffffffffff16610757826118b5565b73ffffffffffffffffffffffffffffffffffffffff16146107ad576040517f08c379a00000000000000000000000000000000000000000000000000000000081526004016107a490613c48565b60405180910390fd5b6107bf816107ba83610b31565b6122e1565b600a60008373ffffffffffffffffffffffffffffffffffffffff1673ffffffffffffffffffffffffffffffffffffffff168152602001908152602001600020600081548092919061080f90613c97565b9190505550600a60003373ffffffffffffffffffffffffffffffffffffffff1673ffffffffffffffffffffffffffffffffffffffff168152602001908152602001600020600081548092919061086490613cc0565b9190505550336009600083815260200190815260200160002060006101000a81548173ffffffffffffffffffffffffffffffffffffffff021916908373ffffffffffffffffffffffffffffffffffffffff1602179055508173ffffffffffffffffffffffffffffffffffffffff166108fc670de0b6b3a764000060086000858152602001908152602001600020600301546108ff9190613d08565b9081150290604051600060405180830381858888f1935050505015801561092a573d6000803e3d6000fd5b50803373ffffffffffffffffffffffffffffffffffffffff168373ffffffffffffffffffffffffffffffffffffffff167fddf252ad1be2c89b69c2b068fc378daa952ba7f163c4a11628f55a4df523b3ef60405160405180910390a45050565b60007f80ac58cd000000000000000000000000000000000000000000000000000000007bffffffffffffffffffffffffffffffffffffffffffffffffffffffff1916827bffffffffffffffffffffffffffffffffffffffffffffffffffffffff19161480610a5557507f5b5e139f000000000000000000000000000000000000000000000000000000007bffffffffffffffffffffffffffffffffffffffffffffffffffffffff1916827bffffffffffffffffffffffffffffffffffffffffffffffffffffffff1916145b80610a655750610a6482612500565b5b9050919050565b600b6020528060005260406000206000915054906101000a900473ffffffffffffffffffffffffffffffffffffffff1681565b606060008054610aae90613d79565b80601f0160208091040260200160405190810160405280929190818152602001828054610ada90613d79565b8015610b275780601f10610afc57610100808354040283529160200191610b27565b820191906000526020600020905b815481529060010190602001808311610b0a57829003601f168201915b5050505050905090565b6000610b3c8261256a565b610b7b576040517f08c379a0000000000000000000000000000000000000000000000000000000008152600401610b7290613e1c565b60405180910390fd5b600b600083815260200190815260200160002060009054906101000a900473ffffffffffffffffffffffffffffffffffffffff169050919050565b6000610bc1826118b5565b90508073ffffffffffffffffffffffffffffffffffffffff168373ffffffffffffffffffffffffffffffffffffffff1603610c31576040517f08c379a0000000000000000000000000000000000000000000000000000000008152600401610c2890613e88565b60405180910390fd5b8073ffffffffffffffffffffffffffffffffffffffff163373ffffffffffffffffffffffffffffffffffffffff1614610c9f576040517f08c379a0000000000000000000000000000000000000000000000000000000008152600401610c9690613ef4565b60405180910390fd5b82600b600084815260200190815260200160002060006101000a81548173ffffffffffffffffffffffffffffffffffffffff021916908373ffffffffffffffffffffffffffffffffffffffff160217905550818373ffffffffffffffffffffffffffffffffffffffff168273ffffffffffffffffffffffffffffffffffffffff167f8c5be1e5ebec7d5bd14f71427d1e84f3dd0314c0f7b2291e5b200ac8c7c3b92560405160405180910390a4505050565b600660009054906101000a900473ffffffffffffffffffffffffffffffffffffffff1673ffffffffffffffffffffffffffffffffffffffff163373ffffffffffffffffffffffffffffffffffffffff161480610df95750600d60003373ffffffffffffffffffffffffffffffffffffffff1673ffffffffffffffffffffffffffffffffffffffff16815260200190815260200160002060040160009054906101000a900460ff165b610e38576040517f08c379a0000000000000000000000000000000000000000000000000000000008152600401610e2f90613f60565b60405180910390fd5b60008451118015610e495750600083115b8015610e555750600082115b8015610e8e5750600073ffffffffffffffffffffffffffffffffffffffff168173ffffffffffffffffffffffffffffffffffffffff1614155b610ecd576040517f08c379a0000000000000000000000000000000000000000000000000000000008152600401610ec490613fcc565b60405180910390fd5b6040518060a00160405280600754815260200185815260200184815260200183815260200160006001811115610f0657610f056137bc565b5b815250600860006007548152602001908152602001600020600082015181600001556020820151816001019081610f3d9190614198565b50604082015181600201556060820151816003015560808201518160040160006101000a81548160ff02191690836001811115610f7d57610f7c6137bc565b5b0217905550905050610f91816007546125d6565b6001600754610fa0919061426a565b60078190555050505050565b610fbd610fb7612795565b8261279d565b610ffc576040517f08c379a0000000000000000000000000000000000000000000000000000000008152600401610ff390614310565b60405180910390fd5b611007838383612832565b505050565b6060600660009054906101000a900473ffffffffffffffffffffffffffffffffffffffff1673ffffffffffffffffffffffffffffffffffffffff168273ffffffffffffffffffffffffffffffffffffffff16036110a0576040518060400160405280600581526020017f6f776e65720000000000000000000000000000000000000000000000000000008152509050611298565b600d60008373ffffffffffffffffffffffffffffffffffffffff1673ffffffffffffffffffffffffffffffffffffffff16815260200190815260200160002060040160009054906101000a900460ff1615611132576040518060400160405280600b81526020017f6469737472696275746f720000000000000000000000000000000000000000008152509050611298565b600d60008373ffffffffffffffffffffffffffffffffffffffff1673ffffffffffffffffffffffffffffffffffffffff16815260200190815260200160002060040160019054906101000a900460ff16156111c4576040518060400160405280600a81526020017f72656769737465726564000000000000000000000000000000000000000000008152509050611298565b6000600d60008473ffffffffffffffffffffffffffffffffffffffff1673ffffffffffffffffffffffffffffffffffffffff1681526020019081526020016000209050600081600001805461121890613d79565b9050111561125e576040518060400160405280601081526020017f6e6f742079657420766572696669656400000000000000000000000000000000815250915050611298565b6040518060400160405280600481526020017f6e6f6e65000000000000000000000000000000000000000000000000000000008152509150505b919050565b60075481565b6112be83838360405180602001604052806000815250612027565b505050565b600660009054906101000a900473ffffffffffffffffffffffffffffffffffffffff1673ffffffffffffffffffffffffffffffffffffffff163373ffffffffffffffffffffffffffffffffffffffff16148061136b5750600d60003373ffffffffffffffffffffffffffffffffffffffff1673ffffffffffffffffffffffffffffffffffffffff16815260200190815260200160002060040160019054906101000a900460ff165b6113aa576040517f08c379a00000000000000000000000000000000000000000000000000000000081526004016113a1906143a2565b60405180910390fd5b6000600d60003373ffffffffffffffffffffffffffffffffffffffff1673ffffffffffffffffffffffffffffffffffffffff168152602001908152602001600020905060008160000180546113fe90613d79565b905003611440576040517f08c379a00000000000000000000000000000000000000000000000000000000081526004016114379061440e565b60405180910390fd5b6000341015611484576040517f08c379a000000000000000000000000000000000000000000000000000000000815260040161147b9061447a565b60405180910390fd5b34816002016000828254611498919061426a565b9250508190555050565b600660009054906101000a900473ffffffffffffffffffffffffffffffffffffffff1673ffffffffffffffffffffffffffffffffffffffff163373ffffffffffffffffffffffffffffffffffffffff1614611532576040517f08c379a0000000000000000000000000000000000000000000000000000000008152600401611529906144e6565b60405180910390fd5b6000600d60008373ffffffffffffffffffffffffffffffffffffffff1673ffffffffffffffffffffffffffffffffffffffff1681526020019081526020016000209050600081600001805461158690613d79565b9050116115c8576040517f08c379a00000000000000000000000000000000000000000000000000000000081526004016115bf90614552565b60405180910390fd5b8060040160019054906101000a900460ff161561161a576040517f08c379a0000000000000000000000000000000000000000000000000000000008152600401611611906145be565b60405180910390fd5b60018160040160006101000a81548160ff02191690831515021790555060018160040160016101000a81548160ff0219169083151502179055505050565b60006060600080600080600660009054906101000a900473ffffffffffffffffffffffffffffffffffffffff1673ffffffffffffffffffffffffffffffffffffffff163373ffffffffffffffffffffffffffffffffffffffff16148061170a5750600d60003373ffffffffffffffffffffffffffffffffffffffff1673ffffffffffffffffffffffffffffffffffffffff16815260200190815260200160002060040160019054906101000a900460ff165b611749576040517f08c379a0000000000000000000000000000000000000000000000000000000008152600401611740906143a2565b60405180910390fd5b6000600860008981526020019081526020016000206040518060a00160405290816000820154815260200160018201805461178390613d79565b80601f01602080910402602001604051908101604052809291908181526020018280546117af90613d79565b80156117fc5780601f106117d1576101008083540402835291602001916117fc565b820191906000526020600020905b8154815290600101906020018083116117df57829003601f168201915b5050505050815260200160028201548152602001600382015481526020016004820160009054906101000a900460ff16600181111561183e5761183d6137bc565b5b60018111156118505761184f6137bc565b5b81525050905087816020015182604001518360600151600960008d815260200190815260200160002060009054906101000a900473ffffffffffffffffffffffffffffffffffffffff1685608001519650965096509650965096505091939550919395565b6000806009600084815260200190815260200160002060009054906101000a900473ffffffffffffffffffffffffffffffffffffffff169050600073ffffffffffffffffffffffffffffffffffffffff168173ffffffffffffffffffffffffffffffffffffffff160361195d576040517f08c379a00000000000000000000000000000000000000000000000000000000081526004016119549061462a565b60405180910390fd5b80915050919050565b60008073ffffffffffffffffffffffffffffffffffffffff168273ffffffffffffffffffffffffffffffffffffffff16036119d6576040517f08c379a00000000000000000000000000000000000000000000000000000000081526004016119cd906146bc565b60405180910390fd5b600360008373ffffffffffffffffffffffffffffffffffffffff1673ffffffffffffffffffffffffffffffffffffffff168152602001908152602001600020549050919050565b6000600660009054906101000a900473ffffffffffffffffffffffffffffffffffffffff1673ffffffffffffffffffffffffffffffffffffffff163373ffffffffffffffffffffffffffffffffffffffff161480611ac75750600d60003373ffffffffffffffffffffffffffffffffffffffff1673ffffffffffffffffffffffffffffffffffffffff16815260200190815260200160002060040160019054906101000a900460ff165b611b06576040517f08c379a0000000000000000000000000000000000000000000000000000000008152600401611afd906143a2565b60405180910390fd5b6000821015611b4a576040517f08c379a0000000000000000000000000000000000000000000000000000000008152600401611b4190614728565b60405180910390fd5b60006008600084815260200190815260200160002090506007548310611ba5576040517f08c379a0000000000000000000000000000000000000000000000000000000008152600401611b9c90614794565b60405180910390fd5b6000600d60003373ffffffffffffffffffffffffffffffffffffffff1673ffffffffffffffffffffffffffffffffffffffff1681526020019081526020016000209050816003015481600201541015611c33576040517f08c379a0000000000000000000000000000000000000000000000000000000008152600401611c2a90614800565b60405180910390fd5b600192505050919050565b60008073ffffffffffffffffffffffffffffffffffffffff163373ffffffffffffffffffffffffffffffffffffffff1603611cae576040517f08c379a0000000000000000000000000000000000000000000000000000000008152600401611ca590614892565b60405180910390fd5b600a60003373ffffffffffffffffffffffffffffffffffffffff1673ffffffffffffffffffffffffffffffffffffffff16815260200190815260200160002054905090565b6008602052806000526040600020600091509050806000015490806001018054611d1c90613d79565b80601f0160208091040260200160405190810160405280929190818152602001828054611d4890613d79565b8015611d955780601f10611d6a57610100808354040283529160200191611d95565b820191906000526020600020905b815481529060010190602001808311611d7857829003601f168201915b5050505050908060020154908060030154908060040160009054906101000a900460ff16905085565b600660009054906101000a900473ffffffffffffffffffffffffffffffffffffffff1681565b60008351118015611df6575060008251115b611e35576040517f08c379a0000000000000000000000000000000000000000000000000000000008152600401611e2c90613fcc565b60405180910390fd5b6000600d60003373ffffffffffffffffffffffffffffffffffffffff1673ffffffffffffffffffffffffffffffffffffffff16815260200190815260200160002090506000816000018054611e8990613d79565b905014611ecb576040517f08c379a0000000000000000000000000000000000000000000000000000000008152600401611ec2906148fe565b60405180910390fd5b83816000019081611edc9190614198565b5082816001019081611eee9190614198565b506000816002018190555060008160040160006101000a81548160ff021916908315150217905550600c829080600181540180825580915050600190039060005260206000200160009091909190916101000a81548173ffffffffffffffffffffffffffffffffffffffff021916908373ffffffffffffffffffffffffffffffffffffffff16021790555050505050565b606060018054611f8e90613d79565b80601f0160208091040260200160405190810160405280929190818152602001828054611fba90613d79565b80156120075780601f10611fdc57610100808354040283529160200191612007565b820191906000526020600020905b815481529060010190602001808311611fea57829003601f168201915b5050505050905090565b61202361201c612795565b8383612b2b565b5050565b612038612032612795565b8361279d565b612077576040517f08c379a000000000000000000000000000000000000000000000000000000000815260040161206e90614310565b60405180910390fd5b61208384848484612c97565b50505050565b606061209482612cf3565b600061209e612d3e565b905060008151116120be57604051806020016040528060008152506120e9565b806120c884612d55565b6040516020016120d992919061495a565b6040516020818303038152906040525b915050919050565b600660009054906101000a900473ffffffffffffffffffffffffffffffffffffffff1673ffffffffffffffffffffffffffffffffffffffff163373ffffffffffffffffffffffffffffffffffffffff1614806121995750600d60003373ffffffffffffffffffffffffffffffffffffffff1673ffffffffffffffffffffffffffffffffffffffff16815260200190815260200160002060040160009054906101000a900460ff165b6121d8576040517f08c379a00000000000000000000000000000000000000000000000000000000081526004016121cf90613f60565b60405180910390fd5b6000600d60008373ffffffffffffffffffffffffffffffffffffffff1673ffffffffffffffffffffffffffffffffffffffff1681526020019081526020016000209050600081600001805461222c90613d79565b90501161226e576040517f08c379a000000000000000000000000000000000000000000000000000000000815260040161226590614552565b60405180910390fd5b8060040160019054906101000a900460ff16156122c0576040517f08c379a00000000000000000000000000000000000000000000000000000000081526004016122b7906149ca565b60405180910390fd5b60018160040160016101000a81548160ff0219169083151502179055505050565b8073ffffffffffffffffffffffffffffffffffffffff16600b600084815260200190815260200160002060009054906101000a900473ffffffffffffffffffffffffffffffffffffffff1673ffffffffffffffffffffffffffffffffffffffff160361239b576000600b600084815260200190815260200160002060006101000a81548173ffffffffffffffffffffffffffffffffffffffff021916908373ffffffffffffffffffffffffffffffffffffffff1602179055505b5050565b6000600560008473ffffffffffffffffffffffffffffffffffffffff1673ffffffffffffffffffffffffffffffffffffffff16815260200190815260200160002060008373ffffffffffffffffffffffffffffffffffffffff1673ffffffffffffffffffffffffffffffffffffffff16815260200190815260200160002060009054906101000a900460ff16905092915050565b600061243e8261256a565b61247d576040517f08c379a000000000000000000000000000000000000000000000000000000000815260040161247490614a5c565b60405180910390fd5b6000612488836118b5565b90508073ffffffffffffffffffffffffffffffffffffffff168473ffffffffffffffffffffffffffffffffffffffff1614806124f757508373ffffffffffffffffffffffffffffffffffffffff166124df84610b31565b73ffffffffffffffffffffffffffffffffffffffff16145b91505092915050565b60007f01ffc9a7000000000000000000000000000000000000000000000000000000007bffffffffffffffffffffffffffffffffffffffffffffffffffffffff1916827bffffffffffffffffffffffffffffffffffffffffffffffffffffffff1916149050919050565b60008073ffffffffffffffffffffffffffffffffffffffff166009600084815260200190815260200160002060009054906101000a900473ffffffffffffffffffffffffffffffffffffffff1673ffffffffffffffffffffffffffffffffffffffff1614159050919050565b600073ffffffffffffffffffffffffffffffffffffffff168273ffffffffffffffffffffffffffffffffffffffff1603612645576040517f08c379a000000000000000000000000000000000000000000000000000000000815260040161263c90614ac8565b60405180910390fd5b61264e8161256a565b1561268e576040517f08c379a000000000000000000000000000000000000000000000000000000000815260040161268590614b34565b60405180910390fd5b816009600083815260200190815260200160002060006101000a81548173ffffffffffffffffffffffffffffffffffffffff021916908373ffffffffffffffffffffffffffffffffffffffff160217905550600a60008373ffffffffffffffffffffffffffffffffffffffff1673ffffffffffffffffffffffffffffffffffffffff168152602001908152602001600020600081548092919061273090613cc0565b9190505550808273ffffffffffffffffffffffffffffffffffffffff16600073ffffffffffffffffffffffffffffffffffffffff167fddf252ad1be2c89b69c2b068fc378daa952ba7f163c4a11628f55a4df523b3ef60405160405180910390a45050565b600033905090565b6000806127a983612e23565b90508073ffffffffffffffffffffffffffffffffffffffff168473ffffffffffffffffffffffffffffffffffffffff1614806127eb57506127ea818561239f565b5b8061282957508373ffffffffffffffffffffffffffffffffffffffff1661281184610b31565b73ffffffffffffffffffffffffffffffffffffffff16145b91505092915050565b8273ffffffffffffffffffffffffffffffffffffffff1661285282612e23565b73ffffffffffffffffffffffffffffffffffffffff16146128a8576040517f08c379a000000000000000000000000000000000000000000000000000000000815260040161289f90614bc6565b60405180910390fd5b600073ffffffffffffffffffffffffffffffffffffffff168273ffffffffffffffffffffffffffffffffffffffff1603612917576040517f08c379a000000000000000000000000000000000000000000000000000000000815260040161290e90614c58565b60405180910390fd5b6129248383836001612ea9565b8273ffffffffffffffffffffffffffffffffffffffff1661294482612e23565b73ffffffffffffffffffffffffffffffffffffffff161461299a576040517f08c379a000000000000000000000000000000000000000000000000000000000815260040161299190614bc6565b60405180910390fd5b6004600082815260200190815260200160002060006101000a81549073ffffffffffffffffffffffffffffffffffffffff02191690556001600360008573ffffffffffffffffffffffffffffffffffffffff1673ffffffffffffffffffffffffffffffffffffffff168152602001908152602001600020600082825403925050819055506001600360008473ffffffffffffffffffffffffffffffffffffffff1673ffffffffffffffffffffffffffffffffffffffff16815260200190815260200160002060008282540192505081905550816002600083815260200190815260200160002060006101000a81548173ffffffffffffffffffffffffffffffffffffffff021916908373ffffffffffffffffffffffffffffffffffffffff160217905550808273ffffffffffffffffffffffffffffffffffffffff168473ffffffffffffffffffffffffffffffffffffffff167fddf252ad1be2c89b69c2b068fc378daa952ba7f163c4a11628f55a4df523b3ef60405160405180910390a4612b268383836001612eaf565b505050565b8173ffffffffffffffffffffffffffffffffffffffff168373ffffffffffffffffffffffffffffffffffffffff1603612b99576040517f08c379a0000000000000000000000000000000000000000000000000000000008152600401612b9090614cc4565b60405180910390fd5b80600560008573ffffffffffffffffffffffffffffffffffffffff1673ffffffffffffffffffffffffffffffffffffffff16815260200190815260200160002060008473ffffffffffffffffffffffffffffffffffffffff1673ffffffffffffffffffffffffffffffffffffffff16815260200190815260200160002060006101000a81548160ff0219169083151502179055508173ffffffffffffffffffffffffffffffffffffffff168373ffffffffffffffffffffffffffffffffffffffff167f17307eab39ab6107e8899845ad3d59bd9653f200f220920489ca2b5937696c3183604051612c8a91906133b8565b60405180910390a3505050565b612ca2848484612832565b612cae84848484612eb5565b612ced576040517f08c379a0000000000000000000000000000000000000000000000000000000008152600401612ce490614d56565b60405180910390fd5b50505050565b612cfc8161303c565b612d3b576040517f08c379a0000000000000000000000000000000000000000000000000000000008152600401612d3290614dc2565b60405180910390fd5b50565b606060405180602001604052806000815250905090565b606060006001612d648461307d565b01905060008167ffffffffffffffff811115612d8357612d82613564565b5b6040519080825280601f01601f191660200182016040528015612db55781602001600182028036833780820191505090505b509050600082602001820190505b600115612e18578080600190039150507f3031323334353637383961626364656600000000000000000000000000000000600a86061a8153600a8581612e0c57612e0b614de2565b5b04945060008503612dc3575b819350505050919050565b600080612e2f836131d0565b9050600073ffffffffffffffffffffffffffffffffffffffff168173ffffffffffffffffffffffffffffffffffffffff1603612ea0576040517f08c379a0000000000000000000000000000000000000000000000000000000008152600401612e9790614dc2565b60405180910390fd5b80915050919050565b50505050565b50505050565b6000612ed68473ffffffffffffffffffffffffffffffffffffffff1661320d565b1561302f578373ffffffffffffffffffffffffffffffffffffffff1663150b7a02612eff612795565b8786866040518563ffffffff1660e01b8152600401612f219493929190614e66565b6020604051808303816000875af1925050508015612f5d57506040513d601f19601f82011682018060405250810190612f5a9190614ec7565b60015b612fdf573d8060008114612f8d576040519150601f19603f3d011682016040523d82523d6000602084013e612f92565b606091505b506000815103612fd7576040517f08c379a0000000000000000000000000000000000000000000000000000000008152600401612fce90614d56565b60405180910390fd5b805181602001fd5b63150b7a0260e01b7bffffffffffffffffffffffffffffffffffffffffffffffffffffffff1916817bffffffffffffffffffffffffffffffffffffffffffffffffffffffff191614915050613034565b600190505b949350505050565b60008073ffffffffffffffffffffffffffffffffffffffff1661305e836131d0565b73ffffffffffffffffffffffffffffffffffffffff1614159050919050565b600080600090507a184f03e93ff9f4daa797ed6e38ed64bf6a1f01000000000000000083106130db577a184f03e93ff9f4daa797ed6e38ed64bf6a1f01000000000000000083816130d1576130d0614de2565b5b0492506040810190505b6d04ee2d6d415b85acef81000000008310613118576d04ee2d6d415b85acef8100000000838161310e5761310d614de2565b5b0492506020810190505b662386f26fc10000831061314757662386f26fc10000838161313d5761313c614de2565b5b0492506010810190505b6305f5e1008310613170576305f5e100838161316657613165614de2565b5b0492506008810190505b612710831061319557612710838161318b5761318a614de2565b5b0492506004810190505b606483106131b857606483816131ae576131ad614de2565b5b0492506002810190505b600a83106131c7576001810190505b80915050919050565b60006002600083815260200190815260200160002060009054906101000a900473ffffffffffffffffffffffffffffffffffffffff169050919050565b6000808273ffffffffffffffffffffffffffffffffffffffff163b119050919050565b6000604051905090565b600080fd5b600080fd5b600073ffffffffffffffffffffffffffffffffffffffff82169050919050565b600061326f82613244565b9050919050565b61327f81613264565b811461328a57600080fd5b50565b60008135905061329c81613276565b92915050565b6000819050919050565b6132b5816132a2565b81146132c057600080fd5b50565b6000813590506132d2816132ac565b92915050565b600080604083850312156132ef576132ee61323a565b5b60006132fd8582860161328d565b925050602061330e858286016132c3565b9150509250929050565b60007fffffffff0000000000000000000000000000000000000000000000000000000082169050919050565b61334d81613318565b811461335857600080fd5b50565b60008135905061336a81613344565b92915050565b6000602082840312156133865761338561323a565b5b60006133948482850161335b565b91505092915050565b60008115159050919050565b6133b28161339d565b82525050565b60006020820190506133cd60008301846133a9565b92915050565b6000602082840312156133e9576133e861323a565b5b60006133f7848285016132c3565b91505092915050565b600061340b82613244565b9050919050565b61341b81613400565b82525050565b60006020820190506134366000830184613412565b92915050565b600081519050919050565b600082825260208201905092915050565b60005b8381101561347657808201518184015260208101905061345b565b60008484015250505050565b6000601f19601f8301169050919050565b600061349e8261343c565b6134a88185613447565b93506134b8818560208601613458565b6134c181613482565b840191505092915050565b600060208201905081810360008301526134e68184613493565b905092915050565b6134f781613400565b811461350257600080fd5b50565b600081359050613514816134ee565b92915050565b600080604083850312156135315761353061323a565b5b600061353f85828601613505565b9250506020613550858286016132c3565b9150509250929050565b600080fd5b600080fd5b7f4e487b7100000000000000000000000000000000000000000000000000000000600052604160045260246000fd5b61359c82613482565b810181811067ffffffffffffffff821117156135bb576135ba613564565b5b80604052505050565b60006135ce613230565b90506135da8282613593565b919050565b600067ffffffffffffffff8211156135fa576135f9613564565b5b61360382613482565b9050602081019050919050565b82818337600083830152505050565b600061363261362d846135df565b6135c4565b90508281526020810184848401111561364e5761364d61355f565b5b613659848285613610565b509392505050565b600082601f8301126136765761367561355a565b5b813561368684826020860161361f565b91505092915050565b600080600080608085870312156136a9576136a861323a565b5b600085013567ffffffffffffffff8111156136c7576136c661323f565b5b6136d387828801613661565b94505060206136e4878288016132c3565b93505060406136f5878288016132c3565b925050606061370687828801613505565b91505092959194509250565b60008060006060848603121561372b5761372a61323a565b5b600061373986828701613505565b935050602061374a86828701613505565b925050604061375b868287016132c3565b9150509250925092565b60006020828403121561377b5761377a61323a565b5b600061378984828501613505565b91505092915050565b61379b816132a2565b82525050565b60006020820190506137b66000830184613792565b92915050565b7f4e487b7100000000000000000000000000000000000000000000000000000000600052602160045260246000fd5b600281106137fc576137fb6137bc565b5b50565b600081905061380d826137eb565b919050565b600061381d826137ff565b9050919050565b61382d81613812565b82525050565b600060c0820190506138486000830189613792565b818103602083015261385a8188613493565b90506138696040830187613792565b6138766060830186613792565b6138836080830185613412565b61389060a0830184613824565b979650505050505050565b600060a0820190506138b06000830188613792565b81810360208301526138c28187613493565b90506138d16040830186613792565b6138de6060830185613792565b6138eb6080830184613824565b9695505050505050565b60008060006060848603121561390e5761390d61323a565b5b600084013567ffffffffffffffff81111561392c5761392b61323f565b5b61393886828701613661565b935050602084013567ffffffffffffffff8111156139595761395861323f565b5b61396586828701613661565b925050604061397686828701613505565b9150509250925092565b6139898161339d565b811461399457600080fd5b50565b6000813590506139a681613980565b92915050565b600080604083850312156139c3576139c261323a565b5b60006139d185828601613505565b92505060206139e285828601613997565b9150509250929050565b600067ffffffffffffffff821115613a0757613a06613564565b5b613a1082613482565b9050602081019050919050565b6000613a30613a2b846139ec565b6135c4565b905082815260208101848484011115613a4c57613a4b61355f565b5b613a57848285613610565b509392505050565b600082601f830112613a7457613a7361355a565b5b8135613a84848260208601613a1d565b91505092915050565b60008060008060808587031215613aa757613aa661323a565b5b6000613ab587828801613505565b9450506020613ac687828801613505565b9350506040613ad7878288016132c3565b925050606085013567ffffffffffffffff811115613af857613af761323f565b5b613b0487828801613a5f565b91505092959194509250565b60008060408385031215613b2757613b2661323a565b5b6000613b35858286016132c3565b9250506020613b4685828601613505565b9150509250929050565b60008060408385031215613b6757613b6661323a565b5b6000613b7585828601613505565b9250506020613b8685828601613505565b9150509250929050565b7f4e6f74416e417070726f7665644f776e65720000000000000000000000000000600082015250565b6000613bc6601283613447565b9150613bd182613b90565b602082019050919050565b60006020820190508181036000830152613bf581613bb9565b9050919050565b7f4e6f7454686561737365744f776e657200000000000000000000000000000000600082015250565b6000613c32601083613447565b9150613c3d82613bfc565b602082019050919050565b60006020820190508181036000830152613c6181613c25565b9050919050565b7f4e487b7100000000000000000000000000000000000000000000000000000000600052601160045260246000fd5b6000613ca2826132a2565b915060008203613cb557613cb4613c68565b5b600182039050919050565b6000613ccb826132a2565b91507fffffffffffffffffffffffffffffffffffffffffffffffffffffffffffffffff8203613cfd57613cfc613c68565b5b600182019050919050565b6000613d13826132a2565b9150613d1e836132a2565b9250828202613d2c816132a2565b91508282048414831517613d4357613d42613c68565b5b5092915050565b7f4e487b7100000000000000000000000000000000000000000000000000000000600052602260045260246000fd5b60006002820490506001821680613d9157607f821691505b602082108103613da457613da3613d4a565b5b50919050565b7f4552433732313a20617070726f76656420717565727920666f72206e6f6e657860008201527f697374656e7420746f6b656e0000000000000000000000000000000000000000602082015250565b6000613e06602c83613447565b9150613e1182613daa565b604082019050919050565b60006020820190508181036000830152613e3581613df9565b9050919050565b7f43757272656e744f776e6572417070726f76616c000000000000000000000000600082015250565b6000613e72601483613447565b9150613e7d82613e3c565b602082019050919050565b60006020820190508181036000830152613ea181613e65565b9050919050565b7f4e6f7454686541737365744f776e657200000000000000000000000000000000600082015250565b6000613ede601083613447565b9150613ee982613ea8565b602082019050919050565b60006020820190508181036000830152613f0d81613ed1565b9050919050565b7f4f6e6c79206469737472696275746f722063616e2063616c6c20746869730000600082015250565b6000613f4a601e83613447565b9150613f5582613f14565b602082019050919050565b60006020820190508181036000830152613f7981613f3d565b9050919050565b7f496e76616c696420696e70757420706172616d65746572730000000000000000600082015250565b6000613fb6601883613447565b9150613fc182613f80565b602082019050919050565b60006020820190508181036000830152613fe581613fa9565b9050919050565b60008190508160005260206000209050919050565b60006020601f8301049050919050565b600082821b905092915050565b60006008830261404e7fffffffffffffffffffffffffffffffffffffffffffffffffffffffffffffffff82614011565b6140588683614011565b95508019841693508086168417925050509392505050565b6000819050919050565b600061409561409061408b846132a2565b614070565b6132a2565b9050919050565b6000819050919050565b6140af8361407a565b6140c36140bb8261409c565b84845461401e565b825550505050565b600090565b6140d86140cb565b6140e38184846140a6565b505050565b5b81811015614107576140fc6000826140d0565b6001810190506140e9565b5050565b601f82111561414c5761411d81613fec565b61412684614001565b81016020851015614135578190505b61414961414185614001565b8301826140e8565b50505b505050565b600082821c905092915050565b600061416f60001984600802614151565b1980831691505092915050565b6000614188838361415e565b9150826002028217905092915050565b6141a18261343c565b67ffffffffffffffff8111156141ba576141b9613564565b5b6141c48254613d79565b6141cf82828561410b565b600060209050601f83116001811461420257600084156141f0578287015190505b6141fa858261417c565b865550614262565b601f19841661421086613fec565b60005b8281101561423857848901518255600182019150602085019450602081019050614213565b868310156142555784890151614251601f89168261415e565b8355505b6001600288020188555050505b505050505050565b6000614275826132a2565b9150614280836132a2565b925082820190508082111561429857614297613c68565b5b92915050565b7f4552433732313a2063616c6c6572206973206e6f7420746f6b656e206f776e6560008201527f72206f7220617070726f76656400000000000000000000000000000000000000602082015250565b60006142fa602d83613447565b91506143058261429e565b604082019050919050565b60006020820190508181036000830152614329816142ed565b9050919050565b7f4f6e6c7920726567697374657265642075736572732063616e2063616c6c207460008201527f6869730000000000000000000000000000000000000000000000000000000000602082015250565b600061438c602383613447565b915061439782614330565b604082019050919050565b600060208201905081810360008301526143bb8161437f565b9050919050565b7f55736572206e6f74207265676973746572656400000000000000000000000000600082015250565b60006143f8601383613447565b9150614403826143c2565b602082019050919050565b60006020820190508181036000830152614427816143eb565b9050919050565b7f496e76616c69642062616c616e63650000000000000000000000000000000000600082015250565b6000614464600f83613447565b915061446f8261442e565b602082019050919050565b6000602082019050818103600083015261449381614457565b9050919050565b7f4f6e6c79206f776e65722063616e2063616c6c20746869730000000000000000600082015250565b60006144d0601883613447565b91506144db8261449a565b602082019050919050565b600060208201905081810360008301526144ff816144c3565b9050919050565b7f55736572206e6f7420666f756e64000000000000000000000000000000000000600082015250565b600061453c600e83613447565b915061454782614506565b602082019050919050565b6000602082019050818103600083015261456b8161452f565b9050919050565b7f5573657220697320616c7265616479204469737472696275746f720000000000600082015250565b60006145a8601b83613447565b91506145b382614572565b602082019050919050565b600060208201905081810360008301526145d78161459b565b9050919050565b7f4e6f417373657445786973747300000000000000000000000000000000000000600082015250565b6000614614600d83613447565b915061461f826145de565b602082019050919050565b6000602082019050818103600083015261464381614607565b9050919050565b7f4552433732313a2061646472657373207a65726f206973206e6f74206120766160008201527f6c6964206f776e65720000000000000000000000000000000000000000000000602082015250565b60006146a6602983613447565b91506146b18261464a565b604082019050919050565b600060208201905081810360008301526146d581614699565b9050919050565b7f496e76616c696420696e70757420706172616d65746572000000000000000000600082015250565b6000614712601783613447565b915061471d826146dc565b602082019050919050565b6000602082019050818103600083015261474181614705565b9050919050565b7f524543206e6f7420666f756e6400000000000000000000000000000000000000600082015250565b600061477e600d83613447565b915061478982614748565b602082019050919050565b600060208201905081810360008301526147ad81614771565b9050919050565b7f496e73756666696369656e742062616c616e6365000000000000000000000000600082015250565b60006147ea601483613447565b91506147f5826147b4565b602082019050919050565b60006020820190508181036000830152614819816147dd565b9050919050565b7f4552433732313a2062616c616e636520717565727920666f7220746865207a6560008201527f726f206164647265737300000000000000000000000000000000000000000000602082015250565b600061487c602a83613447565b915061488782614820565b604082019050919050565b600060208201905081810360008301526148ab8161486f565b9050919050565b7f5573657220616c72656164792072656769737465726564000000000000000000600082015250565b60006148e8601783613447565b91506148f3826148b2565b602082019050919050565b60006020820190508181036000830152614917816148db565b9050919050565b600081905092915050565b60006149348261343c565b61493e818561491e565b935061494e818560208601613458565b80840191505092915050565b60006149668285614929565b91506149728284614929565b91508190509392505050565b7f5573657220697320616c72656164792052656769737465726564000000000000600082015250565b60006149b4601a83613447565b91506149bf8261497e565b602082019050919050565b600060208201905081810360008301526149e3816149a7565b9050919050565b7f4552433732313a206f70657261746f7220717565727920666f72206e6f6e657860008201527f697374656e7420746f6b656e0000000000000000000000000000000000000000602082015250565b6000614a46602c83613447565b9150614a51826149ea565b604082019050919050565b60006020820190508181036000830152614a7581614a39565b9050919050565b7f5a65726f416464726573734d696e6974696e6700000000000000000000000000600082015250565b6000614ab2601383613447565b9150614abd82614a7c565b602082019050919050565b60006020820190508181036000830152614ae181614aa5565b9050919050565b7f416c72656164794d696e74656400000000000000000000000000000000000000600082015250565b6000614b1e600d83613447565b9150614b2982614ae8565b602082019050919050565b60006020820190508181036000830152614b4d81614b11565b9050919050565b7f4552433732313a207472616e736665722066726f6d20696e636f72726563742060008201527f6f776e6572000000000000000000000000000000000000000000000000000000602082015250565b6000614bb0602583613447565b9150614bbb82614b54565b604082019050919050565b60006020820190508181036000830152614bdf81614ba3565b9050919050565b7f4552433732313a207472616e7366657220746f20746865207a65726f2061646460008201527f7265737300000000000000000000000000000000000000000000000000000000602082015250565b6000614c42602483613447565b9150614c4d82614be6565b604082019050919050565b60006020820190508181036000830152614c7181614c35565b9050919050565b7f4552433732313a20617070726f766520746f2063616c6c657200000000000000600082015250565b6000614cae601983613447565b9150614cb982614c78565b602082019050919050565b60006020820190508181036000830152614cdd81614ca1565b9050919050565b7f4552433732313a207472616e7366657220746f206e6f6e20455243373231526560008201527f63656976657220696d706c656d656e7465720000000000000000000000000000602082015250565b6000614d40603283613447565b9150614d4b82614ce4565b604082019050919050565b60006020820190508181036000830152614d6f81614d33565b9050919050565b7f4552433732313a20696e76616c696420746f6b656e2049440000000000000000600082015250565b6000614dac601883613447565b9150614db782614d76565b602082019050919050565b60006020820190508181036000830152614ddb81614d9f565b9050919050565b7f4e487b7100000000000000000000000000000000000000000000000000000000600052601260045260246000fd5b600081519050919050565b600082825260208201905092915050565b6000614e3882614e11565b614e428185614e1c565b9350614e52818560208601613458565b614e5b81613482565b840191505092915050565b6000608082019050614e7b6000830187613412565b614e886020830186613412565b614e956040830185613792565b8181036060830152614ea78184614e2d565b905095945050505050565b600081519050614ec181613344565b92915050565b600060208284031215614edd57614edc61323a565b5b6000614eeb84828501614eb2565b9150509291505056fea264697066735822122056febc390b115c5a45da265e880dbc65697b9d324c6e0f28f65c0f2684e932c864736f6c63430008130033",
  "immutableReferences": {},
  "source": "// SPDX-License-Identifier: UNLICENSED\npragma solidity ^0.8.1;\n\nimport \"@openzeppelin/contracts/token/ERC721/ERC721.sol\";\n\ncontract RenewableEnergyToken is ERC721 {\n    \n    address public owner;\n    \n    struct User {\n        string id;\n        string name;\n        uint balance;\n        REC[] certificates;\n        bool isDistributor;\n        bool isRegistered;\n    }\n    \n    struct REC {\n        uint id;\n        string name;\n        uint quantity;\n        uint price;\n        Status status;\n    }\n\n    uint public recCount;\n    mapping(uint => REC) public recs;\n    mapping(uint => address) private recOwner;\n    mapping (address => uint256) private ownedAssetsCount;    \n    mapping (uint256 => address) public assetApprovals;\n\n    address[]  addressList;\n    \n    enum Status {Available, Sold}\n    \n    mapping(address => User) users;\n\n    //Events\n    //event Transfer(address indexed from, address indexed to, uint256 indexed tokenId);\n    //event Approval(address indexed owner, address indexed approved, uint256 indexed tokenId);\n\n    constructor() ERC721(\"RenewableEnergyToken\", \"RET\") {\n        owner = msg.sender;\n    }\n\n    modifier onlyOwner() {\n        require(msg.sender == owner, \"Only owner can call this\");\n        _;\n    }\n\n    modifier onlyRegistered() {\n        require(msg.sender == owner || users[msg.sender].isRegistered, \"Only registered users can call this\");\n        _;\n    }\n\n    modifier onlyDistributor() {\n        require(msg.sender == owner || users[msg.sender].isDistributor, \"Only distributor can call this\");\n        _;\n    }\n\n\tfunction getUserRole(address user) public view returns (string memory) {\n\t\tif (user == owner) {\n\t\t\treturn \"owner\";\n\t\t} else if (users[user].isDistributor) {\n\t\t\treturn \"distributor\";\n\t\t} else if (users[user].isRegistered) {\n\t\t\treturn \"registered\";\n\t\t} else {\n\t\t\t User storage userObj = users[user];\n\t\t\tif (bytes(userObj.id).length > 0)\n\t\t\t\treturn \"not yet verified\";\n\t\t\telse \n\t\t\t\treturn \"none\";\n\t\t\t}\n\t}\n\n    //ERC721 methods\n\n\tfunction balanceOf() public view returns (uint256)  {\n        require(msg.sender != address(0), \"ERC721: balance query for the zero address\");\n\n        return ownedAssetsCount[msg.sender];\n    }\n    \n     function ownerOf(uint256 assetId) public view override returns (address) {\n         address owner = recOwner[assetId];\n         require(owner != address(0), \"NoAssetExists\");\n         return owner;\n     }\n    \n    function transferFrom(address payable from, uint256 recId) public payable{\n        require(isApprovedOrOwner(msg.sender, recId), \"NotAnApprovedOwner\");\n        require(ownerOf(recId) == from, \"NotTheassetOwner\");\n        clearApproval(recId,getApproved(recId));\n        ownedAssetsCount[from]--;\n        ownedAssetsCount[msg.sender]++;\n        recOwner[recId] = msg.sender;\n        from.transfer(recs[recId].price * 1000000000000000000);\n        emit Transfer(from, msg.sender, recId);\n    }\n\n    function approve(address to,uint256 assetId) public override {\n        address owner = ownerOf(assetId);\n        require(to != owner, \"CurrentOwnerApproval\");\n        require(msg.sender == owner,\"NotTheAssetOwner\");\n        assetApprovals[assetId] = to;\n        emit Approval(owner, to, assetId);\n    }\n\n    function getApproved(uint256 assetId) public view override returns (address) {\n        require(exists(assetId), \"ERC721: approved query for nonexistent token\");\n        return assetApprovals[assetId];\n    }\n    \n\tfunction clearApproval(uint256 assetId,address approved) public {\n        if (assetApprovals[assetId]==approved){\n            assetApprovals[assetId] = address(0);\n        }\n    }\n\n    // Function used internally by other methods\n    function mint(address to, uint256 recId) internal {\n        require(to != address(0), \"ZeroAddressMiniting\");\n        require(!exists(recId), \"AlreadyMinted\");\n        recOwner[recId] = to;\n        ownedAssetsCount[to]++;\n        emit Transfer(address(0), to, recId);\n    }\n\n    function exists(uint256 assetId) internal view returns (bool) {\n        return recOwner[assetId] != address(0);\n    }\n\n    function isApprovedOrOwner(address spender, uint256 assetId) internal view returns (bool) {\n        require(exists(assetId), \"ERC721: operator query for nonexistent token\");\n        address owner = ownerOf(assetId);\n        return (spender == owner || getApproved(assetId) == spender);\n    }\n\n    //REC functions\n    function generateREC(string memory name, uint quantity, uint price, address sellerAddress) public onlyDistributor payable {\n        require(bytes(name).length > 0 && quantity > 0 && price > 0 && sellerAddress!=address(0), \"Invalid input parameters\");\n\n        recs[recCount] =  REC(recCount, name, quantity, price, Status.Available);\n        \n        mint(sellerAddress,recCount);\n        recCount = recCount+1;\n    }\n\n    /*\n    function getCertificatesOfUser() public view onlyRegistered returns (REC[] memory) {\n        return users[msg.sender].certificates;\n    }\n\n    function getAllCertificates() public view onlyRegistered returns (REC[] memory) {\n        uint totalCertificates;\n        for (uint i = 0; i < addressList.length; i++) {\n            totalCertificates += users[addressList[i]].certificates.length;\n        }\n\n        REC[] memory allCertificates = new REC[](totalCertificates);\n        uint currentIndex = 0;\n        for (uint i = 0; i < addressList.length; i++) {\n            REC[] memory userCertificates = users[addressList[i]].certificates;\n            for (uint j = 0; j < userCertificates.length; j++) {\n                allCertificates[currentIndex] = userCertificates[j];\n                currentIndex++;\n            }\n        }\n\n        return allCertificates;\n    }\n    */\n\n\tfunction getCertificate(uint id) public view onlyRegistered returns (uint, string memory, uint, uint,address, Status) {\n        REC memory rec = recs[id];\n        return (id, rec.name, rec.quantity, rec.price, recOwner[id], rec.status);\n    }\n\n    function verifyREC(uint id) public view onlyRegistered returns (bool) {\n        require(id>=0, \"Invalid input parameter\");\n\n        REC storage rec = recs[id];\n        require(id<recCount, \"REC not found\");\n\n        User storage user = users[msg.sender];\n        require(user.balance >= rec.price, \"Insufficient balance\");\n        return true;\n    }\n\n    /*\n    function buyREC(uint id) public onlyRegistered payable {\n        REC storage rec = recs[id];\n        require(id>=0 && id<recCount, \"REC not found\");\n        require(rec.status == Status.Available, \"REC not available for purchase\");\n\n        User storage buyer = users[msg.sender];\n        require(buyer.balance >= rec.price, \"Insufficient balance\");\n\n        User storage seller = users[recOwner[id]];\n        seller.balance += rec.price;\n\n        buyer.balance -= rec.price;\n        buyer.certificates.push(rec);\n        rec.status = Status.Sold;\n        recOwner[id] = msg.sender;\n    }\n\n    function sellREC(uint id, uint price) public onlyRegistered {\n        REC storage rec = recs[id];\n        require(id>=0 && id<recCount, \"REC not found\");\n        require(rec.status == Status.Available, \"Cannot update price for sold REC\");\n        require(recOwner[id] == address(0) || recOwner[id] == msg.sender, \"Only seller can update price\");\n\n        rec.price = price;\n        recOwner[id] = msg.sender;\n        rec.status = Status.Available;\n    }\n    */\n\n    function approveDistributor(address userAddress) public onlyOwner {\n        User storage user = users[userAddress];\n        require(bytes(user.id).length > 0, \"User not found\");\n        require(!user.isRegistered, \"User is already Distributor\");\n\n        user.isDistributor = true;\n        user.isRegistered = true;\n    }\n\n    function approveUser(address userAddress) public onlyDistributor {\n        User storage user = users[userAddress];\n        require(bytes(user.id).length > 0, \"User not found\");\n        require(!user.isRegistered, \"User is already Registered\");\n\n        user.isRegistered = true;\n    }\n\n    function selfRegister(string memory id, string memory name, address userAddress) public {\n        require(bytes(id).length > 0 && bytes(name).length > 0, \"Invalid input parameters\");\n\n        User storage user = users[msg.sender];\n        require(bytes(user.id).length == 0, \"User already registered\");\n\n        user.id = id;\n        user.name = name;\n        user.balance = 0; \n        user.isDistributor = false;\n        addressList.push((userAddress));\n    }\n\n    function topupBalance() public onlyRegistered payable {\n        User storage user = users[msg.sender];\n        require(bytes(user.id).length != 0, \"User not registered\");\n        require(msg.value >= 0, \"Invalid balance\");\n\n        user.balance += msg.value;\n    }\n}",
  "sourcePath": "/Users/sandeepkunusoth/Downloads/blockchain-project/cse526/renewableenergytoken-contract/contracts/RenewableEnergyToken.sol",
  "compiler": {
    "name": "solc",
    "version": "0.8.19+commit.7dd6d404.Emscripten.clang"
  },
  "schemaVersion": "3.4.13",
  "updatedAt": "2023-04-30T18:00:53.925Z",
  "networkType": "ethereum",
  "devdoc": {
    "events": {
      "Approval(address,address,uint256)": {
        "details": "Emitted when `owner` enables `approved` to manage the `tokenId` token."
      },
      "ApprovalForAll(address,address,bool)": {
        "details": "Emitted when `owner` enables or disables (`approved`) `operator` to manage all of its assets."
      },
      "Transfer(address,address,uint256)": {
        "details": "Emitted when `tokenId` token is transferred from `from` to `to`."
      }
    },
    "kind": "dev",
    "methods": {
      "balanceOf(address)": {
        "details": "See {IERC721-balanceOf}."
      },
      "isApprovedForAll(address,address)": {
        "details": "See {IERC721-isApprovedForAll}."
      },
      "name()": {
        "details": "See {IERC721Metadata-name}."
      },
      "safeTransferFrom(address,address,uint256)": {
        "details": "See {IERC721-safeTransferFrom}."
      },
      "safeTransferFrom(address,address,uint256,bytes)": {
        "details": "See {IERC721-safeTransferFrom}."
      },
      "setApprovalForAll(address,bool)": {
        "details": "See {IERC721-setApprovalForAll}."
      },
      "supportsInterface(bytes4)": {
        "details": "See {IERC165-supportsInterface}."
      },
      "symbol()": {
        "details": "See {IERC721Metadata-symbol}."
      },
      "tokenURI(uint256)": {
        "details": "See {IERC721Metadata-tokenURI}."
      },
      "transferFrom(address,address,uint256)": {
        "details": "See {IERC721-transferFrom}."
      }
    },
    "version": 1
  },
  "userdoc": {
    "kind": "user",
    "methods": {},
    "version": 1
  }
}