{
  "contractName": "RenewableEnergyToken",
  "abi": [
    {
      "inputs": [],
      "stateMutability": "nonpayable",
      "type": "constructor"
    },
    {
      "anonymous": false,
      "inputs": [
        {
          "indexed": true,
          "internalType": "address",
          "name": "owner",
          "type": "address"
        },
        {
          "indexed": true,
          "internalType": "address",
          "name": "approved",
          "type": "address"
        },
        {
          "indexed": true,
          "internalType": "uint256",
          "name": "tokenId",
          "type": "uint256"
        }
      ],
      "name": "Approval",
      "type": "event"
    },
    {
      "anonymous": false,
      "inputs": [
        {
          "indexed": true,
          "internalType": "address",
          "name": "owner",
          "type": "address"
        },
        {
          "indexed": true,
          "internalType": "address",
          "name": "operator",
          "type": "address"
        },
        {
          "indexed": false,
          "internalType": "bool",
          "name": "approved",
          "type": "bool"
        }
      ],
      "name": "ApprovalForAll",
      "type": "event"
    },
    {
      "anonymous": false,
      "inputs": [
        {
          "indexed": true,
          "internalType": "address",
          "name": "from",
          "type": "address"
        },
        {
          "indexed": true,
          "internalType": "address",
          "name": "to",
          "type": "address"
        },
        {
          "indexed": true,
          "internalType": "uint256",
          "name": "tokenId",
          "type": "uint256"
        }
      ],
      "name": "Transfer",
      "type": "event"
    },
    {
      "inputs": [
        {
          "internalType": "uint256",
          "name": "",
          "type": "uint256"
        }
      ],
      "name": "assetApprovals",
      "outputs": [
        {
          "internalType": "address",
          "name": "",
          "type": "address"
        }
      ],
      "stateMutability": "view",
      "type": "function",
      "constant": true
    },
    {
      "inputs": [
        {
          "internalType": "address",
          "name": "owner",
          "type": "address"
        },
        {
          "internalType": "address",
          "name": "operator",
          "type": "address"
        }
      ],
      "name": "isApprovedForAll",
      "outputs": [
        {
          "internalType": "bool",
          "name": "",
          "type": "bool"
        }
      ],
      "stateMutability": "view",
      "type": "function",
      "constant": true
    },
    {
      "inputs": [],
      "name": "name",
      "outputs": [
        {
          "internalType": "string",
          "name": "",
          "type": "string"
        }
      ],
      "stateMutability": "view",
      "type": "function",
      "constant": true
    },
    {
      "inputs": [],
      "name": "owner",
      "outputs": [
        {
          "internalType": "address",
          "name": "",
          "type": "address"
        }
      ],
      "stateMutability": "view",
      "type": "function",
      "constant": true
    },
    {
      "inputs": [],
      "name": "recCount",
      "outputs": [
        {
          "internalType": "uint256",
          "name": "",
          "type": "uint256"
        }
      ],
      "stateMutability": "view",
      "type": "function",
      "constant": true
    },
    {
      "inputs": [
        {
          "internalType": "uint256",
          "name": "",
          "type": "uint256"
        }
      ],
      "name": "recs",
      "outputs": [
        {
          "internalType": "uint256",
          "name": "id",
          "type": "uint256"
        },
        {
          "internalType": "string",
          "name": "name",
          "type": "string"
        },
        {
          "internalType": "uint256",
          "name": "quantity",
          "type": "uint256"
        },
        {
          "internalType": "uint256",
          "name": "price",
          "type": "uint256"
        },
        {
          "internalType": "enum RenewableEnergyToken.Status",
          "name": "status",
          "type": "uint8"
        }
      ],
      "stateMutability": "view",
      "type": "function",
      "constant": true
    },
    {
      "inputs": [
        {
          "internalType": "address",
          "name": "from",
          "type": "address"
        },
        {
          "internalType": "address",
          "name": "to",
          "type": "address"
        },
        {
          "internalType": "uint256",
          "name": "tokenId",
          "type": "uint256"
        }
      ],
      "name": "safeTransferFrom",
      "outputs": [],
      "stateMutability": "nonpayable",
      "type": "function"
    },
    {
      "inputs": [
        {
          "internalType": "address",
          "name": "from",
          "type": "address"
        },
        {
          "internalType": "address",
          "name": "to",
          "type": "address"
        },
        {
          "internalType": "uint256",
          "name": "tokenId",
          "type": "uint256"
        },
        {
          "internalType": "bytes",
          "name": "data",
          "type": "bytes"
        }
      ],
      "name": "safeTransferFrom",
      "outputs": [],
      "stateMutability": "nonpayable",
      "type": "function"
    },
    {
      "inputs": [
        {
          "internalType": "address",
          "name": "operator",
          "type": "address"
        },
        {
          "internalType": "bool",
          "name": "approved",
          "type": "bool"
        }
      ],
      "name": "setApprovalForAll",
      "outputs": [],
      "stateMutability": "nonpayable",
      "type": "function"
    },
    {
      "inputs": [
        {
          "internalType": "bytes4",
          "name": "interfaceId",
          "type": "bytes4"
        }
      ],
      "name": "supportsInterface",
      "outputs": [
        {
          "internalType": "bool",
          "name": "",
          "type": "bool"
        }
      ],
      "stateMutability": "view",
      "type": "function",
      "constant": true
    },
    {
      "inputs": [],
      "name": "symbol",
      "outputs": [
        {
          "internalType": "string",
          "name": "",
          "type": "string"
        }
      ],
      "stateMutability": "view",
      "type": "function",
      "constant": true
    },
    {
      "inputs": [
        {
          "internalType": "uint256",
          "name": "tokenId",
          "type": "uint256"
        }
      ],
      "name": "tokenURI",
      "outputs": [
        {
          "internalType": "string",
          "name": "",
          "type": "string"
        }
      ],
      "stateMutability": "view",
      "type": "function",
      "constant": true
    },
    {
      "inputs": [
        {
          "internalType": "address",
          "name": "user",
          "type": "address"
        }
      ],
      "name": "getUserRole",
      "outputs": [
        {
          "internalType": "string",
          "name": "",
          "type": "string"
        }
      ],
      "stateMutability": "view",
      "type": "function",
      "constant": true
    },
    {
      "inputs": [
        {
          "internalType": "address",
          "name": "owner",
          "type": "address"
        }
      ],
      "name": "balanceOf",
      "outputs": [
        {
          "internalType": "uint256",
          "name": "",
          "type": "uint256"
        }
      ],
      "stateMutability": "view",
      "type": "function",
      "constant": true
    },
    {
      "inputs": [],
      "name": "balanceOf",
      "outputs": [
        {
          "internalType": "uint256",
          "name": "",
          "type": "uint256"
        }
      ],
      "stateMutability": "view",
      "type": "function",
      "constant": true
    },
    {
      "inputs": [
        {
          "internalType": "uint256",
          "name": "assetId",
          "type": "uint256"
        }
      ],
      "name": "ownerOf",
      "outputs": [
        {
          "internalType": "address",
          "name": "",
          "type": "address"
        }
      ],
      "stateMutability": "view",
      "type": "function",
      "constant": true
    },
    {
      "inputs": [
        {
          "internalType": "address payable",
          "name": "from",
          "type": "address"
        },
        {
          "internalType": "uint256",
          "name": "recId",
          "type": "uint256"
        }
      ],
      "name": "transferFrom",
      "outputs": [],
      "stateMutability": "payable",
      "type": "function",
      "payable": true
    },
    {
      "inputs": [
        {
          "internalType": "address",
          "name": "from",
          "type": "address"
        },
        {
          "internalType": "address",
          "name": "to",
          "type": "address"
        },
        {
          "internalType": "uint256",
          "name": "tokenId",
          "type": "uint256"
        }
      ],
      "name": "transferFrom",
      "outputs": [],
      "stateMutability": "nonpayable",
      "type": "function"
    },
    {
      "inputs": [
        {
          "internalType": "address",
          "name": "to",
          "type": "address"
        },
        {
          "internalType": "uint256",
          "name": "assetId",
          "type": "uint256"
        }
      ],
      "name": "approve",
      "outputs": [],
      "stateMutability": "nonpayable",
      "type": "function"
    },
    {
      "inputs": [
        {
          "internalType": "uint256",
          "name": "assetId",
          "type": "uint256"
        }
      ],
      "name": "getApproved",
      "outputs": [
        {
          "internalType": "address",
          "name": "",
          "type": "address"
        }
      ],
      "stateMutability": "view",
      "type": "function",
      "constant": true
    },
    {
      "inputs": [
        {
          "internalType": "uint256",
          "name": "assetId",
          "type": "uint256"
        },
        {
          "internalType": "address",
          "name": "approved",
          "type": "address"
        }
      ],
      "name": "clearApproval",
      "outputs": [],
      "stateMutability": "nonpayable",
      "type": "function"
    },
    {
      "inputs": [
        {
          "internalType": "string",
          "name": "name",
          "type": "string"
        },
        {
          "internalType": "uint256",
          "name": "quantity",
          "type": "uint256"
        },
        {
          "internalType": "uint256",
          "name": "price",
          "type": "uint256"
        },
        {
          "internalType": "address",
          "name": "sellerAddress",
          "type": "address"
        }
      ],
      "name": "generateREC",
      "outputs": [],
      "stateMutability": "payable",
      "type": "function",
      "payable": true
    },
    {
      "inputs": [
        {
          "internalType": "uint256",
          "name": "id",
          "type": "uint256"
        }
      ],
      "name": "getCertificate",
      "outputs": [
        {
          "internalType": "uint256",
          "name": "",
          "type": "uint256"
        },
        {
          "internalType": "string",
          "name": "",
          "type": "string"
        },
        {
          "internalType": "uint256",
          "name": "",
          "type": "uint256"
        },
        {
          "internalType": "uint256",
          "name": "",
          "type": "uint256"
        },
        {
          "internalType": "address",
          "name": "",
          "type": "address"
        },
        {
          "internalType": "enum RenewableEnergyToken.Status",
          "name": "",
          "type": "uint8"
        }
      ],
      "stateMutability": "view",
      "type": "function",
      "constant": true
    },
    {
      "inputs": [
        {
          "internalType": "uint256",
          "name": "id",
          "type": "uint256"
        }
      ],
      "name": "verifyREC",
      "outputs": [
        {
          "internalType": "bool",
          "name": "",
          "type": "bool"
        }
      ],
      "stateMutability": "view",
      "type": "function",
      "constant": true
    },
    {
      "inputs": [
        {
          "internalType": "address",
          "name": "userAddress",
          "type": "address"
        }
      ],
      "name": "approveDistributor",
      "outputs": [],
      "stateMutability": "nonpayable",
      "type": "function"
    },
    {
      "inputs": [
        {
          "internalType": "address",
          "name": "userAddress",
          "type": "address"
        }
      ],
      "name": "approveUser",
      "outputs": [],
      "stateMutability": "nonpayable",
      "type": "function"
    },
    {
      "inputs": [
        {
          "internalType": "string",
          "name": "id",
          "type": "string"
        },
        {
          "internalType": "string",
          "name": "name",
          "type": "string"
        },
        {
          "internalType": "address",
          "name": "userAddress",
          "type": "address"
        }
      ],
      "name": "selfRegister",
      "outputs": [],
      "stateMutability": "nonpayable",
      "type": "function"
    },
    {
      "inputs": [],
      "name": "topupBalance",
      "outputs": [],
      "stateMutability": "payable",
      "type": "function",
      "payable": true
    }
  ],
  "bytecode": "0x60806040523480156200001157600080fd5b506040518060400160405280601481526020017f52656e657761626c65456e65726779546f6b656e0000000000000000000000008152506040518060400160405280600381526020017f524554000000000000000000000000000000000000000000000000000000000081525081600090816200008f919062000365565b508060019081620000a1919062000365565b50505033600660006101000a81548173ffffffffffffffffffffffffffffffffffffffff021916908373ffffffffffffffffffffffffffffffffffffffff1602179055506200044c565b600081519050919050565b7f4e487b7100000000000000000000000000000000000000000000000000000000600052604160045260246000fd5b7f4e487b7100000000000000000000000000000000000000000000000000000000600052602260045260246000fd5b600060028204905060018216806200016d57607f821691505b60208210810362000183576200018262000125565b5b50919050565b60008190508160005260206000209050919050565b60006020601f8301049050919050565b600082821b905092915050565b600060088302620001ed7fffffffffffffffffffffffffffffffffffffffffffffffffffffffffffffffff82620001ae565b620001f98683620001ae565b95508019841693508086168417925050509392505050565b6000819050919050565b6000819050919050565b600062000246620002406200023a8462000211565b6200021b565b62000211565b9050919050565b6000819050919050565b620002628362000225565b6200027a62000271826200024d565b848454620001bb565b825550505050565b600090565b6200029162000282565b6200029e81848462000257565b505050565b5b81811015620002c657620002ba60008262000287565b600181019050620002a4565b5050565b601f8211156200031557620002df8162000189565b620002ea846200019e565b81016020851015620002fa578190505b6200031262000309856200019e565b830182620002a3565b50505b505050565b600082821c905092915050565b60006200033a600019846008026200031a565b1980831691505092915050565b600062000355838362000327565b9150826002028217905092915050565b6200037082620000eb565b67ffffffffffffffff8111156200038c576200038b620000f6565b5b62000398825462000154565b620003a5828285620002ca565b600060209050601f831160018114620003dd5760008415620003c8578287015190505b620003d4858262000347565b86555062000444565b601f198416620003ed8662000189565b60005b828110156200041757848901518255600182019150602085019450602081019050620003f0565b8683101562000437578489015162000433601f89168262000327565b8355505b6001600288020188555050505b505050505050565b614d87806200045c6000396000f3fe6080604052600436106101b75760003560e01c80636352211e116100ec57806395d89b411161008a578063c87b56dd11610064578063c87b56dd14610622578063d624fdb61461065f578063daa5fe2d14610688578063e985e9c5146106b1576101b7565b806395d89b41146105a5578063a22cb465146105d0578063b88d4fde146105f9576101b7565b8063722713f7116100c6578063722713f7146104e557806384acbb89146105105780638da5cb5b1461055157806395084a411461057c576101b7565b80636352211e1461042e57806370a082311461046b57806371e06925146104a8576101b7565b806323b872dd1161015957806342842e0e1161013357806342842e0e14610390578063467ee321146103b9578063482aede5146103c357806351640fee146103ec576101b7565b806323b872dd146102ff578063278208511461032857806334b1da1314610365576101b7565b806306fdde031161019557806306fdde0314610252578063081812fc1461027d578063095ea7b3146102ba5780631630ed46146102e3576101b7565b806301c6adc3146101bc57806301ffc9a7146101d85780630338577014610215575b600080fd5b6101d660048036038101906101d19190613135565b6106ee565b005b3480156101e457600080fd5b506101ff60048036038101906101fa91906131cd565b61098a565b60405161020c9190613215565b60405180910390f35b34801561022157600080fd5b5061023c60048036038101906102379190613230565b610a6c565b604051610249919061327e565b60405180910390f35b34801561025e57600080fd5b50610267610a9f565b6040516102749190613329565b60405180910390f35b34801561028957600080fd5b506102a4600480360381019061029f9190613230565b610b31565b6040516102b1919061327e565b60405180910390f35b3480156102c657600080fd5b506102e160048036038101906102dc9190613377565b610bb6565b005b6102fd60048036038101906102f891906134ec565b610d51565b005b34801561030b57600080fd5b506103266004803603810190610321919061356f565b610fac565b005b34801561033457600080fd5b5061034f600480360381019061034a91906135c2565b61100c565b60405161035c9190613329565b60405180910390f35b34801561037157600080fd5b5061037a611202565b60405161038791906135fe565b60405180910390f35b34801561039c57600080fd5b506103b760048036038101906103b2919061356f565b611208565b005b6103c1611228565b005b3480156103cf57600080fd5b506103ea60048036038101906103e591906135c2565b6113af565b005b3480156103f857600080fd5b50610413600480360381019061040e9190613230565b611565565b60405161042596959493929190613690565b60405180910390f35b34801561043a57600080fd5b5061045560048036038101906104509190613230565b61176a565b604051610462919061327e565b60405180910390f35b34801561047757600080fd5b50610492600480360381019061048d91906135c2565b61181b565b60405161049f91906135fe565b60405180910390f35b3480156104b457600080fd5b506104cf60048036038101906104ca9190613230565b6118d2565b6040516104dc9190613215565b60405180910390f35b3480156104f157600080fd5b506104fa611a9b565b60405161050791906135fe565b60405180910390f35b34801561051c57600080fd5b5061053760048036038101906105329190613230565b611b50565b6040516105489594939291906136f8565b60405180910390f35b34801561055d57600080fd5b50610566611c1b565b604051610573919061327e565b60405180910390f35b34801561058857600080fd5b506105a3600480360381019061059e9190613752565b611c41565b005b3480156105b157600080fd5b506105ba611ddc565b6040516105c79190613329565b60405180910390f35b3480156105dc57600080fd5b506105f760048036038101906105f29190613809565b611e6e565b005b34801561060557600080fd5b50610620600480360381019061061b91906138ea565b611e84565b005b34801561062e57600080fd5b5061064960048036038101906106449190613230565b611ee6565b6040516106569190613329565b60405180910390f35b34801561066b57600080fd5b50610686600480360381019061068191906135c2565b611f4e565b005b34801561069457600080fd5b506106af60048036038101906106aa919061396d565b61213e565b005b3480156106bd57600080fd5b506106d860048036038101906106d391906139ad565b6121fc565b6040516106e59190613215565b60405180910390f35b6106f83382612290565b610737576040517f08c379a000000000000000000000000000000000000000000000000000000000815260040161072e90613a39565b60405180910390fd5b8173ffffffffffffffffffffffffffffffffffffffff166107578261176a565b73ffffffffffffffffffffffffffffffffffffffff16146107ad576040517f08c379a00000000000000000000000000000000000000000000000000000000081526004016107a490613aa5565b60405180910390fd5b6107bf816107ba83610b31565b61213e565b600a60008373ffffffffffffffffffffffffffffffffffffffff1673ffffffffffffffffffffffffffffffffffffffff168152602001908152602001600020600081548092919061080f90613af4565b9190505550600a60003373ffffffffffffffffffffffffffffffffffffffff1673ffffffffffffffffffffffffffffffffffffffff168152602001908152602001600020600081548092919061086490613b1d565b9190505550336009600083815260200190815260200160002060006101000a81548173ffffffffffffffffffffffffffffffffffffffff021916908373ffffffffffffffffffffffffffffffffffffffff1602179055508173ffffffffffffffffffffffffffffffffffffffff166108fc670de0b6b3a764000060086000858152602001908152602001600020600301546108ff9190613b65565b9081150290604051600060405180830381858888f1935050505015801561092a573d6000803e3d6000fd5b50803373ffffffffffffffffffffffffffffffffffffffff168373ffffffffffffffffffffffffffffffffffffffff167fddf252ad1be2c89b69c2b068fc378daa952ba7f163c4a11628f55a4df523b3ef60405160405180910390a45050565b60007f80ac58cd000000000000000000000000000000000000000000000000000000007bffffffffffffffffffffffffffffffffffffffffffffffffffffffff1916827bffffffffffffffffffffffffffffffffffffffffffffffffffffffff19161480610a5557507f5b5e139f000000000000000000000000000000000000000000000000000000007bffffffffffffffffffffffffffffffffffffffffffffffffffffffff1916827bffffffffffffffffffffffffffffffffffffffffffffffffffffffff1916145b80610a655750610a648261235d565b5b9050919050565b600b6020528060005260406000206000915054906101000a900473ffffffffffffffffffffffffffffffffffffffff1681565b606060008054610aae90613bd6565b80601f0160208091040260200160405190810160405280929190818152602001828054610ada90613bd6565b8015610b275780601f10610afc57610100808354040283529160200191610b27565b820191906000526020600020905b815481529060010190602001808311610b0a57829003601f168201915b5050505050905090565b6000610b3c826123c7565b610b7b576040517f08c379a0000000000000000000000000000000000000000000000000000000008152600401610b7290613c79565b60405180910390fd5b600b600083815260200190815260200160002060009054906101000a900473ffffffffffffffffffffffffffffffffffffffff169050919050565b6000610bc18261176a565b90508073ffffffffffffffffffffffffffffffffffffffff168373ffffffffffffffffffffffffffffffffffffffff1603610c31576040517f08c379a0000000000000000000000000000000000000000000000000000000008152600401610c2890613ce5565b60405180910390fd5b8073ffffffffffffffffffffffffffffffffffffffff163373ffffffffffffffffffffffffffffffffffffffff1614610c9f576040517f08c379a0000000000000000000000000000000000000000000000000000000008152600401610c9690613d51565b60405180910390fd5b82600b600084815260200190815260200160002060006101000a81548173ffffffffffffffffffffffffffffffffffffffff021916908373ffffffffffffffffffffffffffffffffffffffff160217905550818373ffffffffffffffffffffffffffffffffffffffff168273ffffffffffffffffffffffffffffffffffffffff167f8c5be1e5ebec7d5bd14f71427d1e84f3dd0314c0f7b2291e5b200ac8c7c3b92560405160405180910390a4505050565b600660009054906101000a900473ffffffffffffffffffffffffffffffffffffffff1673ffffffffffffffffffffffffffffffffffffffff163373ffffffffffffffffffffffffffffffffffffffff161480610df95750600d60003373ffffffffffffffffffffffffffffffffffffffff1673ffffffffffffffffffffffffffffffffffffffff16815260200190815260200160002060040160009054906101000a900460ff165b610e38576040517f08c379a0000000000000000000000000000000000000000000000000000000008152600401610e2f90613dbd565b60405180910390fd5b60008451118015610e495750600083115b8015610e555750600082115b8015610e8e5750600073ffffffffffffffffffffffffffffffffffffffff168173ffffffffffffffffffffffffffffffffffffffff1614155b610ecd576040517f08c379a0000000000000000000000000000000000000000000000000000000008152600401610ec490613e29565b60405180910390fd5b6040518060a00160405280600754815260200185815260200184815260200183815260200160006001811115610f0657610f05613619565b5b815250600860006007548152602001908152602001600020600082015181600001556020820151816001019081610f3d9190613ff5565b50604082015181600201556060820151816003015560808201518160040160006101000a81548160ff02191690836001811115610f7d57610f7c613619565b5b0217905550905050610f9181600754612433565b6001600754610fa091906140c7565b60078190555050505050565b610fbd610fb76125f2565b826125fa565b610ffc576040517f08c379a0000000000000000000000000000000000000000000000000000000008152600401610ff39061416d565b60405180910390fd5b61100783838361268f565b505050565b6060600660009054906101000a900473ffffffffffffffffffffffffffffffffffffffff1673ffffffffffffffffffffffffffffffffffffffff168273ffffffffffffffffffffffffffffffffffffffff16036110a0576040518060400160405280600581526020017f6f776e657200000000000000000000000000000000000000000000000000000081525090506111fd565b600d60008373ffffffffffffffffffffffffffffffffffffffff1673ffffffffffffffffffffffffffffffffffffffff16815260200190815260200160002060040160009054906101000a900460ff1615611132576040518060400160405280600b81526020017f6469737472696275746f7200000000000000000000000000000000000000000081525090506111fd565b600d60008373ffffffffffffffffffffffffffffffffffffffff1673ffffffffffffffffffffffffffffffffffffffff16815260200190815260200160002060040160019054906101000a900460ff16156111c4576040518060400160405280600a81526020017f726567697374657265640000000000000000000000000000000000000000000081525090506111fd565b6040518060400160405280600481526020017f6e6f6e650000000000000000000000000000000000000000000000000000000081525090505b919050565b60075481565b61122383838360405180602001604052806000815250611e84565b505050565b600d60003373ffffffffffffffffffffffffffffffffffffffff1673ffffffffffffffffffffffffffffffffffffffff16815260200190815260200160002060040160019054906101000a900460ff166112b7576040517f08c379a00000000000000000000000000000000000000000000000000000000081526004016112ae906141ff565b60405180910390fd5b6000600d60003373ffffffffffffffffffffffffffffffffffffffff1673ffffffffffffffffffffffffffffffffffffffff1681526020019081526020016000209050600081600001805461130b90613bd6565b90500361134d576040517f08c379a00000000000000000000000000000000000000000000000000000000081526004016113449061426b565b60405180910390fd5b6000341015611391576040517f08c379a0000000000000000000000000000000000000000000000000000000008152600401611388906142d7565b60405180910390fd5b348160020160008282546113a591906140c7565b9250508190555050565b600660009054906101000a900473ffffffffffffffffffffffffffffffffffffffff1673ffffffffffffffffffffffffffffffffffffffff163373ffffffffffffffffffffffffffffffffffffffff161461143f576040517f08c379a000000000000000000000000000000000000000000000000000000000815260040161143690614343565b60405180910390fd5b6000600d60008373ffffffffffffffffffffffffffffffffffffffff1673ffffffffffffffffffffffffffffffffffffffff1681526020019081526020016000209050600081600001805461149390613bd6565b9050116114d5576040517f08c379a00000000000000000000000000000000000000000000000000000000081526004016114cc906143af565b60405180910390fd5b8060040160019054906101000a900460ff1615611527576040517f08c379a000000000000000000000000000000000000000000000000000000000815260040161151e9061441b565b60405180910390fd5b60018160040160006101000a81548160ff02191690831515021790555060018160040160016101000a81548160ff0219169083151502179055505050565b60006060600080600080600d60003373ffffffffffffffffffffffffffffffffffffffff1673ffffffffffffffffffffffffffffffffffffffff16815260200190815260200160002060040160019054906101000a900460ff166115fe576040517f08c379a00000000000000000000000000000000000000000000000000000000081526004016115f5906141ff565b60405180910390fd5b6000600860008981526020019081526020016000206040518060a00160405290816000820154815260200160018201805461163890613bd6565b80601f016020809104026020016040519081016040528092919081815260200182805461166490613bd6565b80156116b15780601f10611686576101008083540402835291602001916116b1565b820191906000526020600020905b81548152906001019060200180831161169457829003601f168201915b5050505050815260200160028201548152602001600382015481526020016004820160009054906101000a900460ff1660018111156116f3576116f2613619565b5b600181111561170557611704613619565b5b81525050905087816020015182604001518360600151600960008d815260200190815260200160002060009054906101000a900473ffffffffffffffffffffffffffffffffffffffff1685608001519650965096509650965096505091939550919395565b6000806009600084815260200190815260200160002060009054906101000a900473ffffffffffffffffffffffffffffffffffffffff169050600073ffffffffffffffffffffffffffffffffffffffff168173ffffffffffffffffffffffffffffffffffffffff1603611812576040517f08c379a000000000000000000000000000000000000000000000000000000000815260040161180990614487565b60405180910390fd5b80915050919050565b60008073ffffffffffffffffffffffffffffffffffffffff168273ffffffffffffffffffffffffffffffffffffffff160361188b576040517f08c379a000000000000000000000000000000000000000000000000000000000815260040161188290614519565b60405180910390fd5b600360008373ffffffffffffffffffffffffffffffffffffffff1673ffffffffffffffffffffffffffffffffffffffff168152602001908152602001600020549050919050565b6000600d60003373ffffffffffffffffffffffffffffffffffffffff1673ffffffffffffffffffffffffffffffffffffffff16815260200190815260200160002060040160019054906101000a900460ff16611963576040517f08c379a000000000000000000000000000000000000000000000000000000000815260040161195a906141ff565b60405180910390fd5b60008210156119a7576040517f08c379a000000000000000000000000000000000000000000000000000000000815260040161199e90614585565b60405180910390fd5b60006008600084815260200190815260200160002090506007548310611a02576040517f08c379a00000000000000000000000000000000000000000000000000000000081526004016119f9906145f1565b60405180910390fd5b6000600d60003373ffffffffffffffffffffffffffffffffffffffff1673ffffffffffffffffffffffffffffffffffffffff1681526020019081526020016000209050816003015481600201541015611a90576040517f08c379a0000000000000000000000000000000000000000000000000000000008152600401611a879061465d565b60405180910390fd5b600192505050919050565b60008073ffffffffffffffffffffffffffffffffffffffff163373ffffffffffffffffffffffffffffffffffffffff1603611b0b576040517f08c379a0000000000000000000000000000000000000000000000000000000008152600401611b02906146ef565b60405180910390fd5b600a60003373ffffffffffffffffffffffffffffffffffffffff1673ffffffffffffffffffffffffffffffffffffffff16815260200190815260200160002054905090565b6008602052806000526040600020600091509050806000015490806001018054611b7990613bd6565b80601f0160208091040260200160405190810160405280929190818152602001828054611ba590613bd6565b8015611bf25780601f10611bc757610100808354040283529160200191611bf2565b820191906000526020600020905b815481529060010190602001808311611bd557829003601f168201915b5050505050908060020154908060030154908060040160009054906101000a900460ff16905085565b600660009054906101000a900473ffffffffffffffffffffffffffffffffffffffff1681565b60008351118015611c53575060008251115b611c92576040517f08c379a0000000000000000000000000000000000000000000000000000000008152600401611c8990613e29565b60405180910390fd5b6000600d60003373ffffffffffffffffffffffffffffffffffffffff1673ffffffffffffffffffffffffffffffffffffffff16815260200190815260200160002090506000816000018054611ce690613bd6565b905014611d28576040517f08c379a0000000000000000000000000000000000000000000000000000000008152600401611d1f9061475b565b60405180910390fd5b83816000019081611d399190613ff5565b5082816001019081611d4b9190613ff5565b506000816002018190555060008160040160006101000a81548160ff021916908315150217905550600c829080600181540180825580915050600190039060005260206000200160009091909190916101000a81548173ffffffffffffffffffffffffffffffffffffffff021916908373ffffffffffffffffffffffffffffffffffffffff16021790555050505050565b606060018054611deb90613bd6565b80601f0160208091040260200160405190810160405280929190818152602001828054611e1790613bd6565b8015611e645780601f10611e3957610100808354040283529160200191611e64565b820191906000526020600020905b815481529060010190602001808311611e4757829003601f168201915b5050505050905090565b611e80611e796125f2565b8383612988565b5050565b611e95611e8f6125f2565b836125fa565b611ed4576040517f08c379a0000000000000000000000000000000000000000000000000000000008152600401611ecb9061416d565b60405180910390fd5b611ee084848484612af4565b50505050565b6060611ef182612b50565b6000611efb612b9b565b90506000815111611f1b5760405180602001604052806000815250611f46565b80611f2584612bb2565b604051602001611f369291906147b7565b6040516020818303038152906040525b915050919050565b600660009054906101000a900473ffffffffffffffffffffffffffffffffffffffff1673ffffffffffffffffffffffffffffffffffffffff163373ffffffffffffffffffffffffffffffffffffffff161480611ff65750600d60003373ffffffffffffffffffffffffffffffffffffffff1673ffffffffffffffffffffffffffffffffffffffff16815260200190815260200160002060040160009054906101000a900460ff165b612035576040517f08c379a000000000000000000000000000000000000000000000000000000000815260040161202c90613dbd565b60405180910390fd5b6000600d60008373ffffffffffffffffffffffffffffffffffffffff1673ffffffffffffffffffffffffffffffffffffffff1681526020019081526020016000209050600081600001805461208990613bd6565b9050116120cb576040517f08c379a00000000000000000000000000000000000000000000000000000000081526004016120c2906143af565b60405180910390fd5b8060040160019054906101000a900460ff161561211d576040517f08c379a000000000000000000000000000000000000000000000000000000000815260040161211490614827565b60405180910390fd5b60018160040160016101000a81548160ff0219169083151502179055505050565b8073ffffffffffffffffffffffffffffffffffffffff16600b600084815260200190815260200160002060009054906101000a900473ffffffffffffffffffffffffffffffffffffffff1673ffffffffffffffffffffffffffffffffffffffff16036121f8576000600b600084815260200190815260200160002060006101000a81548173ffffffffffffffffffffffffffffffffffffffff021916908373ffffffffffffffffffffffffffffffffffffffff1602179055505b5050565b6000600560008473ffffffffffffffffffffffffffffffffffffffff1673ffffffffffffffffffffffffffffffffffffffff16815260200190815260200160002060008373ffffffffffffffffffffffffffffffffffffffff1673ffffffffffffffffffffffffffffffffffffffff16815260200190815260200160002060009054906101000a900460ff16905092915050565b600061229b826123c7565b6122da576040517f08c379a00000000000000000000000000000000000000000000000000000000081526004016122d1906148b9565b60405180910390fd5b60006122e58361176a565b90508073ffffffffffffffffffffffffffffffffffffffff168473ffffffffffffffffffffffffffffffffffffffff16148061235457508373ffffffffffffffffffffffffffffffffffffffff1661233c84610b31565b73ffffffffffffffffffffffffffffffffffffffff16145b91505092915050565b60007f01ffc9a7000000000000000000000000000000000000000000000000000000007bffffffffffffffffffffffffffffffffffffffffffffffffffffffff1916827bffffffffffffffffffffffffffffffffffffffffffffffffffffffff1916149050919050565b60008073ffffffffffffffffffffffffffffffffffffffff166009600084815260200190815260200160002060009054906101000a900473ffffffffffffffffffffffffffffffffffffffff1673ffffffffffffffffffffffffffffffffffffffff1614159050919050565b600073ffffffffffffffffffffffffffffffffffffffff168273ffffffffffffffffffffffffffffffffffffffff16036124a2576040517f08c379a000000000000000000000000000000000000000000000000000000000815260040161249990614925565b60405180910390fd5b6124ab816123c7565b156124eb576040517f08c379a00000000000000000000000000000000000000000000000000000000081526004016124e290614991565b60405180910390fd5b816009600083815260200190815260200160002060006101000a81548173ffffffffffffffffffffffffffffffffffffffff021916908373ffffffffffffffffffffffffffffffffffffffff160217905550600a60008373ffffffffffffffffffffffffffffffffffffffff1673ffffffffffffffffffffffffffffffffffffffff168152602001908152602001600020600081548092919061258d90613b1d565b9190505550808273ffffffffffffffffffffffffffffffffffffffff16600073ffffffffffffffffffffffffffffffffffffffff167fddf252ad1be2c89b69c2b068fc378daa952ba7f163c4a11628f55a4df523b3ef60405160405180910390a45050565b600033905090565b60008061260683612c80565b90508073ffffffffffffffffffffffffffffffffffffffff168473ffffffffffffffffffffffffffffffffffffffff161480612648575061264781856121fc565b5b8061268657508373ffffffffffffffffffffffffffffffffffffffff1661266e84610b31565b73ffffffffffffffffffffffffffffffffffffffff16145b91505092915050565b8273ffffffffffffffffffffffffffffffffffffffff166126af82612c80565b73ffffffffffffffffffffffffffffffffffffffff1614612705576040517f08c379a00000000000000000000000000000000000000000000000000000000081526004016126fc90614a23565b60405180910390fd5b600073ffffffffffffffffffffffffffffffffffffffff168273ffffffffffffffffffffffffffffffffffffffff1603612774576040517f08c379a000000000000000000000000000000000000000000000000000000000815260040161276b90614ab5565b60405180910390fd5b6127818383836001612d06565b8273ffffffffffffffffffffffffffffffffffffffff166127a182612c80565b73ffffffffffffffffffffffffffffffffffffffff16146127f7576040517f08c379a00000000000000000000000000000000000000000000000000000000081526004016127ee90614a23565b60405180910390fd5b6004600082815260200190815260200160002060006101000a81549073ffffffffffffffffffffffffffffffffffffffff02191690556001600360008573ffffffffffffffffffffffffffffffffffffffff1673ffffffffffffffffffffffffffffffffffffffff168152602001908152602001600020600082825403925050819055506001600360008473ffffffffffffffffffffffffffffffffffffffff1673ffffffffffffffffffffffffffffffffffffffff16815260200190815260200160002060008282540192505081905550816002600083815260200190815260200160002060006101000a81548173ffffffffffffffffffffffffffffffffffffffff021916908373ffffffffffffffffffffffffffffffffffffffff160217905550808273ffffffffffffffffffffffffffffffffffffffff168473ffffffffffffffffffffffffffffffffffffffff167fddf252ad1be2c89b69c2b068fc378daa952ba7f163c4a11628f55a4df523b3ef60405160405180910390a46129838383836001612d0c565b505050565b8173ffffffffffffffffffffffffffffffffffffffff168373ffffffffffffffffffffffffffffffffffffffff16036129f6576040517f08c379a00000000000000000000000000000000000000000000000000000000081526004016129ed90614b21565b60405180910390fd5b80600560008573ffffffffffffffffffffffffffffffffffffffff1673ffffffffffffffffffffffffffffffffffffffff16815260200190815260200160002060008473ffffffffffffffffffffffffffffffffffffffff1673ffffffffffffffffffffffffffffffffffffffff16815260200190815260200160002060006101000a81548160ff0219169083151502179055508173ffffffffffffffffffffffffffffffffffffffff168373ffffffffffffffffffffffffffffffffffffffff167f17307eab39ab6107e8899845ad3d59bd9653f200f220920489ca2b5937696c3183604051612ae79190613215565b60405180910390a3505050565b612aff84848461268f565b612b0b84848484612d12565b612b4a576040517f08c379a0000000000000000000000000000000000000000000000000000000008152600401612b4190614bb3565b60405180910390fd5b50505050565b612b5981612e99565b612b98576040517f08c379a0000000000000000000000000000000000000000000000000000000008152600401612b8f90614c1f565b60405180910390fd5b50565b606060405180602001604052806000815250905090565b606060006001612bc184612eda565b01905060008167ffffffffffffffff811115612be057612bdf6133c1565b5b6040519080825280601f01601f191660200182016040528015612c125781602001600182028036833780820191505090505b509050600082602001820190505b600115612c75578080600190039150507f3031323334353637383961626364656600000000000000000000000000000000600a86061a8153600a8581612c6957612c68614c3f565b5b04945060008503612c20575b819350505050919050565b600080612c8c8361302d565b9050600073ffffffffffffffffffffffffffffffffffffffff168173ffffffffffffffffffffffffffffffffffffffff1603612cfd576040517f08c379a0000000000000000000000000000000000000000000000000000000008152600401612cf490614c1f565b60405180910390fd5b80915050919050565b50505050565b50505050565b6000612d338473ffffffffffffffffffffffffffffffffffffffff1661306a565b15612e8c578373ffffffffffffffffffffffffffffffffffffffff1663150b7a02612d5c6125f2565b8786866040518563ffffffff1660e01b8152600401612d7e9493929190614cc3565b6020604051808303816000875af1925050508015612dba57506040513d601f19601f82011682018060405250810190612db79190614d24565b60015b612e3c573d8060008114612dea576040519150601f19603f3d011682016040523d82523d6000602084013e612def565b606091505b506000815103612e34576040517f08c379a0000000000000000000000000000000000000000000000000000000008152600401612e2b90614bb3565b60405180910390fd5b805181602001fd5b63150b7a0260e01b7bffffffffffffffffffffffffffffffffffffffffffffffffffffffff1916817bffffffffffffffffffffffffffffffffffffffffffffffffffffffff191614915050612e91565b600190505b949350505050565b60008073ffffffffffffffffffffffffffffffffffffffff16612ebb8361302d565b73ffffffffffffffffffffffffffffffffffffffff1614159050919050565b600080600090507a184f03e93ff9f4daa797ed6e38ed64bf6a1f0100000000000000008310612f38577a184f03e93ff9f4daa797ed6e38ed64bf6a1f0100000000000000008381612f2e57612f2d614c3f565b5b0492506040810190505b6d04ee2d6d415b85acef81000000008310612f75576d04ee2d6d415b85acef81000000008381612f6b57612f6a614c3f565b5b0492506020810190505b662386f26fc100008310612fa457662386f26fc100008381612f9a57612f99614c3f565b5b0492506010810190505b6305f5e1008310612fcd576305f5e1008381612fc357612fc2614c3f565b5b0492506008810190505b6127108310612ff2576127108381612fe857612fe7614c3f565b5b0492506004810190505b60648310613015576064838161300b5761300a614c3f565b5b0492506002810190505b600a8310613024576001810190505b80915050919050565b60006002600083815260200190815260200160002060009054906101000a900473ffffffffffffffffffffffffffffffffffffffff169050919050565b6000808273ffffffffffffffffffffffffffffffffffffffff163b119050919050565b6000604051905090565b600080fd5b600080fd5b600073ffffffffffffffffffffffffffffffffffffffff82169050919050565b60006130cc826130a1565b9050919050565b6130dc816130c1565b81146130e757600080fd5b50565b6000813590506130f9816130d3565b92915050565b6000819050919050565b613112816130ff565b811461311d57600080fd5b50565b60008135905061312f81613109565b92915050565b6000806040838503121561314c5761314b613097565b5b600061315a858286016130ea565b925050602061316b85828601613120565b9150509250929050565b60007fffffffff0000000000000000000000000000000000000000000000000000000082169050919050565b6131aa81613175565b81146131b557600080fd5b50565b6000813590506131c7816131a1565b92915050565b6000602082840312156131e3576131e2613097565b5b60006131f1848285016131b8565b91505092915050565b60008115159050919050565b61320f816131fa565b82525050565b600060208201905061322a6000830184613206565b92915050565b60006020828403121561324657613245613097565b5b600061325484828501613120565b91505092915050565b6000613268826130a1565b9050919050565b6132788161325d565b82525050565b6000602082019050613293600083018461326f565b92915050565b600081519050919050565b600082825260208201905092915050565b60005b838110156132d35780820151818401526020810190506132b8565b60008484015250505050565b6000601f19601f8301169050919050565b60006132fb82613299565b61330581856132a4565b93506133158185602086016132b5565b61331e816132df565b840191505092915050565b6000602082019050818103600083015261334381846132f0565b905092915050565b6133548161325d565b811461335f57600080fd5b50565b6000813590506133718161334b565b92915050565b6000806040838503121561338e5761338d613097565b5b600061339c85828601613362565b92505060206133ad85828601613120565b9150509250929050565b600080fd5b600080fd5b7f4e487b7100000000000000000000000000000000000000000000000000000000600052604160045260246000fd5b6133f9826132df565b810181811067ffffffffffffffff82111715613418576134176133c1565b5b80604052505050565b600061342b61308d565b905061343782826133f0565b919050565b600067ffffffffffffffff821115613457576134566133c1565b5b613460826132df565b9050602081019050919050565b82818337600083830152505050565b600061348f61348a8461343c565b613421565b9050828152602081018484840111156134ab576134aa6133bc565b5b6134b684828561346d565b509392505050565b600082601f8301126134d3576134d26133b7565b5b81356134e384826020860161347c565b91505092915050565b6000806000806080858703121561350657613505613097565b5b600085013567ffffffffffffffff8111156135245761352361309c565b5b613530878288016134be565b945050602061354187828801613120565b935050604061355287828801613120565b925050606061356387828801613362565b91505092959194509250565b60008060006060848603121561358857613587613097565b5b600061359686828701613362565b93505060206135a786828701613362565b92505060406135b886828701613120565b9150509250925092565b6000602082840312156135d8576135d7613097565b5b60006135e684828501613362565b91505092915050565b6135f8816130ff565b82525050565b600060208201905061361360008301846135ef565b92915050565b7f4e487b7100000000000000000000000000000000000000000000000000000000600052602160045260246000fd5b6002811061365957613658613619565b5b50565b600081905061366a82613648565b919050565b600061367a8261365c565b9050919050565b61368a8161366f565b82525050565b600060c0820190506136a560008301896135ef565b81810360208301526136b781886132f0565b90506136c660408301876135ef565b6136d360608301866135ef565b6136e0608083018561326f565b6136ed60a0830184613681565b979650505050505050565b600060a08201905061370d60008301886135ef565b818103602083015261371f81876132f0565b905061372e60408301866135ef565b61373b60608301856135ef565b6137486080830184613681565b9695505050505050565b60008060006060848603121561376b5761376a613097565b5b600084013567ffffffffffffffff8111156137895761378861309c565b5b613795868287016134be565b935050602084013567ffffffffffffffff8111156137b6576137b561309c565b5b6137c2868287016134be565b92505060406137d386828701613362565b9150509250925092565b6137e6816131fa565b81146137f157600080fd5b50565b600081359050613803816137dd565b92915050565b600080604083850312156138205761381f613097565b5b600061382e85828601613362565b925050602061383f858286016137f4565b9150509250929050565b600067ffffffffffffffff821115613864576138636133c1565b5b61386d826132df565b9050602081019050919050565b600061388d61388884613849565b613421565b9050828152602081018484840111156138a9576138a86133bc565b5b6138b484828561346d565b509392505050565b600082601f8301126138d1576138d06133b7565b5b81356138e184826020860161387a565b91505092915050565b6000806000806080858703121561390457613903613097565b5b600061391287828801613362565b945050602061392387828801613362565b935050604061393487828801613120565b925050606085013567ffffffffffffffff8111156139555761395461309c565b5b613961878288016138bc565b91505092959194509250565b6000806040838503121561398457613983613097565b5b600061399285828601613120565b92505060206139a385828601613362565b9150509250929050565b600080604083850312156139c4576139c3613097565b5b60006139d285828601613362565b92505060206139e385828601613362565b9150509250929050565b7f4e6f74416e417070726f7665644f776e65720000000000000000000000000000600082015250565b6000613a236012836132a4565b9150613a2e826139ed565b602082019050919050565b60006020820190508181036000830152613a5281613a16565b9050919050565b7f4e6f7454686561737365744f776e657200000000000000000000000000000000600082015250565b6000613a8f6010836132a4565b9150613a9a82613a59565b602082019050919050565b60006020820190508181036000830152613abe81613a82565b9050919050565b7f4e487b7100000000000000000000000000000000000000000000000000000000600052601160045260246000fd5b6000613aff826130ff565b915060008203613b1257613b11613ac5565b5b600182039050919050565b6000613b28826130ff565b91507fffffffffffffffffffffffffffffffffffffffffffffffffffffffffffffffff8203613b5a57613b59613ac5565b5b600182019050919050565b6000613b70826130ff565b9150613b7b836130ff565b9250828202613b89816130ff565b91508282048414831517613ba057613b9f613ac5565b5b5092915050565b7f4e487b7100000000000000000000000000000000000000000000000000000000600052602260045260246000fd5b60006002820490506001821680613bee57607f821691505b602082108103613c0157613c00613ba7565b5b50919050565b7f4552433732313a20617070726f76656420717565727920666f72206e6f6e657860008201527f697374656e7420746f6b656e0000000000000000000000000000000000000000602082015250565b6000613c63602c836132a4565b9150613c6e82613c07565b604082019050919050565b60006020820190508181036000830152613c9281613c56565b9050919050565b7f43757272656e744f776e6572417070726f76616c000000000000000000000000600082015250565b6000613ccf6014836132a4565b9150613cda82613c99565b602082019050919050565b60006020820190508181036000830152613cfe81613cc2565b9050919050565b7f4e6f7454686541737365744f776e657200000000000000000000000000000000600082015250565b6000613d3b6010836132a4565b9150613d4682613d05565b602082019050919050565b60006020820190508181036000830152613d6a81613d2e565b9050919050565b7f4f6e6c79206469737472696275746f722063616e2063616c6c20746869730000600082015250565b6000613da7601e836132a4565b9150613db282613d71565b602082019050919050565b60006020820190508181036000830152613dd681613d9a565b9050919050565b7f496e76616c696420696e70757420706172616d65746572730000000000000000600082015250565b6000613e136018836132a4565b9150613e1e82613ddd565b602082019050919050565b60006020820190508181036000830152613e4281613e06565b9050919050565b60008190508160005260206000209050919050565b60006020601f8301049050919050565b600082821b905092915050565b600060088302613eab7fffffffffffffffffffffffffffffffffffffffffffffffffffffffffffffffff82613e6e565b613eb58683613e6e565b95508019841693508086168417925050509392505050565b6000819050919050565b6000613ef2613eed613ee8846130ff565b613ecd565b6130ff565b9050919050565b6000819050919050565b613f0c83613ed7565b613f20613f1882613ef9565b848454613e7b565b825550505050565b600090565b613f35613f28565b613f40818484613f03565b505050565b5b81811015613f6457613f59600082613f2d565b600181019050613f46565b5050565b601f821115613fa957613f7a81613e49565b613f8384613e5e565b81016020851015613f92578190505b613fa6613f9e85613e5e565b830182613f45565b50505b505050565b600082821c905092915050565b6000613fcc60001984600802613fae565b1980831691505092915050565b6000613fe58383613fbb565b9150826002028217905092915050565b613ffe82613299565b67ffffffffffffffff811115614017576140166133c1565b5b6140218254613bd6565b61402c828285613f68565b600060209050601f83116001811461405f576000841561404d578287015190505b6140578582613fd9565b8655506140bf565b601f19841661406d86613e49565b60005b8281101561409557848901518255600182019150602085019450602081019050614070565b868310156140b257848901516140ae601f891682613fbb565b8355505b6001600288020188555050505b505050505050565b60006140d2826130ff565b91506140dd836130ff565b92508282019050808211156140f5576140f4613ac5565b5b92915050565b7f4552433732313a2063616c6c6572206973206e6f7420746f6b656e206f776e6560008201527f72206f7220617070726f76656400000000000000000000000000000000000000602082015250565b6000614157602d836132a4565b9150614162826140fb565b604082019050919050565b600060208201905081810360008301526141868161414a565b9050919050565b7f4f6e6c7920726567697374657265642075736572732063616e2063616c6c207460008201527f6869730000000000000000000000000000000000000000000000000000000000602082015250565b60006141e96023836132a4565b91506141f48261418d565b604082019050919050565b60006020820190508181036000830152614218816141dc565b9050919050565b7f55736572206e6f74207265676973746572656400000000000000000000000000600082015250565b60006142556013836132a4565b91506142608261421f565b602082019050919050565b6000602082019050818103600083015261428481614248565b9050919050565b7f496e76616c69642062616c616e63650000000000000000000000000000000000600082015250565b60006142c1600f836132a4565b91506142cc8261428b565b602082019050919050565b600060208201905081810360008301526142f0816142b4565b9050919050565b7f4f6e6c79206f776e65722063616e2063616c6c20746869730000000000000000600082015250565b600061432d6018836132a4565b9150614338826142f7565b602082019050919050565b6000602082019050818103600083015261435c81614320565b9050919050565b7f55736572206e6f7420666f756e64000000000000000000000000000000000000600082015250565b6000614399600e836132a4565b91506143a482614363565b602082019050919050565b600060208201905081810360008301526143c88161438c565b9050919050565b7f5573657220697320616c7265616479204469737472696275746f720000000000600082015250565b6000614405601b836132a4565b9150614410826143cf565b602082019050919050565b60006020820190508181036000830152614434816143f8565b9050919050565b7f4e6f417373657445786973747300000000000000000000000000000000000000600082015250565b6000614471600d836132a4565b915061447c8261443b565b602082019050919050565b600060208201905081810360008301526144a081614464565b9050919050565b7f4552433732313a2061646472657373207a65726f206973206e6f74206120766160008201527f6c6964206f776e65720000000000000000000000000000000000000000000000602082015250565b60006145036029836132a4565b915061450e826144a7565b604082019050919050565b60006020820190508181036000830152614532816144f6565b9050919050565b7f496e76616c696420696e70757420706172616d65746572000000000000000000600082015250565b600061456f6017836132a4565b915061457a82614539565b602082019050919050565b6000602082019050818103600083015261459e81614562565b9050919050565b7f524543206e6f7420666f756e6400000000000000000000000000000000000000600082015250565b60006145db600d836132a4565b91506145e6826145a5565b602082019050919050565b6000602082019050818103600083015261460a816145ce565b9050919050565b7f496e73756666696369656e742062616c616e6365000000000000000000000000600082015250565b60006146476014836132a4565b915061465282614611565b602082019050919050565b600060208201905081810360008301526146768161463a565b9050919050565b7f4552433732313a2062616c616e636520717565727920666f7220746865207a6560008201527f726f206164647265737300000000000000000000000000000000000000000000602082015250565b60006146d9602a836132a4565b91506146e48261467d565b604082019050919050565b60006020820190508181036000830152614708816146cc565b9050919050565b7f5573657220616c72656164792072656769737465726564000000000000000000600082015250565b60006147456017836132a4565b91506147508261470f565b602082019050919050565b6000602082019050818103600083015261477481614738565b9050919050565b600081905092915050565b600061479182613299565b61479b818561477b565b93506147ab8185602086016132b5565b80840191505092915050565b60006147c38285614786565b91506147cf8284614786565b91508190509392505050565b7f5573657220697320616c72656164792052656769737465726564000000000000600082015250565b6000614811601a836132a4565b915061481c826147db565b602082019050919050565b6000602082019050818103600083015261484081614804565b9050919050565b7f4552433732313a206f70657261746f7220717565727920666f72206e6f6e657860008201527f697374656e7420746f6b656e0000000000000000000000000000000000000000602082015250565b60006148a3602c836132a4565b91506148ae82614847565b604082019050919050565b600060208201905081810360008301526148d281614896565b9050919050565b7f5a65726f416464726573734d696e6974696e6700000000000000000000000000600082015250565b600061490f6013836132a4565b915061491a826148d9565b602082019050919050565b6000602082019050818103600083015261493e81614902565b9050919050565b7f416c72656164794d696e74656400000000000000000000000000000000000000600082015250565b600061497b600d836132a4565b915061498682614945565b602082019050919050565b600060208201905081810360008301526149aa8161496e565b9050919050565b7f4552433732313a207472616e736665722066726f6d20696e636f72726563742060008201527f6f776e6572000000000000000000000000000000000000000000000000000000602082015250565b6000614a0d6025836132a4565b9150614a18826149b1565b604082019050919050565b60006020820190508181036000830152614a3c81614a00565b9050919050565b7f4552433732313a207472616e7366657220746f20746865207a65726f2061646460008201527f7265737300000000000000000000000000000000000000000000000000000000602082015250565b6000614a9f6024836132a4565b9150614aaa82614a43565b604082019050919050565b60006020820190508181036000830152614ace81614a92565b9050919050565b7f4552433732313a20617070726f766520746f2063616c6c657200000000000000600082015250565b6000614b0b6019836132a4565b9150614b1682614ad5565b602082019050919050565b60006020820190508181036000830152614b3a81614afe565b9050919050565b7f4552433732313a207472616e7366657220746f206e6f6e20455243373231526560008201527f63656976657220696d706c656d656e7465720000000000000000000000000000602082015250565b6000614b9d6032836132a4565b9150614ba882614b41565b604082019050919050565b60006020820190508181036000830152614bcc81614b90565b9050919050565b7f4552433732313a20696e76616c696420746f6b656e2049440000000000000000600082015250565b6000614c096018836132a4565b9150614c1482614bd3565b602082019050919050565b60006020820190508181036000830152614c3881614bfc565b9050919050565b7f4e487b7100000000000000000000000000000000000000000000000000000000600052601260045260246000fd5b600081519050919050565b600082825260208201905092915050565b6000614c9582614c6e565b614c9f8185614c79565b9350614caf8185602086016132b5565b614cb8816132df565b840191505092915050565b6000608082019050614cd8600083018761326f565b614ce5602083018661326f565b614cf260408301856135ef565b8181036060830152614d048184614c8a565b905095945050505050565b600081519050614d1e816131a1565b92915050565b600060208284031215614d3a57614d39613097565b5b6000614d4884828501614d0f565b9150509291505056fea2646970667358221220a3fc41310d5b4fe4cdb06f10ce13e684684a8c6d5263795d827ff67d26ed2da864736f6c63430008130033",
  "immutableReferences": {},
  "source": "// SPDX-License-Identifier: UNLICENSED\npragma solidity ^0.8.1;\n\nimport \"@openzeppelin/contracts/token/ERC721/ERC721.sol\";\n\ncontract RenewableEnergyToken is ERC721 {\n    \n    address public owner;\n    \n    struct User {\n        string id;\n        string name;\n        uint balance;\n        REC[] certificates;\n        bool isDistributor;\n        bool isRegistered;\n    }\n    \n    struct REC {\n        uint id;\n        string name;\n        uint quantity;\n        uint price;\n        Status status;\n    }\n\n    uint public recCount;\n    mapping(uint => REC) public recs;\n    mapping(uint => address) private recOwner;\n    mapping (address => uint256) private ownedAssetsCount;    \n    mapping (uint256 => address) public assetApprovals;\n\n    address[]  addressList;\n    \n    enum Status {Available, Sold}\n    \n    mapping(address => User) users;\n\n    //Events\n    //event Transfer(address indexed from, address indexed to, uint256 indexed tokenId);\n    //event Approval(address indexed owner, address indexed approved, uint256 indexed tokenId);\n\n    constructor() ERC721(\"RenewableEnergyToken\", \"RET\") {\n        owner = msg.sender;\n    }\n\n    modifier onlyOwner() {\n        require(msg.sender == owner, \"Only owner can call this\");\n        _;\n    }\n\n    modifier onlyRegistered() {\n        require(users[msg.sender].isRegistered, \"Only registered users can call this\");\n        _;\n    }\n\n    modifier onlyDistributor() {\n        require(msg.sender == owner || users[msg.sender].isDistributor, \"Only distributor can call this\");\n        _;\n    }\n\n\tfunction getUserRole(address user) public view returns (string memory) {\n\t\tif (user == owner) {\n\t\t\treturn \"owner\";\n\t\t} else if (users[user].isDistributor) {\n\t\t\treturn \"distributor\";\n\t\t} else if (users[user].isRegistered) {\n\t\t\treturn \"registered\";\n\t\t} else {\n\t\t\treturn \"none\";\n\t\t}\n\t}\n\n    //ERC721 methods\n\n\tfunction balanceOf() public view returns (uint256)  {\n        require(msg.sender != address(0), \"ERC721: balance query for the zero address\");\n\n        return ownedAssetsCount[msg.sender];\n    }\n    \n     function ownerOf(uint256 assetId) public view override returns (address) {\n         address owner = recOwner[assetId];\n         require(owner != address(0), \"NoAssetExists\");\n         return owner;\n     }\n    \n    function transferFrom(address payable from, uint256 recId) public payable{\n        require(isApprovedOrOwner(msg.sender, recId), \"NotAnApprovedOwner\");\n        require(ownerOf(recId) == from, \"NotTheassetOwner\");\n        clearApproval(recId,getApproved(recId));\n        ownedAssetsCount[from]--;\n        ownedAssetsCount[msg.sender]++;\n        recOwner[recId] = msg.sender;\n        from.transfer(recs[recId].price * 1000000000000000000);\n        emit Transfer(from, msg.sender, recId);\n    }\n\n    function approve(address to,uint256 assetId) public override {\n        address owner = ownerOf(assetId);\n        require(to != owner, \"CurrentOwnerApproval\");\n        require(msg.sender == owner,\"NotTheAssetOwner\");\n        assetApprovals[assetId] = to;\n        emit Approval(owner, to, assetId);\n    }\n\n    function getApproved(uint256 assetId) public view override returns (address) {\n        require(exists(assetId), \"ERC721: approved query for nonexistent token\");\n        return assetApprovals[assetId];\n    }\n    \n\tfunction clearApproval(uint256 assetId,address approved) public {\n        if (assetApprovals[assetId]==approved){\n            assetApprovals[assetId] = address(0);\n        }\n    }\n\n    // Function used internally by other methods\n    function mint(address to, uint256 recId) internal {\n        require(to != address(0), \"ZeroAddressMiniting\");\n        require(!exists(recId), \"AlreadyMinted\");\n        recOwner[recId] = to;\n        ownedAssetsCount[to]++;\n        emit Transfer(address(0), to, recId);\n    }\n\n    function exists(uint256 assetId) internal view returns (bool) {\n        return recOwner[assetId] != address(0);\n    }\n\n    function isApprovedOrOwner(address spender, uint256 assetId) internal view returns (bool) {\n        require(exists(assetId), \"ERC721: operator query for nonexistent token\");\n        address owner = ownerOf(assetId);\n        return (spender == owner || getApproved(assetId) == spender);\n    }\n\n    //REC functions\n    function generateREC(string memory name, uint quantity, uint price, address sellerAddress) public onlyDistributor payable {\n        require(bytes(name).length > 0 && quantity > 0 && price > 0 && sellerAddress!=address(0), \"Invalid input parameters\");\n\n        recs[recCount] =  REC(recCount, name, quantity, price, Status.Available);\n        \n        mint(sellerAddress,recCount);\n        recCount = recCount+1;\n    }\n\n    /*\n    function getCertificatesOfUser() public view onlyRegistered returns (REC[] memory) {\n        return users[msg.sender].certificates;\n    }\n\n    function getAllCertificates() public view onlyRegistered returns (REC[] memory) {\n        uint totalCertificates;\n        for (uint i = 0; i < addressList.length; i++) {\n            totalCertificates += users[addressList[i]].certificates.length;\n        }\n\n        REC[] memory allCertificates = new REC[](totalCertificates);\n        uint currentIndex = 0;\n        for (uint i = 0; i < addressList.length; i++) {\n            REC[] memory userCertificates = users[addressList[i]].certificates;\n            for (uint j = 0; j < userCertificates.length; j++) {\n                allCertificates[currentIndex] = userCertificates[j];\n                currentIndex++;\n            }\n        }\n\n        return allCertificates;\n    }\n    */\n\n\tfunction getCertificate(uint id) public view onlyRegistered returns (uint, string memory, uint, uint,address, Status) {\n        REC memory rec = recs[id];\n        return (id, rec.name, rec.quantity, rec.price, recOwner[id], rec.status);\n    }\n\n    function verifyREC(uint id) public view onlyRegistered returns (bool) {\n        require(id>=0, \"Invalid input parameter\");\n\n        REC storage rec = recs[id];\n        require(id<recCount, \"REC not found\");\n\n        User storage user = users[msg.sender];\n        require(user.balance >= rec.price, \"Insufficient balance\");\n        return true;\n    }\n\n    /*\n    function buyREC(uint id) public onlyRegistered payable {\n        REC storage rec = recs[id];\n        require(id>=0 && id<recCount, \"REC not found\");\n        require(rec.status == Status.Available, \"REC not available for purchase\");\n\n        User storage buyer = users[msg.sender];\n        require(buyer.balance >= rec.price, \"Insufficient balance\");\n\n        User storage seller = users[recOwner[id]];\n        seller.balance += rec.price;\n\n        buyer.balance -= rec.price;\n        buyer.certificates.push(rec);\n        rec.status = Status.Sold;\n        recOwner[id] = msg.sender;\n    }\n\n    function sellREC(uint id, uint price) public onlyRegistered {\n        REC storage rec = recs[id];\n        require(id>=0 && id<recCount, \"REC not found\");\n        require(rec.status == Status.Available, \"Cannot update price for sold REC\");\n        require(recOwner[id] == address(0) || recOwner[id] == msg.sender, \"Only seller can update price\");\n\n        rec.price = price;\n        recOwner[id] = msg.sender;\n        rec.status = Status.Available;\n    }\n    */\n\n    function approveDistributor(address userAddress) public onlyOwner {\n        User storage user = users[userAddress];\n        require(bytes(user.id).length > 0, \"User not found\");\n        require(!user.isRegistered, \"User is already Distributor\");\n\n        user.isDistributor = true;\n        user.isRegistered = true;\n    }\n\n    function approveUser(address userAddress) public onlyDistributor {\n        User storage user = users[userAddress];\n        require(bytes(user.id).length > 0, \"User not found\");\n        require(!user.isRegistered, \"User is already Registered\");\n\n        user.isRegistered = true;\n    }\n\n    function selfRegister(string memory id, string memory name, address userAddress) public {\n        require(bytes(id).length > 0 && bytes(name).length > 0, \"Invalid input parameters\");\n\n        User storage user = users[msg.sender];\n        require(bytes(user.id).length == 0, \"User already registered\");\n\n        user.id = id;\n        user.name = name;\n        user.balance = 0; \n        user.isDistributor = false;\n        addressList.push((userAddress));\n    }\n\n    function topupBalance() public onlyRegistered payable {\n        User storage user = users[msg.sender];\n        require(bytes(user.id).length != 0, \"User not registered\");\n        require(msg.value >= 0, \"Invalid balance\");\n\n        user.balance += msg.value;\n    }\n}",
  "sourcePath": "/Users/sandeepkunusoth/Downloads/blockchain-project/cse526/renewableenergytoken-contract/contracts/RenewableEnergyToken.sol",
  "compiler": {
    "name": "solc",
    "version": "0.8.19+commit.7dd6d404.Emscripten.clang"
  },
  "schemaVersion": "3.4.13",
  "updatedAt": "2023-04-30T15:24:58.060Z",
  "networkType": "ethereum",
  "devdoc": {
    "events": {
      "Approval(address,address,uint256)": {
        "details": "Emitted when `owner` enables `approved` to manage the `tokenId` token."
      },
      "ApprovalForAll(address,address,bool)": {
        "details": "Emitted when `owner` enables or disables (`approved`) `operator` to manage all of its assets."
      },
      "Transfer(address,address,uint256)": {
        "details": "Emitted when `tokenId` token is transferred from `from` to `to`."
      }
    },
    "kind": "dev",
    "methods": {
      "balanceOf(address)": {
        "details": "See {IERC721-balanceOf}."
      },
      "isApprovedForAll(address,address)": {
        "details": "See {IERC721-isApprovedForAll}."
      },
      "name()": {
        "details": "See {IERC721Metadata-name}."
      },
      "safeTransferFrom(address,address,uint256)": {
        "details": "See {IERC721-safeTransferFrom}."
      },
      "safeTransferFrom(address,address,uint256,bytes)": {
        "details": "See {IERC721-safeTransferFrom}."
      },
      "setApprovalForAll(address,bool)": {
        "details": "See {IERC721-setApprovalForAll}."
      },
      "supportsInterface(bytes4)": {
        "details": "See {IERC165-supportsInterface}."
      },
      "symbol()": {
        "details": "See {IERC721Metadata-symbol}."
      },
      "tokenURI(uint256)": {
        "details": "See {IERC721Metadata-tokenURI}."
      },
      "transferFrom(address,address,uint256)": {
        "details": "See {IERC721-transferFrom}."
      }
    },
    "version": 1
  },
  "userdoc": {
    "kind": "user",
    "methods": {},
    "version": 1
  }
}