{
  "contractName": "RenewableEnergyToken",
  "abi": [
    {
      "inputs": [],
      "stateMutability": "nonpayable",
      "type": "constructor"
    },
    {
      "anonymous": false,
      "inputs": [
        {
          "indexed": true,
          "internalType": "address",
          "name": "owner",
          "type": "address"
        },
        {
          "indexed": true,
          "internalType": "address",
          "name": "approved",
          "type": "address"
        },
        {
          "indexed": true,
          "internalType": "uint256",
          "name": "tokenId",
          "type": "uint256"
        }
      ],
      "name": "Approval",
      "type": "event"
    },
    {
      "anonymous": false,
      "inputs": [
        {
          "indexed": true,
          "internalType": "address",
          "name": "owner",
          "type": "address"
        },
        {
          "indexed": true,
          "internalType": "address",
          "name": "operator",
          "type": "address"
        },
        {
          "indexed": false,
          "internalType": "bool",
          "name": "approved",
          "type": "bool"
        }
      ],
      "name": "ApprovalForAll",
      "type": "event"
    },
    {
      "anonymous": false,
      "inputs": [
        {
          "indexed": true,
          "internalType": "address",
          "name": "from",
          "type": "address"
        },
        {
          "indexed": true,
          "internalType": "address",
          "name": "to",
          "type": "address"
        },
        {
          "indexed": true,
          "internalType": "uint256",
          "name": "tokenId",
          "type": "uint256"
        }
      ],
      "name": "Transfer",
      "type": "event"
    },
    {
      "inputs": [
        {
          "internalType": "uint256",
          "name": "",
          "type": "uint256"
        }
      ],
      "name": "assetApprovals",
      "outputs": [
        {
          "internalType": "address",
          "name": "",
          "type": "address"
        }
      ],
      "stateMutability": "view",
      "type": "function",
      "constant": true
    },
    {
      "inputs": [
        {
          "internalType": "address",
          "name": "owner",
          "type": "address"
        },
        {
          "internalType": "address",
          "name": "operator",
          "type": "address"
        }
      ],
      "name": "isApprovedForAll",
      "outputs": [
        {
          "internalType": "bool",
          "name": "",
          "type": "bool"
        }
      ],
      "stateMutability": "view",
      "type": "function",
      "constant": true
    },
    {
      "inputs": [],
      "name": "name",
      "outputs": [
        {
          "internalType": "string",
          "name": "",
          "type": "string"
        }
      ],
      "stateMutability": "view",
      "type": "function",
      "constant": true
    },
    {
      "inputs": [],
      "name": "owner",
      "outputs": [
        {
          "internalType": "address",
          "name": "",
          "type": "address"
        }
      ],
      "stateMutability": "view",
      "type": "function",
      "constant": true
    },
    {
      "inputs": [],
      "name": "recCount",
      "outputs": [
        {
          "internalType": "uint256",
          "name": "",
          "type": "uint256"
        }
      ],
      "stateMutability": "view",
      "type": "function",
      "constant": true
    },
    {
      "inputs": [
        {
          "internalType": "uint256",
          "name": "",
          "type": "uint256"
        }
      ],
      "name": "recs",
      "outputs": [
        {
          "internalType": "uint256",
          "name": "id",
          "type": "uint256"
        },
        {
          "internalType": "string",
          "name": "name",
          "type": "string"
        },
        {
          "internalType": "uint256",
          "name": "quantity",
          "type": "uint256"
        },
        {
          "internalType": "uint256",
          "name": "price",
          "type": "uint256"
        },
        {
          "internalType": "enum RenewableEnergyToken.Status",
          "name": "status",
          "type": "uint8"
        }
      ],
      "stateMutability": "view",
      "type": "function",
      "constant": true
    },
    {
      "inputs": [
        {
          "internalType": "address",
          "name": "from",
          "type": "address"
        },
        {
          "internalType": "address",
          "name": "to",
          "type": "address"
        },
        {
          "internalType": "uint256",
          "name": "tokenId",
          "type": "uint256"
        }
      ],
      "name": "safeTransferFrom",
      "outputs": [],
      "stateMutability": "nonpayable",
      "type": "function"
    },
    {
      "inputs": [
        {
          "internalType": "address",
          "name": "from",
          "type": "address"
        },
        {
          "internalType": "address",
          "name": "to",
          "type": "address"
        },
        {
          "internalType": "uint256",
          "name": "tokenId",
          "type": "uint256"
        },
        {
          "internalType": "bytes",
          "name": "data",
          "type": "bytes"
        }
      ],
      "name": "safeTransferFrom",
      "outputs": [],
      "stateMutability": "nonpayable",
      "type": "function"
    },
    {
      "inputs": [
        {
          "internalType": "address",
          "name": "operator",
          "type": "address"
        },
        {
          "internalType": "bool",
          "name": "approved",
          "type": "bool"
        }
      ],
      "name": "setApprovalForAll",
      "outputs": [],
      "stateMutability": "nonpayable",
      "type": "function"
    },
    {
      "inputs": [
        {
          "internalType": "bytes4",
          "name": "interfaceId",
          "type": "bytes4"
        }
      ],
      "name": "supportsInterface",
      "outputs": [
        {
          "internalType": "bool",
          "name": "",
          "type": "bool"
        }
      ],
      "stateMutability": "view",
      "type": "function",
      "constant": true
    },
    {
      "inputs": [],
      "name": "symbol",
      "outputs": [
        {
          "internalType": "string",
          "name": "",
          "type": "string"
        }
      ],
      "stateMutability": "view",
      "type": "function",
      "constant": true
    },
    {
      "inputs": [
        {
          "internalType": "uint256",
          "name": "tokenId",
          "type": "uint256"
        }
      ],
      "name": "tokenURI",
      "outputs": [
        {
          "internalType": "string",
          "name": "",
          "type": "string"
        }
      ],
      "stateMutability": "view",
      "type": "function",
      "constant": true
    },
    {
      "inputs": [
        {
          "internalType": "address",
          "name": "user",
          "type": "address"
        }
      ],
      "name": "getUserRole",
      "outputs": [
        {
          "internalType": "string",
          "name": "",
          "type": "string"
        }
      ],
      "stateMutability": "view",
      "type": "function",
      "constant": true
    },
    {
      "inputs": [
        {
          "internalType": "address",
          "name": "owner",
          "type": "address"
        }
      ],
      "name": "balanceOf",
      "outputs": [
        {
          "internalType": "uint256",
          "name": "",
          "type": "uint256"
        }
      ],
      "stateMutability": "view",
      "type": "function",
      "constant": true
    },
    {
      "inputs": [],
      "name": "balanceOf",
      "outputs": [
        {
          "internalType": "uint256",
          "name": "",
          "type": "uint256"
        }
      ],
      "stateMutability": "view",
      "type": "function",
      "constant": true
    },
    {
      "inputs": [
        {
          "internalType": "uint256",
          "name": "assetId",
          "type": "uint256"
        }
      ],
      "name": "ownerOf",
      "outputs": [
        {
          "internalType": "address",
          "name": "",
          "type": "address"
        }
      ],
      "stateMutability": "view",
      "type": "function",
      "constant": true
    },
    {
      "inputs": [
        {
          "internalType": "uint256",
          "name": "assetId",
          "type": "uint256"
        },
        {
          "internalType": "uint256",
          "name": "value",
          "type": "uint256"
        }
      ],
      "name": "appreciate",
      "outputs": [],
      "stateMutability": "nonpayable",
      "type": "function"
    },
    {
      "inputs": [
        {
          "internalType": "uint256",
          "name": "assetId",
          "type": "uint256"
        },
        {
          "internalType": "uint256",
          "name": "value",
          "type": "uint256"
        }
      ],
      "name": "depreciate",
      "outputs": [],
      "stateMutability": "nonpayable",
      "type": "function"
    },
    {
      "inputs": [
        {
          "internalType": "address payable",
          "name": "from",
          "type": "address"
        },
        {
          "internalType": "uint256",
          "name": "recId",
          "type": "uint256"
        }
      ],
      "name": "transferFrom",
      "outputs": [],
      "stateMutability": "payable",
      "type": "function",
      "payable": true
    },
    {
      "inputs": [
        {
          "internalType": "address",
          "name": "from",
          "type": "address"
        },
        {
          "internalType": "address",
          "name": "to",
          "type": "address"
        },
        {
          "internalType": "uint256",
          "name": "tokenId",
          "type": "uint256"
        }
      ],
      "name": "transferFrom",
      "outputs": [],
      "stateMutability": "nonpayable",
      "type": "function"
    },
    {
      "inputs": [
        {
          "internalType": "address",
          "name": "to",
          "type": "address"
        },
        {
          "internalType": "uint256",
          "name": "assetId",
          "type": "uint256"
        }
      ],
      "name": "approve",
      "outputs": [],
      "stateMutability": "nonpayable",
      "type": "function"
    },
    {
      "inputs": [
        {
          "internalType": "uint256",
          "name": "assetId",
          "type": "uint256"
        }
      ],
      "name": "getApproved",
      "outputs": [
        {
          "internalType": "address",
          "name": "",
          "type": "address"
        }
      ],
      "stateMutability": "view",
      "type": "function",
      "constant": true
    },
    {
      "inputs": [
        {
          "internalType": "uint256",
          "name": "assetId",
          "type": "uint256"
        },
        {
          "internalType": "address",
          "name": "approved",
          "type": "address"
        }
      ],
      "name": "clearApproval",
      "outputs": [],
      "stateMutability": "nonpayable",
      "type": "function"
    },
    {
      "inputs": [
        {
          "internalType": "string",
          "name": "name",
          "type": "string"
        },
        {
          "internalType": "uint256",
          "name": "quantity",
          "type": "uint256"
        },
        {
          "internalType": "uint256",
          "name": "price",
          "type": "uint256"
        },
        {
          "internalType": "address",
          "name": "sellerAddress",
          "type": "address"
        }
      ],
      "name": "generateREC",
      "outputs": [],
      "stateMutability": "payable",
      "type": "function",
      "payable": true
    },
    {
      "inputs": [
        {
          "internalType": "uint256",
          "name": "id",
          "type": "uint256"
        }
      ],
      "name": "getCertificate",
      "outputs": [
        {
          "internalType": "uint256",
          "name": "",
          "type": "uint256"
        },
        {
          "internalType": "string",
          "name": "",
          "type": "string"
        },
        {
          "internalType": "uint256",
          "name": "",
          "type": "uint256"
        },
        {
          "internalType": "uint256",
          "name": "",
          "type": "uint256"
        },
        {
          "internalType": "address",
          "name": "",
          "type": "address"
        },
        {
          "internalType": "enum RenewableEnergyToken.Status",
          "name": "",
          "type": "uint8"
        }
      ],
      "stateMutability": "view",
      "type": "function",
      "constant": true
    },
    {
      "inputs": [
        {
          "internalType": "uint256",
          "name": "id",
          "type": "uint256"
        }
      ],
      "name": "verifyREC",
      "outputs": [
        {
          "internalType": "bool",
          "name": "",
          "type": "bool"
        }
      ],
      "stateMutability": "view",
      "type": "function",
      "constant": true
    },
    {
      "inputs": [
        {
          "internalType": "address",
          "name": "userAddress",
          "type": "address"
        }
      ],
      "name": "approveDistributor",
      "outputs": [],
      "stateMutability": "nonpayable",
      "type": "function"
    },
    {
      "inputs": [
        {
          "internalType": "address",
          "name": "userAddress",
          "type": "address"
        }
      ],
      "name": "approveUser",
      "outputs": [],
      "stateMutability": "nonpayable",
      "type": "function"
    },
    {
      "inputs": [
        {
          "internalType": "string",
          "name": "id",
          "type": "string"
        },
        {
          "internalType": "string",
          "name": "name",
          "type": "string"
        },
        {
          "internalType": "address",
          "name": "userAddress",
          "type": "address"
        }
      ],
      "name": "selfRegister",
      "outputs": [],
      "stateMutability": "nonpayable",
      "type": "function"
    },
    {
      "inputs": [],
      "name": "topupBalance",
      "outputs": [],
      "stateMutability": "payable",
      "type": "function",
      "payable": true
    }
  ],
  "bytecode": "0x60806040523480156200001157600080fd5b506040518060400160405280601481526020017f52656e657761626c65456e65726779546f6b656e0000000000000000000000008152506040518060400160405280600381526020017f524554000000000000000000000000000000000000000000000000000000000081525081600090816200008f919062000365565b508060019081620000a1919062000365565b50505033600660006101000a81548173ffffffffffffffffffffffffffffffffffffffff021916908373ffffffffffffffffffffffffffffffffffffffff1602179055506200044c565b600081519050919050565b7f4e487b7100000000000000000000000000000000000000000000000000000000600052604160045260246000fd5b7f4e487b7100000000000000000000000000000000000000000000000000000000600052602260045260246000fd5b600060028204905060018216806200016d57607f821691505b60208210810362000183576200018262000125565b5b50919050565b60008190508160005260206000209050919050565b60006020601f8301049050919050565b600082821b905092915050565b600060088302620001ed7fffffffffffffffffffffffffffffffffffffffffffffffffffffffffffffffff82620001ae565b620001f98683620001ae565b95508019841693508086168417925050509392505050565b6000819050919050565b6000819050919050565b600062000246620002406200023a8462000211565b6200021b565b62000211565b9050919050565b6000819050919050565b620002628362000225565b6200027a62000271826200024d565b848454620001bb565b825550505050565b600090565b6200029162000282565b6200029e81848462000257565b505050565b5b81811015620002c657620002ba60008262000287565b600181019050620002a4565b5050565b601f8211156200031557620002df8162000189565b620002ea846200019e565b81016020851015620002fa578190505b6200031262000309856200019e565b830182620002a3565b50505b505050565b600082821c905092915050565b60006200033a600019846008026200031a565b1980831691505092915050565b600062000355838362000327565b9150826002028217905092915050565b6200037082620000eb565b67ffffffffffffffff8111156200038c576200038b620000f6565b5b62000398825462000154565b620003a5828285620002ca565b600060209050601f831160018114620003dd5760008415620003c8578287015190505b620003d4858262000347565b86555062000444565b601f198416620003ed8662000189565b60005b828110156200041757848901518255600182019150602085019450602081019050620003f0565b8683101562000437578489015162000433601f89168262000327565b8355505b6001600288020188555050505b505050505050565b61526c806200045c6000396000f3fe6080604052600436106101cd5760003560e01c80636352211e116100f757806395d89b4111610095578063c87b56dd11610064578063c87b56dd1461068a578063d624fdb6146106c7578063daa5fe2d146106f0578063e985e9c514610719576101cd565b806395d89b41146105e45780639f980f911461060f578063a22cb46514610638578063b88d4fde14610661576101cd565b8063722713f7116100d1578063722713f71461052457806384acbb891461054f5780638da5cb5b1461059057806395084a41146105bb576101cd565b80636352211e1461046d57806370a08231146104aa57806371e06925146104e7576101cd565b806323b872dd1161016f57806342842e0e1161013e57806342842e0e146103cf578063467ee321146103f8578063482aede51461040257806351640fee1461042b576101cd565b806323b872dd14610315578063278208511461033e5780632b34af511461037b57806334b1da13146103a4576101cd565b806306fdde03116101ab57806306fdde0314610268578063081812fc14610293578063095ea7b3146102d05780631630ed46146102f9576101cd565b806301c6adc3146101d257806301ffc9a7146101ee578063033857701461022b575b600080fd5b6101ec60048036038101906101e791906135a6565b610756565b005b3480156101fa57600080fd5b506102156004803603810190610210919061363e565b6109f2565b6040516102229190613686565b60405180910390f35b34801561023757600080fd5b50610252600480360381019061024d91906136a1565b610ad4565b60405161025f91906136ef565b60405180910390f35b34801561027457600080fd5b5061027d610b07565b60405161028a919061379a565b60405180910390f35b34801561029f57600080fd5b506102ba60048036038101906102b591906136a1565b610b99565b6040516102c791906136ef565b60405180910390f35b3480156102dc57600080fd5b506102f760048036038101906102f291906137e8565b610c1e565b005b610313600480360381019061030e919061395d565b610db9565b005b34801561032157600080fd5b5061033c600480360381019061033791906139e0565b611014565b005b34801561034a57600080fd5b5061036560048036038101906103609190613a33565b611074565b604051610372919061379a565b60405180910390f35b34801561038757600080fd5b506103a2600480360381019061039d9190613a60565b611305565b005b3480156103b057600080fd5b506103b961142c565b6040516103c69190613aaf565b60405180910390f35b3480156103db57600080fd5b506103f660048036038101906103f191906139e0565b611432565b005b610400611452565b005b34801561040e57600080fd5b5061042960048036038101906104249190613a33565b611631565b005b34801561043757600080fd5b50610452600480360381019061044d91906136a1565b6117e7565b60405161046496959493929190613b41565b60405180910390f35b34801561047957600080fd5b50610494600480360381019061048f91906136a1565b611a44565b6040516104a191906136ef565b60405180910390f35b3480156104b657600080fd5b506104d160048036038101906104cc9190613a33565b611af5565b6040516104de9190613aaf565b60405180910390f35b3480156104f357600080fd5b5061050e600480360381019061050991906136a1565b611bac565b60405161051b9190613686565b60405180910390f35b34801561053057600080fd5b50610539611dc9565b6040516105469190613aaf565b60405180910390f35b34801561055b57600080fd5b50610576600480360381019061057191906136a1565b611e7e565b604051610587959493929190613ba9565b60405180910390f35b34801561059c57600080fd5b506105a5611f49565b6040516105b291906136ef565b60405180910390f35b3480156105c757600080fd5b506105e260048036038101906105dd9190613c03565b611f6f565b005b3480156105f057600080fd5b506105f9612126565b604051610606919061379a565b60405180910390f35b34801561061b57600080fd5b5061063660048036038101906106319190613a60565b6121b8565b005b34801561064457600080fd5b5061065f600480360381019061065a9190613cba565b6122df565b005b34801561066d57600080fd5b5061068860048036038101906106839190613d9b565b6122f5565b005b34801561069657600080fd5b506106b160048036038101906106ac91906136a1565b612357565b6040516106be919061379a565b60405180910390f35b3480156106d357600080fd5b506106ee60048036038101906106e99190613a33565b6123bf565b005b3480156106fc57600080fd5b5061071760048036038101906107129190613e1e565b6125af565b005b34801561072557600080fd5b50610740600480360381019061073b9190613e5e565b61266d565b60405161074d9190613686565b60405180910390f35b6107603382612701565b61079f576040517f08c379a000000000000000000000000000000000000000000000000000000000815260040161079690613eea565b60405180910390fd5b8173ffffffffffffffffffffffffffffffffffffffff166107bf82611a44565b73ffffffffffffffffffffffffffffffffffffffff1614610815576040517f08c379a000000000000000000000000000000000000000000000000000000000815260040161080c90613f56565b60405180910390fd5b6108278161082283610b99565b6125af565b600a60008373ffffffffffffffffffffffffffffffffffffffff1673ffffffffffffffffffffffffffffffffffffffff168152602001908152602001600020600081548092919061087790613fa5565b9190505550600a60003373ffffffffffffffffffffffffffffffffffffffff1673ffffffffffffffffffffffffffffffffffffffff16815260200190815260200160002060008154809291906108cc90613fce565b9190505550336009600083815260200190815260200160002060006101000a81548173ffffffffffffffffffffffffffffffffffffffff021916908373ffffffffffffffffffffffffffffffffffffffff1602179055508173ffffffffffffffffffffffffffffffffffffffff166108fc670de0b6b3a764000060086000858152602001908152602001600020600301546109679190614016565b9081150290604051600060405180830381858888f19350505050158015610992573d6000803e3d6000fd5b50803373ffffffffffffffffffffffffffffffffffffffff168373ffffffffffffffffffffffffffffffffffffffff167fddf252ad1be2c89b69c2b068fc378daa952ba7f163c4a11628f55a4df523b3ef60405160405180910390a45050565b60007f80ac58cd000000000000000000000000000000000000000000000000000000007bffffffffffffffffffffffffffffffffffffffffffffffffffffffff1916827bffffffffffffffffffffffffffffffffffffffffffffffffffffffff19161480610abd57507f5b5e139f000000000000000000000000000000000000000000000000000000007bffffffffffffffffffffffffffffffffffffffffffffffffffffffff1916827bffffffffffffffffffffffffffffffffffffffffffffffffffffffff1916145b80610acd5750610acc826127ce565b5b9050919050565b600b6020528060005260406000206000915054906101000a900473ffffffffffffffffffffffffffffffffffffffff1681565b606060008054610b1690614087565b80601f0160208091040260200160405190810160405280929190818152602001828054610b4290614087565b8015610b8f5780601f10610b6457610100808354040283529160200191610b8f565b820191906000526020600020905b815481529060010190602001808311610b7257829003601f168201915b5050505050905090565b6000610ba482612838565b610be3576040517f08c379a0000000000000000000000000000000000000000000000000000000008152600401610bda9061412a565b60405180910390fd5b600b600083815260200190815260200160002060009054906101000a900473ffffffffffffffffffffffffffffffffffffffff169050919050565b6000610c2982611a44565b90508073ffffffffffffffffffffffffffffffffffffffff168373ffffffffffffffffffffffffffffffffffffffff1603610c99576040517f08c379a0000000000000000000000000000000000000000000000000000000008152600401610c9090614196565b60405180910390fd5b8073ffffffffffffffffffffffffffffffffffffffff163373ffffffffffffffffffffffffffffffffffffffff1614610d07576040517f08c379a0000000000000000000000000000000000000000000000000000000008152600401610cfe90614202565b60405180910390fd5b82600b600084815260200190815260200160002060006101000a81548173ffffffffffffffffffffffffffffffffffffffff021916908373ffffffffffffffffffffffffffffffffffffffff160217905550818373ffffffffffffffffffffffffffffffffffffffff168273ffffffffffffffffffffffffffffffffffffffff167f8c5be1e5ebec7d5bd14f71427d1e84f3dd0314c0f7b2291e5b200ac8c7c3b92560405160405180910390a4505050565b600660009054906101000a900473ffffffffffffffffffffffffffffffffffffffff1673ffffffffffffffffffffffffffffffffffffffff163373ffffffffffffffffffffffffffffffffffffffff161480610e615750600d60003373ffffffffffffffffffffffffffffffffffffffff1673ffffffffffffffffffffffffffffffffffffffff16815260200190815260200160002060040160009054906101000a900460ff165b610ea0576040517f08c379a0000000000000000000000000000000000000000000000000000000008152600401610e979061426e565b60405180910390fd5b60008451118015610eb15750600083115b8015610ebd5750600082115b8015610ef65750600073ffffffffffffffffffffffffffffffffffffffff168173ffffffffffffffffffffffffffffffffffffffff1614155b610f35576040517f08c379a0000000000000000000000000000000000000000000000000000000008152600401610f2c906142da565b60405180910390fd5b6040518060a00160405280600754815260200185815260200184815260200183815260200160006001811115610f6e57610f6d613aca565b5b815250600860006007548152602001908152602001600020600082015181600001556020820151816001019081610fa591906144a6565b50604082015181600201556060820151816003015560808201518160040160006101000a81548160ff02191690836001811115610fe557610fe4613aca565b5b0217905550905050610ff9816007546128a4565b60016007546110089190614578565b60078190555050505050565b61102561101f612a63565b82612a6b565b611064576040517f08c379a000000000000000000000000000000000000000000000000000000000815260040161105b9061461e565b60405180910390fd5b61106f838383612b00565b505050565b6060600660009054906101000a900473ffffffffffffffffffffffffffffffffffffffff1673ffffffffffffffffffffffffffffffffffffffff168273ffffffffffffffffffffffffffffffffffffffff1603611108576040518060400160405280600581526020017f6f776e65720000000000000000000000000000000000000000000000000000008152509050611300565b600d60008373ffffffffffffffffffffffffffffffffffffffff1673ffffffffffffffffffffffffffffffffffffffff16815260200190815260200160002060040160009054906101000a900460ff161561119a576040518060400160405280600b81526020017f6469737472696275746f720000000000000000000000000000000000000000008152509050611300565b600d60008373ffffffffffffffffffffffffffffffffffffffff1673ffffffffffffffffffffffffffffffffffffffff16815260200190815260200160002060040160019054906101000a900460ff161561122c576040518060400160405280600a81526020017f72656769737465726564000000000000000000000000000000000000000000008152509050611300565b6000600d60008473ffffffffffffffffffffffffffffffffffffffff1673ffffffffffffffffffffffffffffffffffffffff1681526020019081526020016000209050600081600001805461128090614087565b905011156112c6576040518060400160405280601081526020017f6e6f742079657420766572696669656400000000000000000000000000000000815250915050611300565b6040518060400160405280600481526020017f6e6f6e65000000000000000000000000000000000000000000000000000000008152509150505b919050565b600660009054906101000a900473ffffffffffffffffffffffffffffffffffffffff1673ffffffffffffffffffffffffffffffffffffffff163373ffffffffffffffffffffffffffffffffffffffff1614806113ad5750600d60003373ffffffffffffffffffffffffffffffffffffffff1673ffffffffffffffffffffffffffffffffffffffff16815260200190815260200160002060040160009054906101000a900460ff165b6113ec576040517f08c379a00000000000000000000000000000000000000000000000000000000081526004016113e39061426e565b60405180910390fd5b80600860008481526020019081526020016000206003015461140e9190614578565b60086000848152602001908152602001600020600301819055505050565b60075481565b61144d838383604051806020016040528060008152506122f5565b505050565b600660009054906101000a900473ffffffffffffffffffffffffffffffffffffffff1673ffffffffffffffffffffffffffffffffffffffff163373ffffffffffffffffffffffffffffffffffffffff1614806114fa5750600d60003373ffffffffffffffffffffffffffffffffffffffff1673ffffffffffffffffffffffffffffffffffffffff16815260200190815260200160002060040160019054906101000a900460ff165b611539576040517f08c379a0000000000000000000000000000000000000000000000000000000008152600401611530906146b0565b60405180910390fd5b6000600d60003373ffffffffffffffffffffffffffffffffffffffff1673ffffffffffffffffffffffffffffffffffffffff1681526020019081526020016000209050600081600001805461158d90614087565b9050036115cf576040517f08c379a00000000000000000000000000000000000000000000000000000000081526004016115c69061471c565b60405180910390fd5b6000341015611613576040517f08c379a000000000000000000000000000000000000000000000000000000000815260040161160a90614788565b60405180910390fd5b348160020160008282546116279190614578565b9250508190555050565b600660009054906101000a900473ffffffffffffffffffffffffffffffffffffffff1673ffffffffffffffffffffffffffffffffffffffff163373ffffffffffffffffffffffffffffffffffffffff16146116c1576040517f08c379a00000000000000000000000000000000000000000000000000000000081526004016116b8906147f4565b60405180910390fd5b6000600d60008373ffffffffffffffffffffffffffffffffffffffff1673ffffffffffffffffffffffffffffffffffffffff1681526020019081526020016000209050600081600001805461171590614087565b905011611757576040517f08c379a000000000000000000000000000000000000000000000000000000000815260040161174e90614860565b60405180910390fd5b8060040160009054906101000a900460ff16156117a9576040517f08c379a00000000000000000000000000000000000000000000000000000000081526004016117a0906148cc565b60405180910390fd5b60018160040160006101000a81548160ff02191690831515021790555060018160040160016101000a81548160ff0219169083151502179055505050565b60006060600080600080600660009054906101000a900473ffffffffffffffffffffffffffffffffffffffff1673ffffffffffffffffffffffffffffffffffffffff163373ffffffffffffffffffffffffffffffffffffffff1614806118995750600d60003373ffffffffffffffffffffffffffffffffffffffff1673ffffffffffffffffffffffffffffffffffffffff16815260200190815260200160002060040160019054906101000a900460ff165b6118d8576040517f08c379a00000000000000000000000000000000000000000000000000000000081526004016118cf906146b0565b60405180910390fd5b6000600860008981526020019081526020016000206040518060a00160405290816000820154815260200160018201805461191290614087565b80601f016020809104026020016040519081016040528092919081815260200182805461193e90614087565b801561198b5780601f106119605761010080835404028352916020019161198b565b820191906000526020600020905b81548152906001019060200180831161196e57829003601f168201915b5050505050815260200160028201548152602001600382015481526020016004820160009054906101000a900460ff1660018111156119cd576119cc613aca565b5b60018111156119df576119de613aca565b5b81525050905087816020015182604001518360600151600960008d815260200190815260200160002060009054906101000a900473ffffffffffffffffffffffffffffffffffffffff1685608001519650965096509650965096505091939550919395565b6000806009600084815260200190815260200160002060009054906101000a900473ffffffffffffffffffffffffffffffffffffffff169050600073ffffffffffffffffffffffffffffffffffffffff168173ffffffffffffffffffffffffffffffffffffffff1603611aec576040517f08c379a0000000000000000000000000000000000000000000000000000000008152600401611ae390614938565b60405180910390fd5b80915050919050565b60008073ffffffffffffffffffffffffffffffffffffffff168273ffffffffffffffffffffffffffffffffffffffff1603611b65576040517f08c379a0000000000000000000000000000000000000000000000000000000008152600401611b5c906149ca565b60405180910390fd5b600360008373ffffffffffffffffffffffffffffffffffffffff1673ffffffffffffffffffffffffffffffffffffffff168152602001908152602001600020549050919050565b6000600660009054906101000a900473ffffffffffffffffffffffffffffffffffffffff1673ffffffffffffffffffffffffffffffffffffffff163373ffffffffffffffffffffffffffffffffffffffff161480611c565750600d60003373ffffffffffffffffffffffffffffffffffffffff1673ffffffffffffffffffffffffffffffffffffffff16815260200190815260200160002060040160019054906101000a900460ff165b611c95576040517f08c379a0000000000000000000000000000000000000000000000000000000008152600401611c8c906146b0565b60405180910390fd5b6000821015611cd9576040517f08c379a0000000000000000000000000000000000000000000000000000000008152600401611cd090614a36565b60405180910390fd5b60006008600084815260200190815260200160002090506007548310611d34576040517f08c379a0000000000000000000000000000000000000000000000000000000008152600401611d2b90614aa2565b60405180910390fd5b6000600d60003373ffffffffffffffffffffffffffffffffffffffff1673ffffffffffffffffffffffffffffffffffffffff16815260200190815260200160002090508160030154471015611dbe576040517f08c379a0000000000000000000000000000000000000000000000000000000008152600401611db590614b0e565b60405180910390fd5b600192505050919050565b60008073ffffffffffffffffffffffffffffffffffffffff163373ffffffffffffffffffffffffffffffffffffffff1603611e39576040517f08c379a0000000000000000000000000000000000000000000000000000000008152600401611e3090614ba0565b60405180910390fd5b600a60003373ffffffffffffffffffffffffffffffffffffffff1673ffffffffffffffffffffffffffffffffffffffff16815260200190815260200160002054905090565b6008602052806000526040600020600091509050806000015490806001018054611ea790614087565b80601f0160208091040260200160405190810160405280929190818152602001828054611ed390614087565b8015611f205780601f10611ef557610100808354040283529160200191611f20565b820191906000526020600020905b815481529060010190602001808311611f0357829003601f168201915b5050505050908060020154908060030154908060040160009054906101000a900460ff16905085565b600660009054906101000a900473ffffffffffffffffffffffffffffffffffffffff1681565b60008351118015611f81575060008251115b611fc0576040517f08c379a0000000000000000000000000000000000000000000000000000000008152600401611fb7906142da565b60405180910390fd5b6000600d60003373ffffffffffffffffffffffffffffffffffffffff1673ffffffffffffffffffffffffffffffffffffffff1681526020019081526020016000209050600081600001805461201490614087565b905014612056576040517f08c379a000000000000000000000000000000000000000000000000000000000815260040161204d90614c0c565b60405180910390fd5b8381600001908161206791906144a6565b508281600101908161207991906144a6565b5047816002018190555060008160040160006101000a81548160ff02191690831515021790555060008160040160016101000a81548160ff021916908315150217905550600c829080600181540180825580915050600190039060005260206000200160009091909190916101000a81548173ffffffffffffffffffffffffffffffffffffffff021916908373ffffffffffffffffffffffffffffffffffffffff16021790555050505050565b60606001805461213590614087565b80601f016020809104026020016040519081016040528092919081815260200182805461216190614087565b80156121ae5780601f10612183576101008083540402835291602001916121ae565b820191906000526020600020905b81548152906001019060200180831161219157829003601f168201915b5050505050905090565b600660009054906101000a900473ffffffffffffffffffffffffffffffffffffffff1673ffffffffffffffffffffffffffffffffffffffff163373ffffffffffffffffffffffffffffffffffffffff1614806122605750600d60003373ffffffffffffffffffffffffffffffffffffffff1673ffffffffffffffffffffffffffffffffffffffff16815260200190815260200160002060040160009054906101000a900460ff165b61229f576040517f08c379a00000000000000000000000000000000000000000000000000000000081526004016122969061426e565b60405180910390fd5b8060086000848152602001908152602001600020600301546122c19190614c2c565b60086000848152602001908152602001600020600301819055505050565b6122f16122ea612a63565b8383612df9565b5050565b612306612300612a63565b83612a6b565b612345576040517f08c379a000000000000000000000000000000000000000000000000000000000815260040161233c9061461e565b60405180910390fd5b61235184848484612f65565b50505050565b606061236282612fc1565b600061236c61300c565b9050600081511161238c57604051806020016040528060008152506123b7565b8061239684613023565b6040516020016123a7929190614c9c565b6040516020818303038152906040525b915050919050565b600660009054906101000a900473ffffffffffffffffffffffffffffffffffffffff1673ffffffffffffffffffffffffffffffffffffffff163373ffffffffffffffffffffffffffffffffffffffff1614806124675750600d60003373ffffffffffffffffffffffffffffffffffffffff1673ffffffffffffffffffffffffffffffffffffffff16815260200190815260200160002060040160009054906101000a900460ff165b6124a6576040517f08c379a000000000000000000000000000000000000000000000000000000000815260040161249d9061426e565b60405180910390fd5b6000600d60008373ffffffffffffffffffffffffffffffffffffffff1673ffffffffffffffffffffffffffffffffffffffff168152602001908152602001600020905060008160000180546124fa90614087565b90501161253c576040517f08c379a000000000000000000000000000000000000000000000000000000000815260040161253390614860565b60405180910390fd5b8060040160019054906101000a900460ff161561258e576040517f08c379a000000000000000000000000000000000000000000000000000000000815260040161258590614d0c565b60405180910390fd5b60018160040160016101000a81548160ff0219169083151502179055505050565b8073ffffffffffffffffffffffffffffffffffffffff16600b600084815260200190815260200160002060009054906101000a900473ffffffffffffffffffffffffffffffffffffffff1673ffffffffffffffffffffffffffffffffffffffff1603612669576000600b600084815260200190815260200160002060006101000a81548173ffffffffffffffffffffffffffffffffffffffff021916908373ffffffffffffffffffffffffffffffffffffffff1602179055505b5050565b6000600560008473ffffffffffffffffffffffffffffffffffffffff1673ffffffffffffffffffffffffffffffffffffffff16815260200190815260200160002060008373ffffffffffffffffffffffffffffffffffffffff1673ffffffffffffffffffffffffffffffffffffffff16815260200190815260200160002060009054906101000a900460ff16905092915050565b600061270c82612838565b61274b576040517f08c379a000000000000000000000000000000000000000000000000000000000815260040161274290614d9e565b60405180910390fd5b600061275683611a44565b90508073ffffffffffffffffffffffffffffffffffffffff168473ffffffffffffffffffffffffffffffffffffffff1614806127c557508373ffffffffffffffffffffffffffffffffffffffff166127ad84610b99565b73ffffffffffffffffffffffffffffffffffffffff16145b91505092915050565b60007f01ffc9a7000000000000000000000000000000000000000000000000000000007bffffffffffffffffffffffffffffffffffffffffffffffffffffffff1916827bffffffffffffffffffffffffffffffffffffffffffffffffffffffff1916149050919050565b60008073ffffffffffffffffffffffffffffffffffffffff166009600084815260200190815260200160002060009054906101000a900473ffffffffffffffffffffffffffffffffffffffff1673ffffffffffffffffffffffffffffffffffffffff1614159050919050565b600073ffffffffffffffffffffffffffffffffffffffff168273ffffffffffffffffffffffffffffffffffffffff1603612913576040517f08c379a000000000000000000000000000000000000000000000000000000000815260040161290a90614e0a565b60405180910390fd5b61291c81612838565b1561295c576040517f08c379a000000000000000000000000000000000000000000000000000000000815260040161295390614e76565b60405180910390fd5b816009600083815260200190815260200160002060006101000a81548173ffffffffffffffffffffffffffffffffffffffff021916908373ffffffffffffffffffffffffffffffffffffffff160217905550600a60008373ffffffffffffffffffffffffffffffffffffffff1673ffffffffffffffffffffffffffffffffffffffff16815260200190815260200160002060008154809291906129fe90613fce565b9190505550808273ffffffffffffffffffffffffffffffffffffffff16600073ffffffffffffffffffffffffffffffffffffffff167fddf252ad1be2c89b69c2b068fc378daa952ba7f163c4a11628f55a4df523b3ef60405160405180910390a45050565b600033905090565b600080612a77836130f1565b90508073ffffffffffffffffffffffffffffffffffffffff168473ffffffffffffffffffffffffffffffffffffffff161480612ab95750612ab8818561266d565b5b80612af757508373ffffffffffffffffffffffffffffffffffffffff16612adf84610b99565b73ffffffffffffffffffffffffffffffffffffffff16145b91505092915050565b8273ffffffffffffffffffffffffffffffffffffffff16612b20826130f1565b73ffffffffffffffffffffffffffffffffffffffff1614612b76576040517f08c379a0000000000000000000000000000000000000000000000000000000008152600401612b6d90614f08565b60405180910390fd5b600073ffffffffffffffffffffffffffffffffffffffff168273ffffffffffffffffffffffffffffffffffffffff1603612be5576040517f08c379a0000000000000000000000000000000000000000000000000000000008152600401612bdc90614f9a565b60405180910390fd5b612bf28383836001613177565b8273ffffffffffffffffffffffffffffffffffffffff16612c12826130f1565b73ffffffffffffffffffffffffffffffffffffffff1614612c68576040517f08c379a0000000000000000000000000000000000000000000000000000000008152600401612c5f90614f08565b60405180910390fd5b6004600082815260200190815260200160002060006101000a81549073ffffffffffffffffffffffffffffffffffffffff02191690556001600360008573ffffffffffffffffffffffffffffffffffffffff1673ffffffffffffffffffffffffffffffffffffffff168152602001908152602001600020600082825403925050819055506001600360008473ffffffffffffffffffffffffffffffffffffffff1673ffffffffffffffffffffffffffffffffffffffff16815260200190815260200160002060008282540192505081905550816002600083815260200190815260200160002060006101000a81548173ffffffffffffffffffffffffffffffffffffffff021916908373ffffffffffffffffffffffffffffffffffffffff160217905550808273ffffffffffffffffffffffffffffffffffffffff168473ffffffffffffffffffffffffffffffffffffffff167fddf252ad1be2c89b69c2b068fc378daa952ba7f163c4a11628f55a4df523b3ef60405160405180910390a4612df4838383600161317d565b505050565b8173ffffffffffffffffffffffffffffffffffffffff168373ffffffffffffffffffffffffffffffffffffffff1603612e67576040517f08c379a0000000000000000000000000000000000000000000000000000000008152600401612e5e90615006565b60405180910390fd5b80600560008573ffffffffffffffffffffffffffffffffffffffff1673ffffffffffffffffffffffffffffffffffffffff16815260200190815260200160002060008473ffffffffffffffffffffffffffffffffffffffff1673ffffffffffffffffffffffffffffffffffffffff16815260200190815260200160002060006101000a81548160ff0219169083151502179055508173ffffffffffffffffffffffffffffffffffffffff168373ffffffffffffffffffffffffffffffffffffffff167f17307eab39ab6107e8899845ad3d59bd9653f200f220920489ca2b5937696c3183604051612f589190613686565b60405180910390a3505050565b612f70848484612b00565b612f7c84848484613183565b612fbb576040517f08c379a0000000000000000000000000000000000000000000000000000000008152600401612fb290615098565b60405180910390fd5b50505050565b612fca8161330a565b613009576040517f08c379a000000000000000000000000000000000000000000000000000000000815260040161300090615104565b60405180910390fd5b50565b606060405180602001604052806000815250905090565b6060600060016130328461334b565b01905060008167ffffffffffffffff81111561305157613050613832565b5b6040519080825280601f01601f1916602001820160405280156130835781602001600182028036833780820191505090505b509050600082602001820190505b6001156130e6578080600190039150507f3031323334353637383961626364656600000000000000000000000000000000600a86061a8153600a85816130da576130d9615124565b5b04945060008503613091575b819350505050919050565b6000806130fd8361349e565b9050600073ffffffffffffffffffffffffffffffffffffffff168173ffffffffffffffffffffffffffffffffffffffff160361316e576040517f08c379a000000000000000000000000000000000000000000000000000000000815260040161316590615104565b60405180910390fd5b80915050919050565b50505050565b50505050565b60006131a48473ffffffffffffffffffffffffffffffffffffffff166134db565b156132fd578373ffffffffffffffffffffffffffffffffffffffff1663150b7a026131cd612a63565b8786866040518563ffffffff1660e01b81526004016131ef94939291906151a8565b6020604051808303816000875af192505050801561322b57506040513d601f19601f820116820180604052508101906132289190615209565b60015b6132ad573d806000811461325b576040519150601f19603f3d011682016040523d82523d6000602084013e613260565b606091505b5060008151036132a5576040517f08c379a000000000000000000000000000000000000000000000000000000000815260040161329c90615098565b60405180910390fd5b805181602001fd5b63150b7a0260e01b7bffffffffffffffffffffffffffffffffffffffffffffffffffffffff1916817bffffffffffffffffffffffffffffffffffffffffffffffffffffffff191614915050613302565b600190505b949350505050565b60008073ffffffffffffffffffffffffffffffffffffffff1661332c8361349e565b73ffffffffffffffffffffffffffffffffffffffff1614159050919050565b600080600090507a184f03e93ff9f4daa797ed6e38ed64bf6a1f01000000000000000083106133a9577a184f03e93ff9f4daa797ed6e38ed64bf6a1f010000000000000000838161339f5761339e615124565b5b0492506040810190505b6d04ee2d6d415b85acef810000000083106133e6576d04ee2d6d415b85acef810000000083816133dc576133db615124565b5b0492506020810190505b662386f26fc10000831061341557662386f26fc10000838161340b5761340a615124565b5b0492506010810190505b6305f5e100831061343e576305f5e100838161343457613433615124565b5b0492506008810190505b612710831061346357612710838161345957613458615124565b5b0492506004810190505b60648310613486576064838161347c5761347b615124565b5b0492506002810190505b600a8310613495576001810190505b80915050919050565b60006002600083815260200190815260200160002060009054906101000a900473ffffffffffffffffffffffffffffffffffffffff169050919050565b6000808273ffffffffffffffffffffffffffffffffffffffff163b119050919050565b6000604051905090565b600080fd5b600080fd5b600073ffffffffffffffffffffffffffffffffffffffff82169050919050565b600061353d82613512565b9050919050565b61354d81613532565b811461355857600080fd5b50565b60008135905061356a81613544565b92915050565b6000819050919050565b61358381613570565b811461358e57600080fd5b50565b6000813590506135a08161357a565b92915050565b600080604083850312156135bd576135bc613508565b5b60006135cb8582860161355b565b92505060206135dc85828601613591565b9150509250929050565b60007fffffffff0000000000000000000000000000000000000000000000000000000082169050919050565b61361b816135e6565b811461362657600080fd5b50565b60008135905061363881613612565b92915050565b60006020828403121561365457613653613508565b5b600061366284828501613629565b91505092915050565b60008115159050919050565b6136808161366b565b82525050565b600060208201905061369b6000830184613677565b92915050565b6000602082840312156136b7576136b6613508565b5b60006136c584828501613591565b91505092915050565b60006136d982613512565b9050919050565b6136e9816136ce565b82525050565b600060208201905061370460008301846136e0565b92915050565b600081519050919050565b600082825260208201905092915050565b60005b83811015613744578082015181840152602081019050613729565b60008484015250505050565b6000601f19601f8301169050919050565b600061376c8261370a565b6137768185613715565b9350613786818560208601613726565b61378f81613750565b840191505092915050565b600060208201905081810360008301526137b48184613761565b905092915050565b6137c5816136ce565b81146137d057600080fd5b50565b6000813590506137e2816137bc565b92915050565b600080604083850312156137ff576137fe613508565b5b600061380d858286016137d3565b925050602061381e85828601613591565b9150509250929050565b600080fd5b600080fd5b7f4e487b7100000000000000000000000000000000000000000000000000000000600052604160045260246000fd5b61386a82613750565b810181811067ffffffffffffffff8211171561388957613888613832565b5b80604052505050565b600061389c6134fe565b90506138a88282613861565b919050565b600067ffffffffffffffff8211156138c8576138c7613832565b5b6138d182613750565b9050602081019050919050565b82818337600083830152505050565b60006139006138fb846138ad565b613892565b90508281526020810184848401111561391c5761391b61382d565b5b6139278482856138de565b509392505050565b600082601f83011261394457613943613828565b5b81356139548482602086016138ed565b91505092915050565b6000806000806080858703121561397757613976613508565b5b600085013567ffffffffffffffff8111156139955761399461350d565b5b6139a18782880161392f565b94505060206139b287828801613591565b93505060406139c387828801613591565b92505060606139d4878288016137d3565b91505092959194509250565b6000806000606084860312156139f9576139f8613508565b5b6000613a07868287016137d3565b9350506020613a18868287016137d3565b9250506040613a2986828701613591565b9150509250925092565b600060208284031215613a4957613a48613508565b5b6000613a57848285016137d3565b91505092915050565b60008060408385031215613a7757613a76613508565b5b6000613a8585828601613591565b9250506020613a9685828601613591565b9150509250929050565b613aa981613570565b82525050565b6000602082019050613ac46000830184613aa0565b92915050565b7f4e487b7100000000000000000000000000000000000000000000000000000000600052602160045260246000fd5b60028110613b0a57613b09613aca565b5b50565b6000819050613b1b82613af9565b919050565b6000613b2b82613b0d565b9050919050565b613b3b81613b20565b82525050565b600060c082019050613b566000830189613aa0565b8181036020830152613b688188613761565b9050613b776040830187613aa0565b613b846060830186613aa0565b613b9160808301856136e0565b613b9e60a0830184613b32565b979650505050505050565b600060a082019050613bbe6000830188613aa0565b8181036020830152613bd08187613761565b9050613bdf6040830186613aa0565b613bec6060830185613aa0565b613bf96080830184613b32565b9695505050505050565b600080600060608486031215613c1c57613c1b613508565b5b600084013567ffffffffffffffff811115613c3a57613c3961350d565b5b613c468682870161392f565b935050602084013567ffffffffffffffff811115613c6757613c6661350d565b5b613c738682870161392f565b9250506040613c84868287016137d3565b9150509250925092565b613c978161366b565b8114613ca257600080fd5b50565b600081359050613cb481613c8e565b92915050565b60008060408385031215613cd157613cd0613508565b5b6000613cdf858286016137d3565b9250506020613cf085828601613ca5565b9150509250929050565b600067ffffffffffffffff821115613d1557613d14613832565b5b613d1e82613750565b9050602081019050919050565b6000613d3e613d3984613cfa565b613892565b905082815260208101848484011115613d5a57613d5961382d565b5b613d658482856138de565b509392505050565b600082601f830112613d8257613d81613828565b5b8135613d92848260208601613d2b565b91505092915050565b60008060008060808587031215613db557613db4613508565b5b6000613dc3878288016137d3565b9450506020613dd4878288016137d3565b9350506040613de587828801613591565b925050606085013567ffffffffffffffff811115613e0657613e0561350d565b5b613e1287828801613d6d565b91505092959194509250565b60008060408385031215613e3557613e34613508565b5b6000613e4385828601613591565b9250506020613e54858286016137d3565b9150509250929050565b60008060408385031215613e7557613e74613508565b5b6000613e83858286016137d3565b9250506020613e94858286016137d3565b9150509250929050565b7f4e6f74416e417070726f7665644f776e65720000000000000000000000000000600082015250565b6000613ed4601283613715565b9150613edf82613e9e565b602082019050919050565b60006020820190508181036000830152613f0381613ec7565b9050919050565b7f4e6f7454686561737365744f776e657200000000000000000000000000000000600082015250565b6000613f40601083613715565b9150613f4b82613f0a565b602082019050919050565b60006020820190508181036000830152613f6f81613f33565b9050919050565b7f4e487b7100000000000000000000000000000000000000000000000000000000600052601160045260246000fd5b6000613fb082613570565b915060008203613fc357613fc2613f76565b5b600182039050919050565b6000613fd982613570565b91507fffffffffffffffffffffffffffffffffffffffffffffffffffffffffffffffff820361400b5761400a613f76565b5b600182019050919050565b600061402182613570565b915061402c83613570565b925082820261403a81613570565b9150828204841483151761405157614050613f76565b5b5092915050565b7f4e487b7100000000000000000000000000000000000000000000000000000000600052602260045260246000fd5b6000600282049050600182168061409f57607f821691505b6020821081036140b2576140b1614058565b5b50919050565b7f4552433732313a20617070726f76656420717565727920666f72206e6f6e657860008201527f697374656e7420746f6b656e0000000000000000000000000000000000000000602082015250565b6000614114602c83613715565b915061411f826140b8565b604082019050919050565b6000602082019050818103600083015261414381614107565b9050919050565b7f43757272656e744f776e6572417070726f76616c000000000000000000000000600082015250565b6000614180601483613715565b915061418b8261414a565b602082019050919050565b600060208201905081810360008301526141af81614173565b9050919050565b7f4e6f7454686541737365744f776e657200000000000000000000000000000000600082015250565b60006141ec601083613715565b91506141f7826141b6565b602082019050919050565b6000602082019050818103600083015261421b816141df565b9050919050565b7f4f6e6c79206469737472696275746f722063616e2063616c6c20746869730000600082015250565b6000614258601e83613715565b915061426382614222565b602082019050919050565b600060208201905081810360008301526142878161424b565b9050919050565b7f496e76616c696420696e70757420706172616d65746572730000000000000000600082015250565b60006142c4601883613715565b91506142cf8261428e565b602082019050919050565b600060208201905081810360008301526142f3816142b7565b9050919050565b60008190508160005260206000209050919050565b60006020601f8301049050919050565b600082821b905092915050565b60006008830261435c7fffffffffffffffffffffffffffffffffffffffffffffffffffffffffffffffff8261431f565b614366868361431f565b95508019841693508086168417925050509392505050565b6000819050919050565b60006143a361439e61439984613570565b61437e565b613570565b9050919050565b6000819050919050565b6143bd83614388565b6143d16143c9826143aa565b84845461432c565b825550505050565b600090565b6143e66143d9565b6143f18184846143b4565b505050565b5b818110156144155761440a6000826143de565b6001810190506143f7565b5050565b601f82111561445a5761442b816142fa565b6144348461430f565b81016020851015614443578190505b61445761444f8561430f565b8301826143f6565b50505b505050565b600082821c905092915050565b600061447d6000198460080261445f565b1980831691505092915050565b6000614496838361446c565b9150826002028217905092915050565b6144af8261370a565b67ffffffffffffffff8111156144c8576144c7613832565b5b6144d28254614087565b6144dd828285614419565b600060209050601f83116001811461451057600084156144fe578287015190505b614508858261448a565b865550614570565b601f19841661451e866142fa565b60005b8281101561454657848901518255600182019150602085019450602081019050614521565b86831015614563578489015161455f601f89168261446c565b8355505b6001600288020188555050505b505050505050565b600061458382613570565b915061458e83613570565b92508282019050808211156145a6576145a5613f76565b5b92915050565b7f4552433732313a2063616c6c6572206973206e6f7420746f6b656e206f776e6560008201527f72206f7220617070726f76656400000000000000000000000000000000000000602082015250565b6000614608602d83613715565b9150614613826145ac565b604082019050919050565b60006020820190508181036000830152614637816145fb565b9050919050565b7f4f6e6c7920726567697374657265642075736572732063616e2063616c6c207460008201527f6869730000000000000000000000000000000000000000000000000000000000602082015250565b600061469a602383613715565b91506146a58261463e565b604082019050919050565b600060208201905081810360008301526146c98161468d565b9050919050565b7f55736572206e6f74207265676973746572656400000000000000000000000000600082015250565b6000614706601383613715565b9150614711826146d0565b602082019050919050565b60006020820190508181036000830152614735816146f9565b9050919050565b7f496e76616c69642062616c616e63650000000000000000000000000000000000600082015250565b6000614772600f83613715565b915061477d8261473c565b602082019050919050565b600060208201905081810360008301526147a181614765565b9050919050565b7f4f6e6c79206f776e65722063616e2063616c6c20746869730000000000000000600082015250565b60006147de601883613715565b91506147e9826147a8565b602082019050919050565b6000602082019050818103600083015261480d816147d1565b9050919050565b7f55736572206e6f7420666f756e64000000000000000000000000000000000000600082015250565b600061484a600e83613715565b915061485582614814565b602082019050919050565b600060208201905081810360008301526148798161483d565b9050919050565b7f5573657220697320616c7265616479204469737472696275746f720000000000600082015250565b60006148b6601b83613715565b91506148c182614880565b602082019050919050565b600060208201905081810360008301526148e5816148a9565b9050919050565b7f4e6f417373657445786973747300000000000000000000000000000000000000600082015250565b6000614922600d83613715565b915061492d826148ec565b602082019050919050565b6000602082019050818103600083015261495181614915565b9050919050565b7f4552433732313a2061646472657373207a65726f206973206e6f74206120766160008201527f6c6964206f776e65720000000000000000000000000000000000000000000000602082015250565b60006149b4602983613715565b91506149bf82614958565b604082019050919050565b600060208201905081810360008301526149e3816149a7565b9050919050565b7f496e76616c696420696e70757420706172616d65746572000000000000000000600082015250565b6000614a20601783613715565b9150614a2b826149ea565b602082019050919050565b60006020820190508181036000830152614a4f81614a13565b9050919050565b7f524543206e6f7420666f756e6400000000000000000000000000000000000000600082015250565b6000614a8c600d83613715565b9150614a9782614a56565b602082019050919050565b60006020820190508181036000830152614abb81614a7f565b9050919050565b7f496e73756666696369656e742062616c616e6365000000000000000000000000600082015250565b6000614af8601483613715565b9150614b0382614ac2565b602082019050919050565b60006020820190508181036000830152614b2781614aeb565b9050919050565b7f4552433732313a2062616c616e636520717565727920666f7220746865207a6560008201527f726f206164647265737300000000000000000000000000000000000000000000602082015250565b6000614b8a602a83613715565b9150614b9582614b2e565b604082019050919050565b60006020820190508181036000830152614bb981614b7d565b9050919050565b7f5573657220616c72656164792072656769737465726564000000000000000000600082015250565b6000614bf6601783613715565b9150614c0182614bc0565b602082019050919050565b60006020820190508181036000830152614c2581614be9565b9050919050565b6000614c3782613570565b9150614c4283613570565b9250828203905081811115614c5a57614c59613f76565b5b92915050565b600081905092915050565b6000614c768261370a565b614c808185614c60565b9350614c90818560208601613726565b80840191505092915050565b6000614ca88285614c6b565b9150614cb48284614c6b565b91508190509392505050565b7f5573657220697320616c72656164792052656769737465726564000000000000600082015250565b6000614cf6601a83613715565b9150614d0182614cc0565b602082019050919050565b60006020820190508181036000830152614d2581614ce9565b9050919050565b7f4552433732313a206f70657261746f7220717565727920666f72206e6f6e657860008201527f697374656e7420746f6b656e0000000000000000000000000000000000000000602082015250565b6000614d88602c83613715565b9150614d9382614d2c565b604082019050919050565b60006020820190508181036000830152614db781614d7b565b9050919050565b7f5a65726f416464726573734d696e6974696e6700000000000000000000000000600082015250565b6000614df4601383613715565b9150614dff82614dbe565b602082019050919050565b60006020820190508181036000830152614e2381614de7565b9050919050565b7f416c72656164794d696e74656400000000000000000000000000000000000000600082015250565b6000614e60600d83613715565b9150614e6b82614e2a565b602082019050919050565b60006020820190508181036000830152614e8f81614e53565b9050919050565b7f4552433732313a207472616e736665722066726f6d20696e636f72726563742060008201527f6f776e6572000000000000000000000000000000000000000000000000000000602082015250565b6000614ef2602583613715565b9150614efd82614e96565b604082019050919050565b60006020820190508181036000830152614f2181614ee5565b9050919050565b7f4552433732313a207472616e7366657220746f20746865207a65726f2061646460008201527f7265737300000000000000000000000000000000000000000000000000000000602082015250565b6000614f84602483613715565b9150614f8f82614f28565b604082019050919050565b60006020820190508181036000830152614fb381614f77565b9050919050565b7f4552433732313a20617070726f766520746f2063616c6c657200000000000000600082015250565b6000614ff0601983613715565b9150614ffb82614fba565b602082019050919050565b6000602082019050818103600083015261501f81614fe3565b9050919050565b7f4552433732313a207472616e7366657220746f206e6f6e20455243373231526560008201527f63656976657220696d706c656d656e7465720000000000000000000000000000602082015250565b6000615082603283613715565b915061508d82615026565b604082019050919050565b600060208201905081810360008301526150b181615075565b9050919050565b7f4552433732313a20696e76616c696420746f6b656e2049440000000000000000600082015250565b60006150ee601883613715565b91506150f9826150b8565b602082019050919050565b6000602082019050818103600083015261511d816150e1565b9050919050565b7f4e487b7100000000000000000000000000000000000000000000000000000000600052601260045260246000fd5b600081519050919050565b600082825260208201905092915050565b600061517a82615153565b615184818561515e565b9350615194818560208601613726565b61519d81613750565b840191505092915050565b60006080820190506151bd60008301876136e0565b6151ca60208301866136e0565b6151d76040830185613aa0565b81810360608301526151e9818461516f565b905095945050505050565b60008151905061520381613612565b92915050565b60006020828403121561521f5761521e613508565b5b600061522d848285016151f4565b9150509291505056fea2646970667358221220ea15ab3a229285381a97f62c18f5de25eb75cd16485d747bdcce58becafd20c664736f6c63430008130033",
  "immutableReferences": {},
  "source": "// SPDX-License-Identifier: UNLICENSED\npragma solidity ^0.8.1;\n\nimport \"@openzeppelin/contracts/token/ERC721/ERC721.sol\";\n\ncontract RenewableEnergyToken is ERC721 {\n    \n    address public owner;\n    \n    struct User {\n        string id;\n        string name;\n        uint balance;\n        REC[] certificates;\n        bool isDistributor;\n        bool isRegistered;\n    }\n    \n    struct REC {\n        uint id;\n        string name;\n        uint quantity;\n        uint price;\n        Status status;\n    }\n\n    uint public recCount;\n    mapping(uint => REC) public recs;\n    mapping(uint => address) private recOwner;\n    mapping (address => uint256) private ownedAssetsCount;    \n    mapping (uint256 => address) public assetApprovals;\n\n    address[]  addressList;\n    \n    enum Status {Available, Sold}\n    \n    mapping(address => User) users;\n\n    //Events\n    //event Transfer(address indexed from, address indexed to, uint256 indexed tokenId);\n    //event Approval(address indexed owner, address indexed approved, uint256 indexed tokenId);\n\n    constructor() ERC721(\"RenewableEnergyToken\", \"RET\") {\n        owner = msg.sender;\n    }\n\n    modifier onlyOwner() {\n        require(msg.sender == owner, \"Only owner can call this\");\n        _;\n    }\n\n    modifier onlyRegistered() {\n        require(msg.sender == owner || users[msg.sender].isRegistered, \"Only registered users can call this\");\n        _;\n    }\n\n    modifier onlyDistributor() {\n        require(msg.sender == owner || users[msg.sender].isDistributor, \"Only distributor can call this\");\n        _;\n    }\n\n\tfunction getUserRole(address user) public view returns (string memory) {\n\t\tif (user == owner) {\n\t\t\treturn \"owner\";\n\t\t} else if (users[user].isDistributor) {\n\t\t\treturn \"distributor\";\n\t\t} else if (users[user].isRegistered) {\n\t\t\treturn \"registered\";\n\t\t} else {\n\t\t\t User storage userObj = users[user];\n\t\t\tif (bytes(userObj.id).length > 0)\n\t\t\t\treturn \"not yet verified\";\n\t\t\telse \n\t\t\t\treturn \"none\";\n\t\t\t}\n\t}\n\n    //ERC721 methods\n\n\tfunction balanceOf() public view returns (uint256)  {\n        require(msg.sender != address(0), \"ERC721: balance query for the zero address\");\n\n        return ownedAssetsCount[msg.sender];\n    }\n    \n     function ownerOf(uint256 assetId) public view override returns (address) {\n         address owner = recOwner[assetId];\n         require(owner != address(0), \"NoAssetExists\");\n         return owner;\n     }\n    \n\tfunction appreciate(uint256 assetId,uint256 value) public onlyDistributor{\n        recs[assetId].price = recs[assetId].price + value;\n    }\n    \n\tfunction depreciate(uint256 assetId,uint256 value) public onlyDistributor{\n        recs[assetId].price = recs[assetId].price - value;\n    }\n    \n    function transferFrom(address payable from, uint256 recId) public payable{\n        require(isApprovedOrOwner(msg.sender, recId), \"NotAnApprovedOwner\");\n        require(ownerOf(recId) == from, \"NotTheassetOwner\");\n        clearApproval(recId,getApproved(recId));\n        ownedAssetsCount[from]--;\n        ownedAssetsCount[msg.sender]++;\n        recOwner[recId] = msg.sender;\n        from.transfer(recs[recId].price * 1000000000000000000);\n        emit Transfer(from, msg.sender, recId);\n    }\n\n    function approve(address to,uint256 assetId) public override {\n        address owner = ownerOf(assetId);\n        require(to != owner, \"CurrentOwnerApproval\");\n        require(msg.sender == owner,\"NotTheAssetOwner\");\n        assetApprovals[assetId] = to;\n        emit Approval(owner, to, assetId);\n    }\n\n    function getApproved(uint256 assetId) public view override returns (address) {\n        require(exists(assetId), \"ERC721: approved query for nonexistent token\");\n        return assetApprovals[assetId];\n    }\n    \n\tfunction clearApproval(uint256 assetId,address approved) public {\n        if (assetApprovals[assetId]==approved){\n            assetApprovals[assetId] = address(0);\n        }\n    }\n\n    // Function used internally by other methods\n    function mint(address to, uint256 recId) internal {\n        require(to != address(0), \"ZeroAddressMiniting\");\n        require(!exists(recId), \"AlreadyMinted\");\n        recOwner[recId] = to;\n        ownedAssetsCount[to]++;\n        emit Transfer(address(0), to, recId);\n    }\n\n    function exists(uint256 assetId) internal view returns (bool) {\n        return recOwner[assetId] != address(0);\n    }\n\n    function isApprovedOrOwner(address spender, uint256 assetId) internal view returns (bool) {\n        require(exists(assetId), \"ERC721: operator query for nonexistent token\");\n        address owner = ownerOf(assetId);\n        return (spender == owner || getApproved(assetId) == spender);\n    }\n\n    //REC functions\n    function generateREC(string memory name, uint quantity, uint price, address sellerAddress) public onlyDistributor payable {\n        require(bytes(name).length > 0 && quantity > 0 && price > 0 && sellerAddress!=address(0), \"Invalid input parameters\");\n\n        recs[recCount] =  REC(recCount, name, quantity, price, Status.Available);\n        \n        mint(sellerAddress,recCount);\n        recCount = recCount+1;\n    }\n\n\n\tfunction getCertificate(uint id) public view onlyRegistered returns (uint, string memory, uint, uint,address, Status) {\n        REC memory rec = recs[id];\n        return (id, rec.name, rec.quantity, rec.price, recOwner[id], rec.status);\n    }\n\n    function verifyREC(uint id) public view onlyRegistered returns (bool) {\n        require(id>=0, \"Invalid input parameter\");\n\n        REC storage rec = recs[id];\n        require(id<recCount, \"REC not found\");\n\n        User storage user = users[msg.sender];\n        require(address(this).balance >= rec.price, \"Insufficient balance\");\n        return true;\n    }\n\n    function approveDistributor(address userAddress) public onlyOwner {\n        User storage user = users[userAddress];\n        require(bytes(user.id).length > 0, \"User not found\");\n        require(!user.isDistributor, \"User is already Distributor\");\n\n        user.isDistributor = true;\n        user.isRegistered = true;\n    }\n\n    function approveUser(address userAddress) public onlyDistributor {\n        User storage user = users[userAddress];\n        require(bytes(user.id).length > 0, \"User not found\");\n        require(!user.isRegistered, \"User is already Registered\");\n\n        user.isRegistered = true;\n    }\n\n    function selfRegister(string memory id, string memory name, address userAddress) public {\n        require(bytes(id).length > 0 && bytes(name).length > 0, \"Invalid input parameters\");\n\n        User storage user = users[msg.sender];\n        require(bytes(user.id).length == 0, \"User already registered\");\n\n        user.id = id;\n        user.name = name;\n        user.balance = address(this).balance; \n        user.isDistributor = false;\n\t\tuser.isRegistered = false;\n        addressList.push((userAddress));\n    }\n\n    function topupBalance() public onlyRegistered payable {\n        User storage user = users[msg.sender];\n        require(bytes(user.id).length != 0, \"User not registered\");\n        require(msg.value >= 0, \"Invalid balance\");\n\n        user.balance += msg.value;\n    }\n}",
  "sourcePath": "/Users/sandeepkunusoth/Downloads/blockchain-project/cse526/renewableenergytoken-contract/contracts/RenewableEnergyToken.sol",
  "compiler": {
    "name": "solc",
    "version": "0.8.19+commit.7dd6d404.Emscripten.clang"
  },
  "schemaVersion": "3.4.13",
  "updatedAt": "2023-04-30T23:37:11.452Z",
  "networkType": "ethereum",
  "devdoc": {
    "events": {
      "Approval(address,address,uint256)": {
        "details": "Emitted when `owner` enables `approved` to manage the `tokenId` token."
      },
      "ApprovalForAll(address,address,bool)": {
        "details": "Emitted when `owner` enables or disables (`approved`) `operator` to manage all of its assets."
      },
      "Transfer(address,address,uint256)": {
        "details": "Emitted when `tokenId` token is transferred from `from` to `to`."
      }
    },
    "kind": "dev",
    "methods": {
      "balanceOf(address)": {
        "details": "See {IERC721-balanceOf}."
      },
      "isApprovedForAll(address,address)": {
        "details": "See {IERC721-isApprovedForAll}."
      },
      "name()": {
        "details": "See {IERC721Metadata-name}."
      },
      "safeTransferFrom(address,address,uint256)": {
        "details": "See {IERC721-safeTransferFrom}."
      },
      "safeTransferFrom(address,address,uint256,bytes)": {
        "details": "See {IERC721-safeTransferFrom}."
      },
      "setApprovalForAll(address,bool)": {
        "details": "See {IERC721-setApprovalForAll}."
      },
      "supportsInterface(bytes4)": {
        "details": "See {IERC165-supportsInterface}."
      },
      "symbol()": {
        "details": "See {IERC721Metadata-symbol}."
      },
      "tokenURI(uint256)": {
        "details": "See {IERC721Metadata-tokenURI}."
      },
      "transferFrom(address,address,uint256)": {
        "details": "See {IERC721-transferFrom}."
      }
    },
    "version": 1
  },
  "userdoc": {
    "kind": "user",
    "methods": {},
    "version": 1
  }
}