{
  "contractName": "BlindAuction",
  "abi": [
    {
      "constant": true,
      "inputs": [],
      "name": "currentPhase",
      "outputs": [
        {
          "name": "",
          "type": "uint8"
        }
      ],
      "payable": false,
      "stateMutability": "view",
      "type": "function"
    },
    {
      "constant": true,
      "inputs": [],
      "name": "beneficiary",
      "outputs": [
        {
          "name": "",
          "type": "address"
        }
      ],
      "payable": false,
      "stateMutability": "view",
      "type": "function"
    },
    {
      "constant": true,
      "inputs": [
        {
          "name": "",
          "type": "address"
        }
      ],
      "name": "bids",
      "outputs": [
        {
          "name": "blindedBid",
          "type": "bytes32"
        },
        {
          "name": "deposit",
          "type": "uint256"
        }
      ],
      "payable": false,
      "stateMutability": "view",
      "type": "function"
    },
    {
      "constant": true,
      "inputs": [],
      "name": "highestBidder",
      "outputs": [
        {
          "name": "",
          "type": "address"
        }
      ],
      "payable": false,
      "stateMutability": "view",
      "type": "function"
    },
    {
      "constant": true,
      "inputs": [],
      "name": "highestBid",
      "outputs": [
        {
          "name": "",
          "type": "uint256"
        }
      ],
      "payable": false,
      "stateMutability": "view",
      "type": "function"
    },
    {
      "inputs": [],
      "payable": false,
      "stateMutability": "nonpayable",
      "type": "constructor"
    },
    {
      "anonymous": false,
      "inputs": [
        {
          "indexed": false,
          "name": "winner",
          "type": "address"
        },
        {
          "indexed": false,
          "name": "highestBid",
          "type": "uint256"
        }
      ],
      "name": "AuctionEnded",
      "type": "event"
    },
    {
      "anonymous": false,
      "inputs": [],
      "name": "BiddingStarted",
      "type": "event"
    },
    {
      "anonymous": false,
      "inputs": [],
      "name": "RevealStarted",
      "type": "event"
    },
    {
      "anonymous": false,
      "inputs": [],
      "name": "AuctionInit",
      "type": "event"
    },
    {
      "constant": false,
      "inputs": [],
      "name": "advancePhase",
      "outputs": [],
      "payable": false,
      "stateMutability": "nonpayable",
      "type": "function"
    },
    {
      "constant": false,
      "inputs": [
        {
          "name": "blindBid",
          "type": "bytes32"
        }
      ],
      "name": "bid",
      "outputs": [],
      "payable": true,
      "stateMutability": "payable",
      "type": "function"
    },
    {
      "constant": false,
      "inputs": [
        {
          "name": "value",
          "type": "uint256"
        },
        {
          "name": "secret",
          "type": "bytes32"
        }
      ],
      "name": "reveal",
      "outputs": [],
      "payable": false,
      "stateMutability": "nonpayable",
      "type": "function"
    },
    {
      "constant": false,
      "inputs": [],
      "name": "withdraw",
      "outputs": [],
      "payable": false,
      "stateMutability": "nonpayable",
      "type": "function"
    },
    {
      "constant": false,
      "inputs": [],
      "name": "auctionEnd",
      "outputs": [],
      "payable": false,
      "stateMutability": "nonpayable",
      "type": "function"
    },
    {
      "constant": false,
      "inputs": [],
      "name": "closeAuction",
      "outputs": [],
      "payable": false,
      "stateMutability": "nonpayable",
      "type": "function"
    }
  ],
  "bytecode": "0x608060405260006002556000600560006101000a81548160ff0219169083600381111561002857fe5b021790555034801561003957600080fd5b50336000806101000a81548173ffffffffffffffffffffffffffffffffffffffff021916908373ffffffffffffffffffffffffffffffffffffffff160217905550610f26806100896000396000f3fe60806040526004361061009c5760003560e01c80634036778f116100645780634036778f1461017657806362ea82db146101bb57806391f9015714610227578063957bb1e01461027e578063be25a718146102ac578063d57bde79146102c35761009c565b8063055ad42e146100a15780632a24f46c146100da578063378252f2146100f157806338af3eed146101085780633ccfd60b1461015f575b600080fd5b3480156100ad57600080fd5b506100b66102ee565b604051808260038111156100c657fe5b60ff16815260200191505060405180910390f35b3480156100e657600080fd5b506100ef610301565b005b3480156100fd57600080fd5b506101066104ba565b005b34801561011457600080fd5b5061011d6105b6565b604051808273ffffffffffffffffffffffffffffffffffffffff1673ffffffffffffffffffffffffffffffffffffffff16815260200191505060405180910390f35b34801561016b57600080fd5b506101746105db565b005b34801561018257600080fd5b506101b96004803603604081101561019957600080fd5b8101908080359060200190929190803590602001909291905050506106b8565b005b3480156101c757600080fd5b5061020a600480360360208110156101de57600080fd5b81019080803573ffffffffffffffffffffffffffffffffffffffff169060200190929190505050610930565b604051808381526020018281526020019250505060405180910390f35b34801561023357600080fd5b5061023c610954565b604051808273ffffffffffffffffffffffffffffffffffffffff1673ffffffffffffffffffffffffffffffffffffffff16815260200191505060405180910390f35b6102aa6004803603602081101561029457600080fd5b810190808035906020019092919050505061097a565b005b3480156102b857600080fd5b506102c1610b48565b005b3480156102cf57600080fd5b506102d8610dc5565b6040518082815260200191505060405180910390f35b600560009054906101000a900460ff1681565b600380600381111561030f57fe5b600560009054906101000a900460ff16600381111561032a57fe5b1461039d576040517f08c379a000000000000000000000000000000000000000000000000000000000815260040180806020018281038252600a8152602001807f70686173654572726f720000000000000000000000000000000000000000000081525060200191505060405180910390fd5b6002543073ffffffffffffffffffffffffffffffffffffffff163110610428576000809054906101000a900473ffffffffffffffffffffffffffffffffffffffff1673ffffffffffffffffffffffffffffffffffffffff166108fc6002549081150290604051600060405180830381858888f19350505050158015610426573d6000803e3d6000fd5b505b7fdaec4582d5d9595688c8c98545fdd1c696d41c6aeaeb636737e84ed2f5c00eda600160009054906101000a900473ffffffffffffffffffffffffffffffffffffffff16600254604051808373ffffffffffffffffffffffffffffffffffffffff1673ffffffffffffffffffffffffffffffffffffffff1681526020018281526020019250505060405180910390a150565b6000809054906101000a900473ffffffffffffffffffffffffffffffffffffffff1673ffffffffffffffffffffffffffffffffffffffff163373ffffffffffffffffffffffffffffffffffffffff161461057c576040517f08c379a000000000000000000000000000000000000000000000000000000000815260040180806020018281038252600f8152602001807f6f6e6c7942656e6566696369617279000000000000000000000000000000000081525060200191505060405180910390fd5b6000809054906101000a900473ffffffffffffffffffffffffffffffffffffffff1673ffffffffffffffffffffffffffffffffffffffff16ff5b6000809054906101000a900473ffffffffffffffffffffffffffffffffffffffff1681565b6000600460003373ffffffffffffffffffffffffffffffffffffffff1673ffffffffffffffffffffffffffffffffffffffff16815260200190815260200160002054905060008111156106b5576000600460003373ffffffffffffffffffffffffffffffffffffffff1673ffffffffffffffffffffffffffffffffffffffff168152602001908152602001600020819055503373ffffffffffffffffffffffffffffffffffffffff166108fc829081150290604051600060405180830381858888f193505050501580156106b3573d6000803e3d6000fd5b505b50565b60028060038111156106c657fe5b600560009054906101000a900460ff1660038111156106e157fe5b14610754576040517f08c379a000000000000000000000000000000000000000000000000000000000815260040180806020018281038252600a8152602001807f70686173654572726f720000000000000000000000000000000000000000000081525060200191505060405180910390fd5b6000809054906101000a900473ffffffffffffffffffffffffffffffffffffffff1673ffffffffffffffffffffffffffffffffffffffff163373ffffffffffffffffffffffffffffffffffffffff161415610817576040517f08c379a00000000000000000000000000000000000000000000000000000000081526004018080602001828103825260118152602001807f62656e656669636961727952657665616c00000000000000000000000000000081525060200191505060405180910390fd5b60008090506000600360003373ffffffffffffffffffffffffffffffffffffffff1673ffffffffffffffffffffffffffffffffffffffff16815260200190815260200160002090508484604051602001808381526020018281526020019250505060405160208183030381529060405280519060200120816000015414156108e257806001015482019150670de0b6b3a764000085028160010154106108e1576108cb33670de0b6b3a76400008702610dcb565b156108e057670de0b6b3a76400008502820391505b5b5b3373ffffffffffffffffffffffffffffffffffffffff166108fc839081150290604051600060405180830381858888f19350505050158015610928573d6000803e3d6000fd5b505050505050565b60036020528060005260406000206000915090508060000154908060010154905082565b600160009054906101000a900473ffffffffffffffffffffffffffffffffffffffff1681565b600180600381111561098857fe5b600560009054906101000a900460ff1660038111156109a357fe5b14610a16576040517f08c379a000000000000000000000000000000000000000000000000000000000815260040180806020018281038252600a8152602001807f70686173654572726f720000000000000000000000000000000000000000000081525060200191505060405180910390fd5b6000809054906101000a900473ffffffffffffffffffffffffffffffffffffffff1673ffffffffffffffffffffffffffffffffffffffff163373ffffffffffffffffffffffffffffffffffffffff161415610ad9576040517f08c379a000000000000000000000000000000000000000000000000000000000815260040180806020018281038252600e8152602001807f62656e656669636961727942696400000000000000000000000000000000000081525060200191505060405180910390fd5b604051806040016040528083815260200134815250600360003373ffffffffffffffffffffffffffffffffffffffff1673ffffffffffffffffffffffffffffffffffffffff16815260200190815260200160002060008201518160000155602082015181600101559050505050565b6000809054906101000a900473ffffffffffffffffffffffffffffffffffffffff1673ffffffffffffffffffffffffffffffffffffffff163373ffffffffffffffffffffffffffffffffffffffff1614610c0a576040517f08c379a000000000000000000000000000000000000000000000000000000000815260040180806020018281038252600f8152602001807f6f6e6c7942656e6566696369617279000000000000000000000000000000000081525060200191505060405180910390fd5b600380811115610c1657fe5b600560009054906101000a900460ff166003811115610c3157fe5b1415610c60576000600560006101000a81548160ff02191690836003811115610c5657fe5b0217905550610cb2565b60006001600560009054906101000a900460ff166003811115610c7f57fe5b019050806003811115610c8e57fe5b600560006101000a81548160ff02191690836003811115610cab57fe5b0217905550505b60026003811115610cbf57fe5b600560009054906101000a900460ff166003811115610cda57fe5b1415610d0d577f3bcc93d35219aa0512d7c0d1ca10b0231f473e3d5f9396877d1b7215ee0ab3d560405160405180910390a15b60016003811115610d1a57fe5b600560009054906101000a900460ff166003811115610d3557fe5b1415610d68577f02c124e22ee7da1c9905bbb317cf67658c1cc3ea1c0953b1633f85d0b5c281d960405160405180910390a15b60006003811115610d7557fe5b600560009054906101000a900460ff166003811115610d9057fe5b1415610dc3577f8ad2842071cb64589c8e006941bc20b615aae08a93530e211ca7c9639bd26d9760405160405180910390a15b565b60025481565b60006002548211610ddf5760009050610ef4565b600073ffffffffffffffffffffffffffffffffffffffff16600160009054906101000a900473ffffffffffffffffffffffffffffffffffffffff1673ffffffffffffffffffffffffffffffffffffffff1614610ea75760025460046000600160009054906101000a900473ffffffffffffffffffffffffffffffffffffffff1673ffffffffffffffffffffffffffffffffffffffff1673ffffffffffffffffffffffffffffffffffffffff168152602001908152602001600020600082825401925050819055505b8160028190555082600160006101000a81548173ffffffffffffffffffffffffffffffffffffffff021916908373ffffffffffffffffffffffffffffffffffffffff160217905550600190505b9291505056fea165627a7a72305820bf23493b5fd156b511510e32232b63da5f8ec563739b457380a1c5753e5925150029",
  "source": "pragma solidity >=0.4.22 <=0.6.0;\r\n\r\n\r\ncontract BlindAuction {\r\n    struct Bid {\r\n        bytes32 blindedBid;\r\n        uint deposit;\r\n    }\r\n\r\n    // Phases will be set only by external agents and not by time \"now\"\r\n    // Enum-uint mapping:\r\n    // Init - 0; Bidding - 1; Reveal - 2; Done - 3\r\n    enum Phase {Init, Bidding, Reveal, Done}\r\n    // Owner\r\n    address payable public beneficiary;\r\n    // Keep track of the highest bid,bidder\r\n    address public highestBidder;\r\n    uint public highestBid = 0;\r\n    // Only one bid allowed per address\r\n    mapping(address => Bid) public bids;\r\n    mapping(address => uint) pendingReturns;\r\n\r\n    Phase public currentPhase = Phase.Init;\r\n    // Events\r\n    event AuctionEnded(address winner, uint highestBid);\r\n    event BiddingStarted();\r\n    event RevealStarted();\r\n    event AuctionInit();\r\n    // Modifiers\r\n    modifier validPhase(Phase phase) {\r\n        require(currentPhase == phase, \"phaseError\");\r\n        _;\r\n    }\r\n    modifier onlyBeneficiary() {\r\n        require(msg.sender == beneficiary, \"onlyBeneficiary\");\r\n        _;\r\n    }\r\n\r\n    constructor() public {\r\n        beneficiary = msg.sender;\r\n        // advancePhase();\r\n    }\r\n\r\n    function advancePhase() public onlyBeneficiary {\r\n        // If already in done phase, reset to init phase\r\n        if (currentPhase == Phase.Done) {\r\n            currentPhase = Phase.Init;\r\n        } else {\r\n            // else, increment the phase\r\n            // Conversion to uint needed as enums are internally uints\r\n            uint nextPhase = uint(currentPhase) + 1;\r\n            currentPhase = Phase(nextPhase);\r\n        }\r\n\r\n        // Emit appropriate events for the new phase\r\n        if (currentPhase == Phase.Reveal) emit RevealStarted();\r\n        if (currentPhase == Phase.Bidding) emit BiddingStarted();\r\n        if (currentPhase == Phase.Init) emit AuctionInit();\r\n    }\r\n\r\n    function bid(bytes32 blindBid) public payable validPhase(Phase.Bidding) {\r\n        require(msg.sender != beneficiary,'beneficiaryBid');    // Beneficiary should not be allowed to place bids\r\n        bids[msg.sender] = Bid({blindedBid: blindBid, deposit: msg.value});\r\n    }\r\n\r\n    function reveal(uint value, bytes32 secret) public validPhase(Phase.Reveal) {\r\n        require(msg.sender != beneficiary,'beneficiaryReveal');\r\n        uint refund = 0;\r\n        Bid storage bidToCheck = bids[msg.sender];\r\n\r\n        if (bidToCheck.blindedBid == keccak256(abi.encodePacked(value, secret))) {\r\n            refund += bidToCheck.deposit;\r\n            if (bidToCheck.deposit >= value*1000000000000000000) {\r\n                if (placeBid(msg.sender, value*1000000000000000000))\r\n                    refund -= value * 1000000000000000000;\r\n            }\r\n        }\r\n        msg.sender.transfer(refund);\r\n    }\r\n\r\n    // This is an \"internal\" function which means that it\r\n    // can only be called from the contract itself (or from\r\n    // derived contracts).\r\n    function placeBid(address bidder, uint value) internal returns (bool success)\r\n    {\r\n        if (value <= highestBid) {\r\n            return false;\r\n        }\r\n        if (highestBidder != address(0)) {\r\n            // Refund the previously highest bidder.\r\n            pendingReturns[highestBidder] += highestBid;\r\n        }\r\n\r\n        highestBid = value;\r\n        highestBidder = bidder;\r\n        return true;\r\n    }\r\n\r\n    // Withdraw a non-winning bid\r\n    function withdraw() public {\r\n        uint amount = pendingReturns[msg.sender];\r\n        if (amount > 0) {\r\n            pendingReturns[msg.sender] = 0;\r\n            msg.sender.transfer(amount);\r\n        }\r\n    }\r\n\r\n    // Send the highest bid to the beneficiary and\r\n    // end the auction\r\n    function auctionEnd() public validPhase(Phase.Done) {\r\n        if(address(this).balance >= highestBid){\r\n            beneficiary.transfer(highestBid);\r\n        }\r\n        emit AuctionEnded(highestBidder, highestBid);\r\n    }\r\n\r\n    function closeAuction() public onlyBeneficiary {\r\n        selfdestruct(beneficiary);\r\n    }\r\n}\r\n",
  "sourcePath": "/Users/binaramamurthy/CSE426/Spring2023/Code/BlindAuctionV2-Dapp/blindauction-contract/contracts/BlindAuction.sol",
  "compiler": {
    "name": "solc",
    "version": "0.5.8+commit.23d335f2.Emscripten.clang"
  },
  "schemaVersion": "3.0.23",
  "updatedAt": "2023-04-06T02:15:58.029Z",
  "networkType": "ethereum",
  "devdoc": {
    "methods": {}
  },
  "userdoc": {
    "methods": {}
  }
}