{
  "contractName": "RenewableEnergyToken",
  "abi": [
    {
      "inputs": [],
      "stateMutability": "nonpayable",
      "type": "constructor"
    },
    {
      "anonymous": false,
      "inputs": [
        {
          "indexed": true,
          "internalType": "address",
          "name": "owner",
          "type": "address"
        },
        {
          "indexed": true,
          "internalType": "address",
          "name": "approved",
          "type": "address"
        },
        {
          "indexed": true,
          "internalType": "uint256",
          "name": "tokenId",
          "type": "uint256"
        }
      ],
      "name": "Approval",
      "type": "event"
    },
    {
      "anonymous": false,
      "inputs": [
        {
          "indexed": true,
          "internalType": "address",
          "name": "owner",
          "type": "address"
        },
        {
          "indexed": true,
          "internalType": "address",
          "name": "operator",
          "type": "address"
        },
        {
          "indexed": false,
          "internalType": "bool",
          "name": "approved",
          "type": "bool"
        }
      ],
      "name": "ApprovalForAll",
      "type": "event"
    },
    {
      "anonymous": false,
      "inputs": [
        {
          "indexed": true,
          "internalType": "address",
          "name": "from",
          "type": "address"
        },
        {
          "indexed": true,
          "internalType": "address",
          "name": "to",
          "type": "address"
        },
        {
          "indexed": true,
          "internalType": "uint256",
          "name": "tokenId",
          "type": "uint256"
        }
      ],
      "name": "Transfer",
      "type": "event"
    },
    {
      "inputs": [
        {
          "internalType": "uint256",
          "name": "",
          "type": "uint256"
        }
      ],
      "name": "assetApprovals",
      "outputs": [
        {
          "internalType": "address",
          "name": "",
          "type": "address"
        }
      ],
      "stateMutability": "view",
      "type": "function",
      "constant": true
    },
    {
      "inputs": [
        {
          "internalType": "address",
          "name": "owner",
          "type": "address"
        },
        {
          "internalType": "address",
          "name": "operator",
          "type": "address"
        }
      ],
      "name": "isApprovedForAll",
      "outputs": [
        {
          "internalType": "bool",
          "name": "",
          "type": "bool"
        }
      ],
      "stateMutability": "view",
      "type": "function",
      "constant": true
    },
    {
      "inputs": [],
      "name": "name",
      "outputs": [
        {
          "internalType": "string",
          "name": "",
          "type": "string"
        }
      ],
      "stateMutability": "view",
      "type": "function",
      "constant": true
    },
    {
      "inputs": [],
      "name": "owner",
      "outputs": [
        {
          "internalType": "address",
          "name": "",
          "type": "address"
        }
      ],
      "stateMutability": "view",
      "type": "function",
      "constant": true
    },
    {
      "inputs": [],
      "name": "recCount",
      "outputs": [
        {
          "internalType": "uint256",
          "name": "",
          "type": "uint256"
        }
      ],
      "stateMutability": "view",
      "type": "function",
      "constant": true
    },
    {
      "inputs": [
        {
          "internalType": "uint256",
          "name": "",
          "type": "uint256"
        }
      ],
      "name": "recs",
      "outputs": [
        {
          "internalType": "uint256",
          "name": "id",
          "type": "uint256"
        },
        {
          "internalType": "string",
          "name": "name",
          "type": "string"
        },
        {
          "internalType": "uint256",
          "name": "quantity",
          "type": "uint256"
        },
        {
          "internalType": "uint256",
          "name": "price",
          "type": "uint256"
        },
        {
          "internalType": "enum RenewableEnergyToken.Status",
          "name": "status",
          "type": "uint8"
        }
      ],
      "stateMutability": "view",
      "type": "function",
      "constant": true
    },
    {
      "inputs": [
        {
          "internalType": "address",
          "name": "from",
          "type": "address"
        },
        {
          "internalType": "address",
          "name": "to",
          "type": "address"
        },
        {
          "internalType": "uint256",
          "name": "tokenId",
          "type": "uint256"
        }
      ],
      "name": "safeTransferFrom",
      "outputs": [],
      "stateMutability": "nonpayable",
      "type": "function"
    },
    {
      "inputs": [
        {
          "internalType": "address",
          "name": "from",
          "type": "address"
        },
        {
          "internalType": "address",
          "name": "to",
          "type": "address"
        },
        {
          "internalType": "uint256",
          "name": "tokenId",
          "type": "uint256"
        },
        {
          "internalType": "bytes",
          "name": "data",
          "type": "bytes"
        }
      ],
      "name": "safeTransferFrom",
      "outputs": [],
      "stateMutability": "nonpayable",
      "type": "function"
    },
    {
      "inputs": [
        {
          "internalType": "address",
          "name": "operator",
          "type": "address"
        },
        {
          "internalType": "bool",
          "name": "approved",
          "type": "bool"
        }
      ],
      "name": "setApprovalForAll",
      "outputs": [],
      "stateMutability": "nonpayable",
      "type": "function"
    },
    {
      "inputs": [
        {
          "internalType": "bytes4",
          "name": "interfaceId",
          "type": "bytes4"
        }
      ],
      "name": "supportsInterface",
      "outputs": [
        {
          "internalType": "bool",
          "name": "",
          "type": "bool"
        }
      ],
      "stateMutability": "view",
      "type": "function",
      "constant": true
    },
    {
      "inputs": [],
      "name": "symbol",
      "outputs": [
        {
          "internalType": "string",
          "name": "",
          "type": "string"
        }
      ],
      "stateMutability": "view",
      "type": "function",
      "constant": true
    },
    {
      "inputs": [
        {
          "internalType": "uint256",
          "name": "tokenId",
          "type": "uint256"
        }
      ],
      "name": "tokenURI",
      "outputs": [
        {
          "internalType": "string",
          "name": "",
          "type": "string"
        }
      ],
      "stateMutability": "view",
      "type": "function",
      "constant": true
    },
    {
      "inputs": [
        {
          "internalType": "address",
          "name": "user",
          "type": "address"
        }
      ],
      "name": "getUserRole",
      "outputs": [
        {
          "internalType": "string",
          "name": "",
          "type": "string"
        }
      ],
      "stateMutability": "view",
      "type": "function",
      "constant": true
    },
    {
      "inputs": [
        {
          "internalType": "address",
          "name": "owner",
          "type": "address"
        }
      ],
      "name": "balanceOf",
      "outputs": [
        {
          "internalType": "uint256",
          "name": "",
          "type": "uint256"
        }
      ],
      "stateMutability": "view",
      "type": "function",
      "constant": true
    },
    {
      "inputs": [],
      "name": "balanceOf",
      "outputs": [
        {
          "internalType": "uint256",
          "name": "",
          "type": "uint256"
        }
      ],
      "stateMutability": "view",
      "type": "function",
      "constant": true
    },
    {
      "inputs": [
        {
          "internalType": "uint256",
          "name": "assetId",
          "type": "uint256"
        }
      ],
      "name": "ownerOf",
      "outputs": [
        {
          "internalType": "address",
          "name": "",
          "type": "address"
        }
      ],
      "stateMutability": "view",
      "type": "function",
      "constant": true
    },
    {
      "inputs": [
        {
          "internalType": "address payable",
          "name": "from",
          "type": "address"
        },
        {
          "internalType": "uint256",
          "name": "recId",
          "type": "uint256"
        }
      ],
      "name": "transferFrom",
      "outputs": [],
      "stateMutability": "payable",
      "type": "function",
      "payable": true
    },
    {
      "inputs": [
        {
          "internalType": "address",
          "name": "from",
          "type": "address"
        },
        {
          "internalType": "address",
          "name": "to",
          "type": "address"
        },
        {
          "internalType": "uint256",
          "name": "tokenId",
          "type": "uint256"
        }
      ],
      "name": "transferFrom",
      "outputs": [],
      "stateMutability": "nonpayable",
      "type": "function"
    },
    {
      "inputs": [
        {
          "internalType": "address",
          "name": "to",
          "type": "address"
        },
        {
          "internalType": "uint256",
          "name": "assetId",
          "type": "uint256"
        }
      ],
      "name": "approve",
      "outputs": [],
      "stateMutability": "nonpayable",
      "type": "function"
    },
    {
      "inputs": [
        {
          "internalType": "uint256",
          "name": "assetId",
          "type": "uint256"
        }
      ],
      "name": "getApproved",
      "outputs": [
        {
          "internalType": "address",
          "name": "",
          "type": "address"
        }
      ],
      "stateMutability": "view",
      "type": "function",
      "constant": true
    },
    {
      "inputs": [
        {
          "internalType": "uint256",
          "name": "assetId",
          "type": "uint256"
        },
        {
          "internalType": "address",
          "name": "approved",
          "type": "address"
        }
      ],
      "name": "clearApproval",
      "outputs": [],
      "stateMutability": "nonpayable",
      "type": "function"
    },
    {
      "inputs": [
        {
          "internalType": "string",
          "name": "name",
          "type": "string"
        },
        {
          "internalType": "uint256",
          "name": "quantity",
          "type": "uint256"
        },
        {
          "internalType": "uint256",
          "name": "price",
          "type": "uint256"
        },
        {
          "internalType": "address",
          "name": "sellerAddress",
          "type": "address"
        }
      ],
      "name": "generateREC",
      "outputs": [],
      "stateMutability": "payable",
      "type": "function",
      "payable": true
    },
    {
      "inputs": [
        {
          "internalType": "uint256",
          "name": "id",
          "type": "uint256"
        }
      ],
      "name": "verifyREC",
      "outputs": [
        {
          "internalType": "bool",
          "name": "",
          "type": "bool"
        }
      ],
      "stateMutability": "view",
      "type": "function",
      "constant": true
    },
    {
      "inputs": [
        {
          "internalType": "address",
          "name": "userAddress",
          "type": "address"
        }
      ],
      "name": "approveDistributor",
      "outputs": [],
      "stateMutability": "nonpayable",
      "type": "function"
    },
    {
      "inputs": [
        {
          "internalType": "address",
          "name": "userAddress",
          "type": "address"
        }
      ],
      "name": "approveUser",
      "outputs": [],
      "stateMutability": "nonpayable",
      "type": "function"
    },
    {
      "inputs": [
        {
          "internalType": "string",
          "name": "id",
          "type": "string"
        },
        {
          "internalType": "string",
          "name": "name",
          "type": "string"
        },
        {
          "internalType": "address",
          "name": "userAddress",
          "type": "address"
        }
      ],
      "name": "selfRegister",
      "outputs": [],
      "stateMutability": "nonpayable",
      "type": "function"
    },
    {
      "inputs": [],
      "name": "topupBalance",
      "outputs": [],
      "stateMutability": "payable",
      "type": "function",
      "payable": true
    }
  ],
  "bytecode": "0x60806040523480156200001157600080fd5b506040518060400160405280601481526020017f52656e657761626c65456e65726779546f6b656e0000000000000000000000008152506040518060400160405280600381526020017f524554000000000000000000000000000000000000000000000000000000000081525081600090816200008f919062000365565b508060019081620000a1919062000365565b50505033600660006101000a81548173ffffffffffffffffffffffffffffffffffffffff021916908373ffffffffffffffffffffffffffffffffffffffff1602179055506200044c565b600081519050919050565b7f4e487b7100000000000000000000000000000000000000000000000000000000600052604160045260246000fd5b7f4e487b7100000000000000000000000000000000000000000000000000000000600052602260045260246000fd5b600060028204905060018216806200016d57607f821691505b60208210810362000183576200018262000125565b5b50919050565b60008190508160005260206000209050919050565b60006020601f8301049050919050565b600082821b905092915050565b600060088302620001ed7fffffffffffffffffffffffffffffffffffffffffffffffffffffffffffffffff82620001ae565b620001f98683620001ae565b95508019841693508086168417925050509392505050565b6000819050919050565b6000819050919050565b600062000246620002406200023a8462000211565b6200021b565b62000211565b9050919050565b6000819050919050565b620002628362000225565b6200027a62000271826200024d565b848454620001bb565b825550505050565b600090565b6200029162000282565b6200029e81848462000257565b505050565b5b81811015620002c657620002ba60008262000287565b600181019050620002a4565b5050565b601f8211156200031557620002df8162000189565b620002ea846200019e565b81016020851015620002fa578190505b6200031262000309856200019e565b830182620002a3565b50505b505050565b600082821c905092915050565b60006200033a600019846008026200031a565b1980831691505092915050565b600062000355838362000327565b9150826002028217905092915050565b6200037082620000eb565b67ffffffffffffffff8111156200038c576200038b620000f6565b5b62000398825462000154565b620003a5828285620002ca565b600060209050601f831160018114620003dd5760008415620003c8578287015190505b620003d4858262000347565b86555062000444565b601f198416620003ed8662000189565b60005b828110156200041757848901518255600182019150602085019450602081019050620003f0565b8683101562000437578489015162000433601f89168262000327565b8355505b6001600288020188555050505b505050505050565b614abd806200045c6000396000f3fe60806040526004361061019c5760003560e01c80636352211e116100ec57806395d89b411161008a578063c87b56dd11610064578063c87b56dd146105c5578063d624fdb614610602578063daa5fe2d1461062b578063e985e9c5146106545761019c565b806395d89b4114610548578063a22cb46514610573578063b88d4fde1461059c5761019c565b8063722713f7116100c6578063722713f71461048857806384acbb89146104b35780638da5cb5b146104f457806395084a411461051f5761019c565b80636352211e146103d157806370a082311461040e57806371e069251461044b5761019c565b80631630ed461161015957806334b1da131161013357806334b1da131461034a57806342842e0e14610375578063467ee3211461039e578063482aede5146103a85761019c565b80631630ed46146102c857806323b872dd146102e4578063278208511461030d5761019c565b806301c6adc3146101a157806301ffc9a7146101bd57806303385770146101fa57806306fdde0314610237578063081812fc14610262578063095ea7b31461029f575b600080fd5b6101bb60048036038101906101b69190612ed3565b610691565b005b3480156101c957600080fd5b506101e460048036038101906101df9190612f6b565b61092d565b6040516101f19190612fb3565b60405180910390f35b34801561020657600080fd5b50610221600480360381019061021c9190612fce565b610a0f565b60405161022e919061301c565b60405180910390f35b34801561024357600080fd5b5061024c610a42565b60405161025991906130c7565b60405180910390f35b34801561026e57600080fd5b5061028960048036038101906102849190612fce565b610ad4565b604051610296919061301c565b60405180910390f35b3480156102ab57600080fd5b506102c660048036038101906102c19190613115565b610b59565b005b6102e260048036038101906102dd919061328a565b610cf4565b005b3480156102f057600080fd5b5061030b6004803603810190610306919061330d565b610f4f565b005b34801561031957600080fd5b50610334600480360381019061032f9190613360565b610faf565b60405161034191906130c7565b60405180910390f35b34801561035657600080fd5b5061035f6111a5565b60405161036c919061339c565b60405180910390f35b34801561038157600080fd5b5061039c6004803603810190610397919061330d565b6111ab565b005b6103a66111cb565b005b3480156103b457600080fd5b506103cf60048036038101906103ca9190613360565b611352565b005b3480156103dd57600080fd5b506103f860048036038101906103f39190612fce565b611508565b604051610405919061301c565b60405180910390f35b34801561041a57600080fd5b5061043560048036038101906104309190613360565b6115b9565b604051610442919061339c565b60405180910390f35b34801561045757600080fd5b50610472600480360381019061046d9190612fce565b611670565b60405161047f9190612fb3565b60405180910390f35b34801561049457600080fd5b5061049d611839565b6040516104aa919061339c565b60405180910390f35b3480156104bf57600080fd5b506104da60048036038101906104d59190612fce565b6118ee565b6040516104eb95949392919061342e565b60405180910390f35b34801561050057600080fd5b506105096119b9565b604051610516919061301c565b60405180910390f35b34801561052b57600080fd5b5061054660048036038101906105419190613488565b6119df565b005b34801561055457600080fd5b5061055d611b7a565b60405161056a91906130c7565b60405180910390f35b34801561057f57600080fd5b5061059a6004803603810190610595919061353f565b611c0c565b005b3480156105a857600080fd5b506105c360048036038101906105be9190613620565b611c22565b005b3480156105d157600080fd5b506105ec60048036038101906105e79190612fce565b611c84565b6040516105f991906130c7565b60405180910390f35b34801561060e57600080fd5b5061062960048036038101906106249190613360565b611cec565b005b34801561063757600080fd5b50610652600480360381019061064d91906136a3565b611edc565b005b34801561066057600080fd5b5061067b600480360381019061067691906136e3565b611f9a565b6040516106889190612fb3565b60405180910390f35b61069b338261202e565b6106da576040517f08c379a00000000000000000000000000000000000000000000000000000000081526004016106d19061376f565b60405180910390fd5b8173ffffffffffffffffffffffffffffffffffffffff166106fa82611508565b73ffffffffffffffffffffffffffffffffffffffff1614610750576040517f08c379a0000000000000000000000000000000000000000000000000000000008152600401610747906137db565b60405180910390fd5b6107628161075d83610ad4565b611edc565b600a60008373ffffffffffffffffffffffffffffffffffffffff1673ffffffffffffffffffffffffffffffffffffffff16815260200190815260200160002060008154809291906107b29061382a565b9190505550600a60003373ffffffffffffffffffffffffffffffffffffffff1673ffffffffffffffffffffffffffffffffffffffff168152602001908152602001600020600081548092919061080790613853565b9190505550336009600083815260200190815260200160002060006101000a81548173ffffffffffffffffffffffffffffffffffffffff021916908373ffffffffffffffffffffffffffffffffffffffff1602179055508173ffffffffffffffffffffffffffffffffffffffff166108fc670de0b6b3a764000060086000858152602001908152602001600020600301546108a2919061389b565b9081150290604051600060405180830381858888f193505050501580156108cd573d6000803e3d6000fd5b50803373ffffffffffffffffffffffffffffffffffffffff168373ffffffffffffffffffffffffffffffffffffffff167fddf252ad1be2c89b69c2b068fc378daa952ba7f163c4a11628f55a4df523b3ef60405160405180910390a45050565b60007f80ac58cd000000000000000000000000000000000000000000000000000000007bffffffffffffffffffffffffffffffffffffffffffffffffffffffff1916827bffffffffffffffffffffffffffffffffffffffffffffffffffffffff191614806109f857507f5b5e139f000000000000000000000000000000000000000000000000000000007bffffffffffffffffffffffffffffffffffffffffffffffffffffffff1916827bffffffffffffffffffffffffffffffffffffffffffffffffffffffff1916145b80610a085750610a07826120fb565b5b9050919050565b600b6020528060005260406000206000915054906101000a900473ffffffffffffffffffffffffffffffffffffffff1681565b606060008054610a519061390c565b80601f0160208091040260200160405190810160405280929190818152602001828054610a7d9061390c565b8015610aca5780601f10610a9f57610100808354040283529160200191610aca565b820191906000526020600020905b815481529060010190602001808311610aad57829003601f168201915b5050505050905090565b6000610adf82612165565b610b1e576040517f08c379a0000000000000000000000000000000000000000000000000000000008152600401610b15906139af565b60405180910390fd5b600b600083815260200190815260200160002060009054906101000a900473ffffffffffffffffffffffffffffffffffffffff169050919050565b6000610b6482611508565b90508073ffffffffffffffffffffffffffffffffffffffff168373ffffffffffffffffffffffffffffffffffffffff1603610bd4576040517f08c379a0000000000000000000000000000000000000000000000000000000008152600401610bcb90613a1b565b60405180910390fd5b8073ffffffffffffffffffffffffffffffffffffffff163373ffffffffffffffffffffffffffffffffffffffff1614610c42576040517f08c379a0000000000000000000000000000000000000000000000000000000008152600401610c3990613a87565b60405180910390fd5b82600b600084815260200190815260200160002060006101000a81548173ffffffffffffffffffffffffffffffffffffffff021916908373ffffffffffffffffffffffffffffffffffffffff160217905550818373ffffffffffffffffffffffffffffffffffffffff168273ffffffffffffffffffffffffffffffffffffffff167f8c5be1e5ebec7d5bd14f71427d1e84f3dd0314c0f7b2291e5b200ac8c7c3b92560405160405180910390a4505050565b600660009054906101000a900473ffffffffffffffffffffffffffffffffffffffff1673ffffffffffffffffffffffffffffffffffffffff163373ffffffffffffffffffffffffffffffffffffffff161480610d9c5750600d60003373ffffffffffffffffffffffffffffffffffffffff1673ffffffffffffffffffffffffffffffffffffffff16815260200190815260200160002060040160009054906101000a900460ff165b610ddb576040517f08c379a0000000000000000000000000000000000000000000000000000000008152600401610dd290613af3565b60405180910390fd5b60008451118015610dec5750600083115b8015610df85750600082115b8015610e315750600073ffffffffffffffffffffffffffffffffffffffff168173ffffffffffffffffffffffffffffffffffffffff1614155b610e70576040517f08c379a0000000000000000000000000000000000000000000000000000000008152600401610e6790613b5f565b60405180910390fd5b6040518060a00160405280600754815260200185815260200184815260200183815260200160006001811115610ea957610ea86133b7565b5b815250600860006007548152602001908152602001600020600082015181600001556020820151816001019081610ee09190613d2b565b50604082015181600201556060820151816003015560808201518160040160006101000a81548160ff02191690836001811115610f2057610f1f6133b7565b5b0217905550905050610f34816007546121d1565b6001600754610f439190613dfd565b60078190555050505050565b610f60610f5a612390565b82612398565b610f9f576040517f08c379a0000000000000000000000000000000000000000000000000000000008152600401610f9690613ea3565b60405180910390fd5b610faa83838361242d565b505050565b6060600660009054906101000a900473ffffffffffffffffffffffffffffffffffffffff1673ffffffffffffffffffffffffffffffffffffffff168273ffffffffffffffffffffffffffffffffffffffff1603611043576040518060400160405280600581526020017f6f776e657200000000000000000000000000000000000000000000000000000081525090506111a0565b600d60008373ffffffffffffffffffffffffffffffffffffffff1673ffffffffffffffffffffffffffffffffffffffff16815260200190815260200160002060040160009054906101000a900460ff16156110d5576040518060400160405280600b81526020017f6469737472696275746f7200000000000000000000000000000000000000000081525090506111a0565b600d60008373ffffffffffffffffffffffffffffffffffffffff1673ffffffffffffffffffffffffffffffffffffffff16815260200190815260200160002060040160019054906101000a900460ff1615611167576040518060400160405280600a81526020017f726567697374657265640000000000000000000000000000000000000000000081525090506111a0565b6040518060400160405280600481526020017f6e6f6e650000000000000000000000000000000000000000000000000000000081525090505b919050565b60075481565b6111c683838360405180602001604052806000815250611c22565b505050565b600d60003373ffffffffffffffffffffffffffffffffffffffff1673ffffffffffffffffffffffffffffffffffffffff16815260200190815260200160002060040160019054906101000a900460ff1661125a576040517f08c379a000000000000000000000000000000000000000000000000000000000815260040161125190613f35565b60405180910390fd5b6000600d60003373ffffffffffffffffffffffffffffffffffffffff1673ffffffffffffffffffffffffffffffffffffffff168152602001908152602001600020905060008160000180546112ae9061390c565b9050036112f0576040517f08c379a00000000000000000000000000000000000000000000000000000000081526004016112e790613fa1565b60405180910390fd5b6000341015611334576040517f08c379a000000000000000000000000000000000000000000000000000000000815260040161132b9061400d565b60405180910390fd5b348160020160008282546113489190613dfd565b9250508190555050565b600660009054906101000a900473ffffffffffffffffffffffffffffffffffffffff1673ffffffffffffffffffffffffffffffffffffffff163373ffffffffffffffffffffffffffffffffffffffff16146113e2576040517f08c379a00000000000000000000000000000000000000000000000000000000081526004016113d990614079565b60405180910390fd5b6000600d60008373ffffffffffffffffffffffffffffffffffffffff1673ffffffffffffffffffffffffffffffffffffffff168152602001908152602001600020905060008160000180546114369061390c565b905011611478576040517f08c379a000000000000000000000000000000000000000000000000000000000815260040161146f906140e5565b60405180910390fd5b8060040160019054906101000a900460ff16156114ca576040517f08c379a00000000000000000000000000000000000000000000000000000000081526004016114c190614151565b60405180910390fd5b60018160040160006101000a81548160ff02191690831515021790555060018160040160016101000a81548160ff0219169083151502179055505050565b6000806009600084815260200190815260200160002060009054906101000a900473ffffffffffffffffffffffffffffffffffffffff169050600073ffffffffffffffffffffffffffffffffffffffff168173ffffffffffffffffffffffffffffffffffffffff16036115b0576040517f08c379a00000000000000000000000000000000000000000000000000000000081526004016115a7906141bd565b60405180910390fd5b80915050919050565b60008073ffffffffffffffffffffffffffffffffffffffff168273ffffffffffffffffffffffffffffffffffffffff1603611629576040517f08c379a00000000000000000000000000000000000000000000000000000000081526004016116209061424f565b60405180910390fd5b600360008373ffffffffffffffffffffffffffffffffffffffff1673ffffffffffffffffffffffffffffffffffffffff168152602001908152602001600020549050919050565b6000600d60003373ffffffffffffffffffffffffffffffffffffffff1673ffffffffffffffffffffffffffffffffffffffff16815260200190815260200160002060040160019054906101000a900460ff16611701576040517f08c379a00000000000000000000000000000000000000000000000000000000081526004016116f890613f35565b60405180910390fd5b6000821015611745576040517f08c379a000000000000000000000000000000000000000000000000000000000815260040161173c906142bb565b60405180910390fd5b600060086000848152602001908152602001600020905060075483106117a0576040517f08c379a000000000000000000000000000000000000000000000000000000000815260040161179790614327565b60405180910390fd5b6000600d60003373ffffffffffffffffffffffffffffffffffffffff1673ffffffffffffffffffffffffffffffffffffffff168152602001908152602001600020905081600301548160020154101561182e576040517f08c379a000000000000000000000000000000000000000000000000000000000815260040161182590614393565b60405180910390fd5b600192505050919050565b60008073ffffffffffffffffffffffffffffffffffffffff163373ffffffffffffffffffffffffffffffffffffffff16036118a9576040517f08c379a00000000000000000000000000000000000000000000000000000000081526004016118a090614425565b60405180910390fd5b600a60003373ffffffffffffffffffffffffffffffffffffffff1673ffffffffffffffffffffffffffffffffffffffff16815260200190815260200160002054905090565b60086020528060005260406000206000915090508060000154908060010180546119179061390c565b80601f01602080910402602001604051908101604052809291908181526020018280546119439061390c565b80156119905780601f1061196557610100808354040283529160200191611990565b820191906000526020600020905b81548152906001019060200180831161197357829003601f168201915b5050505050908060020154908060030154908060040160009054906101000a900460ff16905085565b600660009054906101000a900473ffffffffffffffffffffffffffffffffffffffff1681565b600083511180156119f1575060008251115b611a30576040517f08c379a0000000000000000000000000000000000000000000000000000000008152600401611a2790613b5f565b60405180910390fd5b6000600d60003373ffffffffffffffffffffffffffffffffffffffff1673ffffffffffffffffffffffffffffffffffffffff16815260200190815260200160002090506000816000018054611a849061390c565b905014611ac6576040517f08c379a0000000000000000000000000000000000000000000000000000000008152600401611abd90614491565b60405180910390fd5b83816000019081611ad79190613d2b565b5082816001019081611ae99190613d2b565b506000816002018190555060008160040160006101000a81548160ff021916908315150217905550600c829080600181540180825580915050600190039060005260206000200160009091909190916101000a81548173ffffffffffffffffffffffffffffffffffffffff021916908373ffffffffffffffffffffffffffffffffffffffff16021790555050505050565b606060018054611b899061390c565b80601f0160208091040260200160405190810160405280929190818152602001828054611bb59061390c565b8015611c025780601f10611bd757610100808354040283529160200191611c02565b820191906000526020600020905b815481529060010190602001808311611be557829003601f168201915b5050505050905090565b611c1e611c17612390565b8383612726565b5050565b611c33611c2d612390565b83612398565b611c72576040517f08c379a0000000000000000000000000000000000000000000000000000000008152600401611c6990613ea3565b60405180910390fd5b611c7e84848484612892565b50505050565b6060611c8f826128ee565b6000611c99612939565b90506000815111611cb95760405180602001604052806000815250611ce4565b80611cc384612950565b604051602001611cd49291906144ed565b6040516020818303038152906040525b915050919050565b600660009054906101000a900473ffffffffffffffffffffffffffffffffffffffff1673ffffffffffffffffffffffffffffffffffffffff163373ffffffffffffffffffffffffffffffffffffffff161480611d945750600d60003373ffffffffffffffffffffffffffffffffffffffff1673ffffffffffffffffffffffffffffffffffffffff16815260200190815260200160002060040160009054906101000a900460ff165b611dd3576040517f08c379a0000000000000000000000000000000000000000000000000000000008152600401611dca90613af3565b60405180910390fd5b6000600d60008373ffffffffffffffffffffffffffffffffffffffff1673ffffffffffffffffffffffffffffffffffffffff16815260200190815260200160002090506000816000018054611e279061390c565b905011611e69576040517f08c379a0000000000000000000000000000000000000000000000000000000008152600401611e60906140e5565b60405180910390fd5b8060040160019054906101000a900460ff1615611ebb576040517f08c379a0000000000000000000000000000000000000000000000000000000008152600401611eb29061455d565b60405180910390fd5b60018160040160016101000a81548160ff0219169083151502179055505050565b8073ffffffffffffffffffffffffffffffffffffffff16600b600084815260200190815260200160002060009054906101000a900473ffffffffffffffffffffffffffffffffffffffff1673ffffffffffffffffffffffffffffffffffffffff1603611f96576000600b600084815260200190815260200160002060006101000a81548173ffffffffffffffffffffffffffffffffffffffff021916908373ffffffffffffffffffffffffffffffffffffffff1602179055505b5050565b6000600560008473ffffffffffffffffffffffffffffffffffffffff1673ffffffffffffffffffffffffffffffffffffffff16815260200190815260200160002060008373ffffffffffffffffffffffffffffffffffffffff1673ffffffffffffffffffffffffffffffffffffffff16815260200190815260200160002060009054906101000a900460ff16905092915050565b600061203982612165565b612078576040517f08c379a000000000000000000000000000000000000000000000000000000000815260040161206f906145ef565b60405180910390fd5b600061208383611508565b90508073ffffffffffffffffffffffffffffffffffffffff168473ffffffffffffffffffffffffffffffffffffffff1614806120f257508373ffffffffffffffffffffffffffffffffffffffff166120da84610ad4565b73ffffffffffffffffffffffffffffffffffffffff16145b91505092915050565b60007f01ffc9a7000000000000000000000000000000000000000000000000000000007bffffffffffffffffffffffffffffffffffffffffffffffffffffffff1916827bffffffffffffffffffffffffffffffffffffffffffffffffffffffff1916149050919050565b60008073ffffffffffffffffffffffffffffffffffffffff166009600084815260200190815260200160002060009054906101000a900473ffffffffffffffffffffffffffffffffffffffff1673ffffffffffffffffffffffffffffffffffffffff1614159050919050565b600073ffffffffffffffffffffffffffffffffffffffff168273ffffffffffffffffffffffffffffffffffffffff1603612240576040517f08c379a00000000000000000000000000000000000000000000000000000000081526004016122379061465b565b60405180910390fd5b61224981612165565b15612289576040517f08c379a0000000000000000000000000000000000000000000000000000000008152600401612280906146c7565b60405180910390fd5b816009600083815260200190815260200160002060006101000a81548173ffffffffffffffffffffffffffffffffffffffff021916908373ffffffffffffffffffffffffffffffffffffffff160217905550600a60008373ffffffffffffffffffffffffffffffffffffffff1673ffffffffffffffffffffffffffffffffffffffff168152602001908152602001600020600081548092919061232b90613853565b9190505550808273ffffffffffffffffffffffffffffffffffffffff16600073ffffffffffffffffffffffffffffffffffffffff167fddf252ad1be2c89b69c2b068fc378daa952ba7f163c4a11628f55a4df523b3ef60405160405180910390a45050565b600033905090565b6000806123a483612a1e565b90508073ffffffffffffffffffffffffffffffffffffffff168473ffffffffffffffffffffffffffffffffffffffff1614806123e657506123e58185611f9a565b5b8061242457508373ffffffffffffffffffffffffffffffffffffffff1661240c84610ad4565b73ffffffffffffffffffffffffffffffffffffffff16145b91505092915050565b8273ffffffffffffffffffffffffffffffffffffffff1661244d82612a1e565b73ffffffffffffffffffffffffffffffffffffffff16146124a3576040517f08c379a000000000000000000000000000000000000000000000000000000000815260040161249a90614759565b60405180910390fd5b600073ffffffffffffffffffffffffffffffffffffffff168273ffffffffffffffffffffffffffffffffffffffff1603612512576040517f08c379a0000000000000000000000000000000000000000000000000000000008152600401612509906147eb565b60405180910390fd5b61251f8383836001612aa4565b8273ffffffffffffffffffffffffffffffffffffffff1661253f82612a1e565b73ffffffffffffffffffffffffffffffffffffffff1614612595576040517f08c379a000000000000000000000000000000000000000000000000000000000815260040161258c90614759565b60405180910390fd5b6004600082815260200190815260200160002060006101000a81549073ffffffffffffffffffffffffffffffffffffffff02191690556001600360008573ffffffffffffffffffffffffffffffffffffffff1673ffffffffffffffffffffffffffffffffffffffff168152602001908152602001600020600082825403925050819055506001600360008473ffffffffffffffffffffffffffffffffffffffff1673ffffffffffffffffffffffffffffffffffffffff16815260200190815260200160002060008282540192505081905550816002600083815260200190815260200160002060006101000a81548173ffffffffffffffffffffffffffffffffffffffff021916908373ffffffffffffffffffffffffffffffffffffffff160217905550808273ffffffffffffffffffffffffffffffffffffffff168473ffffffffffffffffffffffffffffffffffffffff167fddf252ad1be2c89b69c2b068fc378daa952ba7f163c4a11628f55a4df523b3ef60405160405180910390a46127218383836001612aaa565b505050565b8173ffffffffffffffffffffffffffffffffffffffff168373ffffffffffffffffffffffffffffffffffffffff1603612794576040517f08c379a000000000000000000000000000000000000000000000000000000000815260040161278b90614857565b60405180910390fd5b80600560008573ffffffffffffffffffffffffffffffffffffffff1673ffffffffffffffffffffffffffffffffffffffff16815260200190815260200160002060008473ffffffffffffffffffffffffffffffffffffffff1673ffffffffffffffffffffffffffffffffffffffff16815260200190815260200160002060006101000a81548160ff0219169083151502179055508173ffffffffffffffffffffffffffffffffffffffff168373ffffffffffffffffffffffffffffffffffffffff167f17307eab39ab6107e8899845ad3d59bd9653f200f220920489ca2b5937696c31836040516128859190612fb3565b60405180910390a3505050565b61289d84848461242d565b6128a984848484612ab0565b6128e8576040517f08c379a00000000000000000000000000000000000000000000000000000000081526004016128df906148e9565b60405180910390fd5b50505050565b6128f781612c37565b612936576040517f08c379a000000000000000000000000000000000000000000000000000000000815260040161292d90614955565b60405180910390fd5b50565b606060405180602001604052806000815250905090565b60606000600161295f84612c78565b01905060008167ffffffffffffffff81111561297e5761297d61315f565b5b6040519080825280601f01601f1916602001820160405280156129b05781602001600182028036833780820191505090505b509050600082602001820190505b600115612a13578080600190039150507f3031323334353637383961626364656600000000000000000000000000000000600a86061a8153600a8581612a0757612a06614975565b5b049450600085036129be575b819350505050919050565b600080612a2a83612dcb565b9050600073ffffffffffffffffffffffffffffffffffffffff168173ffffffffffffffffffffffffffffffffffffffff1603612a9b576040517f08c379a0000000000000000000000000000000000000000000000000000000008152600401612a9290614955565b60405180910390fd5b80915050919050565b50505050565b50505050565b6000612ad18473ffffffffffffffffffffffffffffffffffffffff16612e08565b15612c2a578373ffffffffffffffffffffffffffffffffffffffff1663150b7a02612afa612390565b8786866040518563ffffffff1660e01b8152600401612b1c94939291906149f9565b6020604051808303816000875af1925050508015612b5857506040513d601f19601f82011682018060405250810190612b559190614a5a565b60015b612bda573d8060008114612b88576040519150601f19603f3d011682016040523d82523d6000602084013e612b8d565b606091505b506000815103612bd2576040517f08c379a0000000000000000000000000000000000000000000000000000000008152600401612bc9906148e9565b60405180910390fd5b805181602001fd5b63150b7a0260e01b7bffffffffffffffffffffffffffffffffffffffffffffffffffffffff1916817bffffffffffffffffffffffffffffffffffffffffffffffffffffffff191614915050612c2f565b600190505b949350505050565b60008073ffffffffffffffffffffffffffffffffffffffff16612c5983612dcb565b73ffffffffffffffffffffffffffffffffffffffff1614159050919050565b600080600090507a184f03e93ff9f4daa797ed6e38ed64bf6a1f0100000000000000008310612cd6577a184f03e93ff9f4daa797ed6e38ed64bf6a1f0100000000000000008381612ccc57612ccb614975565b5b0492506040810190505b6d04ee2d6d415b85acef81000000008310612d13576d04ee2d6d415b85acef81000000008381612d0957612d08614975565b5b0492506020810190505b662386f26fc100008310612d4257662386f26fc100008381612d3857612d37614975565b5b0492506010810190505b6305f5e1008310612d6b576305f5e1008381612d6157612d60614975565b5b0492506008810190505b6127108310612d90576127108381612d8657612d85614975565b5b0492506004810190505b60648310612db35760648381612da957612da8614975565b5b0492506002810190505b600a8310612dc2576001810190505b80915050919050565b60006002600083815260200190815260200160002060009054906101000a900473ffffffffffffffffffffffffffffffffffffffff169050919050565b6000808273ffffffffffffffffffffffffffffffffffffffff163b119050919050565b6000604051905090565b600080fd5b600080fd5b600073ffffffffffffffffffffffffffffffffffffffff82169050919050565b6000612e6a82612e3f565b9050919050565b612e7a81612e5f565b8114612e8557600080fd5b50565b600081359050612e9781612e71565b92915050565b6000819050919050565b612eb081612e9d565b8114612ebb57600080fd5b50565b600081359050612ecd81612ea7565b92915050565b60008060408385031215612eea57612ee9612e35565b5b6000612ef885828601612e88565b9250506020612f0985828601612ebe565b9150509250929050565b60007fffffffff0000000000000000000000000000000000000000000000000000000082169050919050565b612f4881612f13565b8114612f5357600080fd5b50565b600081359050612f6581612f3f565b92915050565b600060208284031215612f8157612f80612e35565b5b6000612f8f84828501612f56565b91505092915050565b60008115159050919050565b612fad81612f98565b82525050565b6000602082019050612fc86000830184612fa4565b92915050565b600060208284031215612fe457612fe3612e35565b5b6000612ff284828501612ebe565b91505092915050565b600061300682612e3f565b9050919050565b61301681612ffb565b82525050565b6000602082019050613031600083018461300d565b92915050565b600081519050919050565b600082825260208201905092915050565b60005b83811015613071578082015181840152602081019050613056565b60008484015250505050565b6000601f19601f8301169050919050565b600061309982613037565b6130a38185613042565b93506130b3818560208601613053565b6130bc8161307d565b840191505092915050565b600060208201905081810360008301526130e1818461308e565b905092915050565b6130f281612ffb565b81146130fd57600080fd5b50565b60008135905061310f816130e9565b92915050565b6000806040838503121561312c5761312b612e35565b5b600061313a85828601613100565b925050602061314b85828601612ebe565b9150509250929050565b600080fd5b600080fd5b7f4e487b7100000000000000000000000000000000000000000000000000000000600052604160045260246000fd5b6131978261307d565b810181811067ffffffffffffffff821117156131b6576131b561315f565b5b80604052505050565b60006131c9612e2b565b90506131d5828261318e565b919050565b600067ffffffffffffffff8211156131f5576131f461315f565b5b6131fe8261307d565b9050602081019050919050565b82818337600083830152505050565b600061322d613228846131da565b6131bf565b9050828152602081018484840111156132495761324861315a565b5b61325484828561320b565b509392505050565b600082601f83011261327157613270613155565b5b813561328184826020860161321a565b91505092915050565b600080600080608085870312156132a4576132a3612e35565b5b600085013567ffffffffffffffff8111156132c2576132c1612e3a565b5b6132ce8782880161325c565b94505060206132df87828801612ebe565b93505060406132f087828801612ebe565b925050606061330187828801613100565b91505092959194509250565b60008060006060848603121561332657613325612e35565b5b600061333486828701613100565b935050602061334586828701613100565b925050604061335686828701612ebe565b9150509250925092565b60006020828403121561337657613375612e35565b5b600061338484828501613100565b91505092915050565b61339681612e9d565b82525050565b60006020820190506133b1600083018461338d565b92915050565b7f4e487b7100000000000000000000000000000000000000000000000000000000600052602160045260246000fd5b600281106133f7576133f66133b7565b5b50565b6000819050613408826133e6565b919050565b6000613418826133fa565b9050919050565b6134288161340d565b82525050565b600060a082019050613443600083018861338d565b8181036020830152613455818761308e565b9050613464604083018661338d565b613471606083018561338d565b61347e608083018461341f565b9695505050505050565b6000806000606084860312156134a1576134a0612e35565b5b600084013567ffffffffffffffff8111156134bf576134be612e3a565b5b6134cb8682870161325c565b935050602084013567ffffffffffffffff8111156134ec576134eb612e3a565b5b6134f88682870161325c565b925050604061350986828701613100565b9150509250925092565b61351c81612f98565b811461352757600080fd5b50565b60008135905061353981613513565b92915050565b6000806040838503121561355657613555612e35565b5b600061356485828601613100565b92505060206135758582860161352a565b9150509250929050565b600067ffffffffffffffff82111561359a5761359961315f565b5b6135a38261307d565b9050602081019050919050565b60006135c36135be8461357f565b6131bf565b9050828152602081018484840111156135df576135de61315a565b5b6135ea84828561320b565b509392505050565b600082601f83011261360757613606613155565b5b81356136178482602086016135b0565b91505092915050565b6000806000806080858703121561363a57613639612e35565b5b600061364887828801613100565b945050602061365987828801613100565b935050604061366a87828801612ebe565b925050606085013567ffffffffffffffff81111561368b5761368a612e3a565b5b613697878288016135f2565b91505092959194509250565b600080604083850312156136ba576136b9612e35565b5b60006136c885828601612ebe565b92505060206136d985828601613100565b9150509250929050565b600080604083850312156136fa576136f9612e35565b5b600061370885828601613100565b925050602061371985828601613100565b9150509250929050565b7f4e6f74416e417070726f7665644f776e65720000000000000000000000000000600082015250565b6000613759601283613042565b915061376482613723565b602082019050919050565b600060208201905081810360008301526137888161374c565b9050919050565b7f4e6f7454686561737365744f776e657200000000000000000000000000000000600082015250565b60006137c5601083613042565b91506137d08261378f565b602082019050919050565b600060208201905081810360008301526137f4816137b8565b9050919050565b7f4e487b7100000000000000000000000000000000000000000000000000000000600052601160045260246000fd5b600061383582612e9d565b915060008203613848576138476137fb565b5b600182039050919050565b600061385e82612e9d565b91507fffffffffffffffffffffffffffffffffffffffffffffffffffffffffffffffff82036138905761388f6137fb565b5b600182019050919050565b60006138a682612e9d565b91506138b183612e9d565b92508282026138bf81612e9d565b915082820484148315176138d6576138d56137fb565b5b5092915050565b7f4e487b7100000000000000000000000000000000000000000000000000000000600052602260045260246000fd5b6000600282049050600182168061392457607f821691505b602082108103613937576139366138dd565b5b50919050565b7f4552433732313a20617070726f76656420717565727920666f72206e6f6e657860008201527f697374656e7420746f6b656e0000000000000000000000000000000000000000602082015250565b6000613999602c83613042565b91506139a48261393d565b604082019050919050565b600060208201905081810360008301526139c88161398c565b9050919050565b7f43757272656e744f776e6572417070726f76616c000000000000000000000000600082015250565b6000613a05601483613042565b9150613a10826139cf565b602082019050919050565b60006020820190508181036000830152613a34816139f8565b9050919050565b7f4e6f7454686541737365744f776e657200000000000000000000000000000000600082015250565b6000613a71601083613042565b9150613a7c82613a3b565b602082019050919050565b60006020820190508181036000830152613aa081613a64565b9050919050565b7f4f6e6c79206469737472696275746f722063616e2063616c6c20746869730000600082015250565b6000613add601e83613042565b9150613ae882613aa7565b602082019050919050565b60006020820190508181036000830152613b0c81613ad0565b9050919050565b7f496e76616c696420696e70757420706172616d65746572730000000000000000600082015250565b6000613b49601883613042565b9150613b5482613b13565b602082019050919050565b60006020820190508181036000830152613b7881613b3c565b9050919050565b60008190508160005260206000209050919050565b60006020601f8301049050919050565b600082821b905092915050565b600060088302613be17fffffffffffffffffffffffffffffffffffffffffffffffffffffffffffffffff82613ba4565b613beb8683613ba4565b95508019841693508086168417925050509392505050565b6000819050919050565b6000613c28613c23613c1e84612e9d565b613c03565b612e9d565b9050919050565b6000819050919050565b613c4283613c0d565b613c56613c4e82613c2f565b848454613bb1565b825550505050565b600090565b613c6b613c5e565b613c76818484613c39565b505050565b5b81811015613c9a57613c8f600082613c63565b600181019050613c7c565b5050565b601f821115613cdf57613cb081613b7f565b613cb984613b94565b81016020851015613cc8578190505b613cdc613cd485613b94565b830182613c7b565b50505b505050565b600082821c905092915050565b6000613d0260001984600802613ce4565b1980831691505092915050565b6000613d1b8383613cf1565b9150826002028217905092915050565b613d3482613037565b67ffffffffffffffff811115613d4d57613d4c61315f565b5b613d57825461390c565b613d62828285613c9e565b600060209050601f831160018114613d955760008415613d83578287015190505b613d8d8582613d0f565b865550613df5565b601f198416613da386613b7f565b60005b82811015613dcb57848901518255600182019150602085019450602081019050613da6565b86831015613de85784890151613de4601f891682613cf1565b8355505b6001600288020188555050505b505050505050565b6000613e0882612e9d565b9150613e1383612e9d565b9250828201905080821115613e2b57613e2a6137fb565b5b92915050565b7f4552433732313a2063616c6c6572206973206e6f7420746f6b656e206f776e6560008201527f72206f7220617070726f76656400000000000000000000000000000000000000602082015250565b6000613e8d602d83613042565b9150613e9882613e31565b604082019050919050565b60006020820190508181036000830152613ebc81613e80565b9050919050565b7f4f6e6c7920726567697374657265642075736572732063616e2063616c6c207460008201527f6869730000000000000000000000000000000000000000000000000000000000602082015250565b6000613f1f602383613042565b9150613f2a82613ec3565b604082019050919050565b60006020820190508181036000830152613f4e81613f12565b9050919050565b7f55736572206e6f74207265676973746572656400000000000000000000000000600082015250565b6000613f8b601383613042565b9150613f9682613f55565b602082019050919050565b60006020820190508181036000830152613fba81613f7e565b9050919050565b7f496e76616c69642062616c616e63650000000000000000000000000000000000600082015250565b6000613ff7600f83613042565b915061400282613fc1565b602082019050919050565b6000602082019050818103600083015261402681613fea565b9050919050565b7f4f6e6c79206f776e65722063616e2063616c6c20746869730000000000000000600082015250565b6000614063601883613042565b915061406e8261402d565b602082019050919050565b6000602082019050818103600083015261409281614056565b9050919050565b7f55736572206e6f7420666f756e64000000000000000000000000000000000000600082015250565b60006140cf600e83613042565b91506140da82614099565b602082019050919050565b600060208201905081810360008301526140fe816140c2565b9050919050565b7f5573657220697320616c7265616479204469737472696275746f720000000000600082015250565b600061413b601b83613042565b915061414682614105565b602082019050919050565b6000602082019050818103600083015261416a8161412e565b9050919050565b7f4e6f417373657445786973747300000000000000000000000000000000000000600082015250565b60006141a7600d83613042565b91506141b282614171565b602082019050919050565b600060208201905081810360008301526141d68161419a565b9050919050565b7f4552433732313a2061646472657373207a65726f206973206e6f74206120766160008201527f6c6964206f776e65720000000000000000000000000000000000000000000000602082015250565b6000614239602983613042565b9150614244826141dd565b604082019050919050565b600060208201905081810360008301526142688161422c565b9050919050565b7f496e76616c696420696e70757420706172616d65746572000000000000000000600082015250565b60006142a5601783613042565b91506142b08261426f565b602082019050919050565b600060208201905081810360008301526142d481614298565b9050919050565b7f524543206e6f7420666f756e6400000000000000000000000000000000000000600082015250565b6000614311600d83613042565b915061431c826142db565b602082019050919050565b6000602082019050818103600083015261434081614304565b9050919050565b7f496e73756666696369656e742062616c616e6365000000000000000000000000600082015250565b600061437d601483613042565b915061438882614347565b602082019050919050565b600060208201905081810360008301526143ac81614370565b9050919050565b7f4552433732313a2062616c616e636520717565727920666f7220746865207a6560008201527f726f206164647265737300000000000000000000000000000000000000000000602082015250565b600061440f602a83613042565b915061441a826143b3565b604082019050919050565b6000602082019050818103600083015261443e81614402565b9050919050565b7f5573657220616c72656164792072656769737465726564000000000000000000600082015250565b600061447b601783613042565b915061448682614445565b602082019050919050565b600060208201905081810360008301526144aa8161446e565b9050919050565b600081905092915050565b60006144c782613037565b6144d181856144b1565b93506144e1818560208601613053565b80840191505092915050565b60006144f982856144bc565b915061450582846144bc565b91508190509392505050565b7f5573657220697320616c72656164792052656769737465726564000000000000600082015250565b6000614547601a83613042565b915061455282614511565b602082019050919050565b600060208201905081810360008301526145768161453a565b9050919050565b7f4552433732313a206f70657261746f7220717565727920666f72206e6f6e657860008201527f697374656e7420746f6b656e0000000000000000000000000000000000000000602082015250565b60006145d9602c83613042565b91506145e48261457d565b604082019050919050565b60006020820190508181036000830152614608816145cc565b9050919050565b7f5a65726f416464726573734d696e6974696e6700000000000000000000000000600082015250565b6000614645601383613042565b91506146508261460f565b602082019050919050565b6000602082019050818103600083015261467481614638565b9050919050565b7f416c72656164794d696e74656400000000000000000000000000000000000000600082015250565b60006146b1600d83613042565b91506146bc8261467b565b602082019050919050565b600060208201905081810360008301526146e0816146a4565b9050919050565b7f4552433732313a207472616e736665722066726f6d20696e636f72726563742060008201527f6f776e6572000000000000000000000000000000000000000000000000000000602082015250565b6000614743602583613042565b915061474e826146e7565b604082019050919050565b6000602082019050818103600083015261477281614736565b9050919050565b7f4552433732313a207472616e7366657220746f20746865207a65726f2061646460008201527f7265737300000000000000000000000000000000000000000000000000000000602082015250565b60006147d5602483613042565b91506147e082614779565b604082019050919050565b60006020820190508181036000830152614804816147c8565b9050919050565b7f4552433732313a20617070726f766520746f2063616c6c657200000000000000600082015250565b6000614841601983613042565b915061484c8261480b565b602082019050919050565b6000602082019050818103600083015261487081614834565b9050919050565b7f4552433732313a207472616e7366657220746f206e6f6e20455243373231526560008201527f63656976657220696d706c656d656e7465720000000000000000000000000000602082015250565b60006148d3603283613042565b91506148de82614877565b604082019050919050565b60006020820190508181036000830152614902816148c6565b9050919050565b7f4552433732313a20696e76616c696420746f6b656e2049440000000000000000600082015250565b600061493f601883613042565b915061494a82614909565b602082019050919050565b6000602082019050818103600083015261496e81614932565b9050919050565b7f4e487b7100000000000000000000000000000000000000000000000000000000600052601260045260246000fd5b600081519050919050565b600082825260208201905092915050565b60006149cb826149a4565b6149d581856149af565b93506149e5818560208601613053565b6149ee8161307d565b840191505092915050565b6000608082019050614a0e600083018761300d565b614a1b602083018661300d565b614a28604083018561338d565b8181036060830152614a3a81846149c0565b905095945050505050565b600081519050614a5481612f3f565b92915050565b600060208284031215614a7057614a6f612e35565b5b6000614a7e84828501614a45565b9150509291505056fea2646970667358221220bb0162ed0fd80cf0b8d08dff8ec46933b4299eddef93338f0d781b99ac1596c264736f6c63430008130033",
  "immutableReferences": {},
  "source": "// SPDX-License-Identifier: UNLICENSED\npragma solidity ^0.8.1;\n\nimport \"@openzeppelin/contracts/token/ERC721/ERC721.sol\";\n\ncontract RenewableEnergyToken is ERC721 {\n    \n    address public owner;\n    \n    struct User {\n        string id;\n        string name;\n        uint balance;\n        REC[] certificates;\n        bool isDistributor;\n        bool isRegistered;\n    }\n    \n    struct REC {\n        uint id;\n        string name;\n        uint quantity;\n        uint price;\n        Status status;\n    }\n\n    uint public recCount;\n    mapping(uint => REC) public recs;\n    mapping(uint => address) private recOwner;\n    mapping (address => uint256) private ownedAssetsCount;    \n    mapping (uint256 => address) public assetApprovals;\n\n    address[]  addressList;\n    \n    enum Status {Available, Sold}\n    \n    mapping(address => User) users;\n\n    //Events\n    //event Transfer(address indexed from, address indexed to, uint256 indexed tokenId);\n    //event Approval(address indexed owner, address indexed approved, uint256 indexed tokenId);\n\n    constructor() ERC721(\"RenewableEnergyToken\", \"RET\") {\n        owner = msg.sender;\n    }\n\n    modifier onlyOwner() {\n        require(msg.sender == owner, \"Only owner can call this\");\n        _;\n    }\n\n    modifier onlyRegistered() {\n        require(users[msg.sender].isRegistered, \"Only registered users can call this\");\n        _;\n    }\n\n    modifier onlyDistributor() {\n        require(msg.sender == owner || users[msg.sender].isDistributor, \"Only distributor can call this\");\n        _;\n    }\n\n\tfunction getUserRole(address user) public view returns (string memory) {\n\t\tif (user == owner) {\n\t\t\treturn \"owner\";\n\t\t} else if (users[user].isDistributor) {\n\t\t\treturn \"distributor\";\n\t\t} else if (users[user].isRegistered) {\n\t\t\treturn \"registered\";\n\t\t} else {\n\t\t\treturn \"none\";\n\t\t}\n\t}\n\n    //ERC721 methods\n\n\tfunction balanceOf() public view returns (uint256)  {\n        require(msg.sender != address(0), \"ERC721: balance query for the zero address\");\n\n        return ownedAssetsCount[msg.sender];\n    }\n    \n     function ownerOf(uint256 assetId) public view override returns (address) {\n         address owner = recOwner[assetId];\n         require(owner != address(0), \"NoAssetExists\");\n         return owner;\n     }\n    \n    function transferFrom(address payable from, uint256 recId) public payable{\n        require(isApprovedOrOwner(msg.sender, recId), \"NotAnApprovedOwner\");\n        require(ownerOf(recId) == from, \"NotTheassetOwner\");\n        clearApproval(recId,getApproved(recId));\n        ownedAssetsCount[from]--;\n        ownedAssetsCount[msg.sender]++;\n        recOwner[recId] = msg.sender;\n        from.transfer(recs[recId].price * 1000000000000000000);\n        emit Transfer(from, msg.sender, recId);\n    }\n\n    function approve(address to,uint256 assetId) public override {\n        address owner = ownerOf(assetId);\n        require(to != owner, \"CurrentOwnerApproval\");\n        require(msg.sender == owner,\"NotTheAssetOwner\");\n        assetApprovals[assetId] = to;\n        emit Approval(owner, to, assetId);\n    }\n\n    function getApproved(uint256 assetId) public view override returns (address) {\n        require(exists(assetId), \"ERC721: approved query for nonexistent token\");\n        return assetApprovals[assetId];\n    }\n    \n\tfunction clearApproval(uint256 assetId,address approved) public {\n        if (assetApprovals[assetId]==approved){\n            assetApprovals[assetId] = address(0);\n        }\n    }\n\n    // Function used internally by other methods\n    function mint(address to, uint256 recId) internal {\n        require(to != address(0), \"ZeroAddressMiniting\");\n        require(!exists(recId), \"AlreadyMinted\");\n        recOwner[recId] = to;\n        ownedAssetsCount[to]++;\n        emit Transfer(address(0), to, recId);\n    }\n\n    function exists(uint256 assetId) internal view returns (bool) {\n        return recOwner[assetId] != address(0);\n    }\n\n    function isApprovedOrOwner(address spender, uint256 assetId) internal view returns (bool) {\n        require(exists(assetId), \"ERC721: operator query for nonexistent token\");\n        address owner = ownerOf(assetId);\n        return (spender == owner || getApproved(assetId) == spender);\n    }\n\n    //REC functions\n    function generateREC(string memory name, uint quantity, uint price, address sellerAddress) public onlyDistributor payable {\n        require(bytes(name).length > 0 && quantity > 0 && price > 0 && sellerAddress!=address(0), \"Invalid input parameters\");\n\n        recs[recCount] =  REC(recCount, name, quantity, price, Status.Available);\n        \n        mint(sellerAddress,recCount);\n        recCount = recCount+1;\n    }\n\n    /*\n    function getCertificatesOfUser() public view onlyRegistered returns (REC[] memory) {\n        return users[msg.sender].certificates;\n    }\n\n    function getAllCertificates() public view onlyRegistered returns (REC[] memory) {\n        uint totalCertificates;\n        for (uint i = 0; i < addressList.length; i++) {\n            totalCertificates += users[addressList[i]].certificates.length;\n        }\n\n        REC[] memory allCertificates = new REC[](totalCertificates);\n        uint currentIndex = 0;\n        for (uint i = 0; i < addressList.length; i++) {\n            REC[] memory userCertificates = users[addressList[i]].certificates;\n            for (uint j = 0; j < userCertificates.length; j++) {\n                allCertificates[currentIndex] = userCertificates[j];\n                currentIndex++;\n            }\n        }\n\n        return allCertificates;\n    }\n\n    function getCertificate(string memory id) public view onlyRegistered returns (string memory, string memory, uint, uint, address, Status) {\n        REC memory rec = recs[id];\n        return (id, rec.name, rec.quantity, rec.price, rec.status);\n    }\n    */\n\n    function verifyREC(uint id) public view onlyRegistered returns (bool) {\n        require(id>=0, \"Invalid input parameter\");\n\n        REC storage rec = recs[id];\n        require(id<recCount, \"REC not found\");\n\n        User storage user = users[msg.sender];\n        require(user.balance >= rec.price, \"Insufficient balance\");\n        return true;\n    }\n\n    /*\n    function buyREC(uint id) public onlyRegistered payable {\n        REC storage rec = recs[id];\n        require(id>=0 && id<recCount, \"REC not found\");\n        require(rec.status == Status.Available, \"REC not available for purchase\");\n\n        User storage buyer = users[msg.sender];\n        require(buyer.balance >= rec.price, \"Insufficient balance\");\n\n        User storage seller = users[recOwner[id]];\n        seller.balance += rec.price;\n\n        buyer.balance -= rec.price;\n        buyer.certificates.push(rec);\n        rec.status = Status.Sold;\n        recOwner[id] = msg.sender;\n    }\n\n    function sellREC(uint id, uint price) public onlyRegistered {\n        REC storage rec = recs[id];\n        require(id>=0 && id<recCount, \"REC not found\");\n        require(rec.status == Status.Available, \"Cannot update price for sold REC\");\n        require(recOwner[id] == address(0) || recOwner[id] == msg.sender, \"Only seller can update price\");\n\n        rec.price = price;\n        recOwner[id] = msg.sender;\n        rec.status = Status.Available;\n    }\n    */\n\n    function approveDistributor(address userAddress) public onlyOwner {\n        User storage user = users[userAddress];\n        require(bytes(user.id).length > 0, \"User not found\");\n        require(!user.isRegistered, \"User is already Distributor\");\n\n        user.isDistributor = true;\n        user.isRegistered = true;\n    }\n\n    function approveUser(address userAddress) public onlyDistributor {\n        User storage user = users[userAddress];\n        require(bytes(user.id).length > 0, \"User not found\");\n        require(!user.isRegistered, \"User is already Registered\");\n\n        user.isRegistered = true;\n    }\n\n    function selfRegister(string memory id, string memory name, address userAddress) public {\n        require(bytes(id).length > 0 && bytes(name).length > 0, \"Invalid input parameters\");\n\n        User storage user = users[msg.sender];\n        require(bytes(user.id).length == 0, \"User already registered\");\n\n        user.id = id;\n        user.name = name;\n        user.balance = 0; \n        user.isDistributor = false;\n        addressList.push((userAddress));\n    }\n\n    function topupBalance() public onlyRegistered payable {\n        User storage user = users[msg.sender];\n        require(bytes(user.id).length != 0, \"User not registered\");\n        require(msg.value >= 0, \"Invalid balance\");\n\n        user.balance += msg.value;\n    }\n}",
  "sourcePath": "/Users/sandeepkunusoth/Downloads/blockchain-project/cse526/renewableenergytoken-contract/contracts/RenewableEnergyToken.sol",
  "compiler": {
    "name": "solc",
    "version": "0.8.19+commit.7dd6d404.Emscripten.clang"
  },
  "schemaVersion": "3.4.13",
  "updatedAt": "2023-04-30T04:32:54.432Z",
  "networkType": "ethereum",
  "devdoc": {
    "events": {
      "Approval(address,address,uint256)": {
        "details": "Emitted when `owner` enables `approved` to manage the `tokenId` token."
      },
      "ApprovalForAll(address,address,bool)": {
        "details": "Emitted when `owner` enables or disables (`approved`) `operator` to manage all of its assets."
      },
      "Transfer(address,address,uint256)": {
        "details": "Emitted when `tokenId` token is transferred from `from` to `to`."
      }
    },
    "kind": "dev",
    "methods": {
      "balanceOf(address)": {
        "details": "See {IERC721-balanceOf}."
      },
      "isApprovedForAll(address,address)": {
        "details": "See {IERC721-isApprovedForAll}."
      },
      "name()": {
        "details": "See {IERC721Metadata-name}."
      },
      "safeTransferFrom(address,address,uint256)": {
        "details": "See {IERC721-safeTransferFrom}."
      },
      "safeTransferFrom(address,address,uint256,bytes)": {
        "details": "See {IERC721-safeTransferFrom}."
      },
      "setApprovalForAll(address,bool)": {
        "details": "See {IERC721-setApprovalForAll}."
      },
      "supportsInterface(bytes4)": {
        "details": "See {IERC165-supportsInterface}."
      },
      "symbol()": {
        "details": "See {IERC721Metadata-symbol}."
      },
      "tokenURI(uint256)": {
        "details": "See {IERC721Metadata-tokenURI}."
      },
      "transferFrom(address,address,uint256)": {
        "details": "See {IERC721-transferFrom}."
      }
    },
    "version": 1
  },
  "userdoc": {
    "kind": "user",
    "methods": {},
    "version": 1
  }
}