{
  "contractName": "RenewableEnergyToken",
  "abi": [
    {
      "inputs": [],
      "stateMutability": "nonpayable",
      "type": "constructor"
    },
    {
      "anonymous": false,
      "inputs": [
        {
          "indexed": true,
          "internalType": "address",
          "name": "owner",
          "type": "address"
        },
        {
          "indexed": true,
          "internalType": "address",
          "name": "approved",
          "type": "address"
        },
        {
          "indexed": true,
          "internalType": "uint256",
          "name": "tokenId",
          "type": "uint256"
        }
      ],
      "name": "Approval",
      "type": "event"
    },
    {
      "anonymous": false,
      "inputs": [
        {
          "indexed": true,
          "internalType": "address",
          "name": "owner",
          "type": "address"
        },
        {
          "indexed": true,
          "internalType": "address",
          "name": "operator",
          "type": "address"
        },
        {
          "indexed": false,
          "internalType": "bool",
          "name": "approved",
          "type": "bool"
        }
      ],
      "name": "ApprovalForAll",
      "type": "event"
    },
    {
      "anonymous": false,
      "inputs": [
        {
          "indexed": true,
          "internalType": "address",
          "name": "from",
          "type": "address"
        },
        {
          "indexed": true,
          "internalType": "address",
          "name": "to",
          "type": "address"
        },
        {
          "indexed": true,
          "internalType": "uint256",
          "name": "tokenId",
          "type": "uint256"
        }
      ],
      "name": "Transfer",
      "type": "event"
    },
    {
      "inputs": [
        {
          "internalType": "address",
          "name": "to",
          "type": "address"
        },
        {
          "internalType": "uint256",
          "name": "tokenId",
          "type": "uint256"
        }
      ],
      "name": "approve",
      "outputs": [],
      "stateMutability": "nonpayable",
      "type": "function"
    },
    {
      "inputs": [
        {
          "internalType": "uint256",
          "name": "",
          "type": "uint256"
        }
      ],
      "name": "assetApprovals",
      "outputs": [
        {
          "internalType": "address",
          "name": "",
          "type": "address"
        }
      ],
      "stateMutability": "view",
      "type": "function",
      "constant": true
    },
    {
      "inputs": [
        {
          "internalType": "address",
          "name": "owner",
          "type": "address"
        }
      ],
      "name": "balanceOf",
      "outputs": [
        {
          "internalType": "uint256",
          "name": "",
          "type": "uint256"
        }
      ],
      "stateMutability": "view",
      "type": "function",
      "constant": true
    },
    {
      "inputs": [
        {
          "internalType": "uint256",
          "name": "tokenId",
          "type": "uint256"
        }
      ],
      "name": "getApproved",
      "outputs": [
        {
          "internalType": "address",
          "name": "",
          "type": "address"
        }
      ],
      "stateMutability": "view",
      "type": "function",
      "constant": true
    },
    {
      "inputs": [
        {
          "internalType": "address",
          "name": "owner",
          "type": "address"
        },
        {
          "internalType": "address",
          "name": "operator",
          "type": "address"
        }
      ],
      "name": "isApprovedForAll",
      "outputs": [
        {
          "internalType": "bool",
          "name": "",
          "type": "bool"
        }
      ],
      "stateMutability": "view",
      "type": "function",
      "constant": true
    },
    {
      "inputs": [],
      "name": "name",
      "outputs": [
        {
          "internalType": "string",
          "name": "",
          "type": "string"
        }
      ],
      "stateMutability": "view",
      "type": "function",
      "constant": true
    },
    {
      "inputs": [
        {
          "internalType": "uint256",
          "name": "tokenId",
          "type": "uint256"
        }
      ],
      "name": "ownerOf",
      "outputs": [
        {
          "internalType": "address",
          "name": "",
          "type": "address"
        }
      ],
      "stateMutability": "view",
      "type": "function",
      "constant": true
    },
    {
      "inputs": [],
      "name": "recCount",
      "outputs": [
        {
          "internalType": "uint256",
          "name": "",
          "type": "uint256"
        }
      ],
      "stateMutability": "view",
      "type": "function",
      "constant": true
    },
    {
      "inputs": [
        {
          "internalType": "address",
          "name": "from",
          "type": "address"
        },
        {
          "internalType": "address",
          "name": "to",
          "type": "address"
        },
        {
          "internalType": "uint256",
          "name": "tokenId",
          "type": "uint256"
        }
      ],
      "name": "safeTransferFrom",
      "outputs": [],
      "stateMutability": "nonpayable",
      "type": "function"
    },
    {
      "inputs": [
        {
          "internalType": "address",
          "name": "from",
          "type": "address"
        },
        {
          "internalType": "address",
          "name": "to",
          "type": "address"
        },
        {
          "internalType": "uint256",
          "name": "tokenId",
          "type": "uint256"
        },
        {
          "internalType": "bytes",
          "name": "data",
          "type": "bytes"
        }
      ],
      "name": "safeTransferFrom",
      "outputs": [],
      "stateMutability": "nonpayable",
      "type": "function"
    },
    {
      "inputs": [
        {
          "internalType": "address",
          "name": "operator",
          "type": "address"
        },
        {
          "internalType": "bool",
          "name": "approved",
          "type": "bool"
        }
      ],
      "name": "setApprovalForAll",
      "outputs": [],
      "stateMutability": "nonpayable",
      "type": "function"
    },
    {
      "inputs": [
        {
          "internalType": "bytes4",
          "name": "interfaceId",
          "type": "bytes4"
        }
      ],
      "name": "supportsInterface",
      "outputs": [
        {
          "internalType": "bool",
          "name": "",
          "type": "bool"
        }
      ],
      "stateMutability": "view",
      "type": "function",
      "constant": true
    },
    {
      "inputs": [],
      "name": "symbol",
      "outputs": [
        {
          "internalType": "string",
          "name": "",
          "type": "string"
        }
      ],
      "stateMutability": "view",
      "type": "function",
      "constant": true
    },
    {
      "inputs": [
        {
          "internalType": "uint256",
          "name": "tokenId",
          "type": "uint256"
        }
      ],
      "name": "tokenURI",
      "outputs": [
        {
          "internalType": "string",
          "name": "",
          "type": "string"
        }
      ],
      "stateMutability": "view",
      "type": "function",
      "constant": true
    },
    {
      "inputs": [
        {
          "internalType": "address",
          "name": "user",
          "type": "address"
        }
      ],
      "name": "getUserRole",
      "outputs": [
        {
          "internalType": "string",
          "name": "",
          "type": "string"
        }
      ],
      "stateMutability": "view",
      "type": "function",
      "constant": true
    },
    {
      "inputs": [
        {
          "internalType": "address payable",
          "name": "from",
          "type": "address"
        },
        {
          "internalType": "uint256",
          "name": "recId",
          "type": "uint256"
        }
      ],
      "name": "transferFrom",
      "outputs": [],
      "stateMutability": "payable",
      "type": "function",
      "payable": true
    },
    {
      "inputs": [
        {
          "internalType": "address",
          "name": "from",
          "type": "address"
        },
        {
          "internalType": "address",
          "name": "to",
          "type": "address"
        },
        {
          "internalType": "uint256",
          "name": "tokenId",
          "type": "uint256"
        }
      ],
      "name": "transferFrom",
      "outputs": [],
      "stateMutability": "nonpayable",
      "type": "function"
    },
    {
      "inputs": [
        {
          "internalType": "uint256",
          "name": "assetId",
          "type": "uint256"
        },
        {
          "internalType": "address",
          "name": "approved",
          "type": "address"
        }
      ],
      "name": "clearApproval",
      "outputs": [],
      "stateMutability": "nonpayable",
      "type": "function"
    },
    {
      "inputs": [
        {
          "internalType": "string",
          "name": "name",
          "type": "string"
        },
        {
          "internalType": "uint256",
          "name": "quantity",
          "type": "uint256"
        },
        {
          "internalType": "uint256",
          "name": "price",
          "type": "uint256"
        },
        {
          "internalType": "address",
          "name": "sellerAddress",
          "type": "address"
        }
      ],
      "name": "generateREC",
      "outputs": [],
      "stateMutability": "payable",
      "type": "function",
      "payable": true
    },
    {
      "inputs": [
        {
          "internalType": "uint256",
          "name": "id",
          "type": "uint256"
        }
      ],
      "name": "verifyREC",
      "outputs": [
        {
          "internalType": "bool",
          "name": "",
          "type": "bool"
        }
      ],
      "stateMutability": "view",
      "type": "function",
      "constant": true
    },
    {
      "inputs": [
        {
          "internalType": "uint256",
          "name": "id",
          "type": "uint256"
        }
      ],
      "name": "buyREC",
      "outputs": [],
      "stateMutability": "payable",
      "type": "function",
      "payable": true
    },
    {
      "inputs": [
        {
          "internalType": "uint256",
          "name": "id",
          "type": "uint256"
        },
        {
          "internalType": "uint256",
          "name": "price",
          "type": "uint256"
        }
      ],
      "name": "sellREC",
      "outputs": [],
      "stateMutability": "nonpayable",
      "type": "function"
    },
    {
      "inputs": [
        {
          "internalType": "address",
          "name": "userAddress",
          "type": "address"
        }
      ],
      "name": "approveDistributor",
      "outputs": [],
      "stateMutability": "nonpayable",
      "type": "function"
    },
    {
      "inputs": [
        {
          "internalType": "address",
          "name": "userAddress",
          "type": "address"
        }
      ],
      "name": "approveUser",
      "outputs": [],
      "stateMutability": "nonpayable",
      "type": "function"
    },
    {
      "inputs": [
        {
          "internalType": "string",
          "name": "id",
          "type": "string"
        },
        {
          "internalType": "string",
          "name": "name",
          "type": "string"
        },
        {
          "internalType": "address",
          "name": "userAddress",
          "type": "address"
        }
      ],
      "name": "selfRegister",
      "outputs": [],
      "stateMutability": "nonpayable",
      "type": "function"
    },
    {
      "inputs": [],
      "name": "topupBalance",
      "outputs": [],
      "stateMutability": "payable",
      "type": "function",
      "payable": true
    }
  ],
  "bytecode": "0x60806040523480156200001157600080fd5b506040518060400160405280601481526020017f52656e657761626c65456e65726779546f6b656e0000000000000000000000008152506040518060400160405280600381526020017f524554000000000000000000000000000000000000000000000000000000000081525081600090816200008f919062000365565b508060019081620000a1919062000365565b50505033600660006101000a81548173ffffffffffffffffffffffffffffffffffffffff021916908373ffffffffffffffffffffffffffffffffffffffff1602179055506200044c565b600081519050919050565b7f4e487b7100000000000000000000000000000000000000000000000000000000600052604160045260246000fd5b7f4e487b7100000000000000000000000000000000000000000000000000000000600052602260045260246000fd5b600060028204905060018216806200016d57607f821691505b60208210810362000183576200018262000125565b5b50919050565b60008190508160005260206000209050919050565b60006020601f8301049050919050565b600082821b905092915050565b600060088302620001ed7fffffffffffffffffffffffffffffffffffffffffffffffffffffffffffffffff82620001ae565b620001f98683620001ae565b95508019841693508086168417925050509392505050565b6000819050919050565b6000819050919050565b600062000246620002406200023a8462000211565b6200021b565b62000211565b9050919050565b6000819050919050565b620002628362000225565b6200027a62000271826200024d565b848454620001bb565b825550505050565b600090565b6200029162000282565b6200029e81848462000257565b505050565b5b81811015620002c657620002ba60008262000287565b600181019050620002a4565b5050565b601f8211156200031557620002df8162000189565b620002ea846200019e565b81016020851015620002fa578190505b6200031262000309856200019e565b830182620002a3565b50505b505050565b600082821c905092915050565b60006200033a600019846008026200031a565b1980831691505092915050565b600062000355838362000327565b9150826002028217905092915050565b6200037082620000eb565b67ffffffffffffffff8111156200038c576200038b620000f6565b5b62000398825462000154565b620003a5828285620002ca565b600060209050601f831160018114620003dd5760008415620003c8578287015190505b620003d4858262000347565b86555062000444565b601f198416620003ed8662000189565b60005b828110156200041757848901518255600182019150602085019450602081019050620003f0565b8683101562000437578489015162000433601f89168262000327565b8355505b6001600288020188555050505b505050505050565b614f9c806200045c6000396000f3fe6080604052600436106101815760003560e01c80636352211e116100d1578063b88d4fde1161008a578063daa5fe2d11610064578063daa5fe2d14610579578063e985e9c5146105a2578063f929a6a6146105df578063fc4d1ce61461060857610181565b8063b88d4fde146104ea578063c87b56dd14610513578063d624fdb61461055057610181565b80636352211e146103b657806370a08231146103f357806371e069251461043057806395084a411461046d57806395d89b4114610496578063a22cb465146104c157610181565b80631630ed461161013e57806334b1da131161011857806334b1da131461032f57806342842e0e1461035a578063467ee32114610383578063482aede51461038d57610181565b80631630ed46146102ad57806323b872dd146102c957806327820851146102f257610181565b806301c6adc31461018657806301ffc9a7146101a257806303385770146101df57806306fdde031461021c578063081812fc14610247578063095ea7b314610284575b600080fd5b6101a0600480360381019061019b91906132e2565b610624565b005b3480156101ae57600080fd5b506101c960048036038101906101c4919061337a565b6108c0565b6040516101d691906133c2565b60405180910390f35b3480156101eb57600080fd5b50610206600480360381019061020191906133dd565b6109a2565b604051610213919061342b565b60405180910390f35b34801561022857600080fd5b506102316109d5565b60405161023e91906134d6565b60405180910390f35b34801561025357600080fd5b5061026e600480360381019061026991906133dd565b610a67565b60405161027b919061342b565b60405180910390f35b34801561029057600080fd5b506102ab60048036038101906102a69190613524565b610aad565b005b6102c760048036038101906102c29190613699565b610bc4565b005b3480156102d557600080fd5b506102f060048036038101906102eb919061371c565b610e1f565b005b3480156102fe57600080fd5b506103196004803603810190610314919061376f565b610e7f565b60405161032691906134d6565b60405180910390f35b34801561033b57600080fd5b50610344611075565b60405161035191906137ab565b60405180910390f35b34801561036657600080fd5b50610381600480360381019061037c919061371c565b61107b565b005b61038b61109b565b005b34801561039957600080fd5b506103b460048036038101906103af919061376f565b611222565b005b3480156103c257600080fd5b506103dd60048036038101906103d891906133dd565b6113d8565b6040516103ea919061342b565b60405180910390f35b3480156103ff57600080fd5b5061041a6004803603810190610415919061376f565b61145e565b60405161042791906137ab565b60405180910390f35b34801561043c57600080fd5b50610457600480360381019061045291906133dd565b611515565b60405161046491906133c2565b60405180910390f35b34801561047957600080fd5b50610494600480360381019061048f91906137c6565b6116de565b005b3480156104a257600080fd5b506104ab611879565b6040516104b891906134d6565b60405180910390f35b3480156104cd57600080fd5b506104e860048036038101906104e3919061387d565b61190b565b005b3480156104f657600080fd5b50610511600480360381019061050c919061395e565b611921565b005b34801561051f57600080fd5b5061053a600480360381019061053591906133dd565b611983565b60405161054791906134d6565b60405180910390f35b34801561055c57600080fd5b506105776004803603810190610572919061376f565b6119eb565b005b34801561058557600080fd5b506105a0600480360381019061059b91906139e1565b611bdb565b005b3480156105ae57600080fd5b506105c960048036038101906105c49190613a21565b611c99565b6040516105d691906133c2565b60405180910390f35b3480156105eb57600080fd5b5061060660048036038101906106019190613a61565b611d2d565b005b610622600480360381019061061d91906133dd565b612034565b005b61062e338261240a565b61066d576040517f08c379a000000000000000000000000000000000000000000000000000000000815260040161066490613aed565b60405180910390fd5b8173ffffffffffffffffffffffffffffffffffffffff1661068d826113d8565b73ffffffffffffffffffffffffffffffffffffffff16146106e3576040517f08c379a00000000000000000000000000000000000000000000000000000000081526004016106da90613b59565b60405180910390fd5b6106f5816106f083610a67565b611bdb565b600a60008373ffffffffffffffffffffffffffffffffffffffff1673ffffffffffffffffffffffffffffffffffffffff168152602001908152602001600020600081548092919061074590613ba8565b9190505550600a60003373ffffffffffffffffffffffffffffffffffffffff1673ffffffffffffffffffffffffffffffffffffffff168152602001908152602001600020600081548092919061079a90613bd1565b9190505550336009600083815260200190815260200160002060006101000a81548173ffffffffffffffffffffffffffffffffffffffff021916908373ffffffffffffffffffffffffffffffffffffffff1602179055508173ffffffffffffffffffffffffffffffffffffffff166108fc670de0b6b3a764000060086000858152602001908152602001600020600301546108359190613c19565b9081150290604051600060405180830381858888f19350505050158015610860573d6000803e3d6000fd5b50803373ffffffffffffffffffffffffffffffffffffffff168373ffffffffffffffffffffffffffffffffffffffff167fddf252ad1be2c89b69c2b068fc378daa952ba7f163c4a11628f55a4df523b3ef60405160405180910390a45050565b60007f80ac58cd000000000000000000000000000000000000000000000000000000007bffffffffffffffffffffffffffffffffffffffffffffffffffffffff1916827bffffffffffffffffffffffffffffffffffffffffffffffffffffffff1916148061098b57507f5b5e139f000000000000000000000000000000000000000000000000000000007bffffffffffffffffffffffffffffffffffffffffffffffffffffffff1916827bffffffffffffffffffffffffffffffffffffffffffffffffffffffff1916145b8061099b575061099a826124d7565b5b9050919050565b600b6020528060005260406000206000915054906101000a900473ffffffffffffffffffffffffffffffffffffffff1681565b6060600080546109e490613c8a565b80601f0160208091040260200160405190810160405280929190818152602001828054610a1090613c8a565b8015610a5d5780601f10610a3257610100808354040283529160200191610a5d565b820191906000526020600020905b815481529060010190602001808311610a4057829003601f168201915b5050505050905090565b6000610a7282612541565b6004600083815260200190815260200160002060009054906101000a900473ffffffffffffffffffffffffffffffffffffffff169050919050565b6000610ab8826113d8565b90508073ffffffffffffffffffffffffffffffffffffffff168373ffffffffffffffffffffffffffffffffffffffff1603610b28576040517f08c379a0000000000000000000000000000000000000000000000000000000008152600401610b1f90613d2d565b60405180910390fd5b8073ffffffffffffffffffffffffffffffffffffffff16610b4761258c565b73ffffffffffffffffffffffffffffffffffffffff161480610b765750610b7581610b7061258c565b611c99565b5b610bb5576040517f08c379a0000000000000000000000000000000000000000000000000000000008152600401610bac90613dbf565b60405180910390fd5b610bbf8383612594565b505050565b600660009054906101000a900473ffffffffffffffffffffffffffffffffffffffff1673ffffffffffffffffffffffffffffffffffffffff163373ffffffffffffffffffffffffffffffffffffffff161480610c6c5750600d60003373ffffffffffffffffffffffffffffffffffffffff1673ffffffffffffffffffffffffffffffffffffffff16815260200190815260200160002060040160009054906101000a900460ff165b610cab576040517f08c379a0000000000000000000000000000000000000000000000000000000008152600401610ca290613e2b565b60405180910390fd5b60008451118015610cbc5750600083115b8015610cc85750600082115b8015610d015750600073ffffffffffffffffffffffffffffffffffffffff168173ffffffffffffffffffffffffffffffffffffffff1614155b610d40576040517f08c379a0000000000000000000000000000000000000000000000000000000008152600401610d3790613e97565b60405180910390fd5b6040518060a00160405280600754815260200185815260200184815260200183815260200160006001811115610d7957610d78613eb7565b5b815250600860006007548152602001908152602001600020600082015181600001556020820151816001019081610db09190614092565b50604082015181600201556060820151816003015560808201518160040160006101000a81548160ff02191690836001811115610df057610def613eb7565b5b0217905550905050610e048160075461264d565b6001600754610e139190614164565b60078190555050505050565b610e30610e2a61258c565b8261280c565b610e6f576040517f08c379a0000000000000000000000000000000000000000000000000000000008152600401610e669061420a565b60405180910390fd5b610e7a8383836128a1565b505050565b6060600660009054906101000a900473ffffffffffffffffffffffffffffffffffffffff1673ffffffffffffffffffffffffffffffffffffffff168273ffffffffffffffffffffffffffffffffffffffff1603610f13576040518060400160405280600581526020017f6f776e65720000000000000000000000000000000000000000000000000000008152509050611070565b600d60008373ffffffffffffffffffffffffffffffffffffffff1673ffffffffffffffffffffffffffffffffffffffff16815260200190815260200160002060040160009054906101000a900460ff1615610fa5576040518060400160405280600b81526020017f6469737472696275746f720000000000000000000000000000000000000000008152509050611070565b600d60008373ffffffffffffffffffffffffffffffffffffffff1673ffffffffffffffffffffffffffffffffffffffff16815260200190815260200160002060040160019054906101000a900460ff1615611037576040518060400160405280600a81526020017f72656769737465726564000000000000000000000000000000000000000000008152509050611070565b6040518060400160405280600481526020017f6e6f6e650000000000000000000000000000000000000000000000000000000081525090505b919050565b60075481565b61109683838360405180602001604052806000815250611921565b505050565b600d60003373ffffffffffffffffffffffffffffffffffffffff1673ffffffffffffffffffffffffffffffffffffffff16815260200190815260200160002060040160019054906101000a900460ff1661112a576040517f08c379a00000000000000000000000000000000000000000000000000000000081526004016111219061429c565b60405180910390fd5b6000600d60003373ffffffffffffffffffffffffffffffffffffffff1673ffffffffffffffffffffffffffffffffffffffff1681526020019081526020016000209050600081600001805461117e90613c8a565b9050036111c0576040517f08c379a00000000000000000000000000000000000000000000000000000000081526004016111b790614308565b60405180910390fd5b6000341015611204576040517f08c379a00000000000000000000000000000000000000000000000000000000081526004016111fb90614374565b60405180910390fd5b348160020160008282546112189190614164565b9250508190555050565b600660009054906101000a900473ffffffffffffffffffffffffffffffffffffffff1673ffffffffffffffffffffffffffffffffffffffff163373ffffffffffffffffffffffffffffffffffffffff16146112b2576040517f08c379a00000000000000000000000000000000000000000000000000000000081526004016112a9906143e0565b60405180910390fd5b6000600d60008373ffffffffffffffffffffffffffffffffffffffff1673ffffffffffffffffffffffffffffffffffffffff1681526020019081526020016000209050600081600001805461130690613c8a565b905011611348576040517f08c379a000000000000000000000000000000000000000000000000000000000815260040161133f9061444c565b60405180910390fd5b8060040160019054906101000a900460ff161561139a576040517f08c379a0000000000000000000000000000000000000000000000000000000008152600401611391906144b8565b60405180910390fd5b60018160040160006101000a81548160ff02191690831515021790555060018160040160016101000a81548160ff0219169083151502179055505050565b6000806113e483612b9a565b9050600073ffffffffffffffffffffffffffffffffffffffff168173ffffffffffffffffffffffffffffffffffffffff1603611455576040517f08c379a000000000000000000000000000000000000000000000000000000000815260040161144c90614524565b60405180910390fd5b80915050919050565b60008073ffffffffffffffffffffffffffffffffffffffff168273ffffffffffffffffffffffffffffffffffffffff16036114ce576040517f08c379a00000000000000000000000000000000000000000000000000000000081526004016114c5906145b6565b60405180910390fd5b600360008373ffffffffffffffffffffffffffffffffffffffff1673ffffffffffffffffffffffffffffffffffffffff168152602001908152602001600020549050919050565b6000600d60003373ffffffffffffffffffffffffffffffffffffffff1673ffffffffffffffffffffffffffffffffffffffff16815260200190815260200160002060040160019054906101000a900460ff166115a6576040517f08c379a000000000000000000000000000000000000000000000000000000000815260040161159d9061429c565b60405180910390fd5b60008210156115ea576040517f08c379a00000000000000000000000000000000000000000000000000000000081526004016115e190614622565b60405180910390fd5b60006008600084815260200190815260200160002090506007548310611645576040517f08c379a000000000000000000000000000000000000000000000000000000000815260040161163c9061468e565b60405180910390fd5b6000600d60003373ffffffffffffffffffffffffffffffffffffffff1673ffffffffffffffffffffffffffffffffffffffff16815260200190815260200160002090508160030154816002015410156116d3576040517f08c379a00000000000000000000000000000000000000000000000000000000081526004016116ca906146fa565b60405180910390fd5b600192505050919050565b600083511180156116f0575060008251115b61172f576040517f08c379a000000000000000000000000000000000000000000000000000000000815260040161172690613e97565b60405180910390fd5b6000600d60003373ffffffffffffffffffffffffffffffffffffffff1673ffffffffffffffffffffffffffffffffffffffff1681526020019081526020016000209050600081600001805461178390613c8a565b9050146117c5576040517f08c379a00000000000000000000000000000000000000000000000000000000081526004016117bc90614766565b60405180910390fd5b838160000190816117d69190614092565b50828160010190816117e89190614092565b506000816002018190555060008160040160006101000a81548160ff021916908315150217905550600c829080600181540180825580915050600190039060005260206000200160009091909190916101000a81548173ffffffffffffffffffffffffffffffffffffffff021916908373ffffffffffffffffffffffffffffffffffffffff16021790555050505050565b60606001805461188890613c8a565b80601f01602080910402602001604051908101604052809291908181526020018280546118b490613c8a565b80156119015780601f106118d657610100808354040283529160200191611901565b820191906000526020600020905b8154815290600101906020018083116118e457829003601f168201915b5050505050905090565b61191d61191661258c565b8383612bd7565b5050565b61193261192c61258c565b8361280c565b611971576040517f08c379a00000000000000000000000000000000000000000000000000000000081526004016119689061420a565b60405180910390fd5b61197d84848484612d43565b50505050565b606061198e82612541565b6000611998612d9f565b905060008151116119b857604051806020016040528060008152506119e3565b806119c284612db6565b6040516020016119d39291906147c2565b6040516020818303038152906040525b915050919050565b600660009054906101000a900473ffffffffffffffffffffffffffffffffffffffff1673ffffffffffffffffffffffffffffffffffffffff163373ffffffffffffffffffffffffffffffffffffffff161480611a935750600d60003373ffffffffffffffffffffffffffffffffffffffff1673ffffffffffffffffffffffffffffffffffffffff16815260200190815260200160002060040160009054906101000a900460ff165b611ad2576040517f08c379a0000000000000000000000000000000000000000000000000000000008152600401611ac990613e2b565b60405180910390fd5b6000600d60008373ffffffffffffffffffffffffffffffffffffffff1673ffffffffffffffffffffffffffffffffffffffff16815260200190815260200160002090506000816000018054611b2690613c8a565b905011611b68576040517f08c379a0000000000000000000000000000000000000000000000000000000008152600401611b5f9061444c565b60405180910390fd5b8060040160019054906101000a900460ff1615611bba576040517f08c379a0000000000000000000000000000000000000000000000000000000008152600401611bb190614832565b60405180910390fd5b60018160040160016101000a81548160ff0219169083151502179055505050565b8073ffffffffffffffffffffffffffffffffffffffff16600b600084815260200190815260200160002060009054906101000a900473ffffffffffffffffffffffffffffffffffffffff1673ffffffffffffffffffffffffffffffffffffffff1603611c95576000600b600084815260200190815260200160002060006101000a81548173ffffffffffffffffffffffffffffffffffffffff021916908373ffffffffffffffffffffffffffffffffffffffff1602179055505b5050565b6000600560008473ffffffffffffffffffffffffffffffffffffffff1673ffffffffffffffffffffffffffffffffffffffff16815260200190815260200160002060008373ffffffffffffffffffffffffffffffffffffffff1673ffffffffffffffffffffffffffffffffffffffff16815260200190815260200160002060009054906101000a900460ff16905092915050565b600d60003373ffffffffffffffffffffffffffffffffffffffff1673ffffffffffffffffffffffffffffffffffffffff16815260200190815260200160002060040160019054906101000a900460ff16611dbc576040517f08c379a0000000000000000000000000000000000000000000000000000000008152600401611db39061429c565b60405180910390fd5b600060086000848152602001908152602001600020905060008310158015611de5575060075483105b611e24576040517f08c379a0000000000000000000000000000000000000000000000000000000008152600401611e1b9061468e565b60405180910390fd5b60006001811115611e3857611e37613eb7565b5b8160040160009054906101000a900460ff166001811115611e5c57611e5b613eb7565b5b14611e9c576040517f08c379a0000000000000000000000000000000000000000000000000000000008152600401611e939061489e565b60405180910390fd5b600073ffffffffffffffffffffffffffffffffffffffff166009600085815260200190815260200160002060009054906101000a900473ffffffffffffffffffffffffffffffffffffffff1673ffffffffffffffffffffffffffffffffffffffff161480611f6857503373ffffffffffffffffffffffffffffffffffffffff166009600085815260200190815260200160002060009054906101000a900473ffffffffffffffffffffffffffffffffffffffff1673ffffffffffffffffffffffffffffffffffffffff16145b611fa7576040517f08c379a0000000000000000000000000000000000000000000000000000000008152600401611f9e9061490a565b60405180910390fd5b818160030181905550336009600085815260200190815260200160002060006101000a81548173ffffffffffffffffffffffffffffffffffffffff021916908373ffffffffffffffffffffffffffffffffffffffff16021790555060008160040160006101000a81548160ff0219169083600181111561202a57612029613eb7565b5b0217905550505050565b600d60003373ffffffffffffffffffffffffffffffffffffffff1673ffffffffffffffffffffffffffffffffffffffff16815260200190815260200160002060040160019054906101000a900460ff166120c3576040517f08c379a00000000000000000000000000000000000000000000000000000000081526004016120ba9061429c565b60405180910390fd5b6000600860008381526020019081526020016000209050600082101580156120ec575060075482105b61212b576040517f08c379a00000000000000000000000000000000000000000000000000000000081526004016121229061468e565b60405180910390fd5b6000600181111561213f5761213e613eb7565b5b8160040160009054906101000a900460ff16600181111561216357612162613eb7565b5b146121a3576040517f08c379a000000000000000000000000000000000000000000000000000000000815260040161219a90614976565b60405180910390fd5b6000600d60003373ffffffffffffffffffffffffffffffffffffffff1673ffffffffffffffffffffffffffffffffffffffff1681526020019081526020016000209050816003015481600201541015612231576040517f08c379a0000000000000000000000000000000000000000000000000000000008152600401612228906146fa565b60405180910390fd5b6000600d60006009600087815260200190815260200160002060009054906101000a900473ffffffffffffffffffffffffffffffffffffffff1673ffffffffffffffffffffffffffffffffffffffff1673ffffffffffffffffffffffffffffffffffffffff168152602001908152602001600020905082600301548160020160008282546122bf9190614164565b9250508190555082600301548260020160008282546122de9190614996565b9250508190555081600301839080600181540180825580915050600190039060005260206000209060050201600090919091909150600082015481600001556001820181600101908161233191906149e0565b5060028201548160020155600382015481600301556004820160009054906101000a900460ff168160040160006101000a81548160ff0219169083600181111561237e5761237d613eb7565b5b0217905550505060018360040160006101000a81548160ff021916908360018111156123ad576123ac613eb7565b5b0217905550336009600086815260200190815260200160002060006101000a81548173ffffffffffffffffffffffffffffffffffffffff021916908373ffffffffffffffffffffffffffffffffffffffff16021790555050505050565b600061241582612e84565b612454576040517f08c379a000000000000000000000000000000000000000000000000000000000815260040161244b90614b3a565b60405180910390fd5b600061245f836113d8565b90508073ffffffffffffffffffffffffffffffffffffffff168473ffffffffffffffffffffffffffffffffffffffff1614806124ce57508373ffffffffffffffffffffffffffffffffffffffff166124b684610a67565b73ffffffffffffffffffffffffffffffffffffffff16145b91505092915050565b60007f01ffc9a7000000000000000000000000000000000000000000000000000000007bffffffffffffffffffffffffffffffffffffffffffffffffffffffff1916827bffffffffffffffffffffffffffffffffffffffffffffffffffffffff1916149050919050565b61254a81612ef0565b612589576040517f08c379a000000000000000000000000000000000000000000000000000000000815260040161258090614524565b60405180910390fd5b50565b600033905090565b816004600083815260200190815260200160002060006101000a81548173ffffffffffffffffffffffffffffffffffffffff021916908373ffffffffffffffffffffffffffffffffffffffff160217905550808273ffffffffffffffffffffffffffffffffffffffff16612607836113d8565b73ffffffffffffffffffffffffffffffffffffffff167f8c5be1e5ebec7d5bd14f71427d1e84f3dd0314c0f7b2291e5b200ac8c7c3b92560405160405180910390a45050565b600073ffffffffffffffffffffffffffffffffffffffff168273ffffffffffffffffffffffffffffffffffffffff16036126bc576040517f08c379a00000000000000000000000000000000000000000000000000000000081526004016126b390614ba6565b60405180910390fd5b6126c581612e84565b15612705576040517f08c379a00000000000000000000000000000000000000000000000000000000081526004016126fc90614c12565b60405180910390fd5b816009600083815260200190815260200160002060006101000a81548173ffffffffffffffffffffffffffffffffffffffff021916908373ffffffffffffffffffffffffffffffffffffffff160217905550600a60008373ffffffffffffffffffffffffffffffffffffffff1673ffffffffffffffffffffffffffffffffffffffff16815260200190815260200160002060008154809291906127a790613bd1565b9190505550808273ffffffffffffffffffffffffffffffffffffffff16600073ffffffffffffffffffffffffffffffffffffffff167fddf252ad1be2c89b69c2b068fc378daa952ba7f163c4a11628f55a4df523b3ef60405160405180910390a45050565b600080612818836113d8565b90508073ffffffffffffffffffffffffffffffffffffffff168473ffffffffffffffffffffffffffffffffffffffff16148061285a57506128598185611c99565b5b8061289857508373ffffffffffffffffffffffffffffffffffffffff1661288084610a67565b73ffffffffffffffffffffffffffffffffffffffff16145b91505092915050565b8273ffffffffffffffffffffffffffffffffffffffff166128c1826113d8565b73ffffffffffffffffffffffffffffffffffffffff1614612917576040517f08c379a000000000000000000000000000000000000000000000000000000000815260040161290e90614ca4565b60405180910390fd5b600073ffffffffffffffffffffffffffffffffffffffff168273ffffffffffffffffffffffffffffffffffffffff1603612986576040517f08c379a000000000000000000000000000000000000000000000000000000000815260040161297d90614d36565b60405180910390fd5b6129938383836001612f31565b8273ffffffffffffffffffffffffffffffffffffffff166129b3826113d8565b73ffffffffffffffffffffffffffffffffffffffff1614612a09576040517f08c379a0000000000000000000000000000000000000000000000000000000008152600401612a0090614ca4565b60405180910390fd5b6004600082815260200190815260200160002060006101000a81549073ffffffffffffffffffffffffffffffffffffffff02191690556001600360008573ffffffffffffffffffffffffffffffffffffffff1673ffffffffffffffffffffffffffffffffffffffff168152602001908152602001600020600082825403925050819055506001600360008473ffffffffffffffffffffffffffffffffffffffff1673ffffffffffffffffffffffffffffffffffffffff16815260200190815260200160002060008282540192505081905550816002600083815260200190815260200160002060006101000a81548173ffffffffffffffffffffffffffffffffffffffff021916908373ffffffffffffffffffffffffffffffffffffffff160217905550808273ffffffffffffffffffffffffffffffffffffffff168473ffffffffffffffffffffffffffffffffffffffff167fddf252ad1be2c89b69c2b068fc378daa952ba7f163c4a11628f55a4df523b3ef60405160405180910390a4612b958383836001612f37565b505050565b60006002600083815260200190815260200160002060009054906101000a900473ffffffffffffffffffffffffffffffffffffffff169050919050565b8173ffffffffffffffffffffffffffffffffffffffff168373ffffffffffffffffffffffffffffffffffffffff1603612c45576040517f08c379a0000000000000000000000000000000000000000000000000000000008152600401612c3c90614da2565b60405180910390fd5b80600560008573ffffffffffffffffffffffffffffffffffffffff1673ffffffffffffffffffffffffffffffffffffffff16815260200190815260200160002060008473ffffffffffffffffffffffffffffffffffffffff1673ffffffffffffffffffffffffffffffffffffffff16815260200190815260200160002060006101000a81548160ff0219169083151502179055508173ffffffffffffffffffffffffffffffffffffffff168373ffffffffffffffffffffffffffffffffffffffff167f17307eab39ab6107e8899845ad3d59bd9653f200f220920489ca2b5937696c3183604051612d3691906133c2565b60405180910390a3505050565b612d4e8484846128a1565b612d5a84848484612f3d565b612d99576040517f08c379a0000000000000000000000000000000000000000000000000000000008152600401612d9090614e34565b60405180910390fd5b50505050565b606060405180602001604052806000815250905090565b606060006001612dc5846130c4565b01905060008167ffffffffffffffff811115612de457612de361356e565b5b6040519080825280601f01601f191660200182016040528015612e165781602001600182028036833780820191505090505b509050600082602001820190505b600115612e79578080600190039150507f3031323334353637383961626364656600000000000000000000000000000000600a86061a8153600a8581612e6d57612e6c614e54565b5b04945060008503612e24575b819350505050919050565b60008073ffffffffffffffffffffffffffffffffffffffff166009600084815260200190815260200160002060009054906101000a900473ffffffffffffffffffffffffffffffffffffffff1673ffffffffffffffffffffffffffffffffffffffff1614159050919050565b60008073ffffffffffffffffffffffffffffffffffffffff16612f1283612b9a565b73ffffffffffffffffffffffffffffffffffffffff1614159050919050565b50505050565b50505050565b6000612f5e8473ffffffffffffffffffffffffffffffffffffffff16613217565b156130b7578373ffffffffffffffffffffffffffffffffffffffff1663150b7a02612f8761258c565b8786866040518563ffffffff1660e01b8152600401612fa99493929190614ed8565b6020604051808303816000875af1925050508015612fe557506040513d601f19601f82011682018060405250810190612fe29190614f39565b60015b613067573d8060008114613015576040519150601f19603f3d011682016040523d82523d6000602084013e61301a565b606091505b50600081510361305f576040517f08c379a000000000000000000000000000000000000000000000000000000000815260040161305690614e34565b60405180910390fd5b805181602001fd5b63150b7a0260e01b7bffffffffffffffffffffffffffffffffffffffffffffffffffffffff1916817bffffffffffffffffffffffffffffffffffffffffffffffffffffffff1916149150506130bc565b600190505b949350505050565b600080600090507a184f03e93ff9f4daa797ed6e38ed64bf6a1f0100000000000000008310613122577a184f03e93ff9f4daa797ed6e38ed64bf6a1f010000000000000000838161311857613117614e54565b5b0492506040810190505b6d04ee2d6d415b85acef8100000000831061315f576d04ee2d6d415b85acef8100000000838161315557613154614e54565b5b0492506020810190505b662386f26fc10000831061318e57662386f26fc10000838161318457613183614e54565b5b0492506010810190505b6305f5e10083106131b7576305f5e10083816131ad576131ac614e54565b5b0492506008810190505b61271083106131dc5761271083816131d2576131d1614e54565b5b0492506004810190505b606483106131ff57606483816131f5576131f4614e54565b5b0492506002810190505b600a831061320e576001810190505b80915050919050565b6000808273ffffffffffffffffffffffffffffffffffffffff163b119050919050565b6000604051905090565b600080fd5b600080fd5b600073ffffffffffffffffffffffffffffffffffffffff82169050919050565b60006132798261324e565b9050919050565b6132898161326e565b811461329457600080fd5b50565b6000813590506132a681613280565b92915050565b6000819050919050565b6132bf816132ac565b81146132ca57600080fd5b50565b6000813590506132dc816132b6565b92915050565b600080604083850312156132f9576132f8613244565b5b600061330785828601613297565b9250506020613318858286016132cd565b9150509250929050565b60007fffffffff0000000000000000000000000000000000000000000000000000000082169050919050565b61335781613322565b811461336257600080fd5b50565b6000813590506133748161334e565b92915050565b6000602082840312156133905761338f613244565b5b600061339e84828501613365565b91505092915050565b60008115159050919050565b6133bc816133a7565b82525050565b60006020820190506133d760008301846133b3565b92915050565b6000602082840312156133f3576133f2613244565b5b6000613401848285016132cd565b91505092915050565b60006134158261324e565b9050919050565b6134258161340a565b82525050565b6000602082019050613440600083018461341c565b92915050565b600081519050919050565b600082825260208201905092915050565b60005b83811015613480578082015181840152602081019050613465565b60008484015250505050565b6000601f19601f8301169050919050565b60006134a882613446565b6134b28185613451565b93506134c2818560208601613462565b6134cb8161348c565b840191505092915050565b600060208201905081810360008301526134f0818461349d565b905092915050565b6135018161340a565b811461350c57600080fd5b50565b60008135905061351e816134f8565b92915050565b6000806040838503121561353b5761353a613244565b5b60006135498582860161350f565b925050602061355a858286016132cd565b9150509250929050565b600080fd5b600080fd5b7f4e487b7100000000000000000000000000000000000000000000000000000000600052604160045260246000fd5b6135a68261348c565b810181811067ffffffffffffffff821117156135c5576135c461356e565b5b80604052505050565b60006135d861323a565b90506135e4828261359d565b919050565b600067ffffffffffffffff8211156136045761360361356e565b5b61360d8261348c565b9050602081019050919050565b82818337600083830152505050565b600061363c613637846135e9565b6135ce565b90508281526020810184848401111561365857613657613569565b5b61366384828561361a565b509392505050565b600082601f8301126136805761367f613564565b5b8135613690848260208601613629565b91505092915050565b600080600080608085870312156136b3576136b2613244565b5b600085013567ffffffffffffffff8111156136d1576136d0613249565b5b6136dd8782880161366b565b94505060206136ee878288016132cd565b93505060406136ff878288016132cd565b92505060606137108782880161350f565b91505092959194509250565b60008060006060848603121561373557613734613244565b5b60006137438682870161350f565b93505060206137548682870161350f565b9250506040613765868287016132cd565b9150509250925092565b60006020828403121561378557613784613244565b5b60006137938482850161350f565b91505092915050565b6137a5816132ac565b82525050565b60006020820190506137c0600083018461379c565b92915050565b6000806000606084860312156137df576137de613244565b5b600084013567ffffffffffffffff8111156137fd576137fc613249565b5b6138098682870161366b565b935050602084013567ffffffffffffffff81111561382a57613829613249565b5b6138368682870161366b565b92505060406138478682870161350f565b9150509250925092565b61385a816133a7565b811461386557600080fd5b50565b60008135905061387781613851565b92915050565b6000806040838503121561389457613893613244565b5b60006138a28582860161350f565b92505060206138b385828601613868565b9150509250929050565b600067ffffffffffffffff8211156138d8576138d761356e565b5b6138e18261348c565b9050602081019050919050565b60006139016138fc846138bd565b6135ce565b90508281526020810184848401111561391d5761391c613569565b5b61392884828561361a565b509392505050565b600082601f83011261394557613944613564565b5b81356139558482602086016138ee565b91505092915050565b6000806000806080858703121561397857613977613244565b5b60006139868782880161350f565b94505060206139978782880161350f565b93505060406139a8878288016132cd565b925050606085013567ffffffffffffffff8111156139c9576139c8613249565b5b6139d587828801613930565b91505092959194509250565b600080604083850312156139f8576139f7613244565b5b6000613a06858286016132cd565b9250506020613a178582860161350f565b9150509250929050565b60008060408385031215613a3857613a37613244565b5b6000613a468582860161350f565b9250506020613a578582860161350f565b9150509250929050565b60008060408385031215613a7857613a77613244565b5b6000613a86858286016132cd565b9250506020613a97858286016132cd565b9150509250929050565b7f4e6f74416e417070726f7665644f776e65720000000000000000000000000000600082015250565b6000613ad7601283613451565b9150613ae282613aa1565b602082019050919050565b60006020820190508181036000830152613b0681613aca565b9050919050565b7f4e6f7454686561737365744f776e657200000000000000000000000000000000600082015250565b6000613b43601083613451565b9150613b4e82613b0d565b602082019050919050565b60006020820190508181036000830152613b7281613b36565b9050919050565b7f4e487b7100000000000000000000000000000000000000000000000000000000600052601160045260246000fd5b6000613bb3826132ac565b915060008203613bc657613bc5613b79565b5b600182039050919050565b6000613bdc826132ac565b91507fffffffffffffffffffffffffffffffffffffffffffffffffffffffffffffffff8203613c0e57613c0d613b79565b5b600182019050919050565b6000613c24826132ac565b9150613c2f836132ac565b9250828202613c3d816132ac565b91508282048414831517613c5457613c53613b79565b5b5092915050565b7f4e487b7100000000000000000000000000000000000000000000000000000000600052602260045260246000fd5b60006002820490506001821680613ca257607f821691505b602082108103613cb557613cb4613c5b565b5b50919050565b7f4552433732313a20617070726f76616c20746f2063757272656e74206f776e6560008201527f7200000000000000000000000000000000000000000000000000000000000000602082015250565b6000613d17602183613451565b9150613d2282613cbb565b604082019050919050565b60006020820190508181036000830152613d4681613d0a565b9050919050565b7f4552433732313a20617070726f76652063616c6c6572206973206e6f7420746f60008201527f6b656e206f776e6572206f7220617070726f76656420666f7220616c6c000000602082015250565b6000613da9603d83613451565b9150613db482613d4d565b604082019050919050565b60006020820190508181036000830152613dd881613d9c565b9050919050565b7f4f6e6c79206469737472696275746f722063616e2063616c6c20746869730000600082015250565b6000613e15601e83613451565b9150613e2082613ddf565b602082019050919050565b60006020820190508181036000830152613e4481613e08565b9050919050565b7f496e76616c696420696e70757420706172616d65746572730000000000000000600082015250565b6000613e81601883613451565b9150613e8c82613e4b565b602082019050919050565b60006020820190508181036000830152613eb081613e74565b9050919050565b7f4e487b7100000000000000000000000000000000000000000000000000000000600052602160045260246000fd5b60008190508160005260206000209050919050565b60006020601f8301049050919050565b600082821b905092915050565b600060088302613f487fffffffffffffffffffffffffffffffffffffffffffffffffffffffffffffffff82613f0b565b613f528683613f0b565b95508019841693508086168417925050509392505050565b6000819050919050565b6000613f8f613f8a613f85846132ac565b613f6a565b6132ac565b9050919050565b6000819050919050565b613fa983613f74565b613fbd613fb582613f96565b848454613f18565b825550505050565b600090565b613fd2613fc5565b613fdd818484613fa0565b505050565b5b8181101561400157613ff6600082613fca565b600181019050613fe3565b5050565b601f8211156140465761401781613ee6565b61402084613efb565b8101602085101561402f578190505b61404361403b85613efb565b830182613fe2565b50505b505050565b600082821c905092915050565b60006140696000198460080261404b565b1980831691505092915050565b60006140828383614058565b9150826002028217905092915050565b61409b82613446565b67ffffffffffffffff8111156140b4576140b361356e565b5b6140be8254613c8a565b6140c9828285614005565b600060209050601f8311600181146140fc57600084156140ea578287015190505b6140f48582614076565b86555061415c565b601f19841661410a86613ee6565b60005b828110156141325784890151825560018201915060208501945060208101905061410d565b8683101561414f578489015161414b601f891682614058565b8355505b6001600288020188555050505b505050505050565b600061416f826132ac565b915061417a836132ac565b925082820190508082111561419257614191613b79565b5b92915050565b7f4552433732313a2063616c6c6572206973206e6f7420746f6b656e206f776e6560008201527f72206f7220617070726f76656400000000000000000000000000000000000000602082015250565b60006141f4602d83613451565b91506141ff82614198565b604082019050919050565b60006020820190508181036000830152614223816141e7565b9050919050565b7f4f6e6c7920726567697374657265642075736572732063616e2063616c6c207460008201527f6869730000000000000000000000000000000000000000000000000000000000602082015250565b6000614286602383613451565b91506142918261422a565b604082019050919050565b600060208201905081810360008301526142b581614279565b9050919050565b7f55736572206e6f74207265676973746572656400000000000000000000000000600082015250565b60006142f2601383613451565b91506142fd826142bc565b602082019050919050565b60006020820190508181036000830152614321816142e5565b9050919050565b7f496e76616c69642062616c616e63650000000000000000000000000000000000600082015250565b600061435e600f83613451565b915061436982614328565b602082019050919050565b6000602082019050818103600083015261438d81614351565b9050919050565b7f4f6e6c79206f776e65722063616e2063616c6c20746869730000000000000000600082015250565b60006143ca601883613451565b91506143d582614394565b602082019050919050565b600060208201905081810360008301526143f9816143bd565b9050919050565b7f55736572206e6f7420666f756e64000000000000000000000000000000000000600082015250565b6000614436600e83613451565b915061444182614400565b602082019050919050565b6000602082019050818103600083015261446581614429565b9050919050565b7f5573657220697320616c7265616479204469737472696275746f720000000000600082015250565b60006144a2601b83613451565b91506144ad8261446c565b602082019050919050565b600060208201905081810360008301526144d181614495565b9050919050565b7f4552433732313a20696e76616c696420746f6b656e2049440000000000000000600082015250565b600061450e601883613451565b9150614519826144d8565b602082019050919050565b6000602082019050818103600083015261453d81614501565b9050919050565b7f4552433732313a2061646472657373207a65726f206973206e6f74206120766160008201527f6c6964206f776e65720000000000000000000000000000000000000000000000602082015250565b60006145a0602983613451565b91506145ab82614544565b604082019050919050565b600060208201905081810360008301526145cf81614593565b9050919050565b7f496e76616c696420696e70757420706172616d65746572000000000000000000600082015250565b600061460c601783613451565b9150614617826145d6565b602082019050919050565b6000602082019050818103600083015261463b816145ff565b9050919050565b7f524543206e6f7420666f756e6400000000000000000000000000000000000000600082015250565b6000614678600d83613451565b915061468382614642565b602082019050919050565b600060208201905081810360008301526146a78161466b565b9050919050565b7f496e73756666696369656e742062616c616e6365000000000000000000000000600082015250565b60006146e4601483613451565b91506146ef826146ae565b602082019050919050565b60006020820190508181036000830152614713816146d7565b9050919050565b7f5573657220616c72656164792072656769737465726564000000000000000000600082015250565b6000614750601783613451565b915061475b8261471a565b602082019050919050565b6000602082019050818103600083015261477f81614743565b9050919050565b600081905092915050565b600061479c82613446565b6147a68185614786565b93506147b6818560208601613462565b80840191505092915050565b60006147ce8285614791565b91506147da8284614791565b91508190509392505050565b7f5573657220697320616c72656164792052656769737465726564000000000000600082015250565b600061481c601a83613451565b9150614827826147e6565b602082019050919050565b6000602082019050818103600083015261484b8161480f565b9050919050565b7f43616e6e6f742075706461746520707269636520666f7220736f6c6420524543600082015250565b6000614888602083613451565b915061489382614852565b602082019050919050565b600060208201905081810360008301526148b78161487b565b9050919050565b7f4f6e6c792073656c6c65722063616e2075706461746520707269636500000000600082015250565b60006148f4601c83613451565b91506148ff826148be565b602082019050919050565b60006020820190508181036000830152614923816148e7565b9050919050565b7f524543206e6f7420617661696c61626c6520666f722070757263686173650000600082015250565b6000614960601e83613451565b915061496b8261492a565b602082019050919050565b6000602082019050818103600083015261498f81614953565b9050919050565b60006149a1826132ac565b91506149ac836132ac565b92508282039050818111156149c4576149c3613b79565b5b92915050565b6000815490506149d981613c8a565b9050919050565b8181036149ee575050614ac6565b6149f7826149ca565b67ffffffffffffffff811115614a1057614a0f61356e565b5b614a1a8254613c8a565b614a25828285614005565b6000601f831160018114614a545760008415614a42578287015490505b614a4c8582614076565b865550614abf565b601f198416614a6287613ee6565b9650614a6d86613ee6565b60005b82811015614a9557848901548255600182019150600185019450602081019050614a70565b86831015614ab25784890154614aae601f891682614058565b8355505b6001600288020188555050505b5050505050505b565b7f4552433732313a206f70657261746f7220717565727920666f72206e6f6e657860008201527f697374656e7420746f6b656e0000000000000000000000000000000000000000602082015250565b6000614b24602c83613451565b9150614b2f82614ac8565b604082019050919050565b60006020820190508181036000830152614b5381614b17565b9050919050565b7f5a65726f416464726573734d696e6974696e6700000000000000000000000000600082015250565b6000614b90601383613451565b9150614b9b82614b5a565b602082019050919050565b60006020820190508181036000830152614bbf81614b83565b9050919050565b7f416c72656164794d696e74656400000000000000000000000000000000000000600082015250565b6000614bfc600d83613451565b9150614c0782614bc6565b602082019050919050565b60006020820190508181036000830152614c2b81614bef565b9050919050565b7f4552433732313a207472616e736665722066726f6d20696e636f72726563742060008201527f6f776e6572000000000000000000000000000000000000000000000000000000602082015250565b6000614c8e602583613451565b9150614c9982614c32565b604082019050919050565b60006020820190508181036000830152614cbd81614c81565b9050919050565b7f4552433732313a207472616e7366657220746f20746865207a65726f2061646460008201527f7265737300000000000000000000000000000000000000000000000000000000602082015250565b6000614d20602483613451565b9150614d2b82614cc4565b604082019050919050565b60006020820190508181036000830152614d4f81614d13565b9050919050565b7f4552433732313a20617070726f766520746f2063616c6c657200000000000000600082015250565b6000614d8c601983613451565b9150614d9782614d56565b602082019050919050565b60006020820190508181036000830152614dbb81614d7f565b9050919050565b7f4552433732313a207472616e7366657220746f206e6f6e20455243373231526560008201527f63656976657220696d706c656d656e7465720000000000000000000000000000602082015250565b6000614e1e603283613451565b9150614e2982614dc2565b604082019050919050565b60006020820190508181036000830152614e4d81614e11565b9050919050565b7f4e487b7100000000000000000000000000000000000000000000000000000000600052601260045260246000fd5b600081519050919050565b600082825260208201905092915050565b6000614eaa82614e83565b614eb48185614e8e565b9350614ec4818560208601613462565b614ecd8161348c565b840191505092915050565b6000608082019050614eed600083018761341c565b614efa602083018661341c565b614f07604083018561379c565b8181036060830152614f198184614e9f565b905095945050505050565b600081519050614f338161334e565b92915050565b600060208284031215614f4f57614f4e613244565b5b6000614f5d84828501614f24565b9150509291505056fea2646970667358221220efec090c43c5fbb58a82605678e89e977b884fd50c290ae32feb643542a8d0cc64736f6c63430008130033",
  "immutableReferences": {},
  "source": "// SPDX-License-Identifier: UNLICENSED\npragma solidity ^0.8.1;\n\nimport \"@openzeppelin/contracts/token/ERC721/ERC721.sol\";\n\ncontract RenewableEnergyToken is ERC721 {\n    \n    address owner;\n    \n    struct User {\n        string id;\n        string name;\n        uint balance;\n        REC[] certificates;\n        bool isDistributor;\n        bool isRegistered;\n    }\n    \n    struct REC {\n        uint id;\n        string name;\n        uint quantity;\n        uint price;\n        Status status;\n    }\n\n    uint public recCount;\n    mapping(uint => REC) recs;\n    mapping(uint => address) private recOwner;\n    mapping (address => uint256) private ownedAssetsCount;    \n    mapping (uint256 => address) public assetApprovals;\n\n    address[]  addressList;\n    \n    enum Status {Available, Sold}\n    \n    mapping(address => User) users;\n\n    //Events\n    //event Transfer(address indexed from, address indexed to, uint256 indexed tokenId);\n    //event Approval(address indexed owner, address indexed approved, uint256 indexed tokenId);\n\n    constructor() ERC721(\"RenewableEnergyToken\", \"RET\") {\n        owner = msg.sender;\n    }\n\n    modifier onlyOwner() {\n        require(msg.sender == owner, \"Only owner can call this\");\n        _;\n    }\n\n    modifier onlyRegistered() {\n        require(users[msg.sender].isRegistered, \"Only registered users can call this\");\n        _;\n    }\n\n    modifier onlyDistributor() {\n        require(msg.sender == owner || users[msg.sender].isDistributor, \"Only distributor can call this\");\n        _;\n    }\n\n\tfunction getUserRole(address user) public view returns (string memory) {\n\t\tif (user == owner) {\n\t\t\treturn \"owner\";\n\t\t} else if (users[user].isDistributor) {\n\t\t\treturn \"distributor\";\n\t\t} else if (users[user].isRegistered) {\n\t\t\treturn \"registered\";\n\t\t} else {\n\t\t\treturn \"none\";\n\t\t}\n\t}\n\n    //ERC721 methods\n    \n    // function ownerOf(uint256 assetId) public view returns (address) {\n    //     address owner = recOwner[assetId];\n    //     require(owner != address(0), \"NoAssetExists\");\n    //     return owner;\n    // }\n    \n    function transferFrom(address payable from, uint256 recId) public payable {\n        require(isApprovedOrOwner(msg.sender, recId), \"NotAnApprovedOwner\");\n        require(ownerOf(recId) == from, \"NotTheassetOwner\");\n        clearApproval(recId,getApproved(recId));\n        ownedAssetsCount[from]--;\n        ownedAssetsCount[msg.sender]++;\n        recOwner[recId] = msg.sender;\n        from.transfer(recs[recId].price * 1000000000000000000);\n        emit Transfer(from, msg.sender, recId);\n    }\n\n    // function approve(address to,uint256 assetId) public {\n    //     address owner = ownerOf(assetId);\n    //     require(to != owner, \"CurrentOwnerApproval\");\n    //     require(msg.sender == owner,\"NotTheAssetOwner\");\n    //     assetApprovals[assetId] = to;\n    //     emit Approval(owner, to, assetId);\n    // }\n\n    // function getApproved(uint256 assetId) public view returns (address) {\n    //     require(exists(assetId), \"ERC721: approved query for nonexistent token\");\n    //     return assetApprovals[assetId];\n    // }\n    \n\tfunction clearApproval(uint256 assetId,address approved) public {\n        if (assetApprovals[assetId]==approved){\n            assetApprovals[assetId] = address(0);\n        }\n    }\n\n    // Function used internally by other methods\n    function mint(address to, uint256 recId) internal {\n        require(to != address(0), \"ZeroAddressMiniting\");\n        require(!exists(recId), \"AlreadyMinted\");\n        recOwner[recId] = to;\n        ownedAssetsCount[to]++;\n        emit Transfer(address(0), to, recId);\n    }\n\n    function exists(uint256 assetId) internal view returns (bool) {\n        return recOwner[assetId] != address(0);\n    }\n\n    function isApprovedOrOwner(address spender, uint256 assetId) internal view returns (bool) {\n        require(exists(assetId), \"ERC721: operator query for nonexistent token\");\n        address owner = ownerOf(assetId);\n        return (spender == owner || getApproved(assetId) == spender);\n    }\n\n    //REC functions\n    function generateREC(string memory name, uint quantity, uint price, address sellerAddress) public onlyDistributor payable {\n        require(bytes(name).length > 0 && quantity > 0 && price > 0 && sellerAddress!=address(0), \"Invalid input parameters\");\n\n        recs[recCount] =  REC(recCount, name, quantity, price, Status.Available);\n        \n        mint(sellerAddress,recCount);\n        recCount = recCount+1;\n    }\n\n    /*\n    function getCertificatesOfUser() public view onlyRegistered returns (REC[] memory) {\n        return users[msg.sender].certificates;\n    }\n\n    function getAllCertificates() public view onlyRegistered returns (REC[] memory) {\n        uint totalCertificates;\n        for (uint i = 0; i < addressList.length; i++) {\n            totalCertificates += users[addressList[i]].certificates.length;\n        }\n\n        REC[] memory allCertificates = new REC[](totalCertificates);\n        uint currentIndex = 0;\n        for (uint i = 0; i < addressList.length; i++) {\n            REC[] memory userCertificates = users[addressList[i]].certificates;\n            for (uint j = 0; j < userCertificates.length; j++) {\n                allCertificates[currentIndex] = userCertificates[j];\n                currentIndex++;\n            }\n        }\n\n        return allCertificates;\n    }\n\n    function getCertificate(string memory id) public view onlyRegistered returns (string memory, string memory, uint, uint, address, Status) {\n        REC memory rec = recs[id];\n        return (id, rec.name, rec.quantity, rec.price, rec.status);\n    }\n    */\n\n    function verifyREC(uint id) public view onlyRegistered returns (bool) {\n        require(id>=0, \"Invalid input parameter\");\n\n        REC storage rec = recs[id];\n        require(id<recCount, \"REC not found\");\n\n        User storage user = users[msg.sender];\n        require(user.balance >= rec.price, \"Insufficient balance\");\n        return true;\n    }\n\n\n    function buyREC(uint id) public onlyRegistered payable {\n        REC storage rec = recs[id];\n        require(id>=0 && id<recCount, \"REC not found\");\n        require(rec.status == Status.Available, \"REC not available for purchase\");\n\n        User storage buyer = users[msg.sender];\n        require(buyer.balance >= rec.price, \"Insufficient balance\");\n\n        User storage seller = users[recOwner[id]];\n        seller.balance += rec.price;\n\n        buyer.balance -= rec.price;\n        buyer.certificates.push(rec);\n        rec.status = Status.Sold;\n        recOwner[id] = msg.sender;\n    }\n\n    function sellREC(uint id, uint price) public onlyRegistered {\n        REC storage rec = recs[id];\n        require(id>=0 && id<recCount, \"REC not found\");\n        require(rec.status == Status.Available, \"Cannot update price for sold REC\");\n        require(recOwner[id] == address(0) || recOwner[id] == msg.sender, \"Only seller can update price\");\n\n        rec.price = price;\n        recOwner[id] = msg.sender;\n        rec.status = Status.Available;\n    }\n\n    function approveDistributor(address userAddress) public onlyOwner {\n        User storage user = users[userAddress];\n        require(bytes(user.id).length > 0, \"User not found\");\n        require(!user.isRegistered, \"User is already Distributor\");\n\n        user.isDistributor = true;\n        user.isRegistered = true;\n    }\n\n    function approveUser(address userAddress) public onlyDistributor {\n        User storage user = users[userAddress];\n        require(bytes(user.id).length > 0, \"User not found\");\n        require(!user.isRegistered, \"User is already Registered\");\n\n        user.isRegistered = true;\n    }\n\n    function selfRegister(string memory id, string memory name, address userAddress) public {\n        require(bytes(id).length > 0 && bytes(name).length > 0, \"Invalid input parameters\");\n\n        User storage user = users[msg.sender];\n        require(bytes(user.id).length == 0, \"User already registered\");\n\n        user.id = id;\n        user.name = name;\n        user.balance = 0; \n        user.isDistributor = false;\n        addressList.push((userAddress));\n    }\n\n    function topupBalance() public onlyRegistered payable {\n        User storage user = users[msg.sender];\n        require(bytes(user.id).length != 0, \"User not registered\");\n        require(msg.value >= 0, \"Invalid balance\");\n\n        user.balance += msg.value;\n    }\n}",
  "sourcePath": "/Users/sandeepkunusoth/Downloads/blockchain-project/cse526/renewableenergytoken-contract/contracts/RenewableEnergyToken.sol",
  "compiler": {
    "name": "solc",
    "version": "0.8.19+commit.7dd6d404.Emscripten.clang"
  },
  "schemaVersion": "3.4.13",
  "updatedAt": "2023-04-30T00:15:19.272Z",
  "networkType": "ethereum",
  "devdoc": {
    "events": {
      "Approval(address,address,uint256)": {
        "details": "Emitted when `owner` enables `approved` to manage the `tokenId` token."
      },
      "ApprovalForAll(address,address,bool)": {
        "details": "Emitted when `owner` enables or disables (`approved`) `operator` to manage all of its assets."
      },
      "Transfer(address,address,uint256)": {
        "details": "Emitted when `tokenId` token is transferred from `from` to `to`."
      }
    },
    "kind": "dev",
    "methods": {
      "approve(address,uint256)": {
        "details": "See {IERC721-approve}."
      },
      "balanceOf(address)": {
        "details": "See {IERC721-balanceOf}."
      },
      "getApproved(uint256)": {
        "details": "See {IERC721-getApproved}."
      },
      "isApprovedForAll(address,address)": {
        "details": "See {IERC721-isApprovedForAll}."
      },
      "name()": {
        "details": "See {IERC721Metadata-name}."
      },
      "ownerOf(uint256)": {
        "details": "See {IERC721-ownerOf}."
      },
      "safeTransferFrom(address,address,uint256)": {
        "details": "See {IERC721-safeTransferFrom}."
      },
      "safeTransferFrom(address,address,uint256,bytes)": {
        "details": "See {IERC721-safeTransferFrom}."
      },
      "setApprovalForAll(address,bool)": {
        "details": "See {IERC721-setApprovalForAll}."
      },
      "supportsInterface(bytes4)": {
        "details": "See {IERC165-supportsInterface}."
      },
      "symbol()": {
        "details": "See {IERC721Metadata-symbol}."
      },
      "tokenURI(uint256)": {
        "details": "See {IERC721Metadata-tokenURI}."
      },
      "transferFrom(address,address,uint256)": {
        "details": "See {IERC721-transferFrom}."
      }
    },
    "version": 1
  },
  "userdoc": {
    "kind": "user",
    "methods": {},
    "version": 1
  }
}